:020000040000FA
:0600000002011A022D09A5
:03002B0002340498
:03005300022D7FFC
:03005B000226106A
:03006B0002342D2F
:10008300022B5FE5C754F84401F5C779012200004C
:100093000080FB120086B90003020104E479217891
:1000A30008B800028004F709D8FCE479297802B87B
:1000B30000028004F709D8FCE490028178FC7913EC
:1000C3008002F0A3D8FCD9FA781A90014A7A01BACF
:1000D30000028007E493A3F608DAF97A7C7B159093
:1000E300014B78F979078015E493A3AD82AE838A37
:1000F300828B83F0A3AA82AB838D828E83D8E9D9C6
:10010300E77582537583E4740312012C758291752C
:100113008300740012012C75D00075813F7518811E
:10012300751902759F00020096C09FF59FE473D076
:100133009F22D083D082C09FE493C0E0740193C018
:10014300E0740293F59F2201110199010F126404D7
:1001530000AD27011131040102B4830100008A8339
:1001630002B083010000811502F0830100008215B3
:1001730002AC83030000890202E4830100008A15B4
:1001830002AA830100008315FF0000B400002800C9
:100193002800283075A000A000A000A000000800DF
:1001A30008E001F000100010001000100010001013
:1001B3000050005000500010001000D00700000055
:1001C3000000000F0001000500307507001000015A
:1001D3000081FF00000000FFFFFFA10ABF0AA70A7A
:1001E300E30AFF02020208025000A0000000E80335
:1001F30002B483010000A58302B083010000171637
:1002030002A883010000CA0202B08301000018168D
:10021300022A82010000E00202B0830100001916E5
:1002230002C083010000E20202B0830100001A163B
:1002330002F283080000E30202B0830100001B16F0
:1002430002D4830100001C16FF0100FF2002B483C7
:10025300010000A28302B083010000801602E28342
:10026300000000000002AC830300001103170061CB
:1002730011611161116111611161116111611161EB
:1002830011611161116111611119142B14131412ED
:10029300080802B483010000878302B083010000D1
:1002A300C31602BA83010000300702AC83030000C7
:1002B300360702B083010000C41602BC83020000AB
:1002C300380702B083010000C51602BE8302000096
:1002D3004007020202020202020202010D000000B4
:1002E300100102B4830100009C8302B0830100006B
:1002F300061702C483010000410702B08301000016
:10030300071702C683010000A28202B08301000026
:10031300081702E883010000088202B0830100008D
:10032300091702D683010000208202B08301000076
:100333000A1702D283010000CF8202B083010000BA
:100343000B1702D083010000908202B083010000EA
:100353000C1702CE83010000508002B0830100001D
:100363000D1702CC83010000DE8102B0830100007F
:100373000E1702CA830100000F1701E80305771067
:100383000A0AB7150A426574656C6765757365007B
:100393000008566567610008416C7461697200105A
:1003A30044656E65620002416E7461726573000498
:1003B3004269616E63610006436170656C6C610044
:1003C3000A44696F6E6531000A44696F6E653200D5
:1003D3000A457269730002B483010000908302B07E
:1003E30083010000B81710EE80030000050802AE79
:1003F30083010000B91702B083010000C51710BEC6
:1004030081020000100802AE83010000C61702B08B
:1004130083010000CB17101E81020000200802AEEA
:1004230083010000CC1702B083010000D317102E04
:1004330081000000350802AC83030000360802AED9
:1004430083010000D41702B083010000DA17103EC5
:1004530081040000380802AE83010000DB1702B0FC
:1004630083010000E317104E810200003D0802AE35
:1004730083010000E41702B083010000EB17105E54
:1004830081030000440802AE83010000EC1702B0B0
:1004930083010000F417107E810300004D0802AEB3
:1004A30083010000F51702B083010000FC17108ED2
:1004B300810300005D0802AE83010000FD1702B056
:1004C30083010000041810AE810300006D0802AE22
:1004D3008301000005184961A0E1A04006C012B8DD
:1004E300070000080950686F626F7374020A000204
:1004F30001061BFF4C000215915FF9B4AB6547B7CA
:10050300BC1BA4A39BA2BFA600000000C5BB0201A5
:1005130006030276780DFF76060B0C0D0E0F1011F5
:10052300121314641917000037173D171F172517E7
:100533002B173117000000001000110012001300E8
:10054300150000001600170019001A001C001D00FA
:100553001F000000000000002100230025002700E9
:10056300290000002C002E003100340037003A002F
:100573003E000000000000004100450049004E001D
:100583005200000057005C00620068006E007500B6
:100593007B0000000000000083008B0093009C00A0
:1005A300A5000000AF00B900C400D000DC00E900E2
:1005B300F7000000000000000601150126013701C5
:1005C3004A0100005D01720188019F01B801D20157
:1005D300EE010000000000000B022A024B026E0233
:1005E30093020000BA02E40210033F037003A40362
:1005F300DC03000000000000170455049704DD0429
:10060300270500007505C80520067D06E006490795
:10061300B8070000000000002D08AA082D09B90939
:100623004D0A0000EA0A900B400CFA0CC00D910E23
:100633006F0F0000000000005A1053115B12721379
:100643009A140000D41520178018F519801B231D58
:10065300DE1E000000000000B420A622B524E4261C
:1006630034290000A72B402E0031EA330037453AE6
:10067300BC3D00000000000006000207060004085D
:100683000500040803000208020002080100000834
:100693000300020703000408020004080100020823
:1006A300060002070500000705000206050004070F
:1006B30006000407050002070600020701000207FF
:1006C30001000408020004080300020805000208F0
:1006D30006000207060004080500040803000408D6
:1006E30002000408010002080200000806000207D5
:1006F30006000408050004080300020802000208BB
:1007030001000008030002070300040802000408B4
:1007130001000208060002070500000703000406A3
:10072300030004070300040705000407050002078C
:100733000600020701000407010004080100040881
:10074300020004080300020805000208F401F40192
:10075300FA0003007D000500060007003E0001FFCC
:10076300FFFF0001307503020106000000000000D6
:100773000000000000000000000000000000000076
:10078300000000000000FFFF0600800CE8030A04DD
:100793001202B483010000968302B083010000C2F9
:1007A3001B02DE830300006C1502B4830100009377
:1007B3008302B083010000C31B02DE830200006DCD
:1007C3001502B4830100008D8302B083010000C4CD
:1007D3001B02E0830100006E1502AC830300006F6F
:1007E30015104B65792050726573732053746174CF
:1007F300650002B4830100009F8302B083010000FF
:10080300151C02EC83000000711502AC8303000089
:10081300721502AE83010000161C0A416D6F72004F
:1008230002B483010000998302B0830100004E1CCF
:1008330010CE81030000761502AE830100004F1C29
:10084300120135FEBC0312013558BD03120135698F
:10085300BD0312013590BD031201353BBE031201E6
:1008630035CEBE0312013591BF031201358DDF036F
:10087300120135B0DF031201354CE0031201359646
:10088300B503120135A9B503120135DAB503120117
:100893003514B6031201356DB603120135B4B60330
:1008A300120135FCB6031201352BB7031201355A79
:1008B300B70312013591B703120135D8B7031201FB
:1008C30035F1B70312013546B8031201355FB8039A
:1008D300120135ADB803120135E7B803120135B083
:1008E300D802120135B3D902120135ECD902120133
:1008F300350FDA0212013521DA021201355FDA020D
:10090300120135DBDA02120135A3DB02120135C510
:10091300DB021201355CDC02120135AEDC0212018E
:1009230035DFDC02120135ECDC0212013556DD0243
:10093300120135ADDD02120135B0DD02120135E9D8
:10094300DD02120135ECDD02120135F6DD02120182
:10095300354ADE021201358BDE02120135BEDE029C
:10096300120135FBDE02120135FDDF02120135A152
:10097300E0021201350AE10212013548E1021201D7
:1009830035B5AD03120135DDAD031201350AAE03F2
:1009930012013542AE03120135A0AE03120135EC4C
:1009A300AE0312013553AF0312013593AF031201A6
:1009B30035D0AF03120135FEAF03120135A8B003E2
:1009C300120135B2B003120135BFB003120135F283
:1009D300B003120135FEB00312013516B103120143
:1009E3003520B1031201355AE00312013568E003E3
:1009F30012013580E00312013597E00312013577C8
:100A0300CD0112013521CE0112013534CF0112017E
:100A130035B0CF01120135CED0011201350AD10113
:100A2300120135A5D10112013589D20112013555C3
:100A3300D301120135E3D40112013554D50112015A
:100A4300350ED60112013500D70112013540D70109
:100A5300120135F4D70112013526D8011201351CD4
:100A6300DA011201355EDA011201357CDA01120175
:100A730035E2DA01120135B1DB0112013575DC0112
:100A830012013594DE0112013581F1021201356B39
:100A9300F20212013516F30212013567F302120155
:100AA3003517F40212013588F4021201356DF5028F
:100AB300120135A1F5021201359AF602120135D75A
:100AC300F602120135B3F702120135F2F7021201F1
:100AD300350EF802120135C0D20312013544D30397
:100AE3001201356FD30312013589D403120135AED8
:100AF300B103120135C4B103120135E2B10312018E
:100B030035F3B203120135FDB20312013528B403E4
:100B13001201351FB5031201358CB5031201356F70
:100B2300F8021201359FF90212013519FA02120176
:100B33003549FA021201355CFA02120135A6FA02AE
:100B430012013569FC02120135309801120135BCDE
:100B53009801120135209A011201352C9A011201D4
:100B630035679A01120135D69A01120135DF9B01CF
:100B7300120135E89C01120135AF9D011201350CBC
:100B83009F011201352A9F01120135479F0112016E
:100B930035F49F0112013571A00112013599A001AD
:100BA30012013563A30112013568A30112013581D6
:100BB300A501120135CFA5011201353FA60112018E
:100BC300357DA60112013559A70112013519A80176
:100BD30012013565A80112013568A801120135AC6F
:100BE300A801120135F4A80112013533A90112013C
:100BF3003555A90112013589A901120135ECA90165
:100C0300120135738503120135818503120135D431
:100C13008503120135F3850312013538860312016A
:100C2300357C87031201351788031201355B88036E
:100C3300120135858803120135F488031201353A10
:100C43008903120135B18903120135628A03120146
:100C53003564340012013574340012013515350042
:100C63001201357135001201352E36001201354A55
:100C730037001201357C3700120135AB3700120102
:100C830035583900120135CF3B001201353F3E0084
:100C9300120135313F001201352A4000120135316E
:100CA3004200120135254500120135544600120158
:100CB30035584800120135684900120135F74A00DA
:100CC300120135E84B00120135364C00120135A5EF
:100CD3004C00120135C94C001201351A4D001201A6
:100CE30035BB5100120135BC52001201351D5300B2
:100CF3001201354853001201350E5400120135D646
:100D03009C03120135E09C03120135259D0312015A
:100D130035399D03120135C99D03120135029E0326
:100D23001201353D9E03120135669E03120135BA49
:100D33009E03120135CF9E03120135F19E0312016A
:100D430035069F031201351A9F031201352F9F03A6
:100D5300120135699F03120135959F03120135CDA9
:100D63009F031201356DA003120135B0A0031201D8
:100D730035DAA00312013505A10312013582DB0325
:100D830012013557B2021201353AB302120135B5D9
:100D9300B302120135F0B30212013541B50212015B
:100DA30035CFB50212013561B80212013513B9020C
:100DB3001201351FBA0212013592BB02120135EB43
:100DC300BB021201352DA10312013570A1031201DB
:100DD30035F4A103120135CBA4031201354CCE0324
:100DE300120135FECE03120135FACF031201353954
:100DF300D00312013593D0031201358CD6031201AF
:100E030035EFD6031201358CD703120135C1D70351
:100E1300120135F1D7031201352CD8031201354CD9
:100E2300D803120135748A03120135008B031201B2
:100E330035BF8B03120135D78C03120135F18E03B5
:100E4300120135C39B02120135E89B02120135B52D
:100E53009C02120135899D02120135F69D02120191
:100E630035369E02120135D29E0212013506A002CA
:100E7300120135E1A00212013540A102120135CC65
:100E8300A1021201353AA202120135C6A2021201D1
:100E9300350CA3021201357EA30212013510A40200
:100EA300120135B1A402120135D1A4021201351980
:100EB300A50212013562A5021201357EA5021201B7
:100EC30035A4A5021201351EA6021201352CA60275
:100ED300120135BBA60212013524A70212013528DF
:100EE3008F03120135AD8F03120135EF8F0312010A
:100EF30035D39003120135409103120135849103D8
:100F0300120135C89103120135F591031201351D04
:100F13009203120135559203120135939203120184
:100F230035BA92031201353493031201357E9303CC
:100F330012013544BC01120135E3BD011201351B19
:100F4300C0011201356FC0011201359AC0011201AF
:100F53003576C101120135A6C101120135D5C10192
:100F6300120135E8C10112013529C20112013556BA
:100F7300C201120135A4C201120135E0C2011201FE
:100F83003525C30112013572C301120135ECC301CA
:100F93001201352DC60112013517C801120135534F
:100FA300C801120135E2C90112013527CA01120134
:100FB300359ACA01120135EFCA01120135F9CA0186
:100FC30012013524CC0112013543CD0112013554F0
:100FD300CD0112013594BC021201350DBD0212017F
:100FE30035C7C202120135D2C3021201357BC502D5
:100FF30012013509C602120135F783011201357852
:101003008401120135A58401120135EE8401120118
:1010130035EF8501120135338601120135698601E9
:10102300120135E587011201356788011201358206
:101033008801120135F38801120135B089011201CB
:1010430035738A01120135018B01120135B88B0109
:10105300120135CB8B01120135648C01120135FB72
:101063008C01120135228D011201358B8D01120184
:1010730035D58D01120135238E01120135CA8E013A
:10108300120135688F01120135F58F0112013566A2
:101093009001120135AD9001120135059101120144
:1010A30035379101120135F89101120135FB920197
:1010B3001201354493011201356193011201358008
:1010C3009301120135B394011201356A950112019E
:1010D300358F9501120135A495011201351496013E
:1010E300120135559601120135799701120135FA2E
:1010F300970112013533C6021201357EC602120171
:10110300358AC6021201355EC70212013575C70260
:10111300120135B2C702120135E3C7021201351BB2
:10112300C80212013571C80212013587C8021201C3
:1011330035C3C802120135D6C802120135FDC802F3
:1011430012013531C90212013557CA02120135A104
:10115300CB021201359DCC02120135B3CD0212012F
:10116300355934001201352EED011201355DED01C3
:10117300120135AFF00112013506F201120135C536
:10118300F2011201352CF60112013518F701120193
:10119300356AF70112013584F701120135B6F701FB
:1011A300120135C1F701120135CAF7011201357C6D
:1011B300F8011201354CF90112013593F9011201BD
:1011C30035F9F9011201356BFA01120135C4AA018F
:1011D30012013504AE011201350AAE01120135C9FF
:1011E300B401120135EEB8011201354FB9031201F2
:1011F30035E5B903120135FBB90312013554BA03BE
:1012030012013598BA03120135D2BA031201356AB5
:10121300BB03120135D9BB03120135E2BB03120133
:1012230035EEBB0312013508BC0312013532BC0392
:1012330012013547BC03120135A9BC03120135D095
:10124300BC03120135BAFB01120135C7FB011201C0
:1012530035E1FB0112013514FC0112013552FC0189
:10126300120135B7FC01120135CCFC01120135D74F
:10127300FC01120135E4FC01120135FBFC011201F2
:101283003509FD0112013514FD0112013520FD015F
:101293001201352FFD011201353AFD011201355DB1
:1012A300FD0112013501FE0112013511FE0112018A
:1012B300352BFE0112013548FE0112013563FE0193
:1012C30012013588FE0112013593FE01120135A882
:1012D300FE01120135BCFE011201351DFF01120191
:1012E3003523FF0112013529FF011201352FFF01BB
:1012F30012013547FF011201357AFF011201354012
:101303008E02120135D78E021201356F8F02120140
:10131300355F9002120135969002120135A99002B1
:10132300120135179102120135B29202120135D919
:1013330092021201357B9302120135B0930212011E
:1013430035C193021201353A94021201355B9402BE
:10135300120135739402120135CB9502120135D473
:101363009702120135249A02120135279B021201BA
:1013730035769B02120135A1DE011201359EDF0194
:1013830012013589E00112013593E001120135B5EF
:10139300E001120135C1E00112013513E20112012E
:1013A3003542E20112013572E301120135B4E30162
:1013B300120135E0E401120135B6E50112013508E9
:1013C300E60112013567E6011201359EE6011201BD
:1013D30035D9E60112013574EA011201358DEA01AE
:1013E3001201350FEB011201351DEB0112013572AC
:1013F300EB0112013580EB01120135EDEB01120116
:10140300355FEC01120135A5EC0112013547A70246
:1014130012013569A70212013553A902120135F8E9
:10142300AC021201353BAE0212013515AF021201B7
:101433003538FE021201355DFE02120135CEFE0281
:101443001201356EE10212013577E1021201358096
:10145300E102120135B1E202120135D0E4021201B8
:101463003506E50212013540E50212013576E50243
:10147300120135B0E502120135E4E502120135101F
:10148300E60212013559E60212013593E602120112
:1014930035DBE60212013531E70212013566E70258
:1014A300120135C1E702120135FBE7021201354C87
:1014B300E80212013582E802120135BCE80212018A
:1014C30035EAE8021201350DE902120135A2E20301
:1014D300120135CEE20312013529E303120135333C
:1014E300E30312013543E303120135C0CB031201B9
:1014F30035F2CB031201350FCC031201355BCC035C
:1015030012013515CD0312013578C3031201359F3E
:10151300C303120135DFC303120135FBE4031201D8
:10152300357A5400120135EB56001201359E5800EE
:10153300120135FB5800120135F8590012013580AC
:101543005A00120135055B001201352A5B001201B6
:10155300357A5B00120135725E00120135E85E00D8
:10156300120135D95F0012013513600012013553A2
:101573006000120135F961001201354C620012015D
:10158300359962001201350763001201352E63009D
:101593001201354863001201357864001201358F5A
:1015A3006400120135896600120135AB6600120131
:1015B30035E166001201358F68001201350F6900AD
:1015C3001201354E69001201357D6A001201354C56
:1015D3009803120135A49803120135EC9903120103
:1015E300355B9A031201350A9B03120135299B03CC
:1015F3001201357D9B03120135BB9B03120135D0CC
:10160300CF0212013519D00212013536D002120170
:1016130035A7D10212013556D20212013579D4020F
:1016230012013567D80212013527E103120135385B
:10163300E103120135DBE10312013545E503120134
:101643003584E503120135EEFF02120135E6E103AD
:10165300120135F6E10312013508E2031201359C4C
:10166300E20312013596DC031201351ADD03120180
:101673003580DD03120135FCFF01120135B6A903E4
:10168300120135CAA90312013543AA031201351801
:10169300AB03120135EAAC031201354FAD0312015E
:1016A30035A2AD03120135F87F00120135B8D4031A
:1016B30012013528D60312013589D6031201357D6F
:1016C300A503120135A7A503120135BEA503120117
:1016D30035C9A50312013508A60312013514A60363
:1016E30012013529A603120135A4A703120135A659
:1016F300A903120135A26A00120135866F00120197
:1017030035BB750012013581760012013551770022
:101713001201356F7700120135B77700120135409A
:101723007A00120135807A001201350C7B00120118
:1017330035357E00120135177F00120135327F00E7
:10174300120135ABE403120135D9E403120135F874
:10175300D90312013521DA031201354ADA031201E2
:1017630035E3DA03120135FBDA031201353DDB03FE
:101773001201350080031201350A80031201354A34
:101783008003120135938003120135CD80031201CA
:10179300352381031201354281031201354B810345
:1017A3001201359C8103120135C58103120135DA1B
:1017B30081031201354A8203120135D882031201D3
:1017C300351C8303120135448303120135C383039C
:1017D3001201350684031201354384031201355582
:1017E30084031201357484031201357D84031201CD
:1017F300354785031201355AD803120135ABD80397
:1018030012013534D9031201359AD9031201356314
:10181300C6031201358DC60312013587C7031201B2
:1018230035B6C7031201353CC80312013596DE03F2
:10183300120135F4E303120135BED003120135F46E
:10184300D0031201352DD10312013586D2031201C3
:10185300354DE30312013563E3031201356DE303F1
:10186300120135C3E3031201359BE9021201355816
:10187300EA0212013593EA02120135BBEA021201B0
:10188300351DEB0212013569EB02120135C9EB027A
:101893001201355AEC0212013556ED02120135E3FD
:1018A300EE0212013566EF02120135CAEF02120190
:1018B30035E1EF02120135D7F00212013523F102AF
:1018C300120135BE9303120135D3930312013583FD
:1018D3009403120135C39403120135DC94031201FE
:1018E300350F95031201355C95031201359095036D
:1018F300120135D29503120135D997031201353FF1
:101903009803120135008002120135B783021201D8
:1019130035498502120135A08502120135BF8502C2
:101923001201353D8602120135CF8702120135B30C
:101933008802120135C48C02120135988D021201FE
:101943003552C003120135FBC00312013518C10320
:10195300120135B0C103120135DBC1031201356D2C
:10196300C2031201359EDD0312013503DE031201AA
:1019730035807F00120135BA7F0012013527C90374
:1019830012013563C90312013580C903120135B34E
:10199300C903120135E2C9031201358CCA031201CE
:1019A300359BCB031201358EE5031201350BE6039C
:1019B300120135D4E50312013537E603E0667010F2
:1019C30008A3E066700A08A3E066700408A3E06653
:1019D30022C3E7960809E7960809E7960809E796F8
:1019E30022C3E09608A3E09608A3E09608A3E09636
:1019F30022C008C3E096F50808A3E096420808A3AE
:101A0300E096420808A3E09645087001D3D0082267
:101A1300E9799EC608CAC608CBC608CCC6C37020DF
:101A23007996CACBCC7019798ECBCC70137986CCCE
:101A3300700EF9802ACA33CACB33CBCC33CC3319DB
:101A430030E7F2CCCBCA3350147004EA30E00DE433
:101A5300CA3ACACB3BCBCC3CCC500209C3E913C630
:101A6300CC182313C6CB18C6CA18C6F922121AB04B
:101A730020F01430E72B74FFFCFBFA747F8022E420
:101A8300FCFBFA7480801AB48008BC00F2BB00EF40
:101A9300800F50EBF9E4C39AFAE49BFBE49CFCE46B
:101AA30099C6CC18C6CB18C6CA18C6F922E4C9C64B
:101AB30008CAC608CBC6D3330308CCC63392F0C3D7
:101AC300947F402E94184019C9B90704CACBCC227D
:101AD3005025C309CA33CACB33CBCC33CC33D9F467
:101AE30022F4600DC9CCC313CB13CBCA13CAD9F6E6
:101AF300CC22E4FCFBFA2214FCFBFA22E62618466D
:101B03001846184622E72719471947194722181874
:101B130018E60846087009E626087005E633F4223D
:101B23000822191919E70947097009E727097005F8
:101B3300E733F4220922E6084608C3134608336054
:101B430002E633F422E7094709C313470933600266
:101B5300E733F42200121B39604F121B486012E76F
:101B6300548066F6121B117011121B08703B090991
:101B730009F4F618F618F618F622121B257015123A
:101B83001AFF08080860EAE6447FF618768018E42E
:101B9300F618F622121AFF6016121B087012E4F6EA
:101BA30008F608F608E65480F609090918181822F9
:101BB300EAC0E0EBC0E0ECC0E0EDC0E0E687F0A4F3
:101BC300FBACF008E687F0A42CFCE435F0FA180926
:101BD300E687F0A42C4B60027401CA35F0FCE433B1
:101BE300FB09E687F0D2F7A42CCB35F0FC1908E605
:101BF30087F0A42BCC35F0FBE433FD0819E687F01E
:101C0300D2E7A42C4ACB35F0CD3400FC09E687F0AB
:101C1300D2E7A42DCC35F0FDE433FA0918E687F0BA
:101C2300D2F7A42CCD35F0CA3400FC08E687F0D2F5
:101C3300E7D2F7A42ACC35F07A7E20E70B0ACB3320
:101C4300CBCD33CDCC33CC33CB3350147004ED3008
:101C5300E00ED2F1E4CD3DCDCC3CCC3B5005DA05D2
:101C6300C2F1EB547FC63308E63392F0FBE7330946
:101C7300E733C39A502D2B70190C0D4C4D7015186A
:101C830006E608C333700D20F10AA2F013F6E41838
:101C9300800B4024E4F630F002768018F618F6182C
:101CA300F68024D33B14501074FFA2F013F6187679
:101CB30080E418F618F6800FA2F013F618E6330343
:101CC300F618ECF618EDF6D0E0FDD0E0FCD0E0FB22
:101CD300D0E0FA22121B39700418181822121B487C
:101CE300700D74FFF61819F61819F61819F622E78D
:101CF300548066F6121AFF700F121B0870F014F668
:101D030008F608F608F680D1121B08700CF608F6E0
:101D130008768008E6447F80EC121B28700C121BA7
:101D23001460BFE65480F6E480BB121B14700519DF
:101D3300191980A5E869700C763F18768018F61893
:101D4300F6E8F922E6CDC0E018ECC0E0E633CD3387
:101D5300CDD313F6E719FCE7191933CC33C3947FBA
:101D6300400ECD9D502408E65480F6E418F6800F0B
:101D7300F4043D14501408E6447FF6187680E41802
:101D8300F618F6D0E0FCD0E0FD22CCD313CCFD183E
:101D9300E4C6CBC0E018E4C6CAC0E00808ED08C634
:101DA30033E613F618E433C675F003C3CA97CA09BA
:101DB300CB97CB199C40047D08802EBD0003021EE7
:101DC3008016B6FF050606081618C3CA33CACB33F6
:101DD300CB33CA27CA09CB37CB193CC37D08803E16
:101DE300187D0820E75CC633C6CA33CACB33CB336E
:101DF300DDF1D5F0EB30E77BCA97CA09CB974ACB25
:101E0300199C406F4B7025E620E0218066187D0801
:101E1300C3CA97CA09CB97CB199CD3C633C6CA3357
:101E2300CACB33CB3350C9DDE7D5F0E1D3E4C636B3
:101E3300C608C636C608C636C608C636C618181833
:101E43008031C3CA97CA09CB97CB199CB34097C6B5
:101E530033C6CA33CACB33CB33DD34D5F02EC6A257
:101E6300E0C640C8CA27CA09CB37194A70BECB3C63
:101E7300B480B90808E63308E633601F181818D091
:101E8300E0FAD0E0FBD0E0FCD0E0FD22187D08CAE8
:101E930027CA09CB37CB193CD3808013F618E4B695
:101EA3007F11F618B6FF0EF618C60470D20808762E
:101EB3008080CAF618F618F680C5080808EAC0E05C
:101EC300EBC0E086F0E7A4FA180986F0E7A42AFA43
:101ED300180986F0E7A42AFA180986F0E7A42AFA73
:101EE3001986F0E7A4FBE5F02AFA190886F0E7A4BF
:101EF3002BFBE5F03AFA190886F0E7A42BFBE5F093
:101F03003AFA18180986F0E7A4C5F02BFBE43AFA6D
:101F13001908E7C5F0C6A426F6E5F03BFBE43AFA58
:101F23001886F0E7A4F6E5F00826F6E43B08F6E4A5
:101F33003A08F6D0E0FBD0E0FA22E4CFC0E0E4CEEA
:101F4300C0E0E4CDC0E0E4CCC0E075F020E626F6C6
:101F530008E633F608E633F608E633F6181818EC05
:101F630033FCED33FDEE33FEEF33FFC3EC9709EDA6
:101F73009709EE9709EF97191919400FFFEC97FC92
:101F830009ED97FD09EE97FE191906D5F0BFECF799
:101F930009EDF709EEF709EFF7191919D0E0FCD0AD
:101FA300E0FDD0E0FED0E0FF221220141818181232
:101FB3001F3D122003191919221220031919190898
:101FC3000808E618181820E7E0121F3D122014181D
:101FD300181822090909E719191920E7DC08080864
:101FE300E618181820E703021F3D122014181818CA
:101FF300121F3D1220141818181220031919192240
:10200300E4C397F709E497F709E497F709E497F727
:1020130022E4C396F608E496F608E496F608E496F6
:10202300F6226017080808C6A2E713C618C613C627
:1020330018C613C618C613C6D5E0E92260160808E9
:1020430008C6C313C618C613C618C613C618C613C4
:10205300C6D5E0EA22700908080822601618181885
:10206300C6C333C608C633C608C633C608C633C696
:10207300D5E0EA22E627F60809E637F60809E63747
:10208300F60809E637F622E026F608A3E036F60856
:10209300A3E036F608A3E036F622E026F008A3E034
:1020A30036F008A3E036F008A3E036F022C3E69743
:1020B300F60809E697F60809E697F60809E697F69B
:1020C30022C3E096F008A3E096F008A3E096F00898
:1020D300A3E096F022E056F608A3E056F608A3E044
:1020E30056F608A3E056F622E056F008A3E056F0B1
:1020F30008A3E056F008A3E056F022E647F60809E5
:10210300E647F60809E647F60809E647F622E0F649
:1021130008A3E0F608A3E0F608A3E0F622E6F00839
:10212300A3E6F008A3E6F008A3E6F022E0FAA3E0B2
:10213300FBA3E0FCA3E0FD22E0F8A3E0F9A3E0FAAF
:10214300A3E0FB22E8F0A3E9F0A3EAF0A3EBF0227B
:10215300CAC0E0E6F0A308DAFAD0E0FA22CAC0E087
:10216300E0A3C582CCC582C583CDC583F0A3C58258
:10217300CCC582C583CDC583DAE6D0E0CA22C3E4E9
:1021830098F8E499F91221C28026C3E49AFAE49BF1
:10219300FBE920E7E91221C2E498F8E499F922C3A4
:1021A300E498F8E499F91221C2E498F8E499F9C3A0
:1021B300E49AFAE49BFB22EB20E7CFE920E7E0B9BE
:1021C3000010BB0008E88AF084F8AAF022E4FBC8F8
:1021D300FA22EB70227B10C833C8C933C9335007C6
:1021E300C39AC3DBF280069A50012ADBEAC833F4B0
:1021F300C8C933F4C9FA2275F008E4C833C8C9332F
:10220300C933C99AC99B5004C92AC93BD5F0ECFB11
:10221300C833F4C8E4C9FA22600D08C6A2E713C69E
:1022230018C613C6D5E0F322600C08C6C313C6183C
:10223300C613C6D5E0F422700422600D18C6C3335A
:10224300C608C633C6D5E0F41822251810AF08F522
:1022530018400C15198008F51840021519D2AF2241
:1022630000C0D0251810AF08F518500C05198008C8
:10227300F51850020519D2AFD0D0222518F58210D7
:10228300AF08F518400C15198008F5184002151908
:10229300D2AF851983222518F582E43519F58322F7
:1022A3002518F8E43519F9222518FAE43519FB2223
:1022B3002518FCE43519FD22E4732518C582C0E016
:1022C300E51934FFC583C0E0E518C3958224F810EF
:1022D300AF0885831985821880088583198582183C
:1022E300D2AFCEF0A3E520F0A37808E608F0A3DE92
:1022F300FAEFF0A3E58124FAF8E608F0A3E608F084
:10230300A3E608F0A30808E608F0A3E608F0A3157F
:10231300811581D0E0FED0E0F8158115811581E8A3
:10232300C0E0EEC0E0222518C582C0E0E51934FF05
:10233300C583C0E0E518C3958224F910AF088583EF
:10234300198582188008858319858218D2AFCEF04B
:10235300A3E520F0A37808E608F0A3DEFAEFF0A3E4
:10236300E58124FBF8E608F0A3E608F0A30808E6F5
:1023730008F0A3E608F0A315811581D0E0FED0E0B4
:10238300F815811581E8C0E0EEC0E0228519838548
:102393001882E0A3FEE0A3F5207808E0A3F608DFA7
:1023A300FAE0A3FFE0A3C0E0E0A3C0E0E0A3C0E045
:1023B300E0A3C0E0E0A3C0E010AF088582188583E6
:1023C300198008858218858319D2AFD083D0820201
:1023D3000132851983851882E0A3FEE0A3F52078F6
:1023E30008E0A3F608DFFAE0A3FFE0A3C0E0E0A360
:1023F300C0E0E0A3C0E0E0A3C0E010AF088582180E
:102403008583198008858218858319D2AFD083D03C
:102413008222C0D02518C582C0E0E51934FFC583E8
:10242300C0E0E518C3958224F310AF0885831985AE
:1024330082188008858319858218D2AFC8F0A3E972
:10244300F0A3EAF0A3EBF0A37908E709F0A3D8FA25
:10245300ECF0A3EDF0A3EEF0A3EFF0A3D0E0F0A334
:10246300D0E0F0A3D0E0F0A3E520F0A3E5F0F0A3E3
:1024730022851983851882E0C0E0A3E0F9A3E0FA7E
:10248300A3E0FBA37808E0F608A3DFFAE0FCA3E0EF
:10249300FDA3E0FEA3E0FFA3E0C0E0A3E0C0E0A350
:1024A300E0F5D0A3E0F520A3E0A3F5F010AF088595
:1024B30083198582188008858319858218D2AFD045
:1024C30082D083D0E0F8D0E03274048006740280B6
:1024D300027401C0E0F40412227ED0E012215322E0
:1024E3007404800474028000CCC0E0EDC0E0E51801
:1024F300C39CCCAD1950011D10AF068C188D1980EB
:10250300068C188D19D2AF122160D0E0FDD0E0FC0B
:1025130022D083D082E9C0E0E493A3C386F0C5F060
:1025230095F0F908E493A386F0C5F095F0700BE4F9
:1025330093A3C3994005E9048002A3E475F002A4C0
:102543002582F582E5F03583F583D0E0F9E493A3A2
:10255300C0E0E493C0E022D083D082ECC0E0EDC0C1
:10256300E0E493A3FCE493A3FDED4C600D1225A6D8
:10257300EC24FFFCED34FFFD80EFE493A3FCE49334
:10258300A3FDED4C600D1225E5EC24FFFCED34FFBB
:10259300FD80EFD0E0FDD0E0FCE493A3C0E0E49342
:1025A300C0E022C0E0C3E4939608740193961840F8
:1025B3000FE493667008087401936618700070192D
:1025C300A3A3C3E49396087401939618A3A3400DA1
:1025D300D0E0D0E0D0E0022596A3A3A3A3A3A3D089
:1025E300E022C0E0C0F088F0E4936670080874014C
:1025F3009366187000A8F0A3A3700BD0F0D0E0D0BE
:10260300E0D0E0022596A3A3D0F0D0E022C0E0C042
:10261300D0E8C0E0E9C0E0EAC0E0EBC0E0C082C0BF
:1026230083ABA8D2AF90028BE0FAA2E09287A2E03C
:10263300B3E433F8A2E0E4331313F8E590547F488E
:10264300F88890A2E7E433F9E8A2E79296E004F071
:10265300EBA2E7E433F8EBA2E792AFD083D082D0CA
:10266300E0FBD0E0FAD0E0F9D0E0F8D0D0D0E0320F
:1026730074F6122329EAFEEBFF8C088D09EE24344D
:10268300F8E43FF9E8FCE9FDEE24351229ADFAEE52
:1026930024371229ADF88508F0A4C885F00A850906
:1026A300F0A4250AF9EA28F8E439F97A257B00121F
:1026B30021C2EA8C828D83F0FA131313541FF8EEB0
:1026C30028F8E43FF9E8245DF582E439F583E0C0B6
:1026D300E074075AF8D0E0B800028004C313D8FCB2
:1026E300A2E0EE50082434F582E43F801824361229
:1026F30029ADF5F0EA84A8F0EE28F8E43FF9E824E0
:1027030038F582E439F583E0F97F030223D574F7C2
:10271300122329EAFEEBFFEE24341229ADC0E0EECA
:102723002435F582E43FF583D0E0F08E828F83A3D6
:10273300A3A3A3A3A3A3C082C0838E828F83A3A3D7
:10274300A3A3A3122816D083D082E0C398F508A3CD
:10275300E099F509EE247F1229AD6401705DEE2442
:10276300801228108E828F83A3A3A3A3A3A3A312F3
:102773002B508E828F83A3A3A3A3A3E0FAA3E0FB32
:10278300C3EA9CEB9D5010C3EC98ED99402DC3EA2E
:1027930098EB995026800EC3EA98EB994007C3EC57
:1027A30098ED9940167CBB7D04EEFAEFFB1210A165
:1027B300EE247FF582E43FF583E4F0AC08AD09EE47
:1027C300FAEFFB122673E9F91233F67F020223D5DF
:1027D300C082C083851882851983122816C3EA9C98
:1027E300EB9D5010C3EC98ED99401BC3EA98EB990D
:1027F3005014800EC3EA98EB994007C3EC98ED9907
:102803004004790180027900D083D08222F582E4EA
:102813003FF583E0F8A3E0F922EAC39CFAEB9DFBC2
:102823002274EF122329900381E064086005E064B9
:1028330007702A9061C8E060249003AFE0F4601D44
:10284300E0F875F00AA4C8AAF02AF974B128FE7456
:102853000339FF8E828F83A3A3A3E070030229327F
:10286300906060E0C0E0EE2468F582E43FF583D039
:10287300E0F0750C2B750D05750800750900E5D999
:1028830014F50AE5D95403F50E60127403650E605E
:1028930043E50A600AEE24671229AD700280759041
:1028A3000526E06401601F1229AA60047A048002ED
:1028B3007A00E50AC39AFA95E0FB120F458A088B62
:1028C30009EA450970051212E180641229AA70040D
:1028D3008A0C8B0DE50A6012850C82850D83F50B3E
:1028E300E5D9F0A3150BE50B70F61229AA60447421
:1028F300FC250AF50A780C1224D0AC0AA90EEEFACC
:10290300EFFB12115B7402122263E97026AA08AB73
:10291300091217FD793D8E828F83A3A3A3A3E0FA47
:102923007B00120DA7EEFAEFFB1210C512116D79A1
:1029330000806F7403650E6051850A10751100786D
:10294300101224D0AC0CAD0DAA08AB0912111F74E0
:1029530002122263EE24681229AD64807004747F2E
:102963008001E0F50C780C1224D4E50EF50C780CFC
:102973001224D4A90AAC08AD099003AFE0FA7B0096
:10298300120D7D74021222638013900381E06408A8
:10299300600BAC0CAD0DEEFAEFFB1211DF1212ED72
:1029A30079017F0A0223D5EE2482F582E43FF58381
:1029B300E02274F212232974FC12224DEAFEEBFF8B
:1029C3008909A2AFE433F508C2AF022A71E0601BA4
:1029D300780C1224D0AC0BA90EEEFAEFFB121155B2
:1029E30074021222637404250BF50B7401250BF595
:1029F300D9850ED9E50B6018F50A850C82850D8300
:102A0300E0F5D9A385820C85830D150AE50A70EAE2
:102A130075E195EE2463F8E43FF97A007B00A2AFF9
:102A2300E433F50BC2AF122B4CEC4D603288828934
:102A330083E0FAA3E0FB8A828B83122B508882897E
:102A430083ECF0A3EDF08A828B83E4F0A3F0122BE6
:102A53004CEC4D700A88828983A3A3E4F0A3F0E5CC
:102A63000BA2E092AF1217FD9004C2E004F0EE2433
:102A730063122810E8496064EE24631229AD24022E
:102A8300F8A3E03400F988828983E5822402F50CF7
:102A9300E43583F50DE0F50BA3E0F50EEE246212A9
:102AA30029AD640170369061D0E0F81229AA600460
:102AB3007C0480027C007480C398FA95E0FBE50BEC
:102AC3002CF8E43400F9E82402F8500109C3EA9829
:102AD300EB99A2D265D03340030229D09004C2E01F
:102AE300604D9004C3E0F89004C2E0C398500C74A6
:102AF300026509703A9004C4E060348E828F83A328
:102B0300A3A3A3E0851882851983122B42740212B2
:102B13002299E8122B429004C1E028F07402122299
:102B2300B3AA18AB197901120DD19004C2E4F0E5F0
:102B330008A2E092AF74041222637F070223D5F048
:102B4300A3E4F09004C2E0F82288828983E0FCA326
:102B5300E0FD2200008521878522C622C0E074EBB8
:102B6300122415A2AFE433F508C2AF759B00906140
:102B730082E0A2E05030E591A2E0502A7591FE7404
:102B83000165217021122CF212122D122CE0122455
:102B9300E31231A07404122263E964017005790120
:102BA300121275122824906182E0A2E5505DE5912E
:102BB300A2E550577591DF900381E064076005E05B
:102BC3006408702F122CF274016521703E12122DCD
:102BD300122CE01224E31231A07404122263E9647C
:102BE30001700579011212757901EEFAEFFB1229D2
:102BF300B58018E0640D70139003A3E004F064281B
:102C03007002E4F07A00E0F91212F3906182E0A21C
:102C1300E64003022CB5E591A2E64003022CB5750C
:102C230091BF900381E064057008121215121221FE
:102C3300800312121B752100121281E9900382F0A6
:102C4300790012127512100B7A017B00900380E059
:102C5300F91217CD907803E06442705690052AE08C
:102C630014F0704EC2AF122C6C00782AD0E0F61824
:102C7300D0E0F6E59F5407F87005750DFF800375E6
:102C83000D7FC4C0E07829E6F50A08E6550DF50B7B
:102C9300740B780A12222BD0E0250AF8906270E0B8
:102CA300A2E740F8E8C333906272F0906270E0D21A
:102CB300E0F0906181E0A2E35009E5E9A2E350036B
:102CC30075E9F7A3E0A2E75009E591A2E750037580
:102CD300917FE508A2E092AF7F080224748E828F71
:102CE30083E0F8A3E0C82416F582E438F583229044
:102CF30003AFE0F875F00AA4C8AAF02AF974B12862
:102D0300FE740339FF22C0E0C0D0C082C08390614B
:102D130083E0A2E05009E5BFA2E0500375BFFEE0E7
:102D2300A2E15009E5BFA2E1500375BFFDE0A2E2B5
:102D33005009E5BFA2E2500375BFFBE0A2E35009CF
:102D4300E5BFA2E3500375BFF7E0A2E45009E5BF76
:102D5300A2E4500375BFEFE0A2E55009E5BFA2E589
:102D6300500375BFDFE0A2E65009E5BFA2E65003BA
:102D730075BFBFD083D082D0D0D0E032C0E074F230
:102D8300122415E5A7A2E6500FE5A1A2E6500953C8
:102D9300A7BF75A1BF122DD3E5A7A2E5500CE5A1EE
:102DA300A2E5500653A7DF75A1DFE5A7A2E150090D
:102DB300E5A1A2E1500375A1FDE5A7A2E2500CE550
:102DC300A1A2E2500653A7FB75A1FB7F0102247465
:102DD30074F7122329752101900381E064067015AD
:102DE3001211918A828B83A3A3A3A3A3A3E0FAA3C3
:102DF300E0FB121203A2AFE433FED2AF900387E0ED
:102E0300640170187A207B00900380E0F91218E7C0
:102E13007A207B00900380E0F91217D3906182E05F
:102E2300D2E6F0900527E0602185C6228016900344
:102E330086E064017008E5C654F84405F5C653BE40
:102E4300FC122B587401652160E4EEA2E092AF7F7F
:102E5300020223D5008E238F24858228858327852C
:102E63001882851983E0CEA3E0CF85288285278346
:102E7300EBC9EAC8EDCBECCA75F010C3E833C8E977
:102E830033C9EA33CAEB33CBC3EA9EF526EB9FF58E
:102E930025B35004AB25AA26EC33CCED33CDD5F0C6
:102EA300DAAE23AF242274E912232974FA12224DD5
:102EB300EAFEEBFF8C0A8D0B121239EAF8EBF9EC00
:102EC300FAEDFB8E828F83122147900381E024F772
:102ED300C3940550067514010230101211918A082B
:102EE3008B09EA4509700302300DEEFCEFFDAA18C9
:102EF300AB19121233850882850983A3A3780C12B8
:102F03002111908317780C1220D885188285198394
:102F1300781012211190831778101220D8780C7929
:102F2300101219D4501F780C79101220B0908337E7
:102F3300780C1219F44047850C14850D15850E166F
:102F4300850F1780459083378510148511158512D9
:102F5300168513177814790C1220B078141219F40B
:102F6300501C75140075150075160075170178143B
:102F730079101220B07814790C122077800C751414
:102F83000175150075160075170074097814122061
:102F930058908333780C1221117814790C121F3D49
:102FA300850882850983A3A3A3A3A3A312302E12AA
:102FB30021C2880C890DE4F50EF50F7814790C12F3
:102FC3002077740412229912302E1221C2E8FA8A51
:102FD3000CE4F50D7814790C1219D4500778147990
:102FE3000C1220B0900381E06408600AE06406607C
:102FF30005E06405702090832F78141219F450169D
:1030030090832B781412208A800C75140075150098
:10301300751600751700850A82850B8378141221B3
:103023002074061222637F100223D5E0F8A3E0F98F
:103033007AD07B032274F712232912124B900525B1
:10304300E064017010906245E4F0A3F053F4F3439D
:10305300FE0C5390F31211F1E5C654B84441F5C682
:10306300E59E5447644170F8906185740FF09005B4
:1030730023E0F47002A3E0604E900524E06008149E
:10308300601B14602E8040750801750900900523AC
:10309300E0780812223AE508F45280802A75080184
:1030A300750900900523E0780812223AE508F452E6
:1030B300908014750801750900900523E0780812C3
:1030C300223AE508F452A079007F020223D574F76F
:1030D300122329E9FEEAFF12124B74016E700C7A77
:1030E300807B00900380E0F91217CD90345CE49369
:1030F300F46008E493F9120FFF800953C6B8E59E04
:10310300544770FA1211F7900525E0640170031219
:103113001023900523E0F47002A3E0604B90052494
:10312300E0600814601A14602C803D75080175096D
:1031330000900523E0780812223AE50842808028AF
:10314300750801750900900523E0780812223AE515
:103153000842908013750801750900900523E078F3
:103163000812223AE50842A01211918A088B09A895
:1031730008A909E8496014E5E170FCE82414F58224
:10318300E439F583E0F46003E0F5E174016F700A5C
:103193007A01900380E0F912185D0230CC74F112C9
:1031A30023298A088B098C0A8D0B908317780812C0
:1031B30020D8740F122299780C122111908317785A
:1031C3000C1220D87808790C1219D4908337501038
:1031D3007808790C1220B078081219F44014800E84
:1031E300780C79081220B0780C1219F45004790184
:1031F300800279007F080223D574ED1223298A08FF
:103203008B098C0A8D0B90831778081220D87413BE
:10321300122299780C122111908317780C1220D85E
:10322300780C79081219D440117808790C1220B05F
:10323300AA08AB09AC0AAD0B80227510007511000A
:103243007512007513017810790C1220B07810797B
:1032530008122077AA10AB11AC12AD137F0C022316
:10326300D590831778081221118A828B83780812EC
:1032730020EB7F040223D574F51223298C828D83DE
:1032830078081221118A828B8378081220C41232A3
:10329300D2C3E09CF0A3E09D1232C440229082FB93
:1032A30078081221118A828B83780812209D8A82E2
:1032B3008B83A3A3A3A3E02420F0A3E0344EF080E8
:1032C300A0F088828983C3E09420A3E0944E22EA8D
:1032D3002404F8E43BF98C828D83A3A3A3A3E0FC2D
:1032E300A3E0FD888289832274F5122329E9FE90E5
:1032F30004DDE0FAA3E0FBEE29F8E433F974DE28F9
:10330300F582748039F583E02AF508A3E03BF509DB
:1033130078081224D09082E712212F122E587402BB
:103323001222638A088B098C0A8D0B741078081299
:10333300203FAA08AB097F040223D574F112232985
:103343008A0C8B0D8C0E8D0F74111222991224E7A7
:103353007411122299E02401F508A3E03400F50961
:10336300E4F50AF50B780C7908121EBD90832778D3
:1033730008122111780C7908121EBDAA0CAB0DACF2
:103383000EAD0F122E5874021222638B09EA4509FF
:1033930060047A0180027A00EC2AFCE43DFD741398
:1033A300122299E0F8A3E0F9E8FEE9FFECF8EDF961
:1033B3007A717B021221C288088909E4F50AF50BA8
:1033C3008E828F837808122120ECF8EDF97A717BD5
:1033D300021221C28A088B097405780812223A8ED8
:1033E300828F83A3A3A3A3E508F0A3E509F07F08D5
:1033F3000223D5C082C083E9906000F0D083D082DD
:1034030022C0E0C0D0E8C0E0E9C0E0A9A8D2AFC2C2
:10341300C7751A00E9A2E7E433F8E9A2E792AFD04F
:10342300E0F9D0E0F8D0D0D0E032C0E074F212245A
:1034330015A2AFE433FED2AFE589A2E7500312171A
:1034430049758900C2C5EEA2E092AF7F01022474E0
:10345300C2AF02000022020132FFFFFFFFFFFFFFA6
:10346300FFC082C083E990167FF0D083D08202012F
:103473003274F61222BDE99002F3F0900353E0F5A3
:10348300087509007402780812223AAA08AB0912D7
:1034930018459002F4123E279002F4124214606F12
:1034A300900353E075F003A4FAABF01218459003B0
:1034B30011123E27900311124214700B9002F41262
:1034C30041E512184B80489003111251797AFF7B22
:1034D300FF1215CF7A0080198A08750900740278E3
:1034E3000812223A124C2174FF123627E4F0A3F09B
:1034F3000A900353E0F8EAC39840DD7905120C699A
:103503009002F3E0F9120B557AF37B0C120EE502ED
:103513004CC474F41222BD8A088B09EB54806047B3
:103523009002F3E0F91217B58A0A8B0BAE0AAF0BC0
:10353300EE4F602A8E828F83E064B0701A120C7B88
:10354300E960148E828F83A3A3A3A3E0F9EE24057D
:10355300FAE43FFB120C4BEEFAEFFB1217A3AA0897
:10356300E5096480FB80047A007B0002377774F2FC
:103573001222BD74FB12224DEAFEEBFFEE4F6045B3
:103583007403122299EEF0A3EFF085188285198354
:10359300ECF0A3EDF07402122299E9F0AA18AB192A
:1035A300120B4FE9F50870757413122299E0F50AAE
:1035B300A3E0F50BE50A450B60638E828F83123B14
:1035C300B0EE4F700575080280537A067B0012181F
:1035D300458A0C8B0DA80CA90DE8497005750813D5
:1035E300803B88828983E4123627EEF0A3EF1237FB
:1035F30043E50AF0A3E50BF09002F712373C900283
:10360300F76017E0FCA3E08003EAFCEBFD8C828DFE
:103613008312373C70F38C828D8312483CA9087463
:10362300050253F9F0A312515BA32274F21222BDD7
:103633008908890C750D007403780C12223A850CE5
:103643000A850D0B9002F6F09002F41246471237EA
:103653003A602E12184B7900801D890C750D007489
:1036630002780C12223A9002F4124AE08882F5831F
:10367300A3A3E4F0A3F009900353E0F8E9C398404F
:10368300D9900353E0FA850AF0A4CAA8F0850BF099
:10369300A428FB1218458A0C8B0DAE0CAF0DEE4F10
:1036A3007003023730900353E0FC850AF0A4CCA8E2
:1036B300F0850BF0A428FD79001217917C0080316E
:1036C3008D0C750D007403780C12223A8A828B8359
:1036D30012373588828983E4F0123742A3A3F0A31B
:1036E300F00DEDC3950840D8EE250AFEEF350BFF2C
:1036F3000C900353E0F8ECC39850288C0C750D0024
:103703007402780C12223A9002F4123735E824023C
:10371300500109FAE9FB8A828B83EEF0A3EFF07D77
:103723000080BFE5089002F6F07900800279130269
:1037330053FC124AE4F922A3A31241E9EA4B22A360
:1037430012515BA3A3A32274F41222BD7900EAA24F
:10375300E0501F75089675098278081224D07910F5
:103763007C047D007A817B16120C6374021222633F
:10377300E9F980007F0402238FC082C0839002F79F
:10378300124214601C88828983A3A3E06A7003A396
:10379300E06B8882898370E8A3A3A3A31241E58029
:1037A300047A007B0002346D74F21222BD74FD12A0
:1037B300224DEAFEEBFF851882851983E4F0A3F01E
:1037C30074021222997401F01242117014120E1F26
:1037D3001218459002FA123E271242117003023961
:1037E3003D123F27EE2404F50AE43FF50B850A82D8
:1037F300F583E024FE603C24FC607424FE607E2498
:10380300FE700302388D24FE700302389A24FE7082
:10381300030238A724FE70030238B424FE700302A7
:1038230038C124FC70030238E224FE70030238FA24
:10383300023936120E1F9002FCEAF0A3EB1239494B
:1038430012088BE960030239369002FC1224E78EDA
:10385300828F83A3A3A3A3A3125179850882850929
:10386300831241E5120C337402122263023936AC1F
:1038730018AD19EEFAEFFB120C81023905AC18AD45
:1038830019EEFAEFFB120C878078AC18AD19EEFA3B
:10389300EFFB120C8D806BAC18AD19EEFAEFFB1237
:1038A3000C93805EAC18AD19EEFAEFFB120C998005
:1038B30051AC18AD19EEFAEFFB120C9F8044740261
:1038C3001222A3880C890D780C1224D074021222C0
:1038D300B3EEFAEFFB120CA574021222638023AC41
:1038E30018AD19EEFAEFFB120CABE9F8701674027F
:1038F300122299E4F0803CAC18AD19EEFAEFFB12FA
:103903000CB1E9F8E8602C8E828F83A3E064146025
:1039130022850A82850B83E09002FCF0851882855C
:1039230019831241E59002FD123E27E8A31239499B
:10393300120885EEFAEFFB120C097402122299E0C9
:10394300F974030253F9F07CFC7D02850882850932
:10395300831241E92274E81222BD74FA12224D74D3
:1039630004122299ECF0A3EDF08A128B13EA2405DA
:10397300F50EE43513F50FEA2402F510E43513F5DB
:1039830011851082F5831241E512097B8A0A8B0B9C
:103993007508007C037D0079007AFC7B0212179185
:1039A300E50E2402F516E4350FF51774021222A36F
:1039B300880C890D780C1224D0850E82850F83A381
:1039C300A3A3A3E0F50C750D00780C1224D0E50E2B
:1039D3002405F50CE4350FF50D780C1224D085166B
:1039E300828517831244EC120B6D74061222638ACC
:1039F3000C8B0DE50C450D7003023B798020851877
:103A030082851983E088828983F005088518828579
:103A13001983A3E0C0E0123BBAD0E0F00508E50A41
:103A230024FBFAE50B34FFFBC3E5089AE49B400350
:103A3300023B797E007F00851282851383A3A3A3B3
:103A4300A3E0F50978091224D4E4F514F5157814E4
:103A53001224D07514F975150278141224D090022B
:103A6300FA1224E774091222991224E7E50A24F9C9
:103A7300F9AC0CAD0D8510828511831241E5120C52
:103A8300DB7409122263E96003023B1A850E828507
:103A93000F83A3A3A3A3A3A3A3E0F89002F9E06871
:103AA3007075E0F5148E1578141224D012517685B2
:103AB3000E82850F83A3A3A3A3A3A3A3A31241E50C
:103AC30012178B7402122263E9604C9002FD1242BA
:103AD30014703BE4F51478141224D07CFF7DFF7935
:103AE300078510828511831241E5120C4574021279
:103AF300226312421A7017850E82850F83125313A5
:103B03007404122299124BD412451D023BAD850C4D
:103B130082850D83123BB0A818A9198814891578DA
:103B2300141224D074041222991224E78516828574
:103B33001783123E1D120B7974041222638A0C8BB5
:103B43000DEE4F70030239F6123BBAEE123BC5126B
:103B530044D3EF123BC5F8A3E03400F9E50C450D5F
:103B63006003023A018882898374FFF00508123BDF
:103B7300BA74FFF00508E508601A1313543F123EA8
:103B83002D120897E960099002FD1241E51217FD15
:103B930079008016850E82850F83125313740412E5
:103BA3002299124BD412483C790A0244A6A3A3A338
:103BB300A3E0FEA3E0FF22A8089002FDE028124440
:103BC300D322F00508089002FDE0282274E81222AF
:103BD300BD74FA12224D7402122299123E27740404
:103BE300122299ECF0A3EDF07402122299E024055D
:103BF3001244BCE0F50CA3E0F50D7402122299E027
:103C03002402F510A3E03400F511851082F5831228
:103C130041E512097B750800750900EA24FCFEEBF7
:103C230034FFFF8008050CE50C7002050DA808C3DE
:103C3300EE98EF94005003023DD9A818A919880EF5
:103C4300890F780E1224D0851482851583A3A3A32C
:103C5300A312517D1224D0E5142405F50EE4351585
:103C6300F50F780E1224D0851482851583123E1B1E
:103C7300120B6D74061222638A0E8B0FEA450F70C6
:103C830003023DD9EA2404F516E4350FF51785162A
:103C930082F583E0F50CA3E0F50D85188285198381
:103CA3001251798A828B83A3A3A3E0F985108285BD
:103CB30011831241E5120B5BE9F5096003023DD95B
:103CC30074021222991244E3F50978091224D4E408
:103CD300F512F51378121224D07512F975130278C0
:103CE300121224D09002FA1224E7740712229912B6
:103CF30024E7EEF9AC0EAD0F8510828511831241D6
:103D0300E5120CDB7409122263E9F5096003023D35
:103D1300D9E508703FE4F50EF50F780E1224D07C38
:103D2300FF7DFF79098510828511831241E5120C0D
:103D3300457402122263124509700D74041222990C
:103D4300123E107911023E0D9002F9E02402900216
:103D5300FDF080149002FDE0FA9002F9E07900246E
:103D6300025001096A497072A8089002F9E0FAE862
:103D73002AFAE43400FBEE9AEF9B405A85168285BB
:103D83001783E0C0E09002FE123BBFD0E0F00508CD
:103D9300851682851783A3E0C0E0089002FE123BDC
:103DA300BFD0E0F005089002F912517D1224D01221
:103DB3005176A8081244B012177974021222639044
:103DC30002F9E02508F50874FF650C700474FF65BB
:103DD3000D6003023C28E508601F9002FDE0F5F04A
:103DE300E50884123E2D12089DE960099002FE1237
:103DF30041E51217FD79008011E509700375090A81
:103E03007404122299123E10A9090244A612464BC9
:103E1300E50CF0A3E50DF022A3A3125408AA0CAB02
:103E23000D22A3A3EAF0A3EBF0229002FCF07CFCAA
:103E33007D028510828511831241E92274EC1222DE
:103E4300BD74FC12224D12494C74021222B312416A
:103E5300DF120B738A0C8B0DEA450D7003023F17BB
:103E6300123F27A818A9198810891178101224D095
:103E73007CFF7DFF790B8508828509831241E5125A
:103E83000C45740212226312401D700C850A828550
:103E93000B8312451A023F248E828F83A3A3A3A30D
:103EA300E0F51278121224D4E4F512F51378121205
:103EB30024D07512FC75130278121224D0781012D4
:103EC30024D074091222991224E77409122299E06A
:103ED300F9AC0CAD0D8508828509831241E5120CFE
:103EE300DB7409122263E9FE70157CFC7D028508F0
:103EF300828509831241E51208A3E97009802074C1
:103F0300166E70027E009002FD1241E51217FDEE5F
:103F13007004800B7E01850A82850B83124839EE7B
:103F2300F902484EEE2402F508E43FF5092274EC49
:103F33001222BD74FC12224DEAFEEBFF8C0E8D0F94
:103F4300EE2405F508E43FF50974021222B385084F
:103F5300828509831241E5120B738A0C8B0DEA45A6
:103F63000D700302400DEE2402F50AE43FF50BA8A1
:103F730018A9198810891178101224D07CFF7DFFAD
:103F8300790D1241DF120C45740212226312401D97
:103F9300700B85088285098312451A807A8E828F79
:103FA30083A3A3A3A3E0F51278121224D485088275
:103FB300850983A3A31224E77512FC7513027812F3
:103FC3001224D078101224D074091222991224E7F3
:103FD3007409122299E0F91241DB120CDB74091205
:103FE3002263E9FE700F7CFC7D021241DF1208A9F7
:103FF300E97009802074166E70027E009002FD1233
:1040030041E51217FDEE7004800B7E018508828561
:104013000983124839EEF902484E124224F510A3DF
:10402300E0F511EA45112274E81222BD74FE122252
:104033004D8A168B178C148D15EA2405F50CE4357F
:1040430017F50DEA2402F50EE43517F50F850E82F8
:10405300F5831241E512097B8A088B09750B007CF5
:10406300037D0079007AFC7B02121791750A00E543
:104073000814F5100424FFF508E50934FFF5098059
:10408300549002FCE0FA9002F9E0F8EA28F8E434EC
:1040930000F9E50898E50999500D9002FCE0F8E570
:1040A30010C3989002F9F0E0F5127513007812121C
:1040B30024D01251769002FDE02AFAA3E03400FBEB
:1040C30012177974021222639002F9E0F89002FC4D
:1040D300E028F0050A850C82850D83A3A3124AF01C
:1040E30040030241C09002FCE0C39508E4950940F7
:1040F300030241C0AE0AEE2EFEE433FF1241FFACD1
:1041030018AD19125191E439FB120B738A128B13F8
:10411300AC12AD13EC4D701B750B011241EF12483D
:104123003D9002FD12373C60031217FDA90B740288
:104133000244A8851682851783A3A3A3A3E0F50BE6
:10414300780B1224D4E4F512F51378121224D075E7
:1041530012F975130278121224D09002FA1224E78E
:1041630074071222991224E7A910850E82850F8302
:104173001241E5120CDB7409122263E9F50B709B03
:104183009002FD1242146003024084E4F512F51319
:1041930078121224D07CFF7DFF790F850E82850F64
:1041A300831241E5120C45740212226312421A6013
:1041B300030240841241EF12451E0241317CFC7D13
:1041C30002850E82850F831241E51208AFE9600371
:1041D3000241247900024131AC0CAD0D850A828580
:1041E3000B831241E922E0FAA3E0FB221241FFE034
:1041F300FAA3E0F9EA85148285158322850C82856A
:104203000D83E02EF8A3E03FF98882898322900290
:10421300FA125317E84922124224F8A3E0F9E849B5
:10422300229002FDEAF0A3EBF09002FDE02274E895
:104233001222BD74FA12224D7404122299123E27DF
:104243008C168D177404122299E02405F50EA3E051
:104253003400F50F7404122299E024021244BC12B4
:1042630041E512097B8A0A8B0B7F007E00A818A9FF
:10427300198808890978081224D0850E82850F834E
:10428300A3A3A3A3E0F5088E0978081224D0E50EB2
:104293002405F508E4350FF50978081224D0850EB6
:1042A30082850F83A3A31244EC120B6D74061222B2
:1042B300638A0C8B0D80291244DDF00F1244DDF06C
:1042C3000F9002F91248281224D0125176EFF812F7
:1042D30044B012177974021222639002F9E02FFF9F
:1042E300E50C450D700302436C8518828519831212
:1042F300495EA3A3A3E0F98514828515831241E5E2
:10430300120B5BE9FEE50C2404F510E4350DF51101
:10431300EE705074041222991244E3F508780812DF
:1043230024D4E4F508F50978081224D07508F97542
:10433300090278081224D09002FA1224E7740712B3
:1043430022991224E7E50A24FAF9AC0CAD0D851481
:10435300828515831241E5120CDB7409122263E98D
:10436300FE60391244F912483CEF70030244939003
:1043730002FDE0F5F0EF849002FCF07CFC7D028509
:1043830014828515831241E51208B5E9600990028C
:10439300FE1241E51217FD79000244A68F08EF7063
:1043A3003BE4F512F51378121224D07CFF7DFF79DC
:1043B300118514828515831241E5120C457402128E
:1043C300226312450970091244F912451D0244A6DD
:1043D3009002F9E024049002FDF080359002F9E0A8
:1043E300F89002FDE0FAE82404FCE43400FDEC6AF2
:1043F3004D6003024372E50A24FAFAE50B34FFFB2E
:10440300E50828F8E43400F9EA98EB9950030243ED
:1044130072851082851183E0C0E09002FEE02FF8E0
:10442300A3E034008882F583D0E0F00F8510828505
:104433001183A3E0C0E01244CAD0E0F00F7402126B
:1044430022A38808890978081224D07402122299B9
:104453001224E7850E82850F83123E1B120B79749B
:10446300041222638A0C8B0DEA450D70030242BAD3
:104473007402122299E0C0E01244CAD0E0F00F7433
:1044830002122299A3E0C0E01244CAD0E00242C261
:10449300EE70027E0A850E82850F831244FF124856
:1044A3003CEEF974061222637F1002238F9002FE02
:1044B300E028FAA3E03400FB22F514A3E03400F56E
:1044C30015851482F583221244CE229002FEE02F3A
:1044D300FAA3E034008A82F583221244CE74FF22C9
:1044E30012464BA3A3A3A3E022125408850E828590
:1044F3000F831241E9228510828511831253178598
:104503001682851783229002FEEAF0A3EBF0900255
:10451300FE125317E84922124842E8F0A3E9F07962
:10452300112274EA1222BD74FE12224D8A088B09ED
:104533008C128D13EA2405FEE43509FFAC18AD197E
:104543008E828F831241E5120B738A0C8B0DEE243E
:1045530006F50EE43FF50FEA450D700302461DE52F
:10456300082402F50AE43509F50B8A828B83A3A399
:10457300A3E0A2E550288518828519831241E5122C
:104583000CCF8A108B11EA4511602079121241DB9E
:104593008510828511831222BBE9F50C707F850E8D
:1045A30082850F83E0600979528011750C0E806D4E
:1045B300850882850983A3A3A3A3E0F9E4F508F59D
:1045C3000978081224D08E828F83A3A3E0F508789C
:1045D300081224D08E828F83A3A3A31224E78E8292
:1045E3008F831251791241DF120CE1740612226398
:1045F300E9F50C7011850E82850F83E0702D124151
:10460300DF1208BB80257416650C7011750C0074DD
:1046130018122299124647E48010750C0112530FA9
:10462300851282851383E8F0A3E9F0850E82850F56
:1046330083E0600479008002A90C74021222637F74
:104643000E02238F12464B22E0F8A3E0F583888203
:104653002274EC1222BD74F712224D8A0A8B0B8C42
:10466300108D11EA2405FEE4350BFF750C00AC1820
:10467300AD198E828F831241E5120B738A088B0961
:10468300EA45097003024813E50A2402F50A5002B9
:10469300050B8A828B83A3A3A3E0A2E5502F851881
:1046A300828519831241E5120CCF8A0C8B0DEA45E2
:1046B3000D604F7912AC08AD091241DF850C82857C
:1046C3000D831222BBE9F50C6003024816850A82AA
:1046D300850B83E0F508A3E0F509AA08FB120CC3D8
:1046E300EA4B70197AFF7BFF120CC3EA4B7003028B
:1046F30048098A828B83E508F0A3E509F075080071
:104703008008750C0E02481605089002F6E0F8E5DD
:1047130008C398400302480985080E750F00740307
:10472300780E12223A8A828B83A3A3E0250EF8A384
:10473300E0350F124BDD70D08E828F831248311219
:104743003E278E828F83A3A3124831123E25EE2487
:1047530004F508E43FF509850882F583E08882893A
:1047630083A3A3A3A3F0A3E4F0EE2405F50EE43F93
:10477300F50F850E82F583124831A3A3A3A3123E3E
:104783002575120775130078121224D0EEFCEFFD85
:1047930074041222AB1217797402122263E4F51225
:1047A30078121224D0850882850983E0FC7D007984
:1047B300171241DF120C457402122263740712228E
:1047C30099123E277407122299E0FA4B603D85083F
:1047D300828509831248281224D0850E82850F838F
:1047E300125179121779740212226374021222B3DE
:1047F3001241DF1208C1E96026740712229912419F
:10480300E51217FD8019750C098008750C118003DA
:10481300750C0112530F85108285118312483CA930
:104823000C74098028E0F508750900780822124104
:10483300E98882898322124842E8F0A3E9F022E062
:10484300F8A3E0F9850E82850F8322740412226394
:104853007F0C02238F74EC1222BD12494C75100099
:10486300EE2402F50CE43FF50D850C82F58312412D
:10487300E5120CC38A088B09EA4509700302493023
:10488300850A82850B83E064016003024925AC0835
:10489300AD09AA0AAB0B120CB7E9606E85088285D5
:1048A3000983123BB2EE2406F50AE43FF50B8E8230
:1048B3008F83A3A31224E78E828F83A3A3A3A312C0
:1048C30024E7850A82850B831224E779188E828F69
:1048D3008312495E1241E5120CE17406122263E968
:1048E300F8741668700B850A82850B83E4F0A38045
:1048F30014E860128E828F831241E5850E82850F44
:1049030083EAF0A3EBF088108018780E1224D0AC61
:1049130008AD09EEFAEFFB120CBD7402122263E933
:10492300F510AA08AB09120CC9E510700E850C82AC
:10493300850D831241E51208C7800974166510704E
:1049430003751000A910024853EAFEEBFF8C0E8D8D
:104953000FEE2405F50AE43FF50B22125408850CEB
:1049630082850D832274EA1222BD75080075090041
:104973007E007F00750A00EC2402F510E43DF5117A
:104983008035EC65087003ED65096003024A1D88F4
:10499300828983A3A3E06A7003A3E06B707C88829F
:1049A3008983A3A3A3A3125313EE28FEEF39FFEACF
:1049B30028FAEB39FB050A124AED503A850A0C75C1
:1049C3000D007403780C12223A851082851183122C
:1049D3004AE0124BDD601FE508450970A58C088D80
:1049E3000988828983123BB088828983A3A3E02E3E
:1049F300FAA3E03F80BEE50AC394025003024ADBF8
:104A0300750800750900EE4F6010EEFAEFFB121700
:104A1300F78A0E8B0FEA450F70057900024ADD75A0
:104A23000B00024AB0850B0C750D007403780C1251
:104A3300223A851082851183E0250CF50CA3E0351D
:104A43000DF50DE50C2406F514E4350DF515851467
:104A530082F583124BE26042E50C2404F512E4353F
:104A63000DF513851282F5831224E7E50E2508FA66
:104A7300E50F3509FB12177974021222638512823E
:104A8300851383E02508F508A3E03509F5098514A6
:104A9300828515831241E51217FDE50B600D7C0835
:104AA3007D007900AA0CAB0D121791050BE50BC322
:104AB300950A5003024A28851082851183125313E5
:104AC30088828983A3A3A3A3A3A3E50EF0A3E50F81
:104AD300123743EEF0A3EFF07901024642124AE4A3
:104AE30022E0250CF8A3E0350D229002F6E0F8E56C
:104AF3000AC3982274F01222BD8A0E8B0F8C0A8D82
:104B03000B750D00750C0080507916EE2406F50820
:104B1300E43FF5098E828F83A3A31224E78E828F4D
:104B230083A3A3A3A31224E7850882850983122400
:104B3300E7850E82850F83A3A31241E5120CE1746E
:104B430006122263E9F50D7416650D706C850882F3
:104B5300850983E4F0A3F0050C9002F6E0F8E50C78
:104B6300C3985066AA0C8A08750900740378081262
:104B7300223A850A82850B83A3A3124C2CE8FEE913
:104B8300FF8E828F83124BE26040EA2401F508E432
:104B93003400F5099002F6E065087002E509601437
:104BA30088828983A3A3A3A3A3A3A3A3124214600C
:104BB30003024B0C7918024B0EE9609B12530F74DE
:104BC30010122299124BD412483CA90D7F080223DC
:104BD3008FE0FAA3E0F5838A8222F988828983121F
:104BE3005408EC4D2274F61222BD7C0080010C9017
:104BF3000353E0F8ECC398501E8C08750900740247
:104C0300780812223A124C21E06A7003A3E06B7019
:104C1300DDE8FAE9FB80047A007B00024CC49002D1
:104C2300F4124C2C8882898322E02508F8A3E0350E
:104C330009F92274F21222BD8A088B09750A0080D1
:104C4300278E828F83A3A3A3A312373A600312177D
:104C5300FD7C087D007900EEFAEFFB1217918E823E
:104C63008F83E4F0A3F0050A124AED5027850A0C5E
:104C7300750D007403780C12223A85088285098326
:104C8300A3A3E0250CFEA3E0350DFF8E828F8312D4
:104C9300421470AD85088285098374FFF0A3F00286
:104CA30053FC74F61222BD120C758A828B83E58243
:104CB300458370067A007B008007A3A3A3A3124158
:104CC300E57F0202238F74F41222BD89088C828D42
:104CD30083E06402703C1252B2FEA3E0F9EEF87472
:104CE300026870037429697029750A02750B0078CC
:104CF3000A1224D074101222991224E7741012227B
:104D0300991224E7A9081215E17406122263E9F93E
:104D13008002790102377774E81222BD74FB1222F4
:104D23004DE9851882851983F08A168B17ECFEED01
:104D3300FF7510008E828F83A3A3A3E0A2E4502DFE
:104D4300741D1222991241E5120CCF8A828B83E5DE
:104D53008245837003025151790AEEFCEFFDAA16D6
:104D6300AB171222BBE9F5106003025154741F12F2
:104D73002299E0F508A3E0F5097421122299E0F5E0
:104D83000AA3E0F50B7423122299E0F50EA3E0F5D4
:104D93000F8E828F83E0640260030250F2A31253EA
:104DA30013850882850983A3858212858313EE24E4
:104DB30006F50CE43FF50D88828983125191F514B1
:104DC300E439F515781412255A010000280128F456
:104DD3004D07000228B94E0328274E0029E84F014A
:104DE3002913500229B44F0329E84F04298C50F2A8
:104DF30050E50E450F60030250ED850C82850D834F
:104E0300125313E8FAE9FB8A828B83E0850A8285D1
:104E13000B8312519C1224D08A828B83A3E0FCA3C0
:104E2300E0025076E50E450F60030250ED850A82DD
:104E3300850B837401F0125186850882850983F0FE
:104E43007C007D008E828F83A3A3A3A3E02401FAB9
:104E5300A3E03400FB120B73EA4B60408A828B831E
:104E6300E02402F8850A82850B83E028F0EA240413
:104E7300F8E43BF988828983E085128285138312E3
:104E830051AA12519C1224D08A828B83A312517986
:104E9300E5082403FAE43509FB02507B850A828581
:104EA3000B83E02404F07C047D007900AA12AB1389
:104EB300121791025154E50E450F60030250ED1293
:104EC3005186FEA3E0FF850A82850B837404F0EE0E
:104ED300850882850983F0EF851282851383F07438
:104EE300031222B3EEFAEFFB120B738A0C8B0DEA5B
:104EF300450D7003024F978A828B83A3A3123BB0A5
:104F030074011222A3880E890F780E1224D074051F
:104F13001222991224E77CFF7DFF120B797404128D
:104F230022638B0FEA450F7033850C82850D831244
:104F3300517D1224D0850C82850D83A31224E77C36
:104F4300027D007AB27B831209697404122263E939
:104F5300700A740112229974FFF0A3F08E828F837A
:104F6300E064027039750C02750D00780C1224D0C0
:104F73008E828F83A3125179E5082404FAE435095C
:104F8300FB1217797402122263850A82850B83E070
:104F9300240280097401122299EEF0A3EFF0740148
:104FA30012229912516B740112229912516202500A
:104FB300E7E50E450F60030250ED850C82850D83F6
:104FC300125401AA16AB171215E7850A82850B83C3
:104FD3007402F0850882850983EAF08512828513BD
:104FE30083EB0250EAE50E450F60030250ED1251C8
:104FF30086F8A3E0F9850A82850B837402F0E885BD
:105003000882850983F0E98512828513830250EAB9
:10501300850C82850D831241E5121773EAFAF8C3F2
:10502300950EE4950F405CE8650E450F70047A0019
:105033008021851882851983E0FCE50E2CFCE4357C
:105043000FFDC3EC98ED94005003E08005E50ECA14
:10505300C39AFAEA850A82850B83F08A0A750B00E4
:10506300780A1224D0850C82850D83E0250EFCA3DB
:10507300E0350FFDAA08AB091217797402122263F7
:10508300025154751007025154E50E450F705B85AC
:105093000C82850D83125313850A82850B83740753
:1050A300F08882898312516312515BE085128285F5
:1050B3001383F0E82402FAE439FB8A828B831251CA
:1050C3006B8A828B83125162A3A3123742125170EF
:1050D300F0E82405F850010988828983125170A3EE
:1050E3001251AAA3A3A3A3F0806775100B80627467
:1050F3001D1222991241E5120C758A828B83E58277
:105103004583604A125313880C890DE8450D603EB0
:105113007425122299E0F51078101224D4780E1217
:1051230024D0780A1224D078081224D074071222CB
:1051330099E0F9EEFCEFFDAA16AB17850C82850DFD
:10514300831222BB7407122263E9F51080037510E2
:105153000EA91074050244A8F088828983A322A3B0
:10516300E0850882850983221251B1F0221251B1E0
:10517300A3A3229002FA12540822E0F50E750F0041
:10518300780E22850C82850D8312464BE022E0FACD
:10519300A3E0F8E4C8F9EA2822F08A828B83E0F5D9
:1051A3000A750B00780A2212515B1251B122E08575
:1051B3000882850983A3A32274EE1222BD74FE1212
:1051C300224D8A088B09ECFEEDFF890AAC18AD1954
:1051D300EEFAEFFB120B738A0C8B0DEA450D70038D
:1051E3000252A38518828519831241E5120C758A30
:1051F300828B83E5824583700302529EA3A31253DD
:1052030013880E890FE8450F700302529E7414121F
:105213002299E0F510A3E0F511E50AF50B780B12DE
:1052230024D474191222991224E778101224D0740A
:105233001B122299E0F9AC0CAD0DAA08AB09850E3F
:1052430082850F831222BB7405122263E9F50B706A
:105253005274FE650A604C850C82850D83E06402FE
:1052630070411252B2FAA3E0F9EAF87402687003CB
:10527300742969702E851082851183125191F50C62
:10528300E439F50D780C1224D0EEFCEFFDAA08AB3F
:1052930009120CF974021222638008750B0E800345
:1052A300750B01A90B74021222637F0A02238FA3D9
:1052B30012531788828983E02274F61222BD74FE8A
:1052C30012224D740C122299125313E88518828509
:1052D3001983F07401122299E9F0E4F508F50978CD
:1052E300081224D075080278081224D074041222FC
:1052F300A38808890978081224D079FE120CE17476
:10530300061222637402122263024CC48E828F83BC
:1053130012531722E0F8A3E0F92274F71222BDEA30
:10532300FEEBFF89089003111251791215E7EA5435
:1053330002600BA908EEFAEFFB120B6780027901FA
:105343007F0102238F74F21222BD74FE12224DEAF2
:10535300FEEBFF890A7401650A60147402650A6032
:10536300030253F77901120F03E960030253F7EEC7
:10537300FAEFFB120CC3EA4B6003120CC9A818A97D
:10538300198808890978081224D07508027509005C
:1053930078081224D07508AC75098378081224D0D4
:1053A3007CFF7DFF7A017B00120B6D740612226372
:1053B3008038850882850983A3A3A3A3A3A31254DA
:1053C30001EEFAEFFB1215CFE4F50CF50D780C1294
:1053D30024D074021222991224E77CFF7DFFAA08CD
:1053E300AB09120B7974041222638A088B09E5084E
:1053F300450970BE74021222637F0602238F124690
:105403004B12540822E0FCA3E0FD2274F41222BDE7
:105413008A088B09ECFEEDFF90167FE0F4604B7A6F
:10542300097B0012179DEA4B60408A828B8374B11B
:10543300F0A3E4125470F08A828B83A3A3E508F0EF
:10544300A3E509125470A3EEF0A3EFF0740C12223B
:10545300991253138A828B83A3A3A3A3A3A3A31297
:10546300483C90167FE0F91217A9023777F08A8239
:105473008B83A3A3A3A32274F01222BD74FA122276
:105483004D8909ECFEEDFF7508008A0A8B0B780A3B
:10549300122514000410A056BD54DB54F5540D55C9
:1054A3002B55435566557E559255BC553756485630
:1054B3005F567A56A056A056D2557401650960030B
:1054C30002569B8E828F83E0F8C3940340030256F7
:1054D3009BE89017AE025677740265096003025683
:1054E3009B8E828F831256DB9017AFE8F0A3E902FD
:1054F300567774016509600302569B1256CD40032B
:1055030002569BE890074A025677740165096003C7
:1055130002569B8E828F83E0F8C3940540030256A4
:105523009BE890074B0256777401650960030256A6
:105533009B1256CD400302569BE890074C025677C8
:1055430074106509600302569B750A10750B007889
:105553000A1224D07A4D7B07121779740212226340
:105563000256C174016509600302569B1256CD4071
:105573000302569BE890075D025677740165096044
:105583000302569B8E828F83E09017B20256777484
:10559300046509600302569B8E828F83780C122167
:1055A300119082E7780C1219F4500302569B90076E
:1055B3005F780C1221200256C1E9600302569B1248
:1055C3000B01E9700512158D80559007F280617407
:1055D300076509600302569B750A06750B00780A76
:1055E3001224D08E828F83A3AC82AD8374021222E5
:1055F300AB12177F74021222637C007D00AA18ABE2
:10560300198E828F83E0F9121533E9FEC3940A40A1
:10561300030256BE120B01E9700CEEF912159379D1
:10562300501218BD806D74F32EF582E43407F583B0
:105633007401804074016509705E1256CD5059E8BB
:1056430090075E802F74016509704D8E828F83E011
:10565300F8C3940A5042E89017B1801874016509A1
:1056630070368E828F83E0F874F928C3940A502829
:10567300E89017B3F0804774016509701B9007F138
:10568300E0F88E828F83E09007F1F0E87030E064F9
:1056930001702B12158180267508188021C3EA94A6
:1056A30027EB9400501574026509700F8E828F8367
:1056B3001261F3120981E9F5088003750802A9084C
:1056C30074061222637F0802238F8E828F83E0F891
:1056D300C3940222A908800BE0F8A3E0F922740E18
:1056E3001222637F0402238F74F01222BD74B1125D
:1056F300224D8C0C8D0D90827274201222B374068D
:1057030012216074201222B3121533E9F508745F75
:10571300122299E0F50AE9C3940A40030258697515
:10572300F006E9A4F50974411222B37A0E74202518
:1057330009F91218B7E97009744D122299E0FF8034
:10574300027F009017AEE064027005750E018003BE
:10575300750E007408650A70047422800274212592
:1057630009F50F7C1B7D00790074261222AB1217FA
:1057730091EFA2E0E433FE74261222B37A1BA90F41
:105783001218B7E970257440122299E024F9C394E2
:105793000A5018780E1224D474271222B3EEF9AAF1
:1057A3000CAB0D120A2374011222637C147D007961
:1057B30000740C1222AB121791740C1222B37A10DC
:1057C30074242509F91218B7E970307C1079FF7435
:1057D3000C1222AB1217F1E97021741C122299AC3E
:1057E30082AD837A0474252509F91218B7740C1253
:1057F30022B3EEF9AA0CAB0D120A0BAC18AD197A51
:105803000C74702508F91218B7E97049AA18AB1976
:105813001215697E00EE75F003A4F8A9F0851882CD
:10582300851983E58228F8E58312600C1261ED6027
:105833001D88828983A3A3E0F508750900780812FF
:1058430024D0AA0CAB0D120CE774021222630EEEE5
:10585300C3940440C0EFA2E1500C900749E0F9AAB9
:105863000CAB0D120CED7404650A70289017AEE0B2
:10587300640270207A0090075DE060027A0190076D
:105883004AE06004780480027800E84AF9AA0CAB85
:105893000D120AD77900744F0256C574F71222BD50
:1058A300120B01E9704F9007F2E0640170151215B5
:1058B3008D9007F2E4F07C0AFDF97AF37B07121767
:1058C30091802A750800A80874F328FEE43407FFC2
:1058D3008E828F83E06401700BA9081215938E8268
:1058E3008F83E4F00508E508C3940A40D979501280
:1058F30018BD12158102632974F01222BD74F012CF
:10590300224DEAFEEBFF8C088D09750A0AE9600C4B
:1059130014600914603B14607D0259F112157BE990
:10592300F50AC3940A40030259F1E50845097003D7
:105933000259F1750C06750D00780C1224D0EEFC9B
:10594300EFFDAA08AB0912177974021222630259F8
:10595300F1750C00750E06750F00780E1224D0EE4B
:10596300FCEFFDE50C75F00EA4F8A9F0746B28FAB2
:10597300740739FB12178B7402122263E9700B054B
:105983000CE50CC3940A506680CA850C0AE50AC369
:10599300940A505A8049750C00AC18AD197A1075E9
:1059A300F006E50CA42423F91218B7E9701C7C1047
:1059B30079FFAA18AB191217F1E9700EEEFCEFFD8F
:1059C300AA18AB191209E7E9600B050CE50CC3949F
:1059D3000A501B80C4850C0AE50AC3940A500FE5DC
:1059E3000845096009AA08AB09A90A121575A90A8D
:1059F30074100256C574F41222BD89097508157412
:105A0300FF6A700374FF6B70277E00AC097A027B18
:105A130000EEF9121557E960037508000EEEC39402
:105A23000A40E8E50960537AA57B15120F27804ADF
:105A3300120EF78A0A8B0BAE0AAF0BEE4F60387C5F
:105A4300007D00EE2405FAE43FFB8E828F83A3A33F
:105A5300A3A3E0F9121533E9F9C3940A500CAC0976
:105A63007A027B00121557750800E509600CEEFAFF
:105A7300EFFB1215A580037508140256D774F212B2
:105A830022BDECFEEDFF750815740E122299E0F5A8
:105A93000AA3E0F50B74FF6A700374FF6B70217542
:105AA3000900AC0AAD0BEEFAEFFBA90912155DE98B
:105AB30060037508000509E509C3940A503F80E2B5
:105AC300120EF78A828B83E5824583602D7C007DED
:105AD30000E5822405FAE43583FBA3A3A3A3E0F93D
:105AE300121533E9F9C3940A5013AC0AAD0BEEFA5D
:105AF300EFFB12155D7508008003750814A90802F1
:105B03005FD4C082C083900763EAF0A3EBF09007F1
:105B130049E0FC7D007A267B00120981900749E069
:105B2300F9120C510266DA74EC1222BD8A088B0951
:105B3300E97E00703878081224D0741612229978FE
:105B43000C1221119082E77810122111780C791030
:105B5300121F3DAA10AB11AC12AD13120A1D740231
:105B6300122263E9FE60097901AA08AB09120A1738
:105B7300EEF97F0C02238F74EF1222BD74EC122214
:105B83004DEAFEEBFFEE240CF50CE43FF50DEE249D
:105B930005F50EE43FF50FEE2409F50AE43FF50B96
:105BA300EE2403F508E43FF5098E828F83A3A3E077
:105BB30024FA7003025E5024FD7003025D721470B8
:105BC30003025C5014601024FD7003025D461470E0
:105BD30003025DA9025E56126A726049E0F583888A
:105BE300821256DB880E890FE8450F6038850C82D8
:105BF300850D83E0F50C780C1224D4EE240BF5828A
:105C0300E43FF583E0F9850A82850B831261F30A89
:105C13000A0AAB09850E82850F831222BB74011217
:105C23002263025E56850A82850B831224E790075E
:105C33005F12212F120A1D7402122263E9700302FC
:105C43005E567901850A82850B83025E20751000FA
:105C53008E828F83A385820A85830BE06003025DB6
:105C630013850E82850F83E0A2E04003025D13904B
:105C730007FD126A756003025D137C0E7D007900D7
:105C8300AA18AB19121791850C82850D831266A58C
:105C9300EA4B6010750C06750D00780C1224D0EADF
:105CA3002410801B12669F120EF7EA4B7003025EEC
:105CB30056750C06750D00780C1224D0EA2405FCE9
:105CC300E43BFD74021222AB1217797402122263B1
:105CD300850E82850F83E0A2E25004D2F08002C2D7
:105CE300F0A2F0E433F8740C122299E048F0EEFCD1
:105CF300EFFDAA18AB1912156FE970117A027B0038
:105D0300900749E0F91217CD7900025E5875101516
:105D1300126A727003025E5612666E7003025E565A
:105D2300850A82850B83E0FC7901125E621222BB35
:105D3300E5107003025E56FC790312669F126654E7
:105D4300025E4B126A727003025E5612668112562D
:105D5300DB890BE8450B7003025E568E828F83A3AB
:105D6300E0FC790212669F8882850B83025E4B7C7E
:105D7300007D00EE2404FAE43FFB85088285098355
:105D8300E0F9121533E9F8C3940A4003025E56EEB4
:105D9300240AFCE43FFD7A0475F006E8A42425F9FF
:105DA3001218B1025E5612669F90075EE06007907C
:105DB30017B1E0F9806A9017AEE07004790580604E
:105DC300120EF78A0C8B0DA80CA90DE8497003027B
:105DD3005E56E82404F50CE439F50D8E828F83A317
:105DE300A3A3A3A3A3A3E0A2E0503A850C82850D4D
:105DF30083E0FE6030850A82850B83A3E054027042
:105E030024740E1222B3E82405FAE439FBEEF912E6
:105E13001533E9701079038508828509831266A515
:105E2300120A17802EAC0EAD0F850C82850D83E010
:105E3300F912669F1215B1126A72601712666E60CC
:105E4300127C007900125E621222BB800612669FEA
:105E530012152D790174141222637F0902238F8591
:105E63000882850983E0FAA3E0FB8E828F83227484
:105E7300F51222BD74F212224DEAFE8C0A75F00669
:105E8300E9A42420F508AC18AD197A0EF91218B755
:105E9300E970467C0679FFAA18AB191217F1E9706D
:105EA30038740C1222991266A5EAF8E50A6005EE29
:105EB300C8488004EEF4C858F8EA687001EB60152E
:105EC300740C122299E8F0A3E4F0AC18AD197A0E21
:105ED300A9081218B1790180027900740E122263A5
:105EE3007F0302238F74F21222BD74E612224D89BE
:105EF3000A8A088B09ECFEEDFF740C1222B37A0EAA
:105F030075F006E9A42420F91218B7E96003025FCB
:105F1300CD7C0679FF740C1222AB1217F1E96003F2
:105F2300025FCD7470250AF50BAC18AD197A0CF924
:105F33001218B7E96003025FC9AA18AB19121569F1
:105F4300E5084509701D7C0C7900AA18AB191217D6
:105F5300F1E970727C0C7D007900AA18AB19121755
:105F6300918051AC18AD19AA08AB091215638A0CBC
:105F73008B0DA80CA90DE8497022EE4F604CAC18AC
:105F8300AD197A007B00121563EAF8EBF9EA4B606E
:105F93003988828983E508F0A3E509F0126048FA9D
:105FA300EE6A7001EF601FEEF04F700888828983FC
:105FB300E4F0A3F0AA18AB19121569AC18AD197A5D
:105FC3000CA90B1218B1790180027900741A1222FC
:105FD300637F0602238F74F71222BD7E00EE75F0F5
:105FE30003A4F8A9F0EC28F8ED12600CE06A700342
:105FF300A3E06B7006E8FAE9FB800B0EEEC3940492
:1060030040DB7A007B0002632939F9888289832285
:1060130074F71222BD7C00EC75F003A4F8A9F0EA32
:1060230028F8EB12600CE0F4FEA3E0F4FF88828909
:1060330083EEF0A3EFF0126048F4F00CECC3940489
:1060430040D5026329E82402F582E439F583E0228E
:1060530074F41222BD74F412224DEAFEEBFF8C0895
:106063008D099007FD126A75704FEE4F7003026140
:10607300CCEC450970030261CC12157BE99017B48F
:10608300F0C3940A4033750B007C0679FFE50B756A
:10609300F00EA4FAABF074652AFA74073BFB1217EF
:1060A300F1E9600302612D050BE50BC3940A40D9A6
:1060B300750A0AE50A9017B4F09017B4E0C3940A7E
:1060C30040030261CC75F006E0A4FB9007FD126A61
:1060D30075705CEEFCEFFD7A0E74202BF91218B18B
:1060E3007C0C7D0079FFAA18AB19121791AC18AD7F
:1060F300197A0C9017B4E02470F91218B1750A0ECE
:10610300750B00780A1224D0EEFCEFFD9017B4E073
:1061130012628912177974021222639007FDE5084F
:10612300F0A3E509F079000261CE850B0A8084E0D3
:10613300C824061261E760197A1B74212BF912181F
:10614300B11261D32406F582E438F583E4F0A38029
:10615300D31261D3240A1261E760107A1B74222BD5
:10616300F91218B11261D3240A80DB1261D3240C13
:106173001261E760107A1074232BF91218B11261BF
:10618300D3240C80C11261DC1261E760307A107491
:10619300242BF91218B11261DCF582E438F583E09F
:1061A3002410FCA3E03400FD7A0475F0069017B4C4
:1061B300E0A42425F91218B11261DC80899007F15B
:1061C300E060031215BD1215AB7901740C0256E39E
:1061D3009007FDE0F8A3E0C8229007FDE0F8A3E0F4
:1061E300C8240822F582E438F5831261F3EC4D22CA
:1061F300E0FCA3E0FD2274F41222BD74F212224DDE
:10620300EAFEEBFFE9C3940A5004EE4F70047902EF
:106213008034AC18AD197A0E75F006E9A42420F980
:106223001218B7E9F508701C750A06750B00780A91
:106233001224D074021222B3EEFAEFFB1217797410
:1062430002122263A9080256E174F41222BDEAFE87
:10625300EBFF750800750A06750B00780A1224D047
:10626300EEFCEFFDE50812628912178B740212220D
:1062730063E96004A908800B0508E508C3940A4094
:10628300D4790A0256E675F00EA4F8A9F0746528CD
:10629300FA740739FB2274F71222BD750800E5086A
:1062A30075F00EA4F8A9F0746528FE740739FFEEA3
:1062B300FCEFFD7A0E75F006E508A42420F9121808
:1062C300B7E960297C067D0079FFEEFAEFFB121730
:1062D300917C067D0079FFEE2CFAE43FFB121791C7
:1062E300EE240CF582E43FF583E4F0A3F00508E522
:1062F30008C3940A40A89007F1E060031215BD1289
:1063030015AB802274F71222BD7E007F007C06EF5E
:1063130012628974FFF91217F1E970010E0FEFC3CE
:10632300940A40E9EEF97F0102238F74F71222BD2C
:106333007E00EEF9121593E9F90EEEC3940A5003A9
:10634300E960EF80E174F31222BD74CB12224D8910
:10635300089017B4E06508701B7A017B0090074929
:10636300E0F91217D37A027B00900749E0F912177C
:10637300D31215C99017B5E0650870127A047B0033
:10638300900749E0F91217D39017B5740AF075F026
:1063930006E508A4FF74202FFE74271222B37A0E99
:1063A300EEF91218B7E9600302646A7C0679FF7498
:1063B300271222AB1217F1E9600302646A7C0E7D97
:1063C3000079FF74271222AB1217917C1B7D007991
:1063D300FF740C1222AB1217917C0C7D0079FFAA7B
:1063E30018AB1912179174271222B37A0EEEF91211
:1063F30018B1E9FE740C1222B37A1B74212FF9121F
:1064030018B1E9F509740C1222B37A1B74222FF91F
:106413001218B1E9F50A740C1222B37A1074232FFF
:10642300F91218B1E9F50B740C1222B37A10742423
:106433002FF91218B1E9F50C740C1222B37A047413
:10644300252FF91218B1E9FFAC18AD197A0C747045
:106453002508F91218B1E9F8E509450A450B450C79
:106463004F48CE4EFE80027E00EEF9743512226351
:106473007F0502238F74F71222BDE9900749F012BA
:1064830015817AB67B17120B3102632974F4122239
:10649300BD74F212224DEAFEEBFF548070030265D5
:1064A30058900749E0F91217B58A088B09EA45099C
:1064B30070030265507A01E5082404F8E43509F90C
:1064C300880A890B8508828B83E02450604014601E
:1064D3000624E16067806C88828983E070688508A0
:1064E300828B83A3A3A3A3A3A3A31224E785088278
:1064F3008B83A3A3A3A3A31261F38508828B83A336
:10650300A31266A512153F74021222638038888293
:106513008983E0641E700F79008508828B83A3A3AF
:106523001266A5121539850A82850B83E0F9E50801
:106533002405FAE43509FB120C4B800AAA0812154C
:1065430051E9FAEA6007AA08AB091217A3EEFAEFBA
:10655300648002664AEE54026026EE6402FE7C000A
:106563007D007A007B0012156FE960047A018002D6
:106573007A027B00900749E0F91217CDEE026648D4
:10658300EEA2E0504C6401F508EFF50912666212C1
:1065930015C3E9602A126A72602012666E601B7C62
:1065A3000079011266628E828F831222BB7C00798E
:1065B300031266621266541222BB1215C9800C7A4A
:1065C300017B00900749E0F91217CDAA08AB0980B7
:1065D3007D540460759017B5E0C3940A5064E0F5E8
:1065E3000875F006A42420F509AC18AD197A0EF944
:1065F3001218B7E970467C0679FFAA18AB1912176F
:10660300F1E97038750A06750B00780A1224D0E593
:106613000875F00EA4F8A9F0746B28FC740739FD13
:106623007408122299AA82AB831217797402122278
:1066330063AC18AD197A0EA9091218B19017B57485
:106643000AF0EE6404FAEFFB80047A007B00025642
:10665300E1900763E0F8A3126679F58388822290BC
:1066630007FD126A62E0FAA3E0FB22126679F9E8F9
:10667300FEE9FFEE4F22126681E0F8A3E022E0F587
:10668300838882A3A322C082C083900749E0F98A4A
:10669300828B83A31266A5120CED803B850882854D
:1066A3000983E0FAA3E0FB22C082C08374FF1222B5
:1066B3004D121587E9C39402851882851983400416
:1066C30074028002740AF0AC18AD197A01790512CC
:1066D3000B1F7401122263D083D08202013274F241
:1066E3001222BD74E812224DEAFEEBFF890A8C08E0
:1066F3008D097C187D007900AA18AB1912179185B2
:106703001882851983EEF0A3EFF090074BE0C0E009
:106713007402122299D0E0F090074CE0C0E07403B9
:10672300122299D0E0F09017B3E0C0E07417122260
:1067330099D0E0F07415122299E054FEFAA3E0FB1D
:106743009017B2E0A2E0E433F8EA48F8EBF97415E5
:10675300122299126885A2E15004D2F08002C2F09D
:10676300E854FDFAA2F0E43325E0F8EA48F874159A
:10677300122299126885A2E45004D2F08002C2F07A
:10678300E8FAE954FEFBA2F0E433F9EB49F9741596
:10679300122299126885A2E55004D2F08002C2F059
:1067A300E954FDFBA2F0E433F50C750D0074097890
:1067B3000C12223AEAF8EB450DF9741512229912DC
:1067C3006885A2E65004D2F08002C2F0E954FBFBD4
:1067D300A2F0E433F50C750D00740A780C12223A1A
:1067E300EAF8EB450DF97415122299126885A2E2B5
:1067F3005004D2F08002C2F0E854FBFAA2F0E43372
:10680300F50C750D007402780C12223AEA450CF867
:106813007415122299E8F0A3E9F090074CE0601D8B
:10682300750C10780C1224D07C4D7D07740612224F
:1068330099AA82AB83121779740212226390075DBF
:10684300E06011E50A60097415122299E04402F030
:106853007801800278007414122299E048F09007BE
:106863004AE060047804800278007414122299E0EC
:1068730048F0AC08AD09AA18AB19120A1174180232
:106883005FD1E8F0A3E9F09017B2E02274F6122288
:10689300BD74FA12224DE9FF74036F7065120EF78F
:1068A3008A088B09A808A909E8496056E82405FA6B
:1068B300E439FB12157BE9FEC3940A5045AA18ABD1
:1068C300197903120B25E9703975080675090078E3
:1068D300081224D074021222B3EE75F00EA4F8A9A4
:1068E300F0746B28FA740739FB12177F74021222B3
:1068F30063EE9017B5F07A047B00900749E0F91234
:1069030017CD74061222637F0202238F74F71222BB
:10691300BD120D41750800E50875F00EA4F8A9F045
:10692300746528FE740739FF7C0679FFEEFAEFFBE6
:106933001217F1E97009EEFAEFFB7900120D470522
:1069430008E508C3940A40CF02632974F61222BDF6
:1069530074FD12224DEAFEEBFF9007FF126A757079
:106963003975080175090878081224D0750802756D
:10697300090078081224D07508AC750983780812C9
:1069830024D07CFF7DFF7A017B00120B6D7406120D
:1069930022639007FFEAF0A3EBF09007FF126A75FA
:1069A3007003026A577508FF78081224D4E4F508C7
:1069B300F50978081224D074051222A388088909DE
:1069C30078081224D074051222A38808890978084C
:1069D3001224D09008011224E779029007FF126A6B
:1069E3006A120CDB7409122263E9703685188285FA
:1069F3001983E0FA7401122299E0F8E4C8F9EA284D
:106A0300F508E439F509EA4509601778081224D036
:106A13009007FF126A62A3126A6A12153F74021288
:106A23002263E4F508F50978081224D090080112CE
:106A330024E77CFF7DFF9007FF1266A5120B797494
:106A4300041222639007FFEAF0A3EBF09007FF1212
:106A53006A7570047901800279007403026907E0A2
:106A6300F8A3126681A3221261F3EEFAEFFB2290E0
:106A73000763E0F8A3E0F9E84922C082C0839007E6
:106A8300FD126A7560109007FD1266A51217A39098
:106A930007FDE4F0A3F09017B4740AF00266DA7409
:106AA300F01222BD74C612224DE99008D6F07C0282
:106AB3007D007A1F7B001209817404122299E4F08D
:106AC30074041222B37A0179091218B7E9700B74AE
:106AD30004122299E09008E180049008E1E4F09028
:106AE30083EE74121222B374021221607412122202
:106AF300B37A02790E1218B7E9702A741212229926
:106B0300E0F97413122299E0F8C39404E994005055
:106B13000478047900E8127EF3FAE9FB9008D2EADC
:106B2300F0A3EB80099008D274A0F0A3740FF0A334
:106B3300E4F0A3F090823A74141222B37407122182
:106B43006074141222B37A0779071218B7E9600345
:106B5300026BEB7414122299E090193CF074151235
:106B63002299E090193DF07416122299E090193E93
:106B7300F07417122299E090193FF074141222B3A3
:106B83007A07790012160B7418122299E0901940B3
:106B9300F0741A122299E0F8604E8808E4F509F5BA
:106BA3000AF50B7808121A13908303780C1221113B
:106BB3007808790C121B579082FF780C12211178F8
:106BC30008790C121CD77808121A70127E27C3E0BA
:106BD3009440A3E09406500A90190F7440F0A374F4
:106BE30006F090190F127E0A126F79120981126F43
:106BF3006C1209817C987D3A7A007B0012098185A9
:106C03001882851983E4F07423122299E4F0A3F027
:106C130004122299E4F07421122299742FF0A374C0
:106C230001F0741F122299743FF0A37401F0741DD4
:106C33001222997404F0A3E4F0741B12229974587D
:106C4300F0A37402127F1179017A057B03121905EF
:106C530074231222B379027A067B031219057C1777
:106C63007D19790C7A087B031219057C427D197909
:106C7300157A077B0312190574011222B379017A7D
:106C8300107B0312190574211222B379027A117B46
:106C930003121905741F1222B379027A127B0312AD
:106CA3001905741D1222B379027A137B0312190595
:106CB300741B1222B379027A147B03121905908094
:106CC300C974251222B3741512216074251222B3DC
:106CD3007A1579051218B7E9700774251222B38063
:106CE300047C9F7D807A157900120B1F9019131273
:106CF300213B740E122299122147740112229974B6
:106D030001127F78F07403122299E4F074021222C4
:106D1300997401F074051222B37A08790C1218B72A
:106D2300E96003026DC17405122299E0F508E4F5E8
:106D330009F50AF50B741878081220587406122204
:106D430099127E181220587808790C1220FE7407C5
:106D5300122299127DFF1220587808790C1220FE16
:106D63007408122299127DF41220FE740E122299D5
:106D730078081221207409122299E0C0E0740112EC
:106D83002299D0E0F0740A122299127DEB740B124F
:106D93002299E0C0E07403122299D0E0F0740C123F
:106DA3002299E0C0E07402122299D0E0F0740E122E
:106DB300229912213B901913122147026E58740E27
:106DC30012229978081221117418780812203F743E
:106DD30005122299E508F0740E12229978081221FF
:106DE300117410780812203F7406122299E508F0F6
:106DF300740E1222997808122111E509F508740717
:106E0300122299E508F0740E1222997808122111C2
:106E13007408122299E508F07401122299E0C0E087
:106E23007409122299D0E0127F78E0C0E0740A124C
:106E33002299D0E0F07403122299E0C0E0740B129F
:106E43002299D0E0F07402122299E0C0E0740C128F
:106E53002299D0E0F074051222B37A087909121648
:106E63000B740E1222B379047A087B041215217471
:106E7300011222B379017A007B04121521AC18ADFB
:106E83001979017A027B0412152174031222B37952
:106E9300017A037B0412152174021222B379017A59
:106EA300067B041215219082FB12212F120B2B90CB
:106EB30082FB12212F120C6F1215099082FB1221F3
:106EC3002F12197D9082FB12212F121941120843B0
:106ED3001214EB9082FB12212F1215FF9008DBE4B2
:106EE300F0740D122299E4F0740D1222B37A017931
:106EF3000212194D9008DCE4F01208797A00790245
:106F030012168375F30075F40075F50075FDFF75B2
:106F1300FEFF75FF1F75800075900075A0001216A7
:106F2300299008D6E0F91217617A137B17120849E2
:106F33007A647B191216057A627B191214F17A6648
:106F43007B191219831216BF9082F71224E37A0178
:106F53007B009008D6E0F91218DB740412226374E4
:106F63003A1222637F0802238F90190FE0FCA3E0FB
:106F7300FD7A097B002290190FE0FCA3E0FD7A085B
:106F83007B002274F41222BD74FC12224DEAFEEB44
:106F9300FF5480603A9008D6E0F91217B58A088B3F
:106FA30009EA450960218A828B83E064C07011A3DA
:106FB300A3A3E0FA8508828B83A3A3E0F912170148
:106FC300AA08AB091217A3EEFAEF648002756EEEFE
:106FD300A2E0400302708D7A587B191219117A5C72
:106FE3007B191215457A607B19121947120867E954
:106FF300901957F0901956F0901941F07C427D1981
:1070030079157A077B031219057CD87D087A0179F3
:107013000012194D7CD97D087A01790112194D7C32
:10702300DA7D087A01790212194D85188285198350
:10703300E4127F117A01790A1218B7E9701D8518D5
:1070430082851983E060147401122299E4F004121A
:1070530022B37A01790A1218B180127900121857F3
:107063007A007B041208739008DD7401F09082F3B8
:107073001224E37A407B009008D6E0F91218DB74FF
:1070830004122263EE640102756C544070030271B2
:10709300329008DDE4127F117A057B0312190B8508
:1070A3001882851983E0701474011222997401F017
:1070B3001222B379017A057B031219057A01790249
:1070C3001216837A0479021216831208797901124F
:1070D30018579008E1E0603A9082EF1224E37A2097
:1070E3007B009008D6E0F91218DB74041222639037
:1070F30082EB1224E37A047B009008D6E0F912189D
:10710300DB74041222639082E31224E37A107B007F
:10711300800A9082DF1224E37A007B209008D6E075
:10712300F91218DB7404122263EE644002756CEEEC
:10713300541070030271EB1216D7E9640160030265
:1071430071C574021222AB1216D1E9606D7402127A
:107153002299E0F470147403122299E0F4700B1274
:1071630016DD74021222AB1216D17402122299E0B8
:10717300901953F07403122299E0901954127679FE
:10718300702B901B92E0600B7403122299AC82ADBA
:1071930083800574021222B37A01790312160B90CD
:1071A3001B92E0700474018001E4F0800D7C427D49
:1071B3001979157A077B031219051216CB9008D299
:1071C300800C1216D7E9701A1216C59082DB1224AE
:1071D300E37A107B009008D6E0F91218DB740412EE
:1071E3002263EE641002756CEF5420603179001253
:1071F30018577A8C7B0A1208739008DD7401F0909B
:1072030082D71224E37A007B409008D6E0F9121863
:10721300DB7404122263EEFAEF642002756EEF54FE
:1072230040601A9008DDE4F01208797901121857CA
:107233007901121743EEFAEF644002756EEE5420A3
:1072430060389008D7E064066013127F09FA790A60
:107253001218B1C2AF75C9AB75C95B80FE9082D3FA
:107263001224E37A207B009008D6E0F91218DB742D
:1072730004122263EE642002756CEF5410600AC29C
:10728300AF75C9AB75C95B80FEEF5402605AEF64FA
:1072930002FF9008D7E06406700302756D9008D171
:1072A300E070147C427D1979157A077B0312190566
:1072B3009008D174018015640170127C237D1979C3
:1072C3001F7A077B031219059008D1E4F09082CB53
:1072D3001224E37A007B029008D6E0F91218DB74DB
:1072E30004122263EE02756CEE5480602E7508580A
:1072F30075090278081224D0750804750900780806
:107303001224D079007C3F7D017A2F7B0112193B37
:107313007404122263EE648002756CEE54026028DA
:107323009008D7E0640670179082C71224E37A02AC
:107333007B009008D6E0F91218DB74041222631262
:10734300084FEE640202756CEE5408604F9008DD3E
:10735300E064017038120879127589121857900881
:10736300DEE0C3940F502F9008DBE064036005E078
:10737300640270229082BF1224E37A087B00900893
:10738300D6E0F91218DB740412226380099008DC3A
:10739300E06003121707EE640802756CEF54017086
:1073A300030274B69008DDE06401703F120879129D
:1073B30075891218579008DEE0C39435502790085A
:1073C300DBE064036005E06402701A9082DB122440
:1073D300E37A007B019008D6E0F91218DB740412FB
:1073E30022630274AE12170D0274AE9008DCE070D3
:1073F300030274AE79001218579008DC74021275F8
:107403009712223A74A82508F8741A3509F9E8FC8A
:10741300E9FD8C828D83A3E025E0FAE433FB8C82C3
:107423008D8312759F12223AA3A3A3E0F50A750B6D
:10743300007405780A12223A7468250AF87419351B
:107443000BF9E82508F8E93509F9E82AF582E93B5B
:10745300F583E0FAA3E0FB1208739008DD740112D0
:10746300759712223A74AA2508F582741A3509F51C
:1074730083E025E0F8E433F9748028F582741B393E
:10748300F583E0F508A3E0F509E4F50AF50B7808C0
:107493001224CC7A007B019008D6E0F91218DB7431
:1074A300041222637A047902121683EEFAEF64015E
:1074B30002756EEF540460659008DFE0F8A3E0F90D
:1074C300E84970179082BB1224E37A007B08900886
:1074D300D6E0F91218DB74041222639008DFE0246B
:1074E30001F0A3E03400F09008DFC3E09406A3E0CA
:1074F300940040229008E1E00412757F1218B190C5
:1075030082B71224E37A007B109008D6E0F91218B0
:10751300DB7404122263EEFAEF6404804EEF540826
:10752300600C9008DFE4F0A3F0EF6408803DEE54B4
:1075330004603B1275AA1218B7E970098518828591
:107543001983E060219008E1E412757F1218B1906D
:1075530082B71224E37A007B109008D6E0F9121860
:10756300DB7404122263EE6404FAEFFB80047A00F6
:107573007B0074041222637F0402238FF07CE17D7D
:10758300087A017909229008DDE4F09008DEE0042E
:10759300F0790122F09008DE12759F22E0F508755C
:1075A30009007402780822851882851983E4F0ACF7
:1075B30018AD197A01790D2274F71222BD74FD12E8
:1075C300224DEAFE7402122299E4F0EEA2E0505139
:1075D3007401F09008DCE0600312170D9008D7E007
:1075E3006406703D74011222AB79021219537401BF
:1075F300122299E060062406600F80258518828593
:10760300198374FAF07901800A851882851983E455
:10761300F07902120D5FAC18AD197A0179021219D3
:107623004DEEA2E1503F7402122299E0D2E11276AC
:10763300796032AC18AD197A057B0312190B8518E2
:1076430082851983E07009740112229974018006FE
:107653007401122299E4F074011222B379017A05BC
:107663007B0312190574021222B37A0179001219ED
:107673006574030277AFF09008D7E0640622C082F6
:10768300C0839008DBE0640370409008D8E0146086
:107693004A14600302774779001218579008DC7484
:1076A30002F07A007B041208739008DD7401F090F5
:1076B30082BF1224E37A087B009008D6E0F91218FF
:1076C300DB74041222637A048042E06402707890CF
:1076D30008D9E014600514603A80697900121857DC
:1076E3009008DC7401F07AFA7B001208739008DDCD
:1076F3007401F09082BF1224E37A087B009008D6CD
:10770300E0F91218DB74041222637A00790212166C
:1077130083803479001218579008DC7402F07A00E1
:107723007B041208739008DD7401F090835B1224CC
:10773300E37A007B019008D6E0F91218DB74041297
:107743002263800312170DD083D082020132C082DC
:10775300C0839008DCE4F01208799008DDE4F0FAC5
:107763007902121683790112185780DB74F71222FB
:10777300BDE9FE74016E70219008D7E06406702A9B
:107783009082C71224E37A027B009008D6E0F912B4
:1077930018DB7404122263801174026E700C7A0277
:1077A3007B009008D6E0F91218E780031222637F6A
:1077B3000102238F74F21222BD74E012224D890854
:1077C3007401122299E4F09008D7E065087003026F
:1077D3007A30E06406600302792674066508700354
:1077E3000279C98518828519837401F0126F7912A1
:1077F3000981126F6C1209817C987D3A7A007B00B3
:10780300120981AC18AD1979017A057B03121905A8
:10781300E50814601624FD700302797714700302DF
:107823007A0B1470030279C9027A3074021222B3FC
:107833007A047B0312190B750A06750B00780A127A
:1078430024D074041222B37A4D7B1912177974026F
:10785300122263750A08780A1224D074041222B320
:10786300740C1222AB12177974021222637407127A
:107873002299E0C0E07409122299D0E0F074061254
:107883002299E0C0E07408122299D0E0F074051246
:107893002299E0C0E07407122299D0E0F074061236
:1078A3002299E4F07405122299E4F074021222B3CF
:1078B3007A08790012150F9081FA74121222B374A8
:1078C3000E122160750A00750905E509F83395E084
:1078D300F9740A122299E58228F582E58339F58342
:1078E300E0FAA80AE828F8E433F97412122299E5B9
:1078F3008228F50CE58339F50DEAFEC3940A4003AB
:1079030002799B7CE67D83E58228FAE58339FB12C5
:1079130019B37910850C82850D83A3AC82AD83EEF8
:10792300FA807BE0640260030278137404650860E4
:10793300030278139008E1E0603385188285198388
:107943007401F0901911126F7C12098190191112B0
:107953006F6F1209817C007D007A007B0012098120
:10796300AC18AD1979017A057B031219057A0079F0
:10797300021216839008DBE4F0041222B37A017931
:107983000112194D9008D9E4F09008DCE07003026D
:107993007A3012170D027A307910AC0CAD0D7B00E2
:1079A30012175B050A74FF2509F509C39400A2D2D7
:1079B30065D03340030278CD74121222B37A0C7966
:1079C3000212150F80671275AA1218B19008D9E038
:1079D3009008DB600D7402F01217079008DEE4F0E4
:1079E30080067401F012170D7A0079021216839043
:1079F30082B31224E37A807B009008D6E0F9121850
:107A0300DB740412226380259008DB7403F0740195
:107A13001222B37A01790112194D9008D9E4F0903A
:107A230008D8E060081217079008DEE4F0E5089034
:107A330008D7F074201222637F0602238F74F71293
:107A430022BDE9600514600D80307AD87B08790087
:107A530012195380257AD97B08790112195390089A
:107A6300D9E09008DB600D7402F01217079008DE6E
:107A7300E4F080067401F012170D0277B274F41269
:107A830022BD74F812224D890874016508705CAA3E
:107A930018AB1979011214F77406122299E0FA74DB
:107AA30007122299127AFC1224D07406122299E04A
:107AB300FA7407122299127AFC1224D07900740600
:107AC300122299E0FC7407122299E0FBEC29E43BB3
:107AD300FD7404122299E0FE7405122299E0FBEE74
:107AE300FA12193B74041222638009740265087048
:107AF300031219177408027577E0F8E4C8F9EA2845
:107B0300F50AE439F50B780A2274F01222BD74BD2C
:107B130012224DE9FE74026E702F9080B4742E12FF
:107B230022B37415122160742E1222AB790212163D
:107B330011742E1222B37A127900120B1F742E12B3
:107B430022B37A157905027DE3EE6003027C31905E
:107B5300821574081222B3740B1221607408122266
:107B6300AB790012161190831F74041222B37404AC
:107B7300122160750804F50978081224D0741112D3
:107B83002299AC82AD8374061222AB12178B740256
:107B9300122263E97003027DE67408122299E090D1
:107BA300193CF07409122299E090193DF0740A12FD
:107BB3002299E090193EF0740B122299E090193F3C
:107BC300F074081222B37A0B790012160B740C129C
:107BD3002299E0901940F0740E122299E0F8603572
:107BE3008808E4F50AF50B7808121A1390830378D2
:107BF3000C1221117808790C121B579082FF780C14
:107C03001221117808790C121CD77808121A7012F5
:107C13007E27127E0A7C237D19791F7A077B031244
:107C2300190574081222B37A077907027DE37405F4
:107C33006E707C90824174271222B3740712216004
:107C430090825474211222B3740612216074271295
:107C530022AB79051216117508067509007808120A
:107C630024D074231222B374291222AB12178B74FB
:107C730002122263E964017033742D122299E070B9
:107C83002BAC82AD837A0179091218B1127F09FAFC
:107C9300790D1218B19082AF1224E37A007B109011
:107CA30008D6E0F91218DB7404122263027DE6742D
:107CB300096E6003027DE69081EC74131222B374A3
:107CC3000E122160908260740612216074131222D6
:107CD300AB79091216117508067509007808122484
:107CE300D074231222B374151222AB12178B7402B1
:107CF300122263E964016003027DE674191222997A
:107D0300E0F508E4F50AF50B7418780812205874A6
:107D13001A122299127E181220587808790C122010
:107D2300FE741B122299127DFF1220587808790CD9
:107D33001220FE741C122299127DF41220FE740488
:107D43001222997808122120741D122299127DEBB8
:107D5300741E122299E0C0E07403122299D0E0F05D
:107D6300741F122299E0C0E07402122299D0E0F04D
:107D73007420122299E0C0E07401122299D0E0F03D
:107D8300740412229912213B90191312214774048F
:107D93001222B379047A087B04121521AC18AD19A9
:107DA30079017A007B0412152174031222B379013D
:107DB3007A027B0412152174021222B379017A0329
:107DC3007B0412152174011222B379017A067B0414
:107DD3001215217419122299AC82AD837A08790C99
:107DE3001218B17443026F64E0851882851983F019
:107DF30022E0F50CE4F50D7808790C22E0F50CE4AB
:107E0300F50E7408780C22E0F8A3E0F9901911E854
:107E1300F0A3E9F022E0F50CE4F50DF50EF50F748F
:107E230010780C2290190FE508F0A3E509F09019DA
:107E33000F2274F41222BD74F012224D89087401CA
:107E430065086003027EEE90824EAC18AD1974068D
:107E5300122160AA18AB19790112198F90830F743C
:107E63000C1222B37404122160750A04F50B780A0C
:107E73001224D07404122299AC82AD83740E1222A0
:107E8300AB12178B7402122263E9701B90825A742F
:107E9300061222B3740612216074061222B37A0604
:107EA3007901121989804490827E74061222B37478
:107EB3000612216074061222B37A06790112198917
:107EC300851882851983E0F97401122299E0F8126A
:107ED3007EF3FCE9FD9008D2ECF0A3EDF0A3E4F00F
:107EE300A3127F117A02790E1218B17410027577FA
:107EF30075F0E8A4C8AAF075F003A42AFA75F0E8AF
:107F0300E9A42AF9E8228518828519837401F0AC63
:107F130018AD1922C082C083ECFAEDFB901913123D
:107F230024E3790012154B740412226302774A7416
:107F3300F71222BD74FF12224DE9FEECFFEE700F23
:107F43009008E2E4127F781275B11218B18021749F
:107F5300016E701CEF600574086F70089008E2747E
:107F630001F0800C9008E2E412767970031219177D
:107F730074010277AFF08518828519832274F71292
:107F830022BD8A828B837900E06402701AA3E0FA2F
:107F9300A3E0FB8A828B83E0FEA3E0FBEE8C828D61
:107FA30083F0A3EBF0800B8C828D8374FFF0A3F03E
:107FB30079017F0102238F74F71222BDEAFEEBFFE2
:107FC300900353E075F003A4FAABF01218458E82C8
:107FD3008F83EAF0A3EBF08E828F83E0FCA3E0FDB6
:107FE300EC4D7004791380097AFF7BFF1215CF796A
:037FF3000080BF4C
:087FF800851A87C2AF020132B5
:10800000EB08A30BF708A90B0309AF0B0F09B50B7E
:108010001B09BB0B2D09BB0B3909C10B0F09C70B82
:108020002709CD0B000000004B09CD0B5709D30BDE
:108030000000000000000000000000000000000040
:108040000000000000000000000000000000000030
:1080500048554F574549594920546563686E6F6CC0
:108060006F677920436F2E2C204C74642E00010121
:1080700002010201010201020303040103010101E3
:1080800001010303020103390F5916D31415182BEC
:108090000EFB0A3714150C23199F155D0CFB1648AF
:1080A000554F5745495949000000000000000000A5
:1080B00000000000000000000000000000000000C0
:1080C00000000000000000000000000000000000B0
:1080D0000000000000000000000000000000F401AB
:1080E000FA00960064004B0032001E001400618408
:1080F0005DDC0A824A90C74C1B31A7173115462315
:1081000008E5A7AA59BC5C4D77183B8E3D010000DD
:108110000000000000000000000000000087AF70B9
:1081200050C2B4D5D4ACE242475E91BDE03456684B
:108130001F6758DB43AEA54A67D72091284E378B7F
:10814000AEB5271EEAA29D4935A06D7B56517C68CD
:10815000F0A6187716B4A04CB7FC2C6FE16E4874EB
:10816000EB19828A468CB64D30E37590C67FFB349E
:108170009B5F800000800010000000000000E37999
:108180003BE3D0309790A74A734D8CFCA68FC7CAAB
:10819000723C3FBF46A0E3415301DB40F39B5B2AA7
:1081A000DF27BE7C36A37A4DA7300A27570CE2E9B9
:1081B0004398577CC09E8A43FB9DFC427BABB6FE36
:1081C000AA883FB4A0BBC14FE199790D4920F7457A
:1081D000671393F636A005411E83205C1711FE003D
:1081E0006578706572696D656E74616C0000000081
:1081F000000000000000000000000000000000007F
:1082000000000000000000003132333435363738CA
:108210003930313200000000000000000000000092
:10822000302E322E582E38303200012A0000000045
:10823000001B7869E0AB50C3F0D2000000000000E2
:1082400000000000000000003D0B430B0000000098
:10825000000000006078B6A09415F2F3141516170C
:108260006188C6A1A41655085B08000095199B19E2
:1082700000000000000000001515000000001213AF
:108280001415161759195F190000FD140315000085
:10829000312E342E31000000D50C000017161D16AB
:1082A000000041413031000000100000FFFFFFE8F6
:1082B00003000088130000AA000000DC050000C8CD
:1082C00000000001000000983A0000307500003006
:1082D0002E320080EE360090010000320000002CAB
:1082E000010000D007000040420F00C0D401000090
:1082F0005C260558020000F4010000FFFFFFFF00AC
:1083000000203F0000C84260EA00000A000000FFB1
:10831000029D8E55555500FFFFFF00F8FFFFFFFF40
:10832000029D8E0300000071020000F4FFFFFF0DAC
:108330000000001900000001C8000050000000F615
:10834000FFFFFF070000001A00000005000000F119
:10835000FFFFFF0B0000000200000064000000416E
:108360009C0000430000000100FF000000FF007DB2
:10837000000000E7FFFFFF31B1E1FF04000000D67D
:10838000BE898E0008000002C88302F48302DC83E9
:1083900010FE8002DA8302D883109E8102C283021B
:1083A000EA8302B68302B883002A0429022901293C
:1083B00003280128002801180018C1CCC2CCC3CC66
:1083C000022A0A18232A242AC0CC502A2A2A292A17
:1083D000282A272A042A262A031802180418062AFB
:1083E000072A052A08293000252AE0FFE1FF0000BE
:1083F000192A032A0F180CC082C08390619074045C
:10840000F0A37448F0A37402F09061807440F0907F
:1084100061BC7403F09061877419F0906265741BFD
:10842000F0906249E0C3941390619C40107409F08D
:108430009060667401F090619F7428800D740BF059
:10844000906066E4F090619F742CF01285E27009F0
:10845000C291900385746780059003857461F01262
:10846000865490345CE493F46006E493F9120FFFB1
:1084700079051212D5028662C082C083E9540FF9D1
:10848000906185E0696012E5C654B84441F5C6E5DF
:108490009E5447644170F8E9F053C6B8E59E5447CE
:1084A00070FA028662C082C083A8A853A87E906139
:1084B00081E41292E8C2BA539AFEC289759B00C247
:1084C000C275E90075910075BF0075A91175B905F0
:1084D000906181F0A374C0F0A3E4F0D2BA439A0192
:1084E00074805842A8028662F0A3F0028662C082BD
:1084F000C08374F812224D9003831297E870030230
:1085000085DA900383E0544060177908AA18AB1904
:10851000121101AA18AB19120D65900383E054BF24
:10852000F0E054806010790C7A4B7B0512110190B9
:108530000383E0547FF0E0A2E0501E1285E2700950
:10854000C291900385746780059003857461F01271
:108550000D6B900383E054FEF0E05402601E12861F
:10856000267009D2919003857471800590038574FB
:108570006AF0120D6B900383E054FDF0E054046048
:1085800010903460128657120D71900383E054FBF3
:10859000F0E054086010903461128657120D71900B
:1085A0000383E054F7F0E05410600D128654120D6E
:1085B00071900383E054EFF0E05420600A120D71D3
:1085C000900383E054DFF0A3E05401600D12102308
:1085D000120D77900384E054FEF0740812226302B7
:1085E000866290619A128854900525E0640122C049
:1085F00082C083E9600514601780291285E2700942
:10860000C2919003857467801A900385746180130A
:108610001286267009D291900385747180059003AB
:1086200085746AF0803C90619A128846900525E036
:10863000640122C082C083E9600814600A14600CDF
:10864000801090346080089034618003903462120E
:108650008657800E903462E493906186F022A2E007
:1086600092AFD083D08202013274EA1222BD74F438
:1086700012224D908377AC18AD19740412216090CA
:10868000346093F460030287DB907808E0C39402BF
:1086900050030287BF90823274041222B37408120E
:1086A0002160A818A9198814891574041222A388B6
:1086B000088909AE08AF097510FF7511FF750EFF27
:1086C0007C00750C48750D78801274086C7003027C
:1086D000875574096C607E740A6C6079850C82859C
:1086E0000D8378081221118E828F83A909E50AC9AA
:1086F000F888127418780812203FE5124508F8C36C
:10870000E098A3E099850C82850D837808122111E9
:1087100040188E828F837418780812203FE5124526
:1087200008F8E0C398F8A3E0801A741878081220BB
:108730003FE5124508FAE9FB8E828F831294AFEA77
:10874000C398F8EB99F9C3E89510E995115006889C
:108750001089118C0E0CE50C2404F50C5002050D4B
:10876000ECC3941350030286CA74FF65107004743E
:10877000FF65116024850E087402780812223A748D
:10878000482508F58274783509F583780812211197
:10879000851482851583E508F0EE2402FE50010F52
:1087A000851482851583A3858214858315740C1224
:1087B0002299E5826E7003E5836F60030286B775C8
:1087C000080175090078081224D074021222B37AC5
:1087D000187B0D12166B7402122263740C12226342
:1087E0007F0E02238FC082C0839061AE7468F0A3B5
:1087F000746AF090624574FBF0A304F053F4FD43F7
:10880000FE029005257401F09061A0E0643A906149
:108810009A7019128854740164017009C29190030E
:10882000857467801E900385746180171288467472
:108830000164017009D291900385747180059003E1
:1088400085746A0284EA743FF0A3745AF09061A0C0
:10885000747FF0227433F0A37455F09061A0743AE1
:10886000F0227F0402238FC082C0839004D7E0648B
:1088700001700A9004DCE06004790C800279000247
:108880008662C082C08375E1F19004DAE060511421
:10889000600914605514604D147054121035900422
:1088A000C9E0F97ACA7B0412125790837F12212FF4
:1088B00012128D90831312212F1212639004DBE0A9
:1088C000F912126F79011212C91289A1241AF582C4
:1088D000E438F583744DF0A37410F07900028662D9
:1088E00012103B80B912104180B412104780AF794A
:1088F0001280EA74F41222BD75D90D9004D0E0A262
:10890000E0E4331313F8128AD9484401F5D975828B
:10891000CA758304128AE37004E583640470F575F4
:1089200082D1758304128C22E58264D77004E583BA
:10893000640470F175E1959004D0E0F97AD17B047C
:1089400012125D9016A374D5F0A3740F128A181238
:108950008A62128A59128B9C9004DAE064019004B6
:10896000C7700B1289AA1221119083838009128982
:10897000AA12211190837B780812208A908317789D
:10898000081220D81289A1128A50780812212012C8
:1089900089A1128A477413F09003817402F002884F
:1089A000629004C7E0F8A3E0C82212975778082223
:1089B00074F71222BD128AC9F5D97582CA7583046B
:1089C000128AE37004E583640470F59004E0E060CB
:1089D0000A78E17904FA128ABDDAFB128B6A128AEC
:1089E000E37004E583640470F5900500E0600A78A4
:1089F000017905FA128ABDDAFB75E1959016A37428
:108A0000E1F0A3740F128A18128A227412F09003F4
:108A1000817401F0FF02238F128B8574DBF0A37445
:108A20000F22128A62128A59128BA09004C7E0F8B2
:108A3000A3E0C8128A5074FF1292D69004C7E0F8DF
:108A4000A3E0C8128A47222414F582E438F5832271
:108A5000240EF582E438F58322F0A374F3F0A374B6
:108A60000F22128A6622128A6A22F0A37461F0A38E
:108A700074112274F71222BD128AC94402F5D97505
:108A800082CA758304128AE37004E583640470F576
:108A90009004E0E0600A78E17904FA128ABDDAFB1A
:108AA00075E1959016A3128AEBF0A3128AEB128A55
:108AB000257414F09003817404F0028E1E8882895C
:108AC00083128C26A882A983229004E0128AD022E5
:108AD000E02407F5D9128AD9229004C9E0C43333BF
:108AE00054C022128C26E58264D02274ED128AF8DA
:108AF000128AF8F0A3740F22F0A3740FF0A374EDA0
:108B00002274F71222BD128AC94406F5D97582CAA9
:108B1000758304128AE37004E583640470F590049D
:108B2000E0E0600A78E17904FA128ABDDAFB128B80
:108B30006A128AE37004E583640470F5900500E02E
:108B4000600A78017905FA128ABDDAFB75E1959021
:108B500016A374E7F0A3740F128B7B128A2274158C
:108B6000F09003817403F0028E1E900500128AD0EB
:108B70004404F5D97582CA75830422128B85746109
:108B8000F0A3741122128B8922128B967461F0A3C8
:108B90007411128B9622128A6AF0A322128BA022E1
:108BA000F09016B17461F0A37411128B897461F0A6
:108BB000A37411128A66F022C082C0831289A12494
:108BC00006F582E438F583E40284E874F71222BDE6
:108BD0009003AF1294A174B128F8740339F9E82412
:108BE00005FAE439FB8A828B831295648882898333
:108BF000A3A3A3A3A3A3A3A3A3ECF0A3ED128C1B95
:108C0000A3A3A3A3A3A3E024FFF8A3E034FFF98A5E
:108C1000828B83E8F0A3E9F0028E1EF088828983BC
:108C2000A322128C2622E0F5D9A3229061D0E0F88D
:108C30007480C398FC128C3E22F0128C3E22EA24EF
:108C400082F582E43BF583E022128C542404F8E49C
:108C50003583F922F582E43FF583E58222128C26E2
:108C6000E865822274F71222BDEAFEEBFF9061D024
:108C7000E0707875D90E75D90375D904EE248B127E
:108C80008CF0128C5D7003E9658370F6EE2483121C
:108C90008C49128C5D7003E9658370F675E19579F6
:108CA00008EE248BFAE43FFB1210F57904EE2483DE
:108CB000FAE43FFB1210F57C00EE24AAF8E43FF939
:108CC000ECFAC3E49AFA95E0FBEE2AFAEF3BFBEAF2
:108CD000248A12977188828983F00CA3A882A983C1
:108CE000ECC3940840DA128DFF80027900028E1ED8
:108CF000128C542408F8E43583F922C082C08375AD
:108D0000D90275D90375D90575E195EA246FF58205
:108D1000E43B1294ADEA2471F582E43B128E0C021E
:108D2000866274F61222BDEAFEEBFF90052B7406F4
:108D3000128D811224D07C01790312115574021214
:108D4000226375D90675D90375822B758305128D3B
:108D5000797004E583640570F575E195900381E011
:108D600064087010EE246FF582E43F1294ADEE2497
:108D7000711295E57901028F49128C26E5826430E3
:108D800022F075082B75090578082274F61222BDA9
:108D9000EAFEEBFF9061D0E07036780190052B740D
:108DA0000BF0900381E06407701975082B750905B5
:108DB00078081224D07C0179031211557402122212
:108DC000637805129051128C22DAFB128DFC80021E
:108DD0007900028F4974F71222BDEAFEEBFF75D9C4
:108DE0000375D90375D90DEE24DD12974BF5D975AE
:108DF000E1957904121293128DFF802275E195EEB0
:108E0000246F1297EEEE2471F582E43FF583E8F0CB
:108E1000A3E9F0790122F0EEA2E092AF79007F01A0
:108E200002238F74F61222BD128F566004780480DC
:108E3000027800E8240BF8EAC39840477C099005C3
:108E40002BEC128E9D128EACDDFB129748601B75C9
:108E5000082B75090578081224D07903EEFAEFFB88
:108E600012115574021222637C0D128E88128F4EDD
:108E700070FB75E19579041212931291DFA3F079DA
:108E80000180027900028F49128E8E8C08227401B3
:108E90002CF5D975D90375822B75830522F0EE2444
:108EA000E2F8E43FF97A2C7B057D0822128EB0228D
:108EB00088828983E08A828B83128C1BA882A98393
:108EC0008A828B83A3AA82AB832274F61222BD12FC
:108ED0008F566004780480027800E82408F8EAC31A
:108EE000984064780690052B740CF090039EE090F7
:108EF000052CF090039FE090052DF09003A0E090EA
:108F0000052EF09003A1E090052FF09003A2E090D1
:108F10000530128FE5601B75082B7509057808125E
:108F200024D07C067903EEFA1211557402122263E2
:108F3000780A128FDF128F4E70FB75E1957904125B
:108F40001293128DFF800279007F0202238F128C10
:108F5000261508E50822EAFEEBFF9061D0E0F874E0
:108F600080C398FA128FEA2274F61222BD128F562D
:108F70006004780480027800E82404F8EAC398408A
:108F800059780290052BE8F0EE24F412974B9005E7
:108F90002C128FE5601B75082B75090578081224C3
:108FA000D07C027903EEFA12115574021222637812
:108FB00006128FDF128F4E70FB75E195EE2473124F
:108FC00091E2EE247F1291E21291DFA3F079041274
:108FD0001293EE240D128E0280027900028F491244
:108FE0009057880822F0128FEA22EE2482F582E45C
:108FF0003FF583E02274F61222BD128C2B600478B8
:109000000480027800E82404F8ECC398403E78021B
:1090100090052B7407F0EA24F512977190052C1235
:109020008C39601975082B75090578081224D07CD5
:1090300002790312115574021222637806129051BC
:10904000128C22DAFB75E195790180027900028F9A
:1090500049129057E8FA22740128F5D975D9037599
:10906000822B7583052274F71222BDE9FFA2AFE4BB
:1090700033FEC2AF7C0080010C1290FD5011ECF861
:10908000EA28F8E43BF91290F3E06F70EB8016EAFF
:10909000246EF8E43BF9E0FCEA2CFAE43BFB129185
:1090A00020EF1291EBEEA2E092AF028E1EC082C0C2
:1090B00083A2AFE433FDC2AF12976E14F07C008040
:1090C0001BECF8EA28F8E43BF9E8246BF582E43974
:1090D000F583E0C0E01290F3D0E0F00C1290FD4078
:1090E000E0EA246DF582E43BF58374FF12912AEDEA
:1090F00002865EE8246AF582E439F5832212976ECF
:10910000F8ECC39822C082C083A8A8C2AF129120F5
:10911000E912912AE8A2E7E433FAE8A2E7028660BE
:10912000EA246AF582E43BF58322F0EA2469F582B9
:10913000E43BF583E4F02274F31222BDEAFEEBFF78
:10914000ECFAEDFB8A828B83A3A3A3A3E0541FF068
:10915000EE24361291E2750A00EE245DFCE43FFD38
:109160008A828B83E08C828D83F0750B00E50A3355
:10917000333354F8F50C8A828B83E0F508750900C7
:10918000E50B780812221BE508A2E05027EE2436F2
:10919000F8E43FF988828983E0F508EE2508F508B0
:1091A000E43FF509E5082438F582E43509F583E55F
:1091B0000C1291EB050B050CE50BC3940840B705A9
:1091C0000A8A828B83A3AA82AB838C828D83A3AC11
:1091D00082AD83E50AC3940540867F0502238FEEA6
:1091E000241DF582E43FF583E4F0221291F104F0AE
:1091F00022F088828983E02274F71222BD9003ADA9
:10920000E0640170030292CE9003B3E06003029227
:10921000CE7401F0A3E4F0A3F090041304F09004E2
:1092200018F09003B61292D59003C004F09003E6B4
:10923000E4F09003C91292DCA3F0900430F09004A3
:1092400024F09004197480F0A3E4F090041FF090CF
:10925000049B1292F39004A4F0900433F0900483E2
:109260001292F3A3F0A3F090048FF0900491F09089
:10927000048DF09004A71292F39004BAF09004B415
:109280001292DC74FF90041B7804F0A3D8FC7A0ED1
:109290007B0478BB79041292EE64C07003E9640425
:1092A00070F47A937B04789579031292EE649D7042
:1092B00003E9640370F49003ADE004F06401700806
:1092C0009003B5E09003AFF07AB17B0380047A009D
:1092D0007B00028E1EE41292E8A3F0221292E0229A
:1092E0001292E8A31292E822F0A3F0A3F022128EC9
:1092F000B0E8221292E0A3F0A3F022C082C0838AD9
:10930000828B83A3A3A3E0600F8A828B83A3A3A392
:10931000E4F09003AEE014F09003ADE014F07006BA
:109320009003AF74FFF08A828B83A3A3E4F09004D0
:10933000C0E0700D9003AEE0640170057900121278
:1093400075028662C082C0839003B4E4F09003B3D8
:10935000F09003ADF0A3F0A374FFF075E1F1028685
:1093600062C082C083780079009003B4E060047822
:10937000B1790388828983A3A3A3A3E0F90286625B
:1093800074EE1222BD8A0A890C9003AEE0F8E9C39C
:1093900098502278FF79FF9003B4E0601390042482
:1093A000E06401700590042A80039003DF1294AFFB
:1093B000E8FEE98011E96009A31294A11294928059
:1093C00005EA2AFEEB33FF8E0E8F0F7403780E1220
:1093D000222B9003AEE0F8C3E50E98E50F94005001
:1093E0000302947EE50A25E0F50AEB33F50BEC2C3D
:1093F000F508ED33F509AC0AAD0B8007EC2402FC4F
:10940000E43DFDC3E5089CE5099D4060C3EC9EED8D
:109410009F403FECF8EDF9EEFAEFFB1221C28B0F03
:10942000EA450F60068E0E8F0F8006750E00750FD1
:1094300000ECF8EDF9EEFAEFFB1221C28A108B1165
:10944000EC9510F8ED9511F9E8250EFCE9350FFDC6
:10945000801AE0F8E50CC3985012EEF8EFF9ECFA38
:10946000EDFB1221C28B0FEA450F7090C3EC950AF9
:10947000ED950B4009C3E5089CE5099D50067AFF70
:109480007BFF8009ECFAEDC313FBEA13FA7F0A02B3
:10949000238F74DF28F582740339F583E0FEA3E09F
:1094A00022E0F875F00AA4C8AAF02AF922F583127E
:1094B00097F42274F61222BD74FC12224DEAFEEBE0
:1094C000FF803CEE2463F8E43FF97A007B00A2AF12
:1094D000E433F50812955EEC4D600F1297AD700AFB
:1094E00088828983A3A3E4F0A3F0E508A2E092AF09
:1094F0001217FD9004C1E004F09004C2E004F0EE05
:109500002463F582E43FF5831297E870B69004C2B5
:10951000E060358E828F83A3A3A3A3E085188285A4
:109520001983F0A3E4F09004C2E0F87402122299C7
:10953000E8F0A3E4F074021222B3AA18AB1979017F
:10954000120DD19004C2E4F0EEFAEFFB1210ADEE72
:10955000FAEFFB12118B7404122263028F49C2AF1F
:1095600088828983E0FCA3E0FD2274F71222BDEA21
:10957000FEEBFF8E828F83A3A3A3A3E0FA7B0012EE
:109580000DA7EEFAEFFB1210C512116D028E1EC070
:1095900082C083E49003957808F0A3D8FC900395EB
:1095A000040284EA74F61222BDEAFEEBFFEC240307
:1095B000F8E43DF988088909EC2407F8E43DF9E866
:1095C000FCE9FD1295F11221C2EE240D1295E5126F
:1095D00095F11221C28B09EA45096006EE240D12AD
:1095E0009604028F49F582E43FF583E8F0A3E9F0A1
:1095F000228C828D831297F4850882850983E0FA94
:10960000A3E0FB22F582E43FF583E02401F0A3E030
:109610003400F02274F61222BDEAFEEBFFEE242E97
:10962000F582E43FF583129564780079FAECFAED5F
:10963000FB1221C2EE246F1295E5780079FAECFA5C
:10964000EDFB1221C28B09EA45096006EE246F1278
:109650009604028F4974F41222BDEAFEEBFF121247
:109660002D8A088B098C0A8D0B908357780812205D
:109670008A90831778081220D878081224CC8E821A
:109680008F8312975312212F1231A0740412226378
:10969000E960030297438E828F83E02402F8A3E0FF
:1096A0003400F9E8FAE9FB740C12229978081221C7
:1096B000118A828B83780812209D90831778081274
:1096C00021118A828B8378081220EBEE240BF5821D
:1096D000E43FF583C082C0838E828F83A3A3A3A3BC
:1096E000A3E02401F8A3E03400F9D083D082E0683D
:1096F0007003A3E06970047901804A8E828F83A38E
:10970000A3A3A3A3A3A312960AEE247312974B64F8
:10971000017013EE247412975D7003A3E069700664
:10972000EE2474129604EE247F12974B640170139A
:10973000EE248012975D7003A3E0697006EE24802A
:109740001296047900028862EE2482F582E43FF5E5
:1097500083E02212975722129792A3A3221297EE28
:109760008E828F83A3A3A3A3A3A3A3E06822EA24EA
:109770006EF582E43BF583E02274F71222BD129766
:10978000DD8A828B836005A3A312979212979B02B6
:109790008E16E0F8A3E0F5838882221297D3A3A364
:1097A000ECF0A3EDF08C828D83E4F0A32288828913
:1097B00083E0FAA3E0FB8A828B83E0FCA3E0FD88D0
:1097C0008289831297D3E4F0A31291F1FCA3E0FD08
:1097D000EC4D22ECF0A3EDF08A828B8322A2AFE461
:1097E00033FEC2AF8A828B831297F4E84922F58256
:1097F000E43FF583E0F8A3E0F92274F71222BDE913
:109800006006F812980FD8FBECFAEDFB028E1E8C66
:10981000828D83E08A828B831298258A828B83A330
:10982000AA82AB8322F08C828D83A3AC82AD83228B
:10983000C082C0839002EDE075F005A4FAABF0128F
:1098400018459002E9EAF0A3EBF09002E9129CE2DD
:1098500070047913805A7A00801574FFF0A312986F
:10986000B3F088828983A3A31298B3A3E4F00A908B
:1098700002EDE0F8EAC3985020EA75F005A4F8A9D3
:10988000F09002E9E028F8A3E039F9EA88828983B8
:1098900070C874FEF0A30480C57A9D7B0B120C0384
:1098A0007AF17B0B12087F7AFD7B0B120EE57900B3
:1098B00002A8A5F088828983A3A3A32274F21222AE
:1098C000BDEAFEEBFF8E828F83129CE26055EE2490
:1098D0000312A803129A15750B00780A1224D08A75
:1098E000828B83A31224E77C027D007AB47B8312EF
:1098F00009697404122263E9702E85088285098340
:10990000129A15780A1224D08A828B83A31224E734
:109910007C027D007AB27B8312096974041222638F
:10992000E970057902029A058E828F83A3A3E02451
:10993000F9C3940A40057918029A0590167D129C85
:10994000E2600CC3E498FAE499FB129A0850057996
:1099500001029A057A077B001218458A0A8B0BEAE6
:10996000450B70057913029A057A007B00803D90C3
:10997000167D12A53A8A0C8B0D7403780C12223ACC
:10998000850882850983E0250CF8A3E0350D8882DF
:10999000F583A3A3A3A3ECF0A3EDF090167DE02440
:1099A00001F0A3E03400F00AEA70010B129A0840BB
:1099B000BE850A82850B83E4F0A3F0750805F509DE
:1099C00078081224D0EEFCEFFDE50A2402FAE43513
:1099D0000BFB12177974021222639002EB129CE2C5
:1099E0009002EB6017E0FAA3E08003E8FAE9FB8A53
:1099F000828B83129CE270F38A828B83E50AF0A348
:109A0000E50BF07900029BD38E828F8312A558C399
:109A1000EA98EB992212A06B8A828B83E0F50A22E6
:109A2000C082C083E990167CF002A8A574F61222C9
:109A3000BD8A088B09E9FFECFAEDFB74145F60073F
:109A4000120B8574018009EFA2E6500E120B85E41B
:109A5000FCAA08AB09120F21800AA2E04004790297
:109A60008002790002A09474F61222BD8A088B0944
:109A7000E9FFECFAEDFBEFA2E5500F120B85740144
:109A8000FCAA08AB09120F21804974885F60397401
:109A9000085FFE120B85EEFCAA08AB09120F21E944
:109AA000F9602E740A12229912A0678A828B83A30E
:109AB000A3A3A3A3A3E0601B8A828B83A3A3A3A376
:109AC000A3E06401600B800BEFA2E1400479038006
:109AD00002790002A09474F21222BD74FB12224D8E
:109AE0008A088B09890AE4F50CF50D780C1224D04C
:109AF000750C02780C1224D0750CE2750D83780C6D
:109B00001224D07CFF7DFF7A017B00120B6D74065E
:109B10001222638A0C8B0DAE0CAF0DEE4F70030258
:109B20009BCAE4F50CF50D780C1224D07C047D0062
:109B3000791DAA08AB09120C457402122263740342
:109B4000122299EAF0A3EBF07403122299129CE21C
:109B500060748E828F8312A550851882851983E8E0
:109B6000F0A3E9F074021222997404F014122299FD
:109B700012A3567401F0740312229912A356A3E49F
:109B8000F0740312229912A356A3A374FFF0740376
:109B9000122299129BD874FFF0E50AF50B780B128C
:109BA00024D4790074011222B3AA08AB09120B8BDA
:109BB0007401122263E9FE6013740312229912A049
:109BC000671217FD80067E1580027E01EEF974058E
:109BD0001222637F0602238F12A35AA3A3A3227427
:109BE000EA1222BD8A128B138C108D119002EBE0C9
:109BF000F508A3E0F5097416122299E0F514A3E024
:109C0000F5157418122299E0F50AA3E0F50B800D02
:109C1000850882850983E0F508A3E0F509E5084594
:109C2000097003029CD97E007F00E5082405F50E2B
:109C3000E43509F50F80050EEE70010F8508828569
:109C4000098312A552C3EE98EF9950C48E0C8F0D64
:109C50007403780C12223A850E82850F83E0250C5E
:109C6000F50CA3E0350DF50D850C82F58312A5509A
:109C7000C3E89512E9951340BEC3E51098E5119924
:109C800040B5E50A450B6023780A1224D0781412F7
:109C900024D0850C82850D83E0FC7D00A312A06793
:109CA0001209697404122263E9608C741A122299F1
:109CB000129CE2601E850E82850F83E0FAA3E0F518
:109CC000838A82A3A3A3A312A06788828983EAF070
:109CD000A3EBF0AA0CAB0D80047A007B007F0E0290
:109CE000238F12A558E8492274EE1222BDECFEED36
:109CF000FF9002EBE0FCA3E0800A8C828D8312A52A
:109D000054E8FCE9FDEC4D7003029DA68C828D8326
:109D1000A312A550880889098882F583A3A3A3A369
:109D2000E0F50CA3E0F50DC3EA950CEB950D40CAE8
:109D30008C828D83A3A3E0F50EA3E0F50FE50C253F
:109D40000EF8E50D350FF9C3EA98EB9950AC750A9A
:109D500000750B008008050AE50A7002050BC3E5D3
:109D60000A950EE50B950F5091850A10850B11741D
:109D700003781012223AE5082510F8E5093511F9A3
:109D800088828983A3A3A3A3E06A7003A3E06B7016
:109D9000C5EE4F600B8E828F83E50CF0A3E50DF0CE
:109DA000E8FAE9FB80047A007B007F0A02238F74C3
:109DB000F01222BD74FE12224DEAFEEBFF75080080
:109DC000750900851882851983E4F0A3F0EE240458
:109DD000F50CE43FF50D850C82F58312A9E4A3850B
:109DE000820A85830B74FF6A700374FF6B6038A866
:109DF00018A9198808890978081224D08E828F83BF
:109E0000E0F50875090078081224D0850A82850BD0
:109E1000831224E7EA24010A50010B120B6D740629
:109E20001222638A088B098E828F83E0F50E750FEC
:109E300000780E1224D0850A82850B831224E77CD9
:109E4000027D007AB47B831209697404122263E9EB
:109E500070288E828F83E0F50E780E1224D0850A4A
:109E600082850B831224E77C027D007AB27B831209
:109E700009697404122263E9600B850C82850D83E5
:109E800012A06780458E828F83E0F50E780E122433
:109E9000D0850A82850B831224E77C027D007AB08C
:109EA0007B831209697404122263E960367412120A
:109EB000229912A067E5084509600F851882851967
:109EC00083E06A7003A3E06B6005120B97801F8527
:109ED0000882850983A3A3A3A3E024FFFAA3E034A7
:109EE000FF800A850C82850D83E0FAA3E0FB7414E1
:109EF00012229912A55488828983E58245836005E0
:109F0000EAF0A3EBF0AA08AB0902A80F74F612223C
:109F1000BD120BD98A828B83E5824583600512A02E
:109F20006780047A007B0002A09474F61222BD12AE
:109F30000BD98A828B83E58245836006A3A3E0F96F
:109F40008002791002A09474F21222BD74FC1222D5
:109F50004DEAFEEBFF8C088D09890A74021222B3C8
:109F6000120BDFE9F50B707FE50A602212A0531295
:109F70000B7385188285198312A067120B85E9F986
:109F80007C01EEFAEFFB120F21E9F50B7059AC08DA
:109F9000AD09EEFAEFFB1208D3E9F50B7049740234
:109FA000122299129FEE7412122299E0F50874FFA2
:109FB00065086033EE2402F50CE43FF50D780C12D1
:109FC00024D0750C1E750D00780C1224D0EEFCEF19
:109FD000FD7AF77B0B120C2774041222638E828F9A
:109FE00083A3A3A3E508F0A90B7404029BD0E0FEB1
:109FF000A3E0FF2274F51222BD74FC12224DEAFE8A
:10A00000EBFF8C088D09890A74021222B3120BDF50
:10A01000E9F97417696032E50A602112A053120B46
:10A020007385188285198312A067120B85E9F97C64
:10A0300001EEFAEFFB120F21E9F9700DAC08AD0942
:10A04000EEFAEFFB1208CDE9F974041222637F03E4
:10A0500002238F851882851983E4F0A3F0AC18AD34
:10A060001985088285098312A06B22E0FAA3E0FB20
:10A070002274F61222BDEAFEEBFF120B7FEA4B6060
:10A080000FEE24FFF8EF34FFF9EA28FAEB398003EA
:10A09000EEFAEFFB7F0202238F74EC1222BD74E60E
:10A0A00012224D8A088B098C0C8D0D7E007F00ECEE
:10A0B0002402F50AE4350DF50B850A82F583E0F8F4
:10A0C000741E68705C120BE58A0C8B0DAE0CAF0D24
:10A0D000EE4F700302A1748E828F83A3A3E0F87405
:10A0E000FE68700302A17474FF68700302A174E437
:10A0F000F50CF50D780C1224D0850A82850B83E0CF
:10A10000FD7C00AA08AB098E828F83A3A3A3E0F98C
:10A11000120C217402122263EEFAEFFB120BEB8099
:10A12000538C828D83A3858210858311741268708D
:10A1300005E064016043120BE58A0E8B0FAE0EAF93
:10A140000FEE4F6034EE2404F50EE43FF50F850E5C
:10A1500082F583E0FC6022A2E74019850A82850B24
:10A1600083E0F9AA08AB09120C39850E82850F83AA
:10A17000E0D2E7F0790002A34C90167CE0F460682E
:10A18000850A82850B83E0FA74FE2AC3941750581F
:10A19000EAC313F50E750F007402780E12223A749A
:10A1A00000250EF87480350FF9E824FCF50EE9342B
:10A1B000FFF50F850E82F58312A53AEC4D6029E874
:10A1C00024FEF582E934FFF583129CE2601A850CC7
:10A1D00082850D83E0FB700B851082851183E0641E
:10A1E00001700A74126A6005790602A34C740412A5
:10A1F00022A38812891378121224D0850C82850D2F
:10A2000083A3A3A31224E7850C82850D83A3A3A3B4
:10A21000A3A312A53A851082851183E0FAEBF98594
:10A220000E82850F8312A3561222BB74041222637E
:10A23000E9F50C600302A34A74041222B3AA08AB26
:10A2400009850A82850B83E0C313F50C750D007434
:10A2500002780C12223A74FE250CF582747F350DBB
:10A26000F58312A3561222BBE9F50C600302A2F299
:10A27000850A82850B83E0FD74046D700302A34A96
:10A2800074041222A3880C890D780C1224D07C004F
:10A29000AA08AB0990167CE0F9120C217402122274
:10A2A00063E9F50C600302A34A850A82850B83E00B
:10A2B000F974041222AB120C3F8B09EA4509600ABB
:10A2C000742E12229912A356E4F0850A82850B831C
:10A2D000E0F8741268700B851082851183E06401C8
:10A2E0006068EE4F6064E88E828F83A3A3A3A3F01F
:10A2F0008058851082851183E0704F850A82850B16
:10A3000083E0851882851983F07403122299E9F09D
:10A31000850A82850B83E0F8740468600D74066812
:10A32000600874086860037410687404122299123B
:10A33000A5547401122299E8F0A3E9F0AC18AD1904
:10A34000AA08AB09120885750C00A90C741A122210
:10A35000637F0C02238F12A35A22E0F8A3E0F58357
:10A36000888222790002013274EA1222BD74FA1244
:10A37000224D8A108B118C828D8312A067EC2402EF
:10A38000F512E43DF513851282F583C3E09AA3E04C
:10A390009B4004EA4B7005790102A532851882853D
:10A3A0001983E4F07402122299E4F0A3F08007E824
:10A3B0002401FAE439FBE4F508F50978081224D001
:10A3C00078081224D078081224D08512828513834D
:10A3D00012A53A120B6D74061222638A088B09EAE1
:10A3E0004509700302A4D38A828B83A385820E85DC
:10A3F000830FEA2404F50AE43509F50B85188285F4
:10A400001983E0600302A4E074041222A3880C897B
:10A410000D780C1224D07CFF7DFF7905AA10AB11BA
:10A42000120C4574021222638A0C8B0DAE0CAF0D18
:10A43000EE4F7005791102A5327402122299EEF0E6
:10A44000A3EFF0850882850983E06402702374011C
:10A450001222997401F07404122299E0F514A3E019
:10A46000F5157402781412222B85140C85150D80B5
:10A470007974011222997402F0740412229912A5BF
:10A48000547A127B001221C2880C890D12A55E75C8
:10A49000081075090078081224D012A54012177907
:10A4A0007402122263EE2410FE50010F851882857B
:10A4B0001983E004F0C3950CE4950D5016850A82CB
:10A4C000850B8312A55474FF68700374FF696003E1
:10A4D00002A3AF851882851983E0703B790A805208
:10A4E0007401122299E0640170A2850882850983B3
:10A4F000E0640270DE12A55E750802750900780836
:10A500001224D012A5401217797402122263EE248D
:10A5100002FE50980F8095AC18AD19AA10AB11121D
:10A520000891E9600B740212229912A0671217FDBC
:10A5300079007406122263029CDDE0FCA3E0FD2298
:10A54000850E82850F83E0FCA3E0FDEEFAEFFB228F
:10A55000A3A3A3A312A55822E0F8A3E0F922850A39
:10A5600082850B83E08E828F83F0A3AE82AF8385DA
:10A570000A82850B83A3E08E828F83F0A30EAF83C4
:10A580002274F61222BD12A6294004EA4B70047907
:10A59000018039E4F508F50978081224D08C828D01
:10A5A00083A3A3A3A3E0F50878081224D012A61D64
:10A5B0001224D0EEFCEFFD120B6D74061222638B99
:10A5C00009EA45097004790A8002790002A09474AE
:10A5D000F61222BD12A6294004EA4B7004790180CC
:10A5E00039E4F508F50978081224D08C828D83A30C
:10A5F000A3A3A3E0F50878081224D012A61D122404
:10A60000D0EEFCEFFD120B6D74061222638B09EA8B
:10A6100045097004790A8002790002A094EC2405AF
:10A62000F508E43DF5097808228C828D83A3A312F6
:10A630009FEE8C828D8312A06BC3EE9AEF9B2274E7
:10A64000F61222BD74FE12224DEAFEEBFF8C828DC3
:10A6500083AC18AD1912A067120B738A088B09A876
:10A6600008A909E84970047901800A12A744EEFAA2
:10A67000EFFB120B5B740212226302A09474F012BF
:10A6800022BD74FE12224D8A0A8B0B8C088D09752F
:10A690000C008002050C850882850983A3A3E0F8DD
:10A6A000E50CC3985075AE0CEE2EFEE433FF850822
:10A6B00082850983E02EF8A3E03FF988828983AC84
:10A6C00018AD19E0FAA3E0F8E4C8F9EA28E439FB88
:10A6D000120B738A0E8B0FA80EA90FE8497018127F
:10A6E000A732E088828983F012A732A3E0888289AA
:10A6F00083A3F07901802612A744AA0AAB0B120BA0
:10A700005BE9F9608F12A720E08A828B83F012A7A1
:10A7100020A3E08A828B83A3F08002790002A80F35
:10A7200085088285098312A06BEA2EF582EB3FF53E
:10A73000832285088285098312A558E82EF582E9CF
:10A740003FF58322851882851983E0FCA3E0FD880C
:10A75000828983A3A3A3E0F92274F01222BDECFE48
:10A76000EDFF8E828F8312A55412A800C3E098A338
:10A77000E0994004E8497005790102A7FEEE24053E
:10A78000F50EE43FF50FEE2404F50AE43FF50B85E2
:10A790000A82F583E0F50C750D00780C1224D07850
:10A7A0000E1224D07C027D007AB47B831209697476
:10A7B00004122263E9700479108043E4F50C780CEC
:10A7C0001224D0850A82850B83E0F50A750B007888
:10A7D0000A1224D0780E1224D085088285098312AB
:10A7E000A53A8E828F8312A067120B6D7406122217
:10A7F000638B09EA45097004790A800279008014A4
:10A80000EE2402F508E43FF509850882F5832274F9
:10A81000021222637F0802238F74F41222BD74FE99
:10A8200012224DEAFEEBFF8C088D0912A05D120B7F
:10A8300073EA4B70047901802278081224D07402E4
:10A8400012229912A53A8A828B83A3A3A3E0F9EE80
:10A85000FAEFFB120B61740212226374021222637C
:10A860007F0402238F02A363C082C0839002EB8027
:10A870000488828983129CE2602788828983A3A34B
:10A88000A3A3A3E0FCA3E0F5838C82A3A3A3A3E08E
:10A890006A7003A3E06B70D9E82402FAE439FB8004
:10A8A000047A007B00D083D08202013274F6122237
:10A8B000BDECFEEDFF120BE58A088B09A808A9097B
:10A8C000E849602BEE4F60098E828F83E8F0A3E9A0
:10A8D000F088828983A3A3E0F874FE687004791776
:10A8E000800F74FF68700479008006791680027901
:10A8F0000202A094C082C0837C0080010C9002ED13
:10A90000E0F8ECC3985025EC75F005A4F8A9F09098
:10A9100002E9E028F8A3E039F988828983E06A70C7
:10A9200003A3E06B70D6E8FAE9FB80047A007B00B1
:10A9300002A8A574F71222BDEAFEEBFFEE2402FA8C
:10A94000E43FFB120C2D8E828F83A3A3A374FFF030
:10A950007F0102238F74F61222BDE9FE120BE58AF5
:10A96000088B09A808A909E849601BE82404F582B6
:10A97000E439F583EEF8E07B00240150010B684BCD
:10A980007004E05480F002A09474F41222BDEA4BEB
:10A99000604FEA2402F508E43BF509850882F58357
:10A9A000E0F874FF68603A74FE686035EA2403FEDC
:10A9B000E43BFFE4F50AF50B780A1224D07D1E7CF7
:10A9C000178A828B8312A9E4E0F9120C2174021217
:10A9D000226385088285098374FEF08E828F83044A
:10A9E000F002A86012A06B8E828F832274F0122274
:10A9F000BD8A0A8B0B890C74FE650A700474FF65AE
:10AA00000B700302AAC1E9702B120BE58B09EA4512
:10AA100009701E7AFF7BFF120BE58A088B09AE08CE
:10AA2000AF09EE4F600B8E828F83E50AF0A3E50B32
:10AA3000F002AAC17401650C701A120BE58A088B2A
:10AA400009AE08AF09EE4F60788E828F8374FFF0F5
:10AA5000A3F080217402650C70677901120F03E97D
:10AA6000705FAA0AAB0B120BE58A088B09AE08AF20
:10AA700009EE4F604C12A800E0F874FF686038746B
:10AA8000FE686023E4F50EF50F780E1224D07D1ECB
:10AA90007C14AA0AAB0B8E828F83A3A3A3E0F912C6
:10AAA0000C217402122263EEFAEFFB120BEB850805
:10AAB0008285098374FFF08E828F83A3A3A3A3E40E
:10AAC000F002A81474F41222BD907803E06442707E
:10AAD0005690052AE014F0704EC2AF12AADE00783C
:10AAE0002AD0E0F618D0E0F6E59F5407F870057517
:10AAF00009FF800375097FC4C0E07829E6F50808DE
:10AB0000E65509F509740B780812222BD0E02508C8
:10AB1000F8906270E0A2E740F8E8C333906272F008
:10AB2000906270E0D2E0F09003AFE0F4700302AD09
:10AB30009A12B46512ADB612B4A3601512ADB61276
:10AB4000B3F2EE2400F582EF3401F583E0F9121739
:10AB5000CD8E828F83A3A3A3A3A3A3A312ADE312DD
:10AB6000B3C2906054E0900388F0906055E0900389
:10AB700089F0906056E090038AF0906057E090036F
:10AB80008BF0906058E090038CF0906059E0900357
:10AB90008DF090605AE090038EF090605BE090033F
:10ABA0008FF090605CE0FA900390F090605DE0FCC4
:10ABB000900391F090605EE0FD900392F090605FF2
:10ABC000E0FB900393F090038EE02AF508E4340054
:10ABD000F509E5082DF508E43509F509E5082CFC2B
:10ABE000E43509FDEC2BFCE43DFDEE24F612B854EF
:10ABF0002CF0A3E03DF0EE24F812B8542AF0A3E0C4
:10AC00003400F0EE24FA12ADF0EE24FEF582E43FBB
:10AC1000F58312B4A3603E12ADD5F582E912AD9F63
:10AC20003DF0906000E0FA900390E0FCEA2AFAE43C
:10AC300033FBE82AFAE93BFBEA244AF582E412AD49
:10AC40009F3400F012ADD5F8E93BF9E82494F58281
:10AC5000E43912ADF490038EE0700E900391E07031
:10AC600008A3E07004A3E060638E828F83A3A3A394
:10AC7000A3A312B4A912ADC1700312BC0F90038933
:10AC8000E0601FEE241C12B84412BBD4E07013EE37
:10AC9000247312B854700BEE247F12B85470031250
:10ACA000BC0F906062E0700302AD398E828F831218
:10ACB000BC1DE82406FCE439FDE82402FAE439FB73
:10ACC0001212278E828F8312B43F807412B3AEF0BB
:10ACD000900390E0600A12ADC1702612B44B802040
:10ACE000EE24FC12ADF0906000E0F825E0F8E433CB
:10ACF000F9EE24FE12B3D124DEF582E43912ADF967
:10AD0000F012ADA812ADE3E0687003A3E069600340
:10AD100002AC7D12B85160128E828F83A3A3A3A3CD
:10AD2000A3E064057002A3E0600479088002793E24
:10AD3000EEFAEFFB1210CB8061EE241DF582E43FAA
:10AD4000F583E4F0A3F0906060E0C0E0EE2468F5E5
:10AD500082E43FF583D0E0F09061C8E060061228FD
:10AD600024E970F48E828F83A3A3A3E0602C90610A
:10AD7000C8E070069060607480F0EEFAEFFB12118C
:10AD8000E5E9640160147902EEFAEFFB1229B512CD
:10AD900011D9E96401600312116D7F0402238F3B16
:10ADA000F583E02CF0A3E022EE12ADAD22240BF5EA
:10ADB00082E43FF58322EE2401F582EF3401F5832E
:10ADC00022EE240FF582E43FF583E4F0EE241C121A
:10ADD000B858640122906000E0FA25E0FAE433FB01
:10ADE000E82A2212BC218E828F83A3A3A3A3A322CD
:10ADF000F582E43F12ADF9F022F583E02401F0A3DF
:10AE0000E034002253BFEF02013274F01222BD90F1
:10AE100003AF12B4659061D0E0700EEE2463F5824A
:10AE2000E43FF58312B4A3600512B3AE8023EE2491
:10AE30006912B854701CEE247312B8547014EE24C6
:10AE40007F12B854700CEE241C12B878700412B43F
:10AE50004BF08E828F83A3A3A3A3A312B3EA241D76
:10AE600012B3D1240108500109EE2407F50AE43F8A
:10AE7000F50B850A8212B3C812ADA9C3E098A3E00E
:10AE80009950208E828F83A3A3A3A3A3A3A3C082E0
:10AE9000C08312ADA812BC1DD083D08212BC3B501F
:10AEA0001B802112ADA8C082C0838E828F83A3A392
:10AEB00012BC18D083D08212BC2750089004C6E080
:10AEC0006401701512B3AEF012B4238E828F83A387
:10AED000A3A3A3A3A3A312B3C2EE247312B87860F2
:10AEE0000302AF7D12B3961224E78E828F83A3A351
:10AEF000A3A3A3A3A3E0FCA3E0FD8E828F83A3A35F
:10AF0000A3A3A312B3F21227D37402122263E9603F
:10AF10006C8E828F83A3A3A3A3A3A3A3C082C083A9
:10AF200012B423D083D082E0687003A3E069604D3F
:10AF3000EE247412B854687003A3E069603FEE24F5
:10AF400074F508E43F850882F583E024FFFAA3E066
:10AF500034FFFB850A82850B83EAF0A3EBF08E8237
:10AF60008F83A3A3A3A3A3E0FCA3E0FD12281CEA04
:10AF700024FFF8EB34FFF9EE241D12B3BCEE24736A
:10AF800012B878600302B0D812B396C082C08312A0
:10AF9000B423D083D082E0687003A3E06960030229
:10AFA000B0D8EE2474F508E43FF509850882F583EE
:10AFB00012BC1D850A82850B8312B3CA2476FCE479
:10AFC0003FFDEEFAEFFB1210D7EE247B12B3E42420
:10AFD00020F582E43F12B3C8241C12B83012B88E98
:10AFE000F0EE240F12B860850A82850B8312B4A993
:10AFF0008E828F83A3A3A3A3A3E0FCA3E0FD850817
:10B000008285098312B3F212281C8A088B0912B3B5
:10B010008012B3F2E4F50AF50B8A0C8B0DF50EF5F0
:10B020000F7808790C121EBDEE247712B3B278089F
:10B03000790C122077EE247912B8546A7003A3E0D9
:10B040006B701812B414E0687003A3E069700C12FE
:10B05000B3F8E0687003A3E0696043EE247DF582F5
:10B06000E43FF58312B8AF12222B780C1224D0EEF5
:10B07000247BF582E43FF5831224E7EE247912B8AD
:10B0800054FCA3E0C313FDEC13FC8E828F83A3A3B7
:10B09000A3A3E0FA7B00120DCB7404122263EE240A
:10B0A0007612B854C0E0EE242BF582E43FF583D04D
:10B0B000E0F0EE247912B3E4242E12B3BC12B3F8FC
:10B0C00012B3C212B41412B3CAFAEFFB1210DDEEBF
:10B0D000247312B830F0800312B47912B38A1219B3
:10B0E000BF7014EE241F12B854F8EE241D12B85489
:10B0F000687002A3E06030EE2412F50CE43FF50D19
:10B10000780C1224D0EE2410F582E43FF58312244B
:10B11000E712B3A01224E7AA08AB09AC0AAD0B12E0
:10B12000333E740612226312B38A122120EE241DCC
:10B1300012B854C0E0EE241FF582E43FF583D0E05E
:10B14000F0EE2412FCE43FFD12B3D612327A906086
:10B1500062E0600A7C2C7D8212B3D612327A8E8233
:10B160008F8312BC1D88828983A3A3E82408FCE492
:10B1700039FD74061221608E828F83E02402F8A3C9
:10B18000E03400F9E8FAE9FBEE241D12B3B2E4F56D
:10B190000EF50F9082C3780C12208A780C79081271
:10B1A0001EBD8A828B83780C12209D908317780CA9
:10B1B0001221118A828B83780C1220EB9004C0E05C
:10B1C0006401600302B2FF790112127512B3EE75C9
:10B1D00008FF7509FF750AFF750BFFEA240EF5825B
:10B1E000E43BF5837808122120EA2412F8E43BF9C5
:10B1F000E8FAE9FBEE2412F582E43FF583780812C1
:10B200002111E50875F0E2A4C508A8F075F004A4C2
:10B2100028F875F0E2E509A428F5098A828B83E015
:10B220002508F0A3E03509F0EE241612B854F5080D
:10B23000A3E0F5097404780812222BE5082401F82C
:10B24000E43509F98A828B83E028F0A3E039F09095
:10B250006062E08E828F83700302B35812B436F0BE
:10B26000A3E03401F012B851602CEE242B12B85434
:10B27000F875F071A4C8AAF075F002A42AF98E82BC
:10B280008F83E0FAA3E0CA2412F582E43AF583E062
:10B2900028F0A3E039F012B3EE8A828B83A3A3C017
:10B2A00082C08312B479D083D082780812208A9029
:10B2B000831B780812208A90831778081220D8EA16
:10B2C0002416F582E43BF5837808122120EA241441
:10B2D000F582E43BF5837410F08E828F83E0F8A34F
:10B2E000E0C8241AF582E438F5837453F0A374108F
:10B2F000F0EEFAEFFB12271179007F0802238F90FE
:10B30000833B78081219F4500302B1CC12B3A01297
:10B31000B4A3600302B1CC78081224CCEEFAEFFBA0
:10B320001210E37404122263E96401600302B1CCD9
:10B3300012B85160128E828F83A3A3A3A3A3E064EB
:10B34000057002A3E0600479088002793EEEFAEF0E
:10B35000FB1210CB790180A212B436F8A3E034FFBF
:10B36000F97A717B021221C28808890912B380120E
:10B37000BC1DC3E50898E50999500302B26580C772
:10B38000EE242EF582E43FF58322EE2418F582E4C4
:10B390003FF583780822EE2474F582E43FF583229A
:10B3A00012B3A422EE241DF582E43FF5832212B8E5
:10B3B000932212B858F50CA3E0F50D22F582E43F74
:10B3C000F583E8F0A3E9F022F583E8F0A3E9F0EED5
:10B3D0002212B4BBE8228E828F83E02402FAA3E01B
:10B3E0003400FB22F582E43FF58312B40D228E82F5
:10B3F0008F83E0FAA3E0FB22EE247B12B407243013
:10B40000F582E43FF58322F582E43FF583E0F8A37B
:10B41000E0F9EE22EE247D12B4072432F582E43FF7
:10B42000F583228E828F83A3A3A3A3A3E02401F834
:10B43000A3E03400F92212B43FF583E0241022E0A7
:10B44000F8A3E0C82412F582E4382212B44F22EEA9
:10B450002420F582E43FF583E0F8A3E0F912B3A4D9
:10B46000E8F0A3E922E0F875F00AA4C8AAF02AF9E6
:10B4700074B128FE740339FF22EE242E12B858F559
:10B4800008A3E0F509E4F50AF50B22EE2471F8E4CF
:10B490003FF988828983E024FFF0A3E034FFF0883D
:10B4A00082898312BC21E8492212B40D240D12B402
:10B4B000BBEE12ADADE8F0A3E9F022F582E43FF572
:10B4C00083E028F8A3E039F92274EC1222BDEAFEE9
:10B4D000EBFF8C828D83E0F8A38582088583096069
:10B4E0003B14700302B63114700302B7FB147003EF
:10B4F00002B67624FD700302B73614700302B82931
:10B5000014700302B75E24FE700302B73B1470038D
:10B5100002B75414700302B7A302B819EE2476F5EB
:10B5200010E43FF511E085108285118312B8A0EE7A
:10B530002477F50EE43FF50F7902AC08AD09AA0EA9
:10B54000FB1210EF8A088B09EE2479F50CE43FF525
:10B550000D7902AC08AD09AA0CFB1210EF8A088B1A
:10B56000097902AC08AD09EE247BFAE43FFB121026
:10B57000EF8A088B09EE247D12B8651210EF8A0855
:10B580008B09851082851183E0C333F0850E828597
:10B590000F8312B8C4850E82850F8312B3C2850C47
:10B5A00082850D8312B8C4850C82850D8312B3C2C7
:10B5B000850A82850B8312B8AF12223A850A8285EA
:10B5C0000B83E50CF0A3E50DF0EE247412B86512C0
:10B5D00010EF850A82850B83C082C08312BC14D011
:10B5E00083D08212B8BB5079EE247D12B47CEE2455
:10B5F0007B12B8542401F50CA3E03400F50DE4F5FA
:10B600000EF50FEE2479F582E43FF58312B8C48875
:10B61000108911E4F512F513780C7910121EBD781B
:10B6200008790C1219D44004793B8037EE247380DA
:10B630003C7905AC08AD097ABB7B041210EF8A088F
:10B640008B09EE248012B8651210EF850A82850BF3
:10B6500083C082C08312BC14D083D08212B8BB4096
:10B66000097928EEFAEFFB02B814EE247F12B844F1
:10B6700012B88E02B75AEE24E112B854700D12B807
:10B680003812B8CE7003EB640370F6EE24E212B801
:10B6900054A2E0EE401024DDF582E43FF583741AF5
:10B6A000F0790D02B7F512B87E24E012B86079087F
:10B6B000AC08AD09EE249BFAE43FFB1210EF8A08B8
:10B6C0008B097902AC08AD09EE24A3FAE43FFB1222
:10B6D00010EF8A088B09EE2493F50AE43FF50B7905
:10B6E00008AC08AD09AA0AFB1210EF8A088B097989
:10B6F00008AA0AAB0B1210F5EE2487F50AE43FF511
:10B700000B7904AC08AD09AA0AFB1210EF7904AA60
:10B710000AAB0B1210F5EE248BFAE43FFB12110773
:10B72000EE2483FAE43FFB12110D900383E0448082
:10B73000F0790402B7F5EE24DE801CEE12B87E2408
:10B74000D212BBCA24DC12BBC224D312B830F079A7
:10B750000B02B826EE24DF12B844F002B82912B862
:10B760003812B8CE7003EB640370F612B8388A82D0
:10B770008B83E0FC850882850983E05C888289836D
:10B7800012B8A08A828B83A3AA82AB838882898322
:10B79000A3A882A983EA649D7003EB640370CF7948
:10B7A000098052EE24EA12B878606E850882850915
:10B7B00083E0C0E0EE24EDF582E43FF583D0E012B3
:10B7C000B8A07902AC08AD09EE24EEFAE43FFB1212
:10B7D00010EF8A088B097902AC08AD09EE24F0FA63
:10B7E000E43FFB1210EFEE24EA12BBC224EC12B8C5
:10B7F000547036790CEEFAEFFB802BEE24F4F8E46B
:10B800003FF9E088828983F0EE24F312B8608882E1
:10B810008983E0F91210CB8010EE24F5F582E43F25
:10B82000F583E8F0790712108F7F0C02238F24DE56
:10B83000F582E43FF583E422EE24E2F8E43FF97A6E
:10B84000957B032212B84822F582E43FF583740108
:10B8500022EE240F12B85822F582E43FF583E0224D
:10B8600012B848F022F50AE43FF50B7902AC08ADB6
:10B8700009AA0AFB22EE246912B858640122246244
:10B88000F582E43FF583E412BBF0E4F0EE22F0121F
:10B89000B89322EE241DF582E43FF583E4F0A32261
:10B8A000F0850882850983A385820885830922E0C3
:10B8B000F50CA3E0F50D7404780C2212BC3094FF53
:10B8C000E9947F2212BC21E828F8E933F9228A8220
:10B8D0008B83E088828983F08A828B83A3AA82ABE0
:10B8E0008388828983A3A882A983EA649D2274F64F
:10B8F0001222BDEAFEEBFF02BA5AEEFAEFFB12107B
:10B900008302BB8812B875703C90038BE070030211
:10B91000BAE9EEFAEFFB121095EE24A3F508E43F26
:10B92000F50978081224D0EE249BFCE43FFD8E82BA
:10B930008F83A3A3A3A3E0FA7B00120DB3740212BA
:10B94000226302BA5AEEFAEFFB12105902BB8812B8
:10B95000B875702E90038BE06011EE248212BBC28A
:10B9600024D412BBB9EE24D812BBB9EE24DE12B82F
:10B9700078600302BAE97906EEFAEFFB12109B0237
:10B98000BA5AEE24D212B878701BEEFAEFFB1210FE
:10B990005FE96401600302BB9EEE12B82E12BBD4B5
:10B9A000740102BB8CEE24D312B854700302BB9E08
:10B9B000EE24B2F508E43FF50978081224D0EE240D
:10B9C0008BFCE43FFDEE24C2FAE43FFB121113743A
:10B9D00002122263EE24D212B844805A12B8757053
:10B9E0005890038BE0700302BAE912BC0FEEFAEF35
:10B9F000FB12109512BBE3EE24DC12B878701379B9
:10BA0000008E828F83A3A3A3A3E0FA7B00120DBF55
:10BA100080137C0179008E828F83A3A3A3A3E0FA15
:10BA20007B00120DB9EE24DC12BBCA24E012BBCAA3
:10BA300012BBC812B82EF08021EEFAEFFB1210658F
:10BA400002BB8812B8757066EE24DF12B878600306
:10BA500002BAE9EEFAEFFB121095EE246E12B8541A
:10BA6000700302BB9EEE246A12B85424FE602C249C
:10BA7000FE700302B90414700302B94F147003027C
:10BA8000B9DC14700302BB8F24FE607124FE60B326
:10BA900014700302BB1D14603280BF12B8756003BE
:10BAA00002B8FA90038AE06040791602BB71EEFAA0
:10BAB000EFFB12106BE96401600302BB9EEE12BB48
:10BAC000C8248212BBCA246902B9D712B875702380
:10BAD00090038BE0600AEE248212B830F012BBE3D0
:10BAE00090038AE0600302BA5312B48B600302BB76
:10BAF0009E807CEEFAEFFB12107102BB8812B875C3
:10BB0000701290038BE060E1EE24E112B86012BC89
:10BB10000F02BA53EEFAEFFB121077806B12B87572
:10BB2000705AEE24EA12B8787027EE24EB12B87837
:10BB3000600302BA5312BBA51224E712BBAF122452
:10BB4000E712BBFB7900120DAD740412226302BA36
:10BB50005312B48B704812BBA51224E712BBAF126C
:10BB600024E712BBFB7922120DAD74041222637913
:10BB700022EEFAEFFB1210CB79018024EE24EC12B6
:10BB8000BBC2FAEFFB12107D12BBD9E9F0800FEEB9
:10BB9000FAEFFB121089E96401700302BA537900CD
:10BBA0007F0202238FEE24F0F582E43FF58322EE3C
:10BBB00024EEF582E43FF5832212B896F0A3F0A3B9
:10BBC000F02212B848F0EE2224DFF582E43FF5833C
:10BBD000E4F0EE22F012BBD922EE2469F582E43FB4
:10BBE000F58322EE246212B84812BBF07401F022F1
:10BBF000F0EE2467F582E43FF58322EE24ED12B8DF
:10BC000058FC8E828F83A3A3A3A3E0FA7B002212A9
:10BC1000B44FF0228E828F83A3A3A3A3A312BC21CF
:10BC200022E0F8A3E0F92212BC3094ABE994102290
:10BC3000E0C398F8A3E099F9C3E82212BC3094AAB3
:10BC4000E994102274F41222BDE9900380F01212DC
:10BC500045907800E0C4540F540764037004793FA2
:10BC60008002797F75080675090078081224D07C57
:10BC70006E7D037AEA7B07121665740212226390C6
:10BC8000036EE0F47049A3E0F47044A3E0F4703F65
:10BC9000A3E0F4703AA3E0F47035A3E0F4703090C0
:10BCA000780EE090036EF090780FE090036FF090C4
:10BCB0007810E0900370F0907811E0900371F090AC
:10BCC0007812E0900372F0907813E0900373F09094
:10BCD000037412BDDA12CBF390039E7406F0A374C2
:10BCE0000D12C6277441F0A37401F09004CA12BD6E
:10BCF000DA9004C9E4F09004D7F0A374A012C62728
:10BD00007403F0A3740712C627742812C62704F020
:10BD1000A3E4F0900500F090052374FFF0A3E4F095
:10BD2000900525F090052704F09005287490F0A365
:10BD30007401F012101D120F4B1211EB79017A2AC7
:10BD40007B0512110190052AE075F01484E5F004DA
:10BD5000F0790C7A4B7B051211011211197A0090BF
:10BD60000380E0F912185D907803E0644270569009
:10BD7000052AE014F0704EC2AF12BD7C00782AD0C4
:10BD8000E0F618D0E0F6E59F5407F870057509FF56
:10BD9000800375097FC4C0E07829E6F50808E655F8
:10BDA00009F509740B780812222BD0E02508F890C9
:10BDB0006270E0A2E740F8E8C333906272F09062EC
:10BDC00070E0D2E0F09003ABE4F0A3F07A80FB9057
:10BDD0000380E0F91217CD02C29F74FF12C16DF00B
:10BDE000A3F02274F41222BDEAFEEBFFEEA2E050B3
:10BDF00040900382E0C39480E0500F25E0F8E433E4
:10BE0000F974A328F5827416800EF425E0F8E43363
:10BE1000F974B128F582741639F58312C9D4122247
:10BE2000BB7A00900380E0F912185DEE640102BF56
:10BE3000F75402603775080078081224D4E4F50935
:10BE400078081224D078081224D078081224D078E8
:10BE5000081224D07D007C017A007B00793C120D11
:10BE6000A17409122263EE640202BFF7EE5404705B
:10BE70000302BF009003AFE0F875F00AA4C8AAF06F
:10BE80002AF974B128FA740339FBEA242AF582E40A
:10BE90003BF583E0F50878081224D4EA243212C076
:10BEA00003F5097404780812222B78081224D0EACA
:10BEB0002420F582E43BF5831224E7EA242E12C005
:10BEC00003C313F509E50813F50878081224D0EA2E
:10BED0002403F508EB3401F50978081224D012C0C8
:10BEE0000FFD7C018A828B83A3A3A3A3E0FA7B00CE
:10BEF0007900120DA17409122263EE640402BFF7E7
:10BF0000EE5440603775080078081224D4E4F5092F
:10BF100078081224D078081224D078081224D07817
:10BF2000081224D07D007C017A007B00793B120D41
:10BF3000A17409122263EE644002BFF7EE548060E0
:10BF40003790052812C61F602A79001218579005ED
:10BF500028E0F508A3E0F509E4F50AF50B780812E6
:10BF600024CC7A007B01900380E0F91218DB740482
:10BF7000122263EE6480807FEF5401600C7901121D
:10BF80001857EEFAEF64018070EF5402600AC2AFF6
:10BF900075C9AB75C95B80FEEF5404600A12345357
:10BFA000EEFAEF64048052900387E06401704DEE76
:10BFB00054206048900381E014601214600F1460F4
:10BFC0000C14600924FD601114600E8027790012A2
:10BFD0000F9F7901120F9F801B793F9003AFE0FA0A
:10BFE00075F00AA4CAA8F028FB74B12AFA74033BBE
:10BFF000FB1210CBEE6420FAEFFB80047A007B008A
:10C0000002C29FF582E43BF583E0F508A3E022EA53
:10C010002409F582EB3401F583E02274F61222BD87
:10C02000EA540F6004780180027800E8F98A088BEE
:10C03000097404780812222BE50829F5087509000F
:10C040007404780812223AE5082408FAE43509FB5A
:10C050001217F78A088B09A808A909E8496009E8B6
:10C060002404FAE439FB80047A007B0002C7B6742A
:10C07000F61222BDEA2405FA50010B1217F78A08BE
:10C080008B09A808A909E8496009E82405FAE439F8
:10C09000FB80047A007B0002C7B6C082C083C2AFB7
:10C0A00012121BE5E170FC75E10112100575E1F15A
:10C0B000121251120FF979071212C379011212C923
:10C0C000790212127B1212991212B779001212BD64
:10C0D00079011212BD90831312212F121263900462
:10C0E000D7E4F0A3F0A3F09004DB7407F09004DA37
:10C0F0007403F09004E0E4F09004DFF0900500F0A9
:10C100001210B31211671210D179001212CF9004DD
:10C11000BB74FF12C16D741FF0906012E4F0A3F0C5
:10C12000906063F0752100900381F09004C0F0905E
:10C1300004C1740CF09004C2E4F09004C304F090C5
:10C1400004C4E4F09004C504F09004C6E4F0900345
:10C1500083F0A3F0900386F090038704F090039D92
:10C1600004F0900526E4F0D2AFF902CAE8F0A3F09B
:10C17000A3F0A3F0A322C082C08390036E12C2D9A1
:10C1800090036F12C303F090037012C30E900371FB
:10C1900012C31490037212C31990037312C303A342
:10C1A000A3A3A302CAE5C082C0838A828B83E090E6
:10C1B000037412CBD1E090037512C2D390037612B0
:10C1C000CBD890037712CBE490037812CBDFE090CA
:10C1D000037902CAE5C082C083121029E9F970050B
:10C1E000121299790002CAE874F71222BDEAFEEB36
:10C1F000FF8908121029E9F9702CE508600A74011A
:10C200006508600A7912801E7C00790080047C0039
:10C210007901EEFAEFFB12129FE9F87403687004DB
:10C2200079078002790002C9DD74F61222BDEA4B5B
:10C23000600EEC4D600A740A12229912CBC570048C
:10C240007912800F78081224D0121113740212226E
:10C2500063790002C7B674F41222BDEAFEEBFF89CF
:10C2600008900381E064096014E0640A600FE064F0
:10C270000B600AE0640C6005E0640D7004790C80CA
:10C280001E1211918B0BEA450B700BA908EEFAEF09
:10C29000FB1211018009900383E04440F0790D7F87
:10C2A0000402238F74F61222BDEA4B6003E9700486
:10C2B0007912801CEAFEEBFF89081210FBE98E82DE
:10C2C0008F83F0A3AE82AF831508E50870EC790088
:10C2D00002C7B612CBD1A3E022E08A828B83F02280
:10C2E000C082C083E9F8740168700B900526740160
:10C2F000F0790002CAE8E87006900526E480F1793A
:10C300001280F012C30722E08A828B83A32212C319
:10C3100007A3F02212C31FF02212C31FA3F02212A0
:10C32000C307A3A322C082C083900381E0640C7082
:10C330001290618EE0F874806870258C828D837411
:10C340007F8029C3EB940F5013EA4B700F9003B416
:10C35000E070047902801890041980D87912800F57
:10C36000900385E0F9E8C3998C828D83F07900020F
:10C37000CAE874F71222BDE9FE74056E601E7413DC
:10C380006E601974146E601474156E600F741A6EFA
:10C39000600A74296E6005743B6E7026C3EB940FBF
:10C3A0005020EA4B701C9003B4E0700479028026A0
:10C3B00090041AE064017016A3E064027008793AF0
:10C3C00080147912801012C3D912109B800612C3F8
:10C3D000D912108F790002C9DDEE9004A5F0900308
:10C3E000CEE4F0A3F079027AB17B032274EC12223E
:10C3F000BDEC4D6014E9C3941C500E7414122299C4
:10C40000E0F8600A7401686005791202C605C3EBA2
:10C41000940F5019EA4B70159003B4E07004790240
:10C42000800D9004C1E0700A790702C605791202F6
:10C43000C605EC24FEFCED34FFFD8C828D83E9F013
:10C44000E87004740280027401A3F0EC24FEFCED99
:10C4500034FFFD7A147B041210E9A9A8C2AF90043E
:10C46000C1E014F0E9A2E7E433F8E9A2E792AF9063
:10C470000381E064086008E06407600302C603907B
:10C4800003AFE0600302C60379007AB17B0312298F
:10C49000B59061D0E0700302C6039004C5E064016A
:10C4A000600302C6039003CE12C61F700302C603C8
:10C4B000A2AFE433F50CC2AF1211918A088B09AE1A
:10C4C00008AF0912122D8A088B098C0A8D0B8A106D
:10C4D0008B118C128D139082C3781012208A7810E1
:10C4E0001224CC8E828F83A3A312212F1231A07429
:10C4F00004122263E96401600302C5FD9003DFE0DA
:10C500002406F510A3E03400F511E4F512F51378D4
:10C5100008791012207778081224CC8E828F83A39A
:10C52000A312212F1231A07404122263E964016066
:10C530000302C5FDEE2408F50EE43FF50F850E82DB
:10C54000F5831224E3AA08AB09AC0AAD0B1231FC47
:10C5500074041222639003DF1224E7122E5874022F
:10C560001222638A088B098C0A8D0B7410780812CA
:10C57000203F9003BA12C60A9003B6E8F0A3E9F090
:10C58000E82CF8E93509F9A3E8F0A3E9F0850E8273
:10C59000850F83C082C08312C610121EBDD083D007
:10C5A00082780812208A90831778081220D88E8209
:10C5B0008F83A3A3780812212012C610122077902F
:10C5C000831B780812208A90831778081220D8EEEF
:10C5D0002416F582E43FF583E508F0A3E509F0A30E
:10C5E000E50AF0A3E50BF09003E6E09003E5F07AAE
:10C5F000B17B03122711EEFAEFFB121173E50CA2C7
:10C60000E092AF79007F0C02238FE0F8A3E0F922DB
:10C610009003DFE0F510A3E0F5117808791022E02F
:10C62000F8A3E0F9E84922F0A3E4F0A32274F6129B
:10C6300022BDEAFEEBFF8909740B122299E0F5088E
:10C64000740C12229912C60AE50960487401650942
:10C650006012740365096026740265096020740421
:10C660006509707DE8496079E50860067401650830
:10C67000706F74036509600674026509702AEE2400
:10C6800060FAEF12C7C65059EC2460FAED12C7C623
:10C690004016804DEE24E0FAEF12C7BB5043EC2465
:10C6A000E0FAED12C7BB5039C3EC9EED9F403274E7
:10C6B0000A122299E0FC600574016C7024740F1258
:10C6C0002299E0FA600F74016A600A74026A6005D8
:10C6D00074036A700C740E122299E0FB74075B708D
:10C6E00005791202C7B69004D7E064017005790C91
:10C6F00002C7B674075B9004DBF0E5099004DAF03A
:10C70000EA9004DCF0EC9004C9702FE4F090036E22
:10C71000E09004CAF090036FE09004CBF0900370B7
:10C72000E09004CCF0900371E09004CDF09003729F
:10C73000E09004CEF0900373802E7401F0900374A7
:10C74000E09004CAF0900375E09004CBF09003767B
:10C75000E09004CCF0900377E09004CDF090037863
:10C76000E09004CEF0900379E09004CFF07401657E
:10C7700009700B12C7D19004D8E4F0A3803574047B
:10C780006509700512C7D18023EA70047900801909
:10C7900074016A70047901801074026A700479026D
:10C7A000800774036A700579031212A59004D8EE0D
:10C7B000F0A3EFF079007F0202238F34FFFBC3EA7E
:10C7C00094E1EB943F2234FFFBC3EA9461EB943F86
:10C7D00022E508A3F088828983E09004D112C8067C
:10C7E000E09004D212C806A3E09004D312C806A3B6
:10C7F000A3E09004D412C80DE09004D512C80DA394
:10C80000E09004D6F022F088828983A322F0888207
:10C810008983A3A3A3A32274F61222BDE9FEC394C5
:10C8200020500BEE9004E0F0601EEA4B7004791289
:10C83000801E12CA1E1224D0EAFCEBFD7AE17B04B2
:10C8400012177974021222639004DF7401F07900E8
:10C8500002C7B674F41222BDE9FF900381E06409B7
:10C86000700302C95DE0640A700302C95DE0640BF5
:10C87000700302C95DE0640C700302C95DE0640DE1
:10C88000700302C95D9004DAE0601664016012E092
:10C890006403600DE064026008E06404600302C9A0
:10C8A000D09004C9E060076401600302C9D090041D
:10C8B000DAE064036005E0640270109004D8C3E01D
:10C8C00094A0A3E09400500302C9D0EF700302C902
:10C8D0006914600302C9D09004D7E06401607E90BF
:10C8E00004DAE0600964016005E064047008121174
:10C8F0009DE954FD706779011211859004C7EAF033
:10C90000A3EBF09004D77401F0900381E07055120E
:10C91000122D8A088B098C0A8D0B908323780812BC
:10C92000208A90831778081220D89004C712C9D49F
:10C93000A3A378081221209004C7E0F8A3E0C8243C
:10C9400006F582E438F583E4F0A3F012102FE960D5
:10C95000107AC77B0412118B9004D7E4F079218000
:10C960000512116D790002C29F9004D7E060EEA21B
:10C97000AFE433FEC2AF7AC77B0412118B9004D7A9
:10C98000E4F01211A3E9704112121B906182E0C21F
:10C99000E6F0E5E170FC75E1017591BF75E1F1909C
:10C9A0000387E0640170187A207B00900380E0F92F
:10C9B0001218E77A207B00900380E0F91217D37AEF
:10C9C00000900380E0F912185DEEA2E092AF80942F
:10C9D00079128092E0F8A3E0F5838882227F010239
:10C9E000238F74F61222BDE9FEC39420500BEE9003
:10C9F0000500F0601EEA4B70047912801E12CA1EF8
:10CA00001224D0EAFCEBFD7A017B0512177974023F
:10CA10001222639004DF7401F0790002C7B6E0F5DA
:10CA200008750900780822C082C083900381E06401
:10CA3000076004790C805CEC4D605BC3EB940F5095
:10CA400055EA4B70519003B4E07004790280447A47
:10CA5000008C828D83E0C0E0EAF8C3E498F895E0AA
:10CA6000F9747E28F582740439F583A3A3A3A3D0B7
:10CA7000E0F00A8C828D83A3AC82AD83EAC394106C
:10CA800040CF9004847401F079057AB17B031210D1
:10CA90008F790002CAE8791280F9C082C0839003BE
:10CAA00081E064076004790C8039C3EB940F502057
:10CAB000EA4B701C9003B4E0700479028025900466
:10CAC0008DE06401700E9004A57406F07902800A6E
:10CAD0007912800FA37406F0790D7AB17B031210DE
:10CAE0008F79008003F07900D083D08202013279FF
:10CAF0000C0201327F0802238F74F01222BD890AD2
:10CB0000EAFEEBFF1211918A088B0912122D8A0C92
:10CB10008B0D8C0E8D0F8E828F837401F0E50A6071
:10CB2000117401650A600B7402650A6005791202CE
:10CB3000CBC2E5084509604D780C1224CC850882EB
:10CB4000850983A3A312212F1231A074041222633A
:10CB5000E96039908353C082C083780C1224CC855D
:10CB60000882850983A3A312212F1231FC740412B9
:10CB700022638A0C8B0D8C0E8D0FD083D082780CA3
:10CB80001219F45007A90A1210178034E50A600B35
:10CB900014601014601514601A801F900383E04421
:10CBA000048016900383E04408800E900383E044E1
:10CBB000108006900383E04420F08E828F83E4F09F
:10CBC000790002CAF4E0F508A3E0F509E508450993
:10CBD00022F08A828B83A32212CBD1A3A3E022125C
:10CBE000CBE9A32212CBE9E022F08A828B83A3A3B4
:10CBF000A3A32290036EE090037AF090036FE0907D
:10CC0000037BF0900370E090037CF0900371E09060
:10CC1000037DF0900372E090037EF0900373E09048
:10CC2000037FF02274F71222BD74FF12224DEA4BEB
:10CC300060078A828B837401F0EC4D60099003AE2B
:10CC4000E08C828D83F0740A12229912C61F700341
:10CC500002CD307F007E0080787401F0E0C0E0E813
:10CC60002CF582E439F583D0E0F0EA240312C012F7
:10CC7000C0E012CD3AD0E0F00FEA240412C012C096
:10CC8000E012CD3AD0E0F00FEA240512C012C0E065
:10CC900012CD3AD0E0F00FEA240612C012C0E01222
:10CCA000CD3AD0E0F00FEA240712C012C0E012CD56
:10CCB0003AD0E0F00FEA240812C012C0E012CD3AD8
:10CCC000D0E0F00F12C00FC0E012CD3AD0E0F00F6C
:10CCD0000E9003AEE0FAEEC39A5055EEFAC3E49418
:10CCE0000F50EDEA70EA9003B4E060E4EE75F00AEC
:10CCF000A4CAACF02CFB74B12AFA74033BFBEFFC22
:10CD0000E82CF582E439F583EEF074012CFC740113
:10CD10002CFF8A828B83E0FDA3E0F5838D82E064A3
:10CD200080851882851983600302CC59E402CC5BAC
:10CD30007900740112226302C9DDE82FF582E4391B
:10CD4000F58322C082C083EA4B60069003AE12C214
:10CD5000D902CAE674F61222BD79011210BF8A0800
:10CD60008B0974FF6508700474FF650970047912FB
:10CD70008002790002C7B674F21222BD8909EAFE68
:10CD8000EBFF8C0A75081274FE6E700374FF6F70EF
:10CD9000189002AF12DA16607212CE10606D7AFE31
:10CDA0007BFFA9091222BB805A74FF6E700374FFC7
:10CDB0006F70359002AF12DA16601312CE10600E4B
:10CDC0007AFF7BFFA9091222BBE9F508600CAA0AC9
:10CDD000A909120A53E9F5087031E5099002BBF080
:10CDE000E50A9002BCF08023120EF78A828B83E55D
:10CDF0008245836016E06509700EA90AEEFAEFFB22
:10CE0000120D0BE9F5088003750803A90802D60284
:10CE1000E0F583888212D6F588828983E58245838E
:10CE20002274EE1222BDEAFEEBFFEE2402F50EE4C0
:10CE30003FF50FEE2404F50CE43FF50DEE2406F566
:10CE40000AE43FF50BEE2408F508E43FF5098508F0
:10CE500082F5831224E7850A82850B831224E785F5
:10CE60000C82850D8312D54E850E82850F8312D8D4
:10CE70001C120DDD7404122263E97005790202CFE1
:10CE800031790112D818120F03E97005791402CF15
:10CE90003112D818120F09E96404705790160BE08C
:10CEA000F47003A3E0F46005791102CF318E828F14
:10CEB0008312D60712D6EB850E82850F8312D6F128
:10CEC0009002B312D6EB850C82850D8312D6F190B9
:10CED00002B512D6EB850A82850B8312D6F1900239
:10CEE000B712D6EB85088285098312D6F19002B974
:10CEF00012D6EBE4F510F51178101224D078101248
:10CF000024D08508828509831224E7850A82850B4F
:10CF1000831224E7850C82850D831224E7850E8217
:10CF2000850F8312D54E12D818120DF5740A1222ED
:10CF30006302DB7874F21222BD89088C0A8D0B9093
:10CF4000028EE064026005E0640170047912805D85
:10CF5000EC450B700479028054120EF78A0C8B0D8D
:10CF6000AE0CAF0DEE4F700479148041E508600BF4
:10CF70008E828F83A3A3A3E0D2E1F0750C10750D10
:10CF800000780C1224D0AC0AAD0BEE2410FAE43F6A
:10CF9000FB121779740212226312DE7C12213BEE1F
:10CFA0002420F582E43FF583122147790002D6025E
:10CFB00074F01222BDEAFEEBFF8C0A8D0BEE4F706F
:10CFC00005790202D0BF12D818120EF78A088B0911
:10CFD000EA45097005791402D0BF90028EE0640220
:10CFE000601FE06401601AEA240BF50CE43509F5D2
:10CFF0000D850C82F583E06408700BE50A450B6033
:10D0000005791202D0BF9002AD12DA1660057911CF
:10D0100002D0BF7A1F7B001218459002AD12D7D004
:10D020009002AD12DA167005791302D0BF7C1F7D15
:10D0300000790012179112D81812D0C2A312D7D0BB
:10D04000750E16750F00780E1224D0EE2402FCE443
:10D050003FFD9002ADE02403FAA3E03400FB121779
:10D0600079740212226312D0C27402F0850C828598
:10D070000D83E0640870047901800279009002ADAC
:10D08000E02403F50CA3E03400F50D780C1224D055
:10D090008E828F8312D54E9002C3E0FA12137774FA
:10D0A00002122263E9FEE50A450B600BAC0AAD0BE8
:10D0B000AA08AB091213B3EE6003120A5FEEF9027D
:10D0C000D6E09002ADE0F8A3E0F58388822274F404
:10D0D0001222BD74FF12224DEAFEEBFF8908120EE8
:10D0E000F78B0BEA450B7004791480148518828540
:10D0F0001983E508F0AC18AD19EEFAEFFB12139B9B
:10D1000074011222637F0402238F74F01222BD7413
:10D11000F012224D8A0C8B0D8C0E8D0F7420122272
:10D1200099E0FEA3E0FFEEFAEFFB120EF78B09EA9F
:10D1300045097004791280659082E7780C1219F421
:10D140005004790280577C107D007900AA18AB1931
:10D15000121791851882851983E50CF0850D09E574
:10D1600009F5087401122299E508F0850C08850E6E
:10D170000A850F0B7410780812203F74021222994E
:10D18000E508F07418780C12203F7403122299E518
:10D190000CF0EEFCEFFDAA18AB1912137D741012FF
:10D1A000226302D6E074F11222BD8A0A8B0B890E2B
:10D1B0008C0C8D0D90028EE064026005E0640170BD
:10D1C00005791202D273EC450D7005790202D27313
:10D1D000120EF78A088B09AE08AF09EE4F70057979
:10D1E0001402D273EE2424F508E43FF50985088281
:10D1F00012D281600312184B7C1B7D00AA0CAB0D70
:10D2000012178585088285098312D7D012D548EC7C
:10D210004D70047913805C12DC61E06408703D7429
:10D220000F122299E06035EC2412F508E43DF5096F
:10D2300078081224D0EC2410F582E43DF583122402
:10D24000E7EC241AF582E43DF583E0F9AA0AAB0B7A
:10D250001213B97404122263E9F980027900EE24F2
:10D2600003F582E43FF583E0D2E2F0E50E6004E0EE
:10D27000D2E1F07F0702238F12DE73241BF582E4D4
:10D2800038F58312D820EA4B2274EE1222BD120E1A
:10D29000F78A088B09AE08AF09EE4F700302D33846
:10D2A000EE2420F508E43FF50974121222991221A8
:10D2B0003B8508828509831221477A267B00120963
:10D2C00087EAF50A70078E828F83E0F50A85088267
:10D2D000850983780C1221118E828F83A3A3A3A3C7
:10D2E000E0F50B7A0E7B0012179D8A088B09EA4540
:10D2F00009604512D33B740912D34CE50B12DC6B69
:10D300001224D0EE2405FCE43FFDEA2404FAE435BF
:10D3100009FB12177974021222638508828509833A
:10D32000A3A3A3A3A3A3A3A3A3A3780C122120AA1E
:10D3300008AB09A90A1217A902DB788A828B8374C9
:10D34000D0F0A3E4F08A828B83A3A322F08A828B9D
:10D3500083A3A3A32274EA1222BD8A0C8B0DEA4593
:10D360000D700302D4DE8A828B83A3A3A3A3A3A39D
:10D37000E07005750B088003750B049002AB12DAA0
:10D3800016600512D0C880039015BCE0F50A900223
:10D39000C412DA16600F12D0C8A3A312CE1560050E
:10D3A00079001222BBE50C2407F50EE4350DF50FCC
:10D3B000E50C2408F508E4350DF509AA08FB850EEF
:10D3C00082850F83E0F91209B1E9FB850E82850F92
:10D3D00083F0E50C2403FEE4350DFFE50C2404F591
:10D3E00014E4350DF515E50C240EF510E4350DF5B6
:10D3F00011E50C2414F582E4350DF583E0F5127582
:10D40000130078121224D0E50C2412F582E4350DB5
:10D41000F5831224E7E50C2410F582E4350DF5833D
:10D420001224E78510828511831224E7E50BF50CA1
:10D43000780C1224D48514828515831224E7AC0855
:10D44000AD09AA0A8E828F83E0F9120A41740B1289
:10D4500022638E828F83E07041750C17750D007802
:10D460000C1224D08510828511831224E7780B12C8
:10D4700024D478081224D0850E82850F83E0FD7CA9
:10D480000185148285158312D81CA90A120EEB742B
:10D4900007122263E98E828F83F09002AB12DA16B4
:10D4A0006003120A659002BBE060339002BCE0FAB0
:10D4B0009002BBE0F9120A53E960238E828F83E069
:10D4C000FB74316B601385148285158312D54E90E1
:10D4D00002BBE0FAEBF9120A479002BBE4F07F0EC0
:10D4E00002238F74F61222BDE4F508F509780812BC
:10D4F00024D078081224D0EA240CF582E43BF5838A
:10D500001224E78A828B83A3A3A3A3A3A3A3A3A329
:10D51000A31224E78A828B83A3A3A3A3A3A3A3A319
:10D520001224E78A828B83A3A3A3A3A3A312D54EBD
:10D530008A828B83A3A3A3A312D81C120DEF740AB3
:10D540001222637F0202238F850882850983E0FC13
:10D55000A3E0FD2274F21222BDEAFEEBFF750A0081
:10D56000EE2403F8E43FF9880889098882F58312DC
:10D57000D81C120EF78A828B83E5824583600FE008
:10D58000F50A85088285098312D81C120EF19002D3
:10D59000BBE06019650A70159002BCE0FA9002BB0E
:10D5A000E0F9120A53E960249002BBE4F0E50A6056
:10D5B0001B8E828F83A3A3A3A3A3E0FB12D548AA4B
:10D5C0000A8E828F83A3A3E0F9120A479002AD125C
:10D5D000DA166003120A5F85088285098312D81C57
:10D5E000120F09E96404701A85088285098312D62E
:10D5F00007E0687003A3E069700890160B74FFF0F1
:10D60000A3F07F0602238F12D6F590160B2274F03A
:10D610001222BD89098A0C8B088C0A8D0B7A147B27
:10D620000012179D8A0E8B0FAE0EAF0FEE4F7003D8
:10D6300002D6E08E828F8374D012D7BCA3A3740568
:10D6400012D7B5E508F0EE2404FAE43FFBE50A45FD
:10D650000B6019750E06750F00780E1224D0AC0AF7
:10D66000AD0B121779740212226380097C067D00CB
:10D670007900121791741012229912D6F18E828FAE
:10D6800083A3A3A3A3A3A3A3A3A3A312D6EB741260
:10D69000122299E0C0E012DC57D0E0F0741312229D
:10D6A0009912D6FB240D12D6E5741512229912D6C2
:10D6B000FB240F12D6E5741712229912D6FB2411FF
:10D6C00012D6E57419122299E0C0E0EE2413F58217
:10D6D000E43FF583D0E0F0EEFAEFFBA90C1217A9B6
:10D6E0007F0802238FF582E43FF583E8F0A3E9F099
:10D6F0002212D6F522E0F8A3E0F92212D6F5EE22A6
:10D7000074F21222BD89098A08ECFEEDFF8B0A7AB9
:10D71000067B0012179DEA4B60238A828B8374D0AC
:10D72000F0A3E50912D344740612D34CEEF0A3EF34
:10D7300012D34CA3A3E50AF0A9081217A902D60236
:10D7400074F01222BD890C8A088B098C0A8D0B7A21
:10D750000C7B0012179D8A0E8B0FAE0EAF0FEE4F93
:10D760006050AA08AB09120EF78A828B83E58245C6
:10D770008370039015BCE0F98E828F8374D0F0A380
:10D78000E50C12D9D2740712D7B5A3E50812D7BC9D
:10D7900012D7D6741012229912D7E412D7D074126D
:10D7A00012229912D7E4A3A312D7D0EEFAEFFB12FC
:10D7B00017A902D6E012D7C4A3A3A322F0A3E509B8
:10D7C00012D7C422F08E828F8322F582E438F5834B
:10D7D000EAF0A3EBF022A3A3A3A3A3A3E50AF0A37B
:10D7E000E50BF02212D8208E828F83A3A3A3A3A3DC
:10D7F000A3A3A32274F61222BDEAFE120EFD8A82B2
:10D800008B83E5824583600BEEF9A312D81C120DC1
:10D810000B8002791202D5438E828F8312D8202288
:10D82000E0FAA3E0FB2274EC1222BD89118A0A8B74
:10D830000B8C10120EF78A0E8B0FEA450F70030245
:10D84000D9CD9002AD12DA16700302D9CD7A0E7BD3
:10D8500000E0C8241912DA1060027A2912DA0B608B
:10D8600008EA2414FAE43400FB7414122299E0F557
:10D870000CA3E0F50DE50C450D6007EA241BFAE466
:10D880003BFB12DE8E12DA106007EA2416FAE43B44
:10D89000FB12179D8A088B09AE08AF09EE4F700383
:10D8A00002D9CD7C0E7D0079001217917A267B007B
:10D8B0001209878A088B09EA45097009850E828555
:10D8C0000F83E0F5088E828F8374D0F0A3E51112E8
:10D8D000D9D2740A12D7C412D7D98E828F83A3A348
:10D8E000A3A3A3E510F0EE240EF50AE43FF50B9098
:10D8F00002ADE0241912D9D812DA166018EE240607
:10D9000012D9E31224D08C828D8312D54E1217794E
:10D9100074021222639002ADE0241D12D9D812DAEB
:10D92000166038EE2408F8E43FF98882898312D71C
:10D93000DC8882898312D81CEA2414F50AE43BF5BA
:10D940000B750E14750F00780E1224D08C828D8307
:10D9500012D54E1217797402122263E50C450D6040
:10D9600015EE240A12D9E31224D0AC0CAD0D121717
:10D970007974021222639002ADE0241BF8A3E03414
:10D9800000F9E8FAE9FB8A828B8312DA166032EE3C
:10D99000240CF8E43FF9880C8882F58312D7DC75F3
:10D9A0000A16750B00780A1224D08A828B8312D54E
:10D9B0004E850C82898312D81C12177974021222A8
:10D9C00063EEFAEFFBA9081217A9120A5F7F0C0297
:10D9D000238F12D7C4A3A322FCA3E03400FD8C82C2
:10D9E0008D8322F8E43FF988828983E50AF0A3E574
:10D9F0000BF08882898312D820EA241BF50AE43BC5
:10DA0000F50B750E1B750F00780E2212DE73241DA8
:10DA1000F582E438F58312D6F5E84922C082C08346
:10DA20009002AD12DA16602FE0C8241912D27D6080
:10DA30000312184B12D278600312184B12DE8812B0
:10DA4000D27D600312184B9002AD12D81C12184BF5
:10DA50009002ADE4F0A3F0D083D082020132C08204
:10DA6000C0839002AB12DA1660109002AB12D81C81
:10DA700012184B9002ABE4F0A3F080DB74F012229A
:10DA8000BD890C8A0A8B0B120EF78A088B09EA45AE
:10DA900009604C7A267B001209878A0E8B0FAE0E26
:10DAA000AF0FEE4F7008850882850983E0FE7A0586
:10DAB0007B0012179D8A088B09EA450960217C05C5
:10DAC0007D00790012179112DB88740EF0850882B0
:10DAD00085098312D7D9AA08AB09EEF91217A90252
:10DAE000D6E074EE1222BD890CEAFEEBFF8C0A8DA3
:10DAF0000B120EF78A0E8B0FEA450F607B7A0B7BB9
:10DB00000012179D8A088B09EA4509606B7C0B7D22
:10DB10000079001217917A267B001209878A108BF0
:10DB200011A810A911E8497008850E82850F83E0BD
:10DB3000F812DB88740F12DB83EEF0A3EF12DB7DAB
:10DB4000E50A12DB7DA3E50BF0741212229912DBB9
:10DB5000A2F0741312229912DBA2A3F07414122201
:10DB600099E5082409FCE43509FD7402122160AA34
:10DB700008AB09E8F91217A97F0A02238F12DB8389
:10DB8000A3A32212DB98A32285088285098374D07F
:10DB9000F0A3E50C12DB9822F0850882850983A3A7
:10DBA000A322E0850882850983A3A3A3A3A3A3A33B
:10DBB0002274EE1222BD8A0A8B0B890E120EF78A8E
:10DBC0000C8B0DEA450D700302DC547A0D7B0012BC
:10DBD000179D8A088B09AE08AF09EE4F60767A264A
:10DBE0007B001209878A088B09EA45097009850CB0
:10DBF00082850D83E0F5088E828F8374D0F0A3E4D4
:10DC000012D9D2740B12DC6B1224D0E50C2405FC63
:10DC1000E4350DFDEE2403FAE43FFB12177974029C
:10DC20001222638E828F83A3A3A312D7D612DC6144
:10DC3000E50EA2E0500474018001E4F012DC57E527
:10DC40000EA2E1500474018001E4F0EEFAEFFBA9AA
:10DC5000081217A902DB78EE240CF582E43FF58365
:10DC600022EE240BF582E43FF58322F07510067551
:10DC7000110078102274E81222BD89108A0FECFE80
:10DC8000EDFF8B0EEEFAEFFB120EF78A088B09748C
:10DC900018122299E0F50CA3E0F50D741A122299DE
:10DCA000E0F514A3E0F515741C122299E0F516A313
:10DCB000E0F517741E122299E0F50AA3E0F50BEACD
:10DCC0004509700302DDA1E510600302DDA1EA242D
:10DCD00003F582E43509F583E0D2E4F0E50EA2E233
:10DCE000E05004D2E18002C2E1F0E50C450D701273
:10DCF000E5144515700CE51645177006E50A450B49
:10DD0000606AE0D2E2F0E50A450B603412DE7C1274
:10DD1000213BE5082420F582E43509F583122147EB
:10DD200075121075130078121224D0AC0AAD0BE5F1
:10DD3000082410FAE43509FB1217797402122263E1
:10DD4000E5082424F50850020509E50C450D60217D
:10DD5000E50F701D85088285098312D28360031246
:10DD6000184B7C1B7D00AA0CAB0D8027E0C2E28023
:10DD70002FE5144515602A7401650F70248508820B
:10DD800085098312D283600312184B7C1B7D00AA85
:10DD900014AB15121785850882850983EAF0A3EB79
:10DDA000F09002AD12DA16700302DE6EE50C450D3E
:10DDB0006039E0C8241912DA10700F7A1B7B001248
:10DDC000184512DE73241912D7CA12DE73241912F1
:10DDD000D27D601775081B75090078081224D0AC35
:10DDE0000CAD0D1217797402122263E51645176007
:10DDF0003112DE8E12DA10700D7A167B0012184581
:10DE000012DE8E12D7CA12D27860177508167509FD
:10DE10000078081224D0AC16AD17121779740212CC
:10DE20002263E50A450B603112DA0B700D7A147B20
:10DE30000012184512DE8812D7CA12DE8812D27D6F
:10DE4000601775081475090078081224D0AC0AAD63
:10DE50000B121779740212226378141224D0AC0EBC
:10DE6000EEFAEFFBA910120A5974021222637F1016
:10DE700002238F9002ADE0F8A3E0C822E50A241047
:10DE8000F582E4350BF5832212DE73241D2212DEA7
:10DE900073241B22C082C0839002B112D7D002DA51
:10DEA0005774EE1222BD890B8A0C8C0E8D0F750AE9
:10DEB0000012DF956005791102DF6F74121222994A
:10DEC000E0F508A3E0F509E508450960307A217B13
:10DED00000120987E5082415FEE43509FF8E828FBC
:10DEE00083E0C39AE49B40157A227B001209878E57
:10DEF000828F83E0F8C3EA98EB94005004790280A3
:10DF00006E7A637B00121845900721EAF0A3EBF0CC
:10DF100012DF957004791380567C637D00790012BE
:10DF2000179112DF74E4F0900721E012E5FCE50B95
:10DF300012DF89E50C12DF89A3E50EF0A3E50FF0EF
:10DF400012EA4DE508F0A3E509F012EA38E4F0A37F
:10DF5000F012EA5FE4F0E50B60061213BFE9F50A80
:10DF600012DF747401F0E50A60031213F5A90A7F49
:10DF70000A02238F12DF782212DF7C22900721E031
:10DF8000F8A3E0F5838882A322F012DF8E2212DF4D
:10DF90007CA322E9FE90072112E36CE8492274F683
:10DFA0001222BD7E0012DF95601412EA69E0F87457
:10DFB0000268600F740368600A740468600579126F
:10DFC00002E06412E0756C7003A3E06D60057902F5
:10DFD00002E0647508108E0978081224D0EAFCEB80
:10DFE00012E06712177974021222637910900721E8
:10DFF000E0242BFAA3E03400FB121335900721E054
:10E00000241BF508A3E03400F50978081224D01287
:10E01000E6CD12E0671213AD74021222639007215D
:10E02000E0240112EA2DE0FA900721E0FBA3E0F5DD
:10E03000838B82E0600D74036A7027888289837401
:10E0400002801974046A7009888289837402F080DE
:10E050001174036A700C888289837405F01213C5E9
:10E06000E9FEEEF902EB0AFD900721E02407FAA38E
:10E07000E03400FB22900721E0F8A312E07F22E0C9
:10E08000F5838882A3A3A3E022C082C083900723E4
:10E0900002E3A874F71222BD12DF93601312E07B33
:10E0A0006A7003A3E06B700874016E70031213F5BD
:10E0B0007F0102238FC082C08379171213FB02E312
:10E0C000AD74F41222BD74ED12224DEAF8EBF9851D
:10E0D0001882851983E4F088828983A3A3A3A3A36C
:10E0E000A312E5B08A828B83E0F508E82402FEE4FF
:10E0F00039FFE50814602714602414603A14605A4C
:10E1000014606114606814606F14607614607D148C
:10E11000700302E19614700302E1A002E1AA740107
:10E120001222B3121455E9F874126870148518821B
:10E130008519837406807B74011222B3121461E97D
:10E14000F8E8600302E1F175090712E5AC120EF779
:10E15000EA4B706175080802E1E874011222B312FB
:10E16000146D80DB74011222B312147980D1740112
:10E170001222B312148580C774011222B3121491B3
:10E1800080BD74011222B31214A380B37401122251
:10E19000B31214A980A974011222B31214B5809F7E
:10E1A00074011222B31214C18095851882851983D7
:10E1B0007407F08045EA240BF582E43BF583E064C4
:10E1C000087005900725800390072312DF986015DB
:10E1D00012E5FE12E360600D74011222B3A9081269
:10E1E00022BBE9F509850908851882851983E508A8
:10E1F000F0851882851983E0600CAC18AD1912E522
:10E20000AC12139B800312131174131222637F0448
:10E2100002238F74F61222BDECFEEDFF75087375B4
:10E22000091478081224D079021214C77402122239
:10E2300063E9F5088E828F83E0F91213FBA90802C7
:10E24000EB0A74F41222BDEAFEEBFF890812DF9597
:10E25000700302E33112E07B6E7003A3E06F600392
:10E2600002E331900721E0240108A3E03400F9E83B
:10E27000FAE9FB8A828B83E0F8740668600302E3A4
:10E280001E12E4D5607F90072212ED2512E36C90F8
:10E290000721E0FCA3E0CC2418F582E43CF583E000
:10E2A000FCA3E0FDE82413F582E439F583E0F8A24D
:10E2B000E050168C828D83A3A3A3A3A3E0A2E05019
:10E2C000088A828B8374078034E8540260168C823B
:10E2D0008D83A3A3A3A3A3E0540260088A828B8347
:10E2E00074098019E8540460178C828D83A3A3A35A
:10E2F000A3A3E0540460098A828B83740BF0801519
:10E30000900725800390072312DF98600812E35BD3
:10E3100060031222BB12E3A1703C7900800E7411DD
:10E3200068700EE5086003750832A9081213FB80B7
:10E3300025E5087018EEFAEFFB120EF78A828B8340
:10E34000E58245836007A3A3A3E0D2E4F0EEFAEFF1
:10E35000FBA908120A6B790102E20E12E602A3A3DE
:10E3600012E36C88828983E582458322E0F8A3E08A
:10E37000F922C082C08312DF95602412E654700532
:10E38000900723800390072512DF98600812E35B53
:10E3900060031222BB12E3A1700579001213FB8007
:10E3A0000C12DF78E0641222EAF0A3EBF0D083D005
:10E3B0008202013274E81222BD74EB12224D8A16D9
:10E3C0008B178C148D1512DF957005791202E4CB32
:10E3D00012E65F120EF78A088B09AE08AF09EE4FFE
:10E3E0007005791402E4CBAA18AB19121407EE24B5
:10E3F00005F512E43FF513EE2404F510E43FF511A2
:10E4000012E4D5602FA818A919880C890D12EA54B6
:10E41000FEA3E0FF1209CFE9F50E79001209D58AB3
:10E42000088B09851082851183E0F50F85120A8516
:10E43000130B803690072212EA5AF50CA3E0F50D73
:10E44000A818A91988088909AE08AF091209CFE9E7
:10E45000F50F79001209D58A0A8B0B851082851178
:10E4600083E0F50E851208851309740E1222B3EEAF
:10E47000FAEFFB12144974071222B3AA0CAB0D1267
:10E480001443742D1222991224E7780A1224D0E53D
:10E490000FF50A780A1224D478081224D0740E12C8
:10E4A00022A38808890978081224D074171222A39D
:10E4B0008808890978081224D0A90EAC14AD15AAD1
:10E4C00016AB17121323740B1222637415122263F6
:10E4D0007F1002238F900721E0F8A312E602E022CA
:10E4E00074F61222BD74F712224DEAFEEBFF8C087F
:10E4F0008D0990072312DF98700302E5A712E5FE4D
:10E5000012DF98700302E5A78C828D83E0C0E0746F
:10E5100002122299D0E0F08C828D83A3E0C0E074D7
:10E5200003122299D0E0F08C828D83A3A3E0F974CA
:10E5300004122299AA82AB831213418508828509AD
:10E5400083A3A3A3E0C0E07406122299D0E0F08573
:10E550000882850983A3A3A3A3C082C08374071282
:10E560002299AC82AD83D083D08274021221607470
:10E57000021222B37901EEFAEFFB90072312E4D8DE
:10E5800012E5FC1222BBE9851882851983F0601719
:10E590007401122299E9F074011222B38E828F83E2
:10E5A000A312E5B012139B740902EB078E828F83CE
:10E5B000E0FAA3E0FB2274F71222BD890890072538
:10E5C00012DF98603212E5FEA3A3A3A312E36CE866
:10E5D000FEE9FFEE4F6020740B1222991224E774BB
:10E5E0000B1222991224E7A9088E828F831222BB74
:10E5F00074041222638002790202E0B0F8A312E6EA
:10E600000222E0F58388822274F61222BD74F91288
:10E61000224D12DF956033AA18AB1912140712E6C7
:10E620005912E6516008750843750914800675088B
:10E630004975091478081224D074021222B379079C
:10E640001214C7740212226380027901740702EB6C
:10E650000790072212E602E022900721E0F8A312B9
:10E66000E07FFAA3E0FB2274F61222BD74F01222BE
:10E670004D75081075090078081224D0900721E024
:10E68000241BFCA3E03400FD74021222AB121779A4
:10E69000740212226375085B75091402EAEE74F6BF
:10E6A0001222BD74F012224D750810750900780809
:10E6B0001224D012E6CDFD74021222AB1217797427
:10E6C0000212226375086775091402EAEE900721A9
:10E6D000E0242BFCA3E034002274F01222BD8A084F
:10E6E0008B09750A0012EA3812DF98600302E9E428
:10E6F0007A077B00121845900721E0241812EA2DB2
:10E70000EAF0A3EBF088828983E0FA4B700302E918
:10E71000DF12EA4DE0FEA3E0FF750C07750D0078EF
:10E720000C1224D0AC08AD091217797402122263BE
:10E7300012E4D5600302E951EE2413FCE43FFD909E
:10E74000072212EA5A2405F50CA3E03400F50D8CDB
:10E75000828D8312E36C850C82850D83E0A2E092AA
:10E76000F0E8A2E020F001B35007A2E0E433FA8021
:10E77000027A00E854FE4AF88C828D8312E9EEC3D7
:10E7800013A2E092F0E8C313A2E020F001B350120C
:10E79000E854026004D2F08002C2F0A2F0E433FA3E
:10E7A00080027A00E854FDF8EA25E0FAE433FBE859
:10E7B0004AF8E94B12EA0E543FA2E092F0E8131334
:10E7C000543FA2E020F001B35013E854046004D297
:10E7D000F08002C2F0A2F0E433F50E8003750E0063
:10E7E000750F00E854FBFAE9FB7402780E12223A26
:10E7F000EA450EF8EB450F12EA0E13541FA2E09201
:10E80000F0E8131313541FA2E020F001B35013E8F3
:10E8100054086004D2F08002C2F0A2F0E433F50E96
:10E820008003750E00750F00E854F7FAE9FB7403D6
:10E83000780E12223AEA450EFA12E9FAA3E0A2E0B3
:10E8400092F0EBA2E020F001B3501154016004D229
:10E85000F08002C2F0A2F0E433F880027800EB54BA
:10E86000FEFBE8F9EB4912EA1A7409780E12222B22
:10E87000E50EA2E092F08A0E8B0F7409780E122238
:10E880002BE50EA2E020F001B35013EB540260041C
:10E89000D2F08002C2F0A2F0E433F50E8003750ED0
:10E8A00000EB54FDFB7409780E12223AEB450F126F
:10E8B000EA1A740A780E12222BE50EA2E092F08A70
:10E8C0000E8B0F740A780E12222BE50EA2E020F0B8
:10E8D00001B35013EB54046004D2F08002C2F0A2E2
:10E8E000F0E433F50E8003750E00EB54FBFB740A65
:10E8F000780E12223A12E9FAE0F50CA3E0F50D7455
:10E900000B780C12222BE50CA2E092F08A0C8B0DF6
:10E91000740B780C12222BE50CA2E020F001B3500E
:10E9200013EB54086004D2F08002C2F0A2F0E4338A
:10E93000F50C8003750C00EB54F7FB740B780C128C
:10E94000223AEAF8EB450DF98C828D83E8F0A3E9D1
:10E95000F0850882850983A3E0600F8E828F83A3F0
:10E96000E0600712EA5F7405806D8508828509837F
:10E97000A3A3E054047015EE2412F582E43FF5835E
:10E98000E0A2E2400712EA5F7401804B12E4D58EE8
:10E99000828F83600CE0FA850882850983E0F88025
:10E9A0000AE0F8850882850983E0FAEAC3940550F5
:10E9B00029E8C394055023E875F005A4F8A9F0747C
:10E9C0006E28F8748039F9E82AF582E439F583E095
:10E9D000C0E012EA5FD0E0F0800D750A188008757B
:10E9E0000A138003750A11A90A7F0802238FF0A376
:10E9F000E9F0850C82850D83E022EB450FFB8C82CC
:10EA00008D83EAF0A3EBF0850C82850D8322F98CCF
:10EA1000828D83E812E9EE131322FB8C828D83EA48
:10EA2000F0A3EB12E9F1F50EA3E0F50F22F8A3E055
:10EA30003400F98882898322900721E0F8A312EA42
:10EA40004222E0C82418F582E438F5832212DF8ED2
:10EA5000A3A3A322900721E0F8A312EA42E02290A8
:10EA60000721E0F8A312EA6922E0C8241AF582E43B
:10EA700038F5832274F61222BD75087F7509147863
:10EA8000081224D079111214C77402807A74F61215
:10EA900022BD74EE12224DEAFEEBFF851882851925
:10EAA00083ECF0A3EDF075080875090078081224CE
:10EAB000D0741E122299E0FCA3E0FD740412229986
:10EAC000AA82AB83121779740212226375088B75C0
:10EAD000091478081224D074021222B3790BEEFACA
:10EAE000EFFB1214C77402122263741280197808A3
:10EAF0001224D074021222B3791112E6591214C7EB
:10EB0000740212226374101222637F0202238F7434
:10EB1000F61222BD75089775091402EA7F74F41283
:10EB200022BD74F912224DEAFEEBFF851882851989
:10EB300083E9F0750A06750B00780A1224D0740375
:10EB4000122299AA82AB831217797402122263757A
:10EB50000A9D750B14780A1224D074021222B3791C
:10EB600008EEFAEFFB1214C7740212226374070254
:10EB7000E20B74F61222BD7508AF75091402EA7F24
:10EB8000C082C08312DF956050E0C8241812EBDF0A
:10EB9000600312184B12EC56245B12EBDF60031279
:10EBA000184B12EC56245D12EBDF600312184B1267
:10EBB000EC56245F12EBDF600312184B12EC562464
:10EBC0006112EBDF600312184B90072112E5B012BF
:10EBD000184B900721E4F0A3F012131702E3ADF5F0
:10EBE00082E438F583E0FAA3E0FBEA4B2274F712E3
:10EBF00022BD12DF93605CE0C82461F582E438F541
:10EC0000831224E712EC56245FF582E438F5831270
:10EC100024E712EC56245DF582E438F5831224E7EC
:10EC200012EC56245BF582E438F5831224E712ECEB
:10EC3000562417F582E438F583E0FB12E075FCA357
:10EC4000E0FD12E651FAEEF9120A7D740812226311
:10EC50001213F502E0B0900721E0F8A3E0C822C04B
:10EC600082C083791090072112EBE5603512EA54D7
:10EC7000FAA3E0FBEAFCEBFDEC4D602612EA4D1234
:10EC8000EBE5601EEA2415F582E43BF583E0F88CA1
:10EC9000828D83A3A3A3A3E0FAC3985003EA800163
:10ECA000E8F902E3AD74F61222BDEAFEEBFF12DFD3
:10ECB00095606612ED2512DF98605E8808890988E4
:10ECC000828983E08E828F83F088828983A3E08E9D
:10ECD000828F83A3F0E82412F582E43509F583E0FE
:10ECE000F9EE2402FAE43FFB121341E5082415F57E
:10ECF00082E43509F583E08E828F83A3A3A3A3F07A
:10ED0000E5082413F582E43509F583EE2405FCE4D7
:10ED10003FFD740212216080097C077D007900129A
:10ED2000179102EB0A12E602A3A3A3A3A322C082B7
:10ED3000C08390055DE4F090055C74FFF090057968
:10ED4000E4F090057874FFF0900559F0900558E4D0
:10ED5000F0900557F090055AF0A302F76274F01294
:10ED600022BD90055AE0F50AA3E0F50BE50A450B34
:10ED7000700612100B02F072850A82850B83E01474
:10ED8000601814601524FE601124C4700302EEC0E4
:10ED900024C0700302EEC002F072E0F912117F8A03
:10EDA000088B09AE08AF099003AEE060741210B989
:10EDB00012F08DAC08FDEEFAEFFB121179E9F50EB9
:10EDC0007402650E60468E828F83E06401600302E8
:10EDD000F072EE650A7003EF650B600312102FE509
:10EDE0000E702612122D8A0C8B0D8C0E8D0F9083B7
:10EDF00023780C12208A908317780C1220D88E82E8
:10EE00008F83A3A3780C12212002EF5212F07D12FF
:10EE100011C78E828F83E0FA9003AFF0790202EF80
:10EE2000A2EE650A7003EF650B700302F06F8E822D
:10EE30008F83E06401600302F07212102F12122D12
:10EE40008A088B098C0A8D0B90830B780812208A14
:10EE500078081224CC8E828F83A3A312212F123123
:10EE6000A07404122263E9705412122D8A088B09CF
:10EE70008C0A8D0B908323780812208A9083177850
:10EE8000081220D88E828F83A3A3780812212090A5
:10EE90000381E0640270238E828F83A3A37808121B
:10EEA0002111908383780812208A908317780812A2
:10EEB00020D812F077122120800312F70B02F065A0
:10EEC0009003AEE0700302EFBD1210B912F08D9006
:10EED00003AFE0F875F00AA4C8AAF02AF974B128C3
:10EEE000F50A740339F50B900558E054076076A3D2
:10EEF000E0F912117F8A0E8B0FAE0EAF0FAC08AD8A
:10EF000009121179E9F50E7402650E6058850A82BE
:10EF1000850B83A3A3A3A3E0F91211C18E828F8373
:10EF2000E06401704012102FE50E702612122D8A37
:10EF30000C8B0D8C0E8D0F908323780C12208A90F1
:10EF40008317780C1220D88E828F83A3A3780C129B
:10EF50002120850882850983A3A3780812211190B6
:10EF6000834F02F04DE50C650A7004E50D650B60FA
:10EF70002A850A82850B83A3A3A3E0600F850A82FA
:10EF8000850B83A3A3A3A3E0F91211C112F07D1294
:10EF900011C78E828F83E09003AFF079029003AFA8
:10EFA000E0FA75F00AA4CAA8F028FB74B12AFA7432
:10EFB000033BFB1229B5AA08AB0902F06F90055874
:10EFC000E05407700302F072A3E0F912117F8A087F
:10EFD0008B09AE08AF098E828F83E0640160030263
:10EFE000F07212102F12122D8A088B098C0A8D0BC9
:10EFF00090830B780812208A78081224CC8E828F96
:10F0000083A3A312212F1231A07404122263E9708A
:10F010005412122D8A088B098C0A8D0B9083237849
:10F020000812208A90831778081220D88E828F8346
:10F03000A3A37808122120900381E0640270238E3C
:10F04000828F83A3A37808122111908383780812FA
:10F05000208A90831778081220D812F07712212086
:10F06000800312F70B9005597401F0EEFAEFFB12D2
:10F0700011737F0802238F12F1F0780822E50C2427
:10F0800004FEE4350DFF8E828F83E0F922E9F875E6
:10F09000F00AA4C8AAF02AF974B128F50C7403394F
:10F0A000F50D850C82F583E0F508A3E0F5092274DF
:10F0B000F01222BDEAFEEBFFEE2402F8E43FF988ED
:10F0C000088909EE2406F8E43FF9880A890B88824A
:10F0D000F5831224E785088285098312212F1212F5
:10F0E000097402122263850A82850B831224E78544
:10F0F000088285098312212F1211FD7402122263E6
:10F1000012F1F012212F12120F8E828F83E06440D1
:10F11000701BEE2412F8E43FF988828983E0906046
:10F1200064F088828983A3E09060658006906064C3
:10F13000E4F0A3F090055AEEF0A3EF12F70012FBF3
:10F14000891222BB906054E412F1FAA312F1FA90F2
:10F150006182E0C2E6F07591BF12F6F6E0640170DC
:10F160000312124BE5E170FC12F6E6E0F46003E0F6
:10F17000F5E112F6F0F0900387E06401706F12126F
:10F180002D8A088B098C0A8D0B78081224CC8E826C
:10F190008F83A3A312212F1231FC74041222638ADD
:10F1A000088B098C0A8D0B90834B780C12211178F7
:10F1B00008790C121EBD7403780812203FE508245C
:10F1C000F4F508E5093401F509900527E06003121C
:10F1D000182DE4F50AF50B78081224CC7A207B0070
:10F1E000900380E0F91218DB740412226302F072BB
:10F1F000EE240EF582E43FF58322F0A3F0A3F0A302
:10F20000F0A3F0A3F02274EC1222BDEAFEEBFF8C17
:10F21000088D09EE4F700302F2BE12122D8A0C8B7C
:10F220000D8C0E8D0F9082C3780C12208A9083175C
:10F23000780C1220D8908347C082C083780C1224A7
:10F24000CC850882850983A3A312212F1231FC7477
:10F25000041222638A108B118C128D13D083D082FA
:10F2600078101219F45057850882850983A3A37872
:10F2700008122111908373780812208A78081224CA
:10F28000CC8E828F83A3A312212F1231A07404127B
:10F290002263E97029908343780C12208A780C123B
:10F2A00024CC8E828F83A3A312212F1231A0740449
:10F2B000122263E9700479008006790180027902E4
:10F2C0007F0C02238F74F01222BD890874FF650839
:10F2D000600302F382900558E05407700302F601C0
:10F2E0007904121197E96401702C780090055CE0B4
:10F2F00064047006A3E0640160167801900578E06C
:10F3000064047006A3E0640160067A007B00800359
:10F3100012F60802F6057901121197E96401702CC2
:10F32000780090055CE064017006A3E0640160165B
:10F330007801900578E064017006A3E0640160063E
:10F340007A007B00800312F60802F605790212119A
:10F3500097E96401702C780090055CE06402700607
:10F36000A3E0640160167801900578E064027006FD
:10F37000A3E0640160067A007B00800312F60802B5
:10F38000F605780090055CE065087006A3E064016E
:10F3900060167801900578E065087006A3E06401C6
:10F3A00060067E007F008010E875F01CA4F8A9F0CC
:10F3B000745C28FE740539FFA908121197E96401ED
:10F3C00070057509018003750900E50814601014C3
:10F3D000700302F49D24FE700302F51302F6017916
:10F3E00002121197E964017069780090055CE0648D
:10F3F000027006A3E0640160187801900578E0646B
:10F40000027006A3E064016008750A00750B0080B5
:10F410000312F619E509A2E05031850A82850B83B3
:10F42000A3A3780C12211190833F780C12208A78C4
:10F430000C1224CC8E828F83A3A312212F1231A011
:10F440007404122263E9700302F5FBAA0AAB0B02F3
:10F45000F6057904121197E96401702E7800900581
:10F460005CE064047006A3E0640160187801900514
:10F4700078E064047006A3E064016008750A007512
:10F480000B00800312F61902F548E509A2E05006C8
:10F49000EEFAEFFB80047A007B0002F60579041295
:10F4A0001197E96401702D780090055CE0640470A8
:10F4B00006A3E0640160187801900578E0640470A8
:10F4C00006A3E064016008750A00750B00807912DC
:10F4D000F61980747901121197E96401702278009D
:10F4E00090055CE064017006A3E064016057780158
:10F4F000900578E064017045A3E064016047803DB9
:10F50000E509A2E05006EEFAEFFB80047A007B00EA
:10F5100002F6057901121197E9640170677800908D
:10F52000055CE064017006A3E06401601878019056
:10F530000578E064017006A3E064016008750A00C4
:10F54000750B00800312F619E509A2E0400302F4EE
:10F550004B850A82850B83A3A3780C12211190831B
:10F560003F780C12208A780C1224CC8E828F83A3D1
:10F57000A312212F1231A07404122263E960030246
:10F58000F44B80777902121197E964017067780073
:10F5900090055CE064027006A3E0640160187801E5
:10F5A000900578E064027006A3E064016008750AC3
:10F5B00000750B00800312F619E509A2E040030272
:10F5C000F44B850A82850B83A3A3780C122111903A
:10F5D000833F780C12208A780C1224CC8E828F8381
:10F5E000A3A312212F1231A07404122263E9600335
:10F5F00002F44B8006E509A2E05006EEFAEFFB802C
:10F60000047A007B0002F072E875F01CA4F8A9F0FF
:10F61000745C28FA740539FB22E875F01CA4F8A97B
:10F62000F0745C28F50A740539F50B2274F6122281
:10F63000BD890975080090055DE0600302F6D1E51B
:10F640000875F01CA4F8A9F0745C28FE740539FF55
:10F650008E828F83A37401F08E828F83E509F0126E
:10F66000122DEAF8EBF9ECFAEDFB8E828F83A3A35F
:10F670001221478E828F83A3A3A3A3A3A3E4F0A3A5
:10F68000F012F70B12F6E67401F012F6F012F70022
:10F69000E4F0A3F0900558E04509F0900557E00428
:10F6A000F06401600C74806509600674406509703F
:10F6B00019E50875F01CA4F8A9F0745C28F8740525
:10F6C00039F990055AE8F0A3E9F0E50812F6098047
:10F6D00010750801900579E0700302F63F7A007B0F
:10F6E000007F0202238FEE2414F582E43FF583228B
:10F6F00012F6F6740122EE2415F582E43FF583221A
:10F70000F0EE241AF582E43FF5832212F1F074FF43
:10F71000F0A3F0A3F0A3F022C082C0838A828B837F
:10F72000E0F8A3E0F98A828B83E4F0A3F088828971
:10F7300083A3F088828983E0F4F8900558E058F0BC
:10F74000900557E014F0701490055AE4F0A3F0907F
:10F750000381F0FA900380E0F912185D8005ED90C6
:10F7600061C6F0D083D082020132C082C08390058E
:10F7700057E0600A90055AE0FAA3E0FB80047A00A3
:10F780007B0080DFC082C083E9FB780090055CE0ED
:10F790006B7016E875F01CA4F8A9F0745D28F5826A
:10F7A000740539F583E0F9800B7801900578E06BFA
:10F7B00060E1790080ADC082C083900558E0F98097
:10F7C000A2C082C08390055780F374F71222BDEA6D
:10F7D000FEEBFF9061D0E0C0E0EE240012F913D000
:10F7E000E0F09061D7E0F89061D512F946C0E012E0
:10F7F000F863D0E0F09061D612F946F812F86AE8A2
:10F80000F070109061C5E0A2E45008E0A2E7500358
:10F8100012F8751212DB12F863E0701C12F86AE03D
:10F8200070169061C5E0A2E4500EE0A2E750091204
:10F83000F87512F8637480F075E1957A0080149081
:10F8400061D3E0C0E0EAF8EE28F582E43FF583D02A
:10F85000E0F00AEE240012F92D40E475E1917F01F9
:10F8600002238FEE240112F9252212F86E22EE24D3
:10F870000212F9252212F86E7480F02274F7122217
:10F88000BDEAFEEBFF9061C8E0C0E0EE240312F990
:10F8900013D0E0F09061CFE0F89061CD12F946C04E
:10F8A000E012F93FD0E0F09061CE12F946F812F97B
:10F8B0001AE8F070109061C5E0A2E05008E0A2E301
:10F8C000500312F9381212E112F93FE0701C12F9DC
:10F8D0001AE070169061C5E0A2E0500EE0A2E3507D
:10F8E0000912F93812F93F7480F01212E77A008099
:10F8F000149061CBE0C0E0EAF8EE28F8E43F12F99A
:10F90000DAD0E0F00AEE240312F92D40E475E1812B
:10F9100002F85EF582EF12F9282212F91E22EE2477
:10F920000512F92522F582EF3401F58322F582EFE5
:10F9300012F9ECF8EAC3982212F91E7480F022EE54
:10F94000240412F92522E0C398547F22C082C08388
:10F950009061C6E0FDE0540FF075E1917C008010ED
:10F96000ECF8EA28F582E43BF583E09061D2F00CF4
:10F97000EA240012F9F140E8EA240212F9E56004F1
:10F980009061D6F0EA240112F9E560049061D5F0A7
:10F9900002F75EC082C0839061C6E0FDE054F0F0E3
:10F9A00075E1817C008010ECF8EA28F8E43B12F95C
:10F9B000DAE09061CAF00CEA240312F9F140E8EAB7
:10F9C000240512F9E560049061CEF0EA240412F9EE
:10F9D000E560049061CDF002F75EF9E82480F582DD
:10F9E000E439F5832212F9E922F582EB12F928E0D5
:10F9F0002212F9E9F8ECC3982274F41222BD12FB2A
:10FA00006E1211AFEEFAEFFB1211A9750A80750B99
:10FA100000780A1224D07C007D60EE2406FAEF34D0
:10FA200001FB12111F7402122263906195E0C0E085
:10FA3000EE248612F913D0E0F0906196E0C0E0EE7B
:10FA4000248712F913D0E0F0906197E0C0E0EE2433
:10FA50008812F913D0E0F0906198E0C0E0EE2489BC
:10FA600012F913D0E0F07F0402238F74F21222BD4A
:10FA700012FB6E1211BBEEFAEFFB1211B5750C09F9
:10FA8000750D00780C1224D0EE2406FCEF3401FD35
:10FA90007A007B6012111F7402122263750C1878B1
:10FAA0000C1224D0EE2410FCEF3401FD7A0A7B60A6
:10FAB00012111F7402122263750C2C780C1224D0C0
:10FAC000EE245AFCEF3401FD7A547B6012111F744E
:10FAD00002122263EE2486F582EF12FB66EE248783
:10FAE000F582EF12FB5EEE2488F582EF12FB56EEF4
:10FAF0002489F582EF12FB4FF0E50875F00AA4C5E2
:10FB000008A8F028F50974B12508F58274033509B1
:10FB1000F58312FB89E0648070079003817408808C
:10FB20001E9016A312FB9212FB927461F0A3741143
:10FB300012FB9874D3F0A37411F09003817407F052
:10FB40009016B112FBA3A312FBA37F0602238F1210
:10FB5000F9EC9061982212F9EC906197F02212F979
:10FB6000EC906196F02212F9EC906195F0228908F0
:10FB7000A808E875F08AA4C8AAF02AF9749428FEA7
:10FB8000740539FFEEFAEFFB22E0F8A3E0F5838875
:10FB9000822274CDF0A37411F0A374CDF0A374117C
:10FBA000F0A322746112FBB112FBB1F0A37411F047
:10FBB00022F0A37411F0A3746122C082C0831212D8
:10FBC0005112124B02FF3AC082C0839061B1E0C271
:10FBD000E0F0E04403F0906188E0640470F802FF14
:10FBE0003AC082C0839061C0E0FAE4F0F8F9E824FA
:10FBF00000F582E93460F583E4F008E8700109C398
:10FC00009480E9940140E7EA9061C0F090618A74C1
:10FC10000102FF35C082C0838A828B83E090601628
:10FC200012FE5DA3E090601712FC9090601812FC29
:10FC30009990601912FC9E90601A12FCA390601BB0
:10FC4000F0E99060157005E0C2E08003E0D2E002C8
:10FC5000FF39C082C0838A828B83E090601C12FED1
:10FC60005DA3E090601D12FC9090601E12FC9990C4
:10FC7000601F12FC9E90602012FCA3906021F0E9AE
:10FC80009060157005E0C2E18003E0D2E102FF3927
:10FC9000F08A828B83A3A3E02212FCAEE02212FC46
:10FCA000A9E02212FCA9A3E02212FCAEA322F08A52
:10FCB000828B83A3A3A32274F01222BDEA90600575
:10FCC000F0EBA3F0ECA3F07F0802238FC082C08387
:10FCD000906001E002FD59C082C0837407599060B2
:10FCE0000102FF39C082C08374016990600370050E
:10FCF000E0D2E08003E0C2E002FF39C082C083901E
:10FD00006003E054F94902FF39C082C0839060610A
:10FD1000E002FD59C082C083906008740B02FF3975
:10FD200074F01222BDEA90619512FEB302FCC5C0C8
:10FD300082C083E990600402FF39C082C0839007CB
:10FD40001EE4F0906022F0A3F0A37830F0A3D8FC7A
:10FD500002FF3AF07F0202238FF902FF3A74F41295
:10FD600022BDEAFEEBFF89088C0990071EE06408BB
:10FD700070047903807B1212F9E9F47067790075D9
:10FD80000A01750B00E9780A12223AE50AFC906034
:10FD900022E05C7053E04C12FDF4FA74603BFB7897
:10FDA000068E828F8312FE7F8E828F83A3AE82AFF8
:10FDB000838A828B83A3AA82AB83D8E5E508700A85
:10FDC000ECF4F8906023E0588005906023E04CF05C
:10FDD00090071EE004F07401650970051212AB80F3
:10FDE000031212B17900800909E9C394084090799F
:10FDF0000102FE53F0E975F006A4FAABF074242A70
:10FE000022C082C083906014E054FCF0E04902FFFD
:10FE10003974F61222BD750801750900E9780812D7
:10FE2000223A906009E0450802FD5374F61222BDA3
:10FE3000750801750900E9780812223AE508F4F816
:10FE4000906009E05802FD53C082C083906009E4CD
:10FE500002FF397F0402238F9061C07401F08A820F
:10FE60008B8322C082C0837A007B60E970027A3380
:10FE700012FE58E4F0A3F0A3F09061C002FF391223
:10FE8000FE832212FF41F022C082C083E99060020B
:10FE900002FF39C082C083E99060027005E0D2E3BE
:10FEA0008003E0C2E302FF39C082C083E99061C6EB
:10FEB00002FF39F0EBA3F0ECA3F0ED22C082C08387
:10FEC000E9601714601C14601E146023146025146C
:10FED000602A14603314603C80419061E9E054FC76
:10FEE00080389061E9801C9061E9E0C2E0802B904D
:10FEF00061E9801B9061E9E0C2E1801E9061E9E068
:10FF0000C2E1F0E0D2E080129061E9E0C2E0F0E00E
:10FF1000D2E180069061E9E04403F0801D75E19331
:10FF200002013275E18302013275E1850201327509
:10FF3000E182020132F0A3F0A3F0D083D08202016B
:10FF400032E08A828B8322C082C083E9C3332417C4
:10FF5000906184F074016A70079061A6740A80173A
:10FF6000E9C39414E0500904F09061A67425800759
:10FF700014F09061A6740F02FF3974F51222BDEAE5
:10FF8000FCEBFD890A7900750801750900E978081C
:10FF900012223A906022E055086053E975F006A4F9
:10FFA000FAABF074242AFA74603BFBEAFEEBFF78AC
:10FFB00000E8FAEE2AF582E43FF583E0F508EC2A42
:10FFC000F582E43DF583E06508700708E8C3940610
:10FFD00040DF7406687017906023E0F5087509002B
:10FFE000E9780812221BE5085401650A600909E94D
:0FFFF000C39408409279FF7F0302238F020132EE
:020000040001F9
:1000000074F21222BDE9FF8C088D097E008F0A8EE2
:100010000B8A0C8B0D780C12251401031A71835571
:10002000806C80838071839B805F817081A981EB6C
:1000300081088225824482618271837E82C082DC53
:1000400082F18200831A8371837183718371833695
:10005000837183E48074106F600302836D750A10EE
:10006000780A1224D07AFF7B1402823974106F60F0
:100070000302836D750A10780A1224D07A0F7B155B
:1000800002823974046F600302836D8C828D831247
:10009000213B90151F12214702838F74016F60036B
:1000A00002836D901529E06401700302815A901B50
:1000B00097E0F88C828D83E0901B97F0E86010E069
:1000C000600302838F9014FDE06402704B8051E066
:1000D000700302838F9014FDE06401606EE064049D
:1000E0007061806774016F600302836D901B97E0FD
:1000F00064016066901529E0F88C828D83E090158C
:1001000029F0E86026E0600302838F9014FDE0642C
:1001100003600DE064076008E06405600302838FFC
:100120009014FCE0F9120A9502838FE070030283B9
:100130008F9014FDE064016012E06404600DE064DF
:10014000066008E06405600302838F7A017B0090FB
:1001500014FCE0F91217CD02838F7E1202838F7494
:10016000026F600302836D128C76901B98028314D9
:10017000EFC39420400302836D7C1F7D0079007AD9
:100180009B7B1B121791780A1224D0AC08AD097A18
:100190009B7B1B1217797402122263EF901B9AF05B
:1001A0007C9B7D1BFB7A018037EFC39420400302C8
:1001B000836D7C1F7D0079007A2B7B151217917857
:1001C0000A1224D0AC08AD097A2B7B15121779746A
:1001D00002122263EF90152AF07C2B7D15FB7A002A
:1001E0009014FCE0F9120A8F02838974016F600396
:1001F00002836D8C828D83E0F8C3940540030283F3
:100200006DE890154A02833374016F600302836DB9
:100210008C828D83E0F8C39404400302836DE890E0
:10022000154B02833374066F600302836D750A06F3
:10023000780A1224D07A4C7B151217797402122294
:100240006302838F74016F600302836D8C828D83E0
:10025000E0F8C39408400302836DE89015520283CE
:100260003374016F600302836D8C828D83E0F8C369
:100270009404400302836DE89015530283337402A3
:100280006F600302836D128C76901554128C5EE8B9
:1002900049700302838F9014FDE0640660030283BB
:1002A0008F901554128CB078081224CC7A027B00FF
:1002B0009014FCE0F91218DB740412226302838F9D
:1002C00074016F600302836D8C828D83E0F8C394A8
:1002D00002400302836DE890155C80571283AA6088
:1002E0000302836D12839E400302836D901BBC80CA
:1002F0003E1283AA707712839E5072901BBE802F8D
:10030000128C7674026F7065C3E894F4E99401501E
:100310005C90155DE8F0A3E980191283AA704EEA9B
:1003200024F61283969477E9940C5041901BC0EA0E
:10033000F0A3EBF0805974016F70328C828D83E0F2
:10034000640170297A087B009014FCE0F91218ED22
:10035000EA4B4C4D701379001219357A047B0090EA
:1003600014FCE0F91218E780267E1680227E1880A1
:100370001EC3EA9427EB9400501374026F700E8C26
:10038000828D831287C9120981E9FE80027E02EE06
:10039000F97F0602238FF8EB34FFF9C3E822EA2441
:1003A000FA128396947BE9940C228C828D83E0FA76
:1003B000A3E0FB74026F2274F41222BDECFEEDFF89
:1003C0007508008A0A8B0B780A12251400031B1883
:1003D0008509840F84218433844384558461846730
:1003E00084768485848B849184A284A784AC84B130
:1003F00084B684C384C884CD84D284D784F484F939
:1004000084FE8418850E855B849014FE0285117528
:100410000A10750B00780A1224D07CFF7D14028428
:10042000E6750A10750B00780A1224D07C0F7D1532
:100430000284E690151F12213B8E828F8312214782
:10044000028532750A06750B00780A1224D07C23C7
:100450007D150284E6901B9702851190152902856F
:1004600011901B98028501901B9A1285361224D098
:100470007C9B7D1B807090152A1285361224D07CBF
:100480002B7D15806190154A02851190154B0285D0
:1004900011750A06750B00780A1224D07C4C7D1564
:1004A0008044901552806A9015538065901BBA80E5
:1004B00050901554804B90155CE08E828F83F0A392
:1004C000E48069901BBC8039901BBE803490155D20
:1004D000802F901BC0802A750A06750B00780A12BF
:1004E00024D07C567D15EEFAEFFB121779740212B8
:1004F0002263803E90155F800890156180039015FF
:1005000063128C7A8E828F83E8F0A3E9801E9014A8
:10051000FDE08E828F838014C3EA9427EB94005011
:100520000E1209878E828F83EAF0A3EBF0800375A9
:100530000802A908800EE0F50A750B00780A2274FB
:100540000A1222637F0402238F74F61222BD9014D4
:10055000FDE0703EEA4B6008901566EAF0A3EBF010
:1005600075081F75091578081224D075080F7509CC
:100570001578081224D07CFF7D147B009014FEE0D7
:10058000FA9014FCE0F912151B740412226379002E
:10059000800279117F0202238FD083D08202013240
:1005A000C082C0839014FDE06406700F7C13128C2F
:1005B0006D9014FCE0F91209FF8002791280DA7460
:1005C000F71222BDE99014FCF09014FDE4F0901BAA
:1005D000BA74FFF0A3F0120AEF9014FE7404F07CDA
:1005E000107D0079007AFF7B141217917C107D003A
:1005F00079007A0F7B1512179190151FE4F0A3F084
:10060000A3F0A3F090154AF090154BF0901552749A
:1006100007F0901553E4F07CFF7D147A10790212F4
:1006200018B77C0F7D157A1079031218B77C1F7DDF
:10063000157A0479041218B77F0102238F74F4121B
:1006400022BD74F612224DEAFEEBFF548060239027
:1006500014FCE0F91217B58A088B09EA4509600A0B
:10066000121929AA08AB091217A3EEFAEF64800247
:1006700087BFEF544060137C1F7D157A0479041204
:1006800018B1EEFAEF64400287BFEEA2E040030229
:10069000873C901B97E07009901529E07003028752
:1006A00036901529E0600B8518828519837403F054
:1006B000803990154AE0851882851983F090154B92
:1006C000E0C0E07401122299D0E0F07508067509C7
:1006D0000078081224D07C4C7D157404122299AA4B
:1006E00082AB831217797402122263901552E0C014
:1006F000E07408122299D0E0F0901553E0C0E07445
:1007000009122299D0E0F0AA18AB199014FCE0F974
:10071000120A89E960209014FD7408F0128CBB6005
:1007200015128C67128C7A88828983E582458360F2
:100730000579081222BBEE64010287BD54026035C0
:100740009014FDE064067028128C6D120D1D90153A
:1007500054128CBE601A901554128CA81224CC7AB4
:10076000027B009014FCE0F91218DB74041222637F
:10077000EE64028048EE5404600A7900121935EEE6
:1007800064048039EE54086039901565E0146008FF
:100790001470271219178022901BC01224E790159D
:1007A0005D1224E77901901BBE1287C9901BBC1211
:1007B0008C7012193B7404122263EE6408FAEFFB8A
:1007C00080047A007B0002853FE0FCA3E0FD2274F8
:1007D000F41222BDEA2405F8E43BF98A828B83E017
:1007E000246F600B24EF606D24D260640288B0A394
:1007F000E0640E60030288B08A828B83A3A3A3E027
:1008000064057004A3E0641460030288B0888289E0
:1008100083128C64A3A3A3E0F99014FDE064066046
:10082000030288B0747F6970030288B09015661265
:100830008C70EA4B607A901566128C64A3A3128CBC
:10084000708A828B83E582458360651222BB80605B
:1008500012192F805B88828983E0641370528A8228
:100860008B83A3A3A3A3A3A3E064017002A3E070FE
:1008700019901565E0640270117A087B009014FCF1
:10088000E0F91218E712191780267A057B00120981
:10089000878A088B09E4F50AF50B78081224CC7ACC
:1008A000087B009014FCE0F91218DB740412226338
:1008B00002854474EC1222BDEAFEEBFF8E828F8328
:1008C000A3A3E0F8EE2403F50CE43FF50DEE240AB3
:1008D000F50AE43FF50B8E828F83A385820885831A
:1008E00009E8602724FE70030289821470030289DC
:1008F000E81470030289E8147003028A5714700325
:10090000028B66147003028BDB8072E0704B7CFFFD
:100910007D147A1079021218B17C0F7D157A107946
:10092000031218B175080675090078081224D0ACB6
:100930000CAD0D7A237B1512177974021222639085
:1009400014FD7401F07C9B7D1B901B9AE0FB7A01E7
:100950009014FCE0F9120A8FE960030289DF128C1F
:10096000BB601A128C67128C7AE8FAE9FBEA4B60DA
:100970000C9014FDE0F98A828B831222BB7F0C025B
:10098000238FE07051850C82850D83E0601D7C2BE8
:100990007D1590152AE0FB7A009014FCE0F9120A0C
:1009A0008FE9850882850983F0802B9014FDE0642F
:1009B000026023E06407601E7A017B009014FCE073
:1009C000F91218EDEA4B4C4D700C7A017B00901433
:1009D000FCE0F91217CD850882850983E0609E90BE
:1009E00014FD7408F002895EE070F4740368701DF1
:1009F0009014FDE064067004740780E8901B97E093
:100A00009014FD6004740280DB740380D7901B98FF
:100A1000128CBE901B976025E07006901529E0604F
:100A200026901B98128CA81224CC7A017B0090147B
:100A3000FCE0F91218DB7404122263800AE06401FE
:100A40006003901529E4F09014FDE06407700474CD
:100A50000680917404808DE0F86003028B53EE24CD
:100A600004F508E43FF509750E06750F00780E12BF
:100A700024D0AC08AD097A567B151217797402128E
:100A80002263850A82850B83128C7A901BBA128CA2
:100A90005E9014FD7406F0901554128CBE60259083
:100AA0001554E0F510A3E0F511E4F512F5137810F4
:100AB0001224CC7A027B009014FCE0F91218DB744B
:100AC00004122263EE240DF582E43FF583128C9C20
:100AD000EE240FF582E43FF583128C90EE2411F59D
:100AE00082E43FF583128C8490155CE06401703BD6
:100AF0007A1F7B001209878A10EA75F0E8A4C510F6
:100B0000A8F075F003A428F875F0E8EBA428F51117
:100B1000E4F512F51378101224CC7A047B009014BB
:100B2000FCE0F91218DB7404122263750E04780ECF
:100B30001224D4850A82850B831287C9AA08AB09BF
:100B4000850C82850D83E0F912152774011222634A
:100B500002895E74316860030289DF901B97E4F0BC
:100B60009014FD028A531215517C067D0079007A9B
:100B7000567B1512179190155FE4F0A3F090156164
:100B8000F0A3F0901563F0A3F07A04FB9014FCE05E
:100B9000F91218E77A087B009014FCE0F91218E7C4
:100BA000901BBA74FFF0A3F0901529E06006901432
:100BB000FD028A098E828F83A3A3A3A3A3E0640806
:100BC0009014FD7004740580027404F07A017B00B7
:100BD0009014FCE0F91217CD02895E7A087B009030
:100BE00014FCE0F91218E7850882850983E06003A8
:100BF00002897D8E828F83A3A3A3A3A3A3128C9CBF
:100C00008E828F83A3A3A3A3A3A3A3A3128C9085F7
:100C10000A82850B83128C847A047B009014FCE09A
:100C2000F91218EDEA4B4C4D600302897D9015686E
:100C3000128CBE700302897D9015631224E7901513
:100C4000611287C990155F128C70901568128C64C0
:100C5000128C641222BB740212226302897DE8F0B6
:100C6000A3E9F022E0F8A3E0F583888222901BBA82
:100C7000E0FAA3E0FB228C828D83128C7E22E0F8C6
:100C8000A3E0F922128C7E901563E8F0A3E9F0222C
:100C9000128C7E901561E8F0A3E9F022128C7E9010
:100CA000155FE8F0A3E9F022128CB0F50B7808226A
:100CB000E0F508A3E0F509E4F50A22901566128C28
:100CC0007EE8492274F41222BD74F612224DE9FE28
:100CD000901BBC128C7A75831575825FC3E098A354
:100CE000E099403890155F128C7A75831B7582BE2F
:100CF000C3E098A3E0994024901561128C7A901576
:100D00005DE0687003A3E0697012901563128C7A3D
:100D1000901BC0E0687003A3E06960797A057B00EE
:100D20001209878A088B09901BBA128C7A8518825F
:100D3000851983128C5E901BBC128C7A740212226D
:100D400099128C5E901BBE128C7A74041222991236
:100D50008C5E90155D128C7A7406122299128C5E4C
:100D6000901BC0128C7A7408122299128C5EAA18F9
:100D7000AB19120A05EE901565F0E4F50AF50B784B
:100D8000081224CC7A087B009014FCE0F91218DBDE
:100D9000740412226302853F74F41222BDE9FE90AE
:100DA00014FDE0640660057914028E2FEA24FAF837
:100DB000EB128E325077EC24FAF8ED128E32506D31
:100DC000740C122299E0F50AA3E0F50BC3E50A942E
:100DD000F4E50B94015056740E122299E0F508A325
:100DE000E0F509E50824F6F8E5091283989476E918
:100DF000940C5039901BBCEAF0A3EBF0901BBEECB6
:100E0000F0A3EDF090155DE50AF0A3E50BF0901B63
:100E1000C0E508F0A3E509F0EEF91219357A047B74
:100E2000009014FCE0F91218E779008002791802AA
:100E30008544128398947AE9940C227F0102238FCF
:100E400074F41222BD74FD12224DEAFEEBFF8C08F1
:100E50008D09EE4F6005EC450970047902805179E7
:100E600003AA18AB191213357402122299E0543FE9
:100E70004440F078081224D074021222B3EEFAEF44
:100E8000FB12131D7402122263E9FE7021750A031E
:100E9000750B00780A1224D074021222B3E50824DC
:100EA00003FAE43509FB1217797402122263EEF992
:100EB0007403801B122299AC82AD83743E12229976
:100EC00012937512177F7402122263EEF9743012B6
:100ED00022637F0402238F74F41222BD74FA12225B
:100EE0004D8A088B09ECFEEDFFEA45096004EE4FE0
:100EF000700479028074750A03750B00780A122455
:100F0000D0EE2403FCE43FFD74021222AB121779E9
:100F100074021222637402122299E0543F4440F09A
:100F200074031222A3880A890B780A1224D074024F
:100F30001222B3AA08AB0912131D7402122263E92C
:100F4000F9702775080375090078081224D0EEFCA3
:100F5000EFFD74051222AB12178B7402122263E9A3
:100F6000640170047900800279017406028ECF74E6
:100F7000F41222BD89081290547003029043E508D0
:100F8000705C12904EE0750A08750B00780A702E9E
:100F90001224D0EAFCEBFD90071FE02402FAA3E044
:100FA0003400FB1217797402122263120D4DE9709E
:100FB00008129048740102903E750801801B1224AB
:100FC000D0EAFCEBFD90071FE0240AFAA3E034000E
:100FD000FB121779740212226312905460617A1224
:100FE0007B0012179D8A0A8B0BAE0AAF0BEE4F6087
:100FF0003E8E828F8374C1F0A3E508F0750A1075E8
:101000000B00780A1224D090071FE02402FCA3E012
:101010003400FDEE2402FAE43FFB12177974021249
:101020002263EEFAEFFB129048A3E0F91217A990A1
:10103000071F12937512184B90071FE4F0A3F07965
:101040000180027900028ED290071FE0F8A3E0F53C
:101050008388822290071FE0F8A3E0F9E849227410
:10106000F21222BD7A207B001209878A088B09E4DC
:10107000F50AF50B8B0DEA450D601678081224CCA5
:101080007A017B00900727E0F91218DB7404122222
:10109000637F0602238FC082C0837A017B009007A2
:1010A00027E0F91218E70293BA74F41222BD74D043
:1010B00012224D8A088B09ECFEEDFF7C307D007911
:1010C00000AA18AB19121791750A10750B00780A4F
:1010D0001224D0AC08AD0974021222AB12177F742F
:1010E0000212226375080375090078081224D0EEF5
:1010F000FCEFFD741F122299AA82AB8312177F7432
:1011000002122263AA18AB19121347E9FE780812DB
:1011100024D0742F028EB474F21222BD74B0122245
:101120004D8A088B09ECFEEDFF890A7C307D007941
:101130000074201222AB121791750C10750D0078F7
:101140000C1224D0AC08AD0974221222AB12177F06
:1011500074021222637C107D007900AA18AB191268
:10116000179175080775090078081224D074601269
:10117000229912936F74021222AB12177F7402121B
:10118000226378081224D0746212229912936F7429
:1011900009122299AA82AB8312177F74021222636A
:1011A0007464122299E06009740E1222997401800D
:1011B00006740E122299E4F0E50A6009740F1222F7
:1011C0009974018006740F122299E4F07C107D005E
:1011D0007900EC1222AB12179175080678081224D8
:1011E000D0746412229912936F7416122299AA82F3
:1011F000AB8312177F740212226378081224D07412
:101200006712229912936F741C122299AA82AB83DF
:1012100012177F740212226375081078081224D006
:10122000EEFCEFFD7432122299AA82AB8312177F73
:101230007402122263AC18AD197430122299AA827A
:10124000AB8312132974201222AB121347E9FF78E3
:10125000081224D07442122299AC82AD83743212E7
:101260002299AA82AB831217797402122263741036
:101270001222B37430122299AA82AB8312132974FA
:10128000201222AB121347E9FE78081224D07442D0
:10129000122299AC82AD837469122299129375124D
:1012A000177F7402122263EF4EF974501222630208
:1012B000909174F71222BD78108C828D83E0F98AA8
:1012C000828B83E069F0A3AA82AB838C828D83A397
:1012D000AC82AD83D8E3028E3B74F61222BD74D08B
:1012E00012224DECFEEDFF7508107509007808120A
:1012F00024D0EAFCEBFD74021222AB12177F7402B9
:1013000012226375080878081224D0EEFCEFFD74F1
:1013100012122299AA82AB8312177F7402122263DF
:1013200078081224D0743C12229912936F741A1206
:101330002299AA82AB8312177F7402122263AA1821
:10134000AB19121347E9FE75081078081224D074FF
:1013500022122299AC82AD83743E122299129375A7
:1013600012177F7402122263EEF97430029432E095
:10137000FCA3E0FD22E0FAA3E0FB2274F41222BDFC
:10138000EAFEEBFF8909750800801B121797A80871
:10139000129B6DEBF00508E508C39509500808128B
:1013A0009B6DEAF00508E508C3950940DE028ED280
:1013B000C082C0838A828B83E0F9D083D08202010D
:1013C0003274F61222BDE9FCA2E25004D2F080028F
:1013D000C2F0A2F0E433F508750900E9A2E3500475
:1013E000D2F08002C2F08A828B83E054FCFEA3E03C
:1013F000FFEE4CFCEFFDEC54FBFC7402780812226B
:101400003AEC45085407FCA2F0E433F5087403787D
:101410000812223AEC4508FCE9C4540FF50874049C
:10142000780812223AEC45088A828B83F0A3EDF00B
:1014300080031222637F0202238F74F61222BDEA18
:101440002420F508E43BF50978081224D0EA24109A
:10145000FCE43BFD12134D740280D7C082C083852B
:1014600018828519831224E7120F6974021222630D
:101470000293BA74E81222BD74E812224D8A0A8BD4
:101480000B89178C088D09EA450B6005EC4509703E
:101490000579020295B7740429F516FA7B00121833
:1014A000458A0C8B0DAE0CAF0DEE4F70030295B25A
:1014B0001209C38A0C8B0D8C0E8D0F8517107511B8
:1014C0000078101224D0AC0AAD0BEE2404FAE43FED
:1014D000FB12177F74021222638E828F83A3A3A351
:1014E000E50CF0E50DF5158E828F83A3A3F0850C36
:1014F00010F511850E12850F137410781012203F0D
:10150000E510F5148E828F83A3F0850C10850D11E4
:10151000F512850F137418781012203FE510F50AA4
:101520008E828F83F01209BD8A108B11AC10AD1121
:1015300075101075110078101224D0740A1222ABA5
:1015400012177F7402122263A818A9198810891132
:1015500078101224D0A916EEFCEFFD740A1222AB0B
:1015600012135F7402122263E9F50B703C85088246
:10157000850983E50CF0A3E5151295C1E5141295D4
:10158000C1A3E50AF0750C08750D00780C1224D083
:1015900074021222B3E5082404FAE43509FB121799
:1015A0007F74021222631209C9EEFAEFFB12184B84
:1015B0008003750B13A90B74181222637F1002238A
:1015C0008FF0850882850983A3A32274E81222BDC7
:1015D00074DD12224D7401122299EAF0A3EB129AE3
:1015E0001A8C168D17EC45177003029697743C12EF
:1015F00022991297C87003029697740112229912C9
:101600009375120EF78A148B15EA45157005791437
:101610000297C3850882850983E0F510E4F511F58A
:1016200012F513A3E0F50CE4F50DF50EF50F7408B3
:10163000780C1220587810790C1220778508828552
:101640000983A3A3E0F50CE4F50D7410780C1220C7
:10165000587810790C122077850882850983A3A316
:10166000A3E0F50CE4F50E7418780C1220587810ED
:10167000790C122077EA2420F582E43515F5837879
:101680000C1221117810790C1219D4400F9082FBA2
:10169000780C1219BF600579020297C385188285FC
:1016A0001983E060118A828B83A3A3A3E0A2E140A7
:1016B0000579010297C37C087D007900740312222A
:1016C000AB121791743B122299E0F50E7404250EAB
:1016D000F50AFA7B001218458A0C8B0DAE0CAF0D83
:1016E000EE4F700579130297C3750F00780E122420
:1016F000D0AC16AD17EE2404FAE43FFB12177F744A
:1017000002122263750C04750D00780C1224D0AC03
:1017100008AD09EEFAEFFB12177F7402122263750F
:101720000C10780C1224D0E5142410FCE43515FDBF
:1017300074151222AB12177F740212226374031203
:1017400022A3880C890D780C1224D0A90AEEFCEF94
:10175000FD74151222AB12135F7402122263E9F5B5
:101760000A7057750C08750D00780C1224D074059A
:101770001222B3740D1222AB12177F74021222636D
:10178000780C1224D0E5082404FCE43509FD740D1E
:101790001222AB12178B7402122263E964016005F6
:1017A000750A01801578101224CC74051222991242
:1017B0009375120A297404122263EEFAEFFB1218D1
:1017C0004BA90A74230295B9E0F508A3E0F509E5F1
:1017D0000845092274E81222BD74ED12224D7401ED
:1017E000122299ECF0A3ED129A1A8A168B177A102E
:1017F0007B001218458A128B137A107B0012184551
:101800008A108B11E512451370030299F7EA45110E
:1018100070030299F778101224D0AC12AD13AA16F7
:10182000AB171213657402122263E9FE600302997A
:10183000FF7A107B001218458A0C8B0D7A107B0002
:101840001218458A0E8B0FE50C450D70030299D9CD
:10185000EA450F70030299D9851882851983E079CA
:1018600000240FF85001097A107B001221BA880871
:101870008909E0540FF50AE84509700875080175F3
:1018800009008008E50A70047C0180027C00E508FC
:1018900014C454F0F87401122299E028FAA3E03439
:1018A00000FBECA2E0500B780E1224D0AC12AD136A
:1018B0008048AF0A750A00A80A7403122299E582CB
:1018C00028FCE43583FDE8C39F5009129B638C829A
:1018D0008D83800EEF650A8C828D83700474808006
:1018E00001E4F0050AE50AC3941040CB780E1224F7
:1018F000D0AC10AD1174051222AB12136B7402122E
:1019000022637C107D007900AA0CAB0D1217917533
:101910000A00750B00804D74031222A388148915E8
:1019200078141224D0E50AC454F0F87403122299F2
:10193000E028FCA3E03400FDAA0CAB0D12136B747D
:1019400002122263780C1224D074051222B3AA1654
:10195000AB1712134D7402122263E9FE050AE50A61
:101960007002050BE50824FFF8E50934FFF9C3E52B
:101970000A98E50B99A2D265D0335003EE6098EE39
:10198000705F74031222A38808890978081224D092
:10199000AC0EAD0FAA0CAB0D12136B7402122263C6
:1019A000780C1224D074051222B3AA16AB171213A6
:1019B0004D7402122263E9FE750808750900780863
:1019C0001224D0AC0CAD0D742D1222991293751205
:1019D0001779740212226380087E13E50C450D60AE
:1019E00007AA0CAB0D12184BE50E450F6011AA0E9D
:1019F000AB0F12184B80087E13E51245136007AA3F
:101A000012AB1312184BE51045116007AA10AB1169
:101A100012184BEEF974130295B9F0E98518828516
:101A20001983F02274EE1222BD8A088B098C0E8D68
:101A30000F7A107B001218458A0C8B0D7A107B00F0
:101A40001218458A0A8B0BAE0AAF0BE50C450D70D8
:101A500003029B05EE4F7003029B057C107D00790D
:101A600000121791780C1224D0EEFCEFFDAA08ABFF
:101A70000912134D7402122263E9F50A6003029BF6
:101A80000E75080E750981850C82850D83E0A2E72D
:101A9000400DAC0EAD0FAA0CAB0D1213718020EEF1
:101AA000FCEFFDAA0CAB0D121371780E1224D0AC12
:101AB00008AD09EEFAEFFB12136B74021222637485
:101AC00012122299E0F510A3E0F511850E82850F20
:101AD00083E0A2E7400DAC10AD11AA0EAB0F1213BC
:101AE00071802BEEFCEFFDAA0EAB0F121371781074
:101AF0001224D0AC08AD09EEFAEFFB12136B74029E
:101B00001222638009750A13E50C450D6007AA0CC3
:101B1000AB0D12184BEE4F6007EEFAEFFB12184BAD
:101B2000A90A7F0A02238F74F61222BD7508007479
:101B30000A122299E0F8A3E0F9E8FEE9FFA808EC10
:101B400028F582E43DF583E0F509129B636509C041
:101B5000E0129B6DD0E0F00508E508C3941040DD6D
:101B6000029435EA28F582E43BF583E022EE28F57D
:101B700082E43FF5832274F51222BD7508007509D1
:101B80000FE509F83395E0F9EA28FEEB39FF8E827C
:101B90008F83E0C3334508C0E0EC28F582ED39F5CA
:101BA00083D0E0F08E828F83E0A2E7E433F50874FF
:101BB000FF28F509C39400A2D265D03350C37F0338
:101BC00002238F74F71222BD8C828D83129E328C79
:101BD000828D83A3E08A828B83A3F08C828D831213
:101BE000A1C112A28502A2C074F21222BD74FE121B
:101BF000224DEAFEEBFF89098C0A8D0BA818A91962
:101C0000880C890D780C1224D0741612229912A611
:101C10000B7415122299E0F9120E9D7402122263C0
:101C2000E9F5086003029CAE7412122299E0C0E04C
:101C3000851882851983E0F8A3E0F5838882D0E0D7
:101C4000F0900352E004F070077401F07C01800111
:101C5000FC851882851983E02403F8A3E03400F999
