:100000000206B2C2AFF508614AFFFFC2AFF5086150
:100010005CFFFFC2AFF508616EFFFFC2AFF508617C
:1000200080FFFFC2AFF5086192FFFFC2AFF5086124
:10003000A4FFFFC2AFF50861B6FFFFC2AFF50861CC
:10004000C8FFFFC2AFF50861DAFFFFC2AFF5086174
:10005000ECFFFFC2AFF50861FEFFFFC2AFF50881FC
:1000600010FFFFC2AFF5088122FFFFC2AFF5088184
:1000700034FFFFC2AFF5088146FFFFC2AFF508812C
:1000800058FFFFC2AFF508816AFFFFC2AFF50881D4
:100090007CFFFFFF758701002274F712057FE9FEE0
:1000A000750A00750B08780A1206837C807D017A38
:1000B000007B001204927402120640900186E0F563
:1000C0000AA3E0F50B7409780A120694E50A2EF5E6
:1000D0000A74016E7006743E250AF50A53B4F3756E
:1000E000BC0075BC007CFC7D077A047B00EEF91235
:1000F00002BC74012EFFC3950A501B74086F700276
:100100007F467C007D087A007B00EFF91202BC0F6D
:10011000EFC3950A40E5E5BDF9E5BCFAE9FB7F02CE
:100120000205E574F612057F890CEAFEEBFF53BE6B
:10013000FBE59DA2E650FAE5C654804449F5C6E5C4
:100140009E547F644970F853C67FE59EA2E740FA4B
:1001500053C680E59E547F70FA43BE04906270746B
:1001600008F01200998E828F83E0F8A3E0F9EA6824
:100170007002EB6970498E828F83A3A3E8F0A3E934
:10018000F08E828F8374FFF0A3F07409F5D575D4D7
:1001900080750A01750B00780A120683EEFCEFFDEC
:1001A000850C0A7409780A120670FAAB0B1205194D
:1001B0007402120640C2AF75C9AB75C95B80FE7F81
:1001C000030205E574FC12065A750A04750B0078E3
:1001D0000A12068374021206CEAC82AD837A007BCB
:1001E0000079081204927402120640851A82E0F423
:1001F0007003A3E0F4603C851A82851B83E0F8A3BA
:10020000E0F9E849602D74021206CEE0687003A39D
:10021000E0697010750901024030C2AF75C9AB7555
:10022000C95B80FE851A82851B83AA82AB8379080D
:10023000120123780A12068374021206CEAC82AD34
:10024000837A007B007901120492740212064085C1
:100250001A82E0F47003A3E0F46051851A82851BD2
:1002600083E0F8A3E0F9E849604274021206CEE0A8
:10027000F8A3E0F9851A82851B83E0687003A3E088
:10028000697010750900020830C2AF75C9AB75C935
:100290005B80FE74FF68700374FF69700F851A82BB
:1002A000851B83AA82AB83790112012343BE03120B
:1002B0000094C2AF75C9AB75C95B80FE74F71205B7
:1002C0007FE9FEE5C7FF740F5EF50A750B00740B3E
:1002D000780A120670EA2400F8EB350BF9E82400DE
:1002E000E93480F9A2AFE433F50AC2AFEEC4540F8B
:1002F000FAE5C754F84AF5C7E9900980F0E8A3F099
:10030000A37470F0A374BDF0EC900985F0EDFC903F
:100310000984E054E04CF09009867420F0A3744204
:10032000F07409F5D575D48075D601000000000081
:1003300000000000000075D701E5D7A2E040FA8F69
:10034000C7E50AA2E092AF02011EE5096007E508D1
:10035000D2AF024033E508D2AF020833E5096007A7
:10036000E508D2AF02403BE508D2AF02083BE50901
:100370006007E508D2AF024043E508D2AF02084368
:10038000E5096007E508D2AF02404BE508D2AF02AD
:10039000084BE5096007E508D2AF024053E508D2F3
:1003A000AF020853E5096007E508D2AF02405BE5FC
:1003B00008D2AF02085BE5096007E508D2AF02404A
:1003C00063E508D2AF020863E5096007E508D2AF2C
:1003D00002406BE508D2AF02086BE5096007E5084B
:1003E000D2AF024073E508D2AF020873E509600797
:1003F000E508D2AF02407BE508D2AF02087BE509F1
:100400006007E508D2AF024083E508D2AF02088357
:10041000E5096007E508D2AF02408BE508D2AF02DC
:10042000088BE5096007E508D2AF024093E508D2E2
:10043000AF020893E5096007E508D2AF02409BE5EB
:1004400008D2AF02089BE5096007E508D2AF024079
:10045000A3E508D2AF0208A3E5096007E508D2AF1B
:100460000240ABE508D2AF0208ABE5096007E5083A
:10047000D2AF0240B3E508D2AF0208B3E509600786
:10048000E508D2AF0240BBE508D2AF0208BB0002CC
:10049000048E74F512057F890A740F550AF50C75E0
:1004A0000D00740B780C120670EA2400F8EB34800F
:1004B000F9E82400E9350DF9E5C7F50BA2AFE433FF
:1004C000F50CC2AFE50AC4540FFAE5C754F84AF573
:1004D000C7740B1206CEE0FEA3E0FFEE4F602CEED9
:1004E000FAEFFB88828983E08C828D83F088828991
:1004F00083A3A882A9838C828D83A3AC82AD83EA77
:1005000024FF1AEB34FFFBEA4B70D8850BC7E50CD0
:10051000A2E092AF7F040205E574F712057FED902B
:100520000980F0ECA3F0A37462F0A37473F0A3E06D
:10053000541FF074091206CEE0F50AA3E0F50BE5AE
:100540000A333354FC900985F07406780A12069435
:10055000E50A900984F09009867412F0A37442F0C1
:1005600053D1FE75D601EA906271F0EBA3F0906270
:1005700070E0D2E1F0E0A2E740FB7F020205E52552
:100580001AC582C0E0E51B34FFC583C0E0E51AC38D
:10059000958224F910AF0885831B85821A8008850F
:1005A000831B85821AD2AFCEF0A3E520F0A3780A90
:1005B000E608F0A3DEFAEFF0A3E58124FBF8E608F5
:1005C000F0A3E608F0A30808E608F0A3E608F0A305
:1005D00015811581D0E0FED0E0F815811581E8C0C5
:1005E000E0EEC0E022851B83851A82E0A3FEE0A333
:1005F000F520780AE0A3F608DFFAE0A3FFE0A3C045
:10060000E0E0A3C0E0E0A3C0E0E0A3C0E010AF08DA
:1006100085821A85831B800885821A85831BD2AF49
:10062000D083D08222251AF58210AF08F51A400235
:10063000151B8008F51A4002151BD2AF851B8322BB
:10064000C0D0251A10AF08F51A5002051B8008F516
:100650001A5002051BD2AFD0D022251A10AF08F5D0
:100660001A4002151B8008F51A4002151BD2AF2252
:10067000700422600D18C6C333C608C633C6D5E061
:10068000F4182274028000C0E0F404120625D0E0C1
:100690001206C122600C08C6C313C618C613C6D5FD
:1006A000E0F4221206DDB900030206AC1201C41206
:1006B00006D875D00075813F751A80751B0102063A
:1006C000A3CAC0E0E6F0A308DAFAD0E0FA22251ABD
:1006D000F582E4351BF5832200000080FB790122BE
:1006E000FFFFFFFFFFFFFFFFFFFFFFFFFFFFFFFF1A
:1006F000FFFFFFFFFFFFFFFFFFFFFFFFFFFFFFFF0A
:10070000FFFFFFFFFFFFFFFFFFFFFFFFFFFFFFFFF9
:10071000FFFFFFFFFFFFFFFFFFFFFFFFFFFFFFFFE9
:10072000FFFFFFFFFFFFFFFFFFFFFFFFFFFFFFFFD9
:10073000FFFFFFFFFFFFFFFFFFFFFFFFFFFFFFFFC9
:10074000FFFFFFFFFFFFFFFFFFFFFFFFFFFFFFFFB9
:10075000FFFFFFFFFFFFFFFFFFFFFFFFFFFFFFFFA9
:10076000FFFFFFFFFFFFFFFFFFFFFFFFFFFFFFFF99
:10077000FFFFFFFFFFFFFFFFFFFFFFFFFFFFFFFF89
:10078000FFFFFFFFFFFFFFFFFFFFFFFFFFFFFFFF79
:10079000FFFFFFFFFFFFFFFFFFFFFFFFFFFFFFFF69
:1007A000FFFFFFFFFFFFFFFFFFFFFFFFFFFFFFFF59
:1007B000FFFFFFFFFFFFFFFFFFFFFFFFFFFFFFFF49
:1007C000FFFFFFFFFFFFFFFFFFFFFFFFFFFFFFFF39
:1007D000FFFFFFFFFFFFFFFFFFFFFFFFFFFFFFFF29
:1007E000FFFFFFFFFFFFFFFFFFFFFFFFFFFFFFFF19
:1007F000FFFFFFFFFFFFFFFFFFFFFFFFFFFFFFFF09
:10080000137313730000007C41414141FFFFFFFF60
:10081000FFFFFFFFFFFFFFFFFFFFFFFFFFFFFFFFE8
:10082000000102030405060708090A0BFFFFFFFF8A
:10083000021013022437FFFFFFFFFFFFFFFFFFFF40
:10084000FFFFFFFFFFFFFFFFFFFFFFFFFFFFFFFFB8
:10085000FFFFFFFFFFFFFFFFFFFFFF021CD4FFFFB3
:10086000FFFFFFFFFFFFFFFFFFFFFFFFFFFFFFFF98
:10087000FFFFFFFFFFFFFFFFFFFFFFFFFFFFFFFF88
:10088000FFFFFF0224AAFFFFFFFFFF021C7AFFFF0A
:10089000FFFFFFFFFFFFFFFFFFFFFF021CF8FFFF4F
:1008A000FFFFFFFFFFFFFFFFFFFFFFFFFFFFFFFF58
:1008B000FFFFFF0222A301FFFF110199010F126444
:1008C0000401020583010000E182020183010000AE
:1008D000BF09020D83010000C009020B8303000061
:1008E000A502023783010000C10912436F6E6E2E0C
:1008F00020506172616D730008436F6E6E2E205040
:100900006172616D73205265710008446973636F91
:100910006E6E6563742052657100020583010000EC
:10092000F682020183010000EB0902498301000005
:10093000AE02020B83030000B40202FF820100003A
:10094000EC09020183010000F9090247830200005B
:10095000BA0202FF82010000FA09020183010000CD
:100960000B0A024383020000C20202FF8201000060
:100970000C0A02020231323334353637383930311D
:100980003200020202020202010D00000010010208
:100990000583010000FC82020183010000730A024A
:1009A0003983010000C302020183010000740A02BE
:1009B00035830100006182020183010000750A0293
:1009C0003383010000760A020183010000830A02DA
:1009D00031830100000282020183010000840A02C7
:1009E00029830100007E82020183010000850A0242
:1009F00017830100005582020183010000860A026C
:100A000041830100007080020183010000870A0217
:100A10001383010000CE81020183010000880A02D5
:100A20001183010000890A01E803053F100A0A4208
:100A30006574656C67657573650000085665676168
:100A40000008416C74616972001044656E65620053
:100A500002416E746172657300044269616E636184
:100A600000020583010000E4820201830100002FDF
:100A70000B10FE80030000870302FF82010000309C
:100A80000B0201830100003C0B105E810200008E0E
:100A90000302FF820100003D0B02018301000042BE
:100AA0000B102E810200009E0302FF820100004312
:100AB0000B0201830100004A0B10AE81000000B35D
:100AC00003020B83030000B40302FF820100004B0A
:100AD0000B020183010000510B109E81040000BA3B
:100AE0000302FF82010000520B0201830100005A41
:100AF0000B108E81020000BF0302FF820100005B29
:100B00000B4006C012070950686F626F73020A003B
:100B100002011A1BFF4C000215915FF9B4AB654747
:100B2000B7BC1BA4A39BA2BFA600000000C5BB02CC
:100B3000010609020A1801020304050600AA64A7B7
:100B40002E0000BF2EC52EAD2EB32EB92E000000F4
:100B5000001000110012001300150000001600170D
:100B60000019001A001C001D001F000000000000FA
:100B7000002100230025002700290000002C002E62
:100B8000003100340037003A003E00000000000051
:100B9000004100450049004E005200000057005C33
:100BA00000620068006E0075007B0000000000001D
:100BB0000083008B0093009C00A5000000AF00B9EB
:100BC00000C400D000DC00E900F7000000000000D5
:100BD0000006011501260137014A0100005D01727E
:100BE0000188019F01B801D201EE01000000000060
:100BF000000B022A024B026E0293020000BA02E4CA
:100C00000210033F037003A403DC03000000000094
:100C100000170455049704DD04270500007505C876
:100C20000520067D06E0064907B807000000000021
:100C3000002D08AA082D09B9094D0A0000EA0A90FA
:100C40000B400CFA0CC00D910E6F0F00000000005D
:100C5000005A1053115B1272139A140000D415201D
:100C6000178018F519801B231DDE1E0000000000F0
:100C700000B420A622B524E42634290000A72B4086
:100C80002E0031EA330037453ABC3D000000000039
:100C9000000600020706000408050004080300021D
:100CA0000802000208010000080300020703000414
:100CB00008020004080100020806000207050000FF
:100CC00007050002060500040706000407050002E8
:100CD00007060002070100020701000408020004E1
:100CE00008030002080500020806000207060004C7
:100CF00008050004080300040802000408010002BB
:100D000008020000080600020706000408050004A7
:100D100008030002080200020801000008030002A4
:100D2000070300040802000408010002080600028C
:100D3000070500000703000406030004070300047E
:100D4000070500040705000207060002070100046A
:100D5000070100040801000408020004080300025F
:100D60000805000208F401F401FA0003007D000503
:100D700000060007003E001C020583010000F98206
:100D8000020183010000780E105080020000280448
:100D9000020B830300002A0402FF82010000DC81B1
:100DA000020183010000780E106080020000290417
:100DB000020B83030000300402FF82010000E9817E
:100DC000FFFFFF0001307503020106000000000074
:100DD0000000000000000000000000000000000013
:100DE00000000000000000FFFF0600800CE8030A7E
:100DF0000412020583010000F38202018301000056
:100E0000F00E021F83030000E904020583010000C5
:100E1000F082020183010000F10E021F8302000034
:100E2000EA04020583010000ED8202018301000053
:100E3000F20E022183010000EB04020B8303000089
:100E4000EC04104B65792050726573732053746104
:100E5000746500020583010000EA8202018301003B
:100E600000430F022D83000000F204020B830300F5
:100E700000F30402FF82010000440FFF0000B400F1
:100E80000028002800283075A000A000A000A000C5
:100E900000080008E001F000100010001000100031
:100EA0001000100050005000500010001000D0073B
:100EB0000000000000000F00010005003075070071
:100EC0001000010081FF00000000FF0D322B3213E3
:100ED00032FF02020208025000A0000000E80302F4
:100EE0000583010000E782020183010000D30F02A5
:100EF0000F830100002B05020183010000D40F02C3
:100F000015830100004105020183010000D50F0295
:100F100023830100004305020183010000D60F0274
:100F200025830800004405020183010000D70F0259
:100F30002783010000D80FFF0100FF200205830175
:100F40000000DE820201830100003C10022F8300BA
:100F500000000000020B830300009105E937E93728
:100F6000E937E937E937E937E937E937E937E93781
:100F7000E937E937E9377D3A953A773AE5C754F8E2
:100F80004405F5C779012200000080FB120F7CB9EF
:100F90000003020FFDE479217808B800028004F70D
:100FA00009D8FCE479297802B800028004F709D84E
:100FB000FCE4900280783979088002F0A3D8FCD94B
:100FC000FA781C9008B67A01BA00028007E493A36D
:100FD000F608DAF99009B8AA82AB839008B778C608
:100FE00079078015E493A3AC82AD838A828B83F06A
:100FF000A3AA82AB838C828D83D8E9D9E775820A54
:101000007583CA740712102575828775830F740063
:1010100012102575D00075813F751A80751B0275F9
:101020009F00020F8CC09FF59FE473D09F22D08356
:10103000D082C09FE493C0E0740193C0E074029337
:10104000F59F22E066701008A3E066700A08A3E02E
:1010500066700408A3E06622C3E7960809E79608CD
:1010600009E7960809E79622C3E09608A3E09608E8
:10107000A3E09608A3E09622C00AC3E096F50A080A
:10108000A3E096420A08A3E096420A08A3E0964528
:101090000A7001D3D00A22E9799EC608CAC608CBD5
:1010A000C608CCC6C370207996CACBCC7019798E8D
:1010B000CBCC70137986CC700EF9802ACA33CACB98
:1010C00033CBCC33CC331930E7F2CCCBCA3350140A
:1010D0007004EA30E00DE4CA3ACACB3BCBCC3CCC3E
:1010E000500209C3E913C6CC182313C6CB18C6CACD
:1010F00018C6F92212113420F01430E72B74FFFCCB
:10110000FBFA747F8022E4FCFBFA7480801AB480BE
:1011100008BC00F2BB00EF800F50EBF9E4C39AFA71
:10112000E49BFBE49CFCE499C6CC18C6CB18C6CA69
:1011300018C6F922E4C9C608CAC608CBC6D3330309
:1011400008CCC63392F0C3947F402E94184019C93E
:10115000B90704CACBCC225025C309CA33CACB3342
:10116000CBCC33CC33D9F422F4600DC9CCC313CB30
:1011700013CBCA13CAD9F6CC22E4FCFBFA2214FC26
:10118000FBFA22E6C33318461846184622E7C33353
:1011900019471947194722181818E6084608700A0F
:1011A000E608C3337005E633F4220822191919E75B
:1011B000094709700AE709C3337005E733F42209C8
:1011C00022E6084608C3134608336002E633F422D9
:1011D000E7094709C3134709336002E733F42200E4
:1011E0001211C1604F1211D06012E7548066F612DE
:1011F0001197701112118D703B090909F4F618F658
:1012000018F618F6221211AC70151211830808088E
:1012100060EAE6447FF618768018E4F618F62212A3
:101220001183601612118D7012E4F608F608F608A4
:10123000E65480F609090918181822EAC0E0EBC044
:10124000E0ECC0E0EDC0E0E687F0A4FBACF008E61F
:1012500087F0A42CFCE435F0FA1809E687F0A42CFA
:101260004B60027401CA35F0FCE433FB09E687F0F9
:10127000D2F7A42CCB35F0FC1908E687F0A42BCCD0
:1012800035F0FBE433FD0819E687F0D2E7A42C4AD9
:10129000CB35F0CD3400FC09E687F0D2E7A42DCCA5
:1012A00035F0FDE433FA0918E687F0D2F7A42CCD27
:1012B00035F0CA3400FC08E687F0D2E7D2F7A42A5A
:1012C000CC35F07A7E20E70B0ACB33CBCD33CDCCB7
:1012D00033CC33CB3350147004ED30E00ED2F1E454
:1012E000CD3DCDCC3CCC3B5005DA05C2F1EB547F73
:1012F000C63308E63392F0FBE73309E733C39A506D
:101300002D2B70190C0D4C4D70151806E608C333C3
:10131000700D20F10AA2F013F6E418800B4024E4CB
:10132000F630F002768018F618F618F68024D33BD3
:1013300014501074FFA2F013F6187680E418F61813
:10134000F6800FA2F013F618E63303F618ECF61841
:10135000EDF6D0E0FDD0E0FCD0E0FBD0E0FA2212C8
:1013600011C17004181818221211D0700D74FFF6F4
:101370001819F61819F61819F622E7548066F612AD
:101380001183700F12118D70F014F608F608F6082C
:10139000F680D112118D700CF608F608768008E6FA
:1013A000447F80EC1211AF700C12119A60BFE654AA
:1013B00080F6E480BB12119A700519191980A5E80E
:1013C00069700C763F18768018F618F6E8F922E670
:1013D000CDC0E018ECC0E0E633CD33CDD313F6E753
:1013E00019FCE7191933CC33C3947F400ECD9D50BF
:1013F0002408E65480F6E418F6800FF4043D1450F7
:101400001408E6447FF6187680E418F618F6D0E063
:10141000FCD0E0FD22CCD313CCFD18E4C6CBC0E059
:1014200018E4C6CAC0E00808ED08C633E613F6188B
:10143000E433C675F003C3CA97CA09CB97CB199C8E
:1014400040047D08802EBD000302150816B6FF0576
:101450000606081618C3CA33CACB33CB33CA27CA09
:1014600009CB37CB193CC37D08803E187D0820E7A7
:101470005CC633C6CA33CACB33CB33DDF1D5F0EB10
:1014800030E77BCA97CA09CB974ACB199C406F4B70
:101490007025E620E0218066187D08C3CA97CA0936
:1014A000CB97CB199CD3C633C6CA33CACB33CB3305
:1014B00050C9DDE7D5F0E1D3E4C636C608C636C666
:1014C00008C636C608C636C61818188031C3CA976B
:1014D000CA09CB97CB199CB34097C633C6CA33CA47
:1014E000CB33CB33DD34D5F02EC6A2E0C640C8CA1C
:1014F00027CA09CB37194A70BECB3CB480B908085B
:10150000E63308E633601F181818D0E0FAD0E0FB85
:10151000D0E0FCD0E0FD22187D08CA27CA09CB37ED
:10152000CB193CD3808013F618E4B67F11F618B6B9
:10153000FF0EF618C60470D20808768080CAF61826
:10154000F618F680C5080808EAC0E0EBC0E086F0AF
:10155000E7A4FA180986F0E7A42AFA180986F0E742
:10156000A42AFA180986F0E7A42AFA1986F0E7A453
:10157000FBE5F02AFA190886F0E7A42BFBE5F03A20
:10158000FA190886F0E7A42BFBE5F03AFA181809D7
:1015900086F0E7A4C5F02BFBE43AFA1908E7C5F09A
:1015A000C6A426F6E5F03BFBE43AFA1886F0E7A479
:1015B000F6E5F00826F6E43B08F6E43A08F6D0E053
:1015C000FBD0E0FA22E4CFC0E0E4CEC0E0E4CDC03E
:1015D000E0E4CCC0E075F020C3E633F608E633F66D
:1015E00008E633F608E633F6181818EC33FCED334A
:1015F000FDEE33FEEF33FFC3EC9709ED9709EE974D
:1016000009EF97191919400FFFEC97FC09ED97FDA9
:1016100009EE97FE191906D5F0BEECF709EDF709AA
:10162000EEF709EFF7191919D0E0FCD0E0FDD0E092
:10163000FED0E0FF2212169D1818181215C51216BA
:101640008C1919192212168C191919080808E6188C
:10165000181820E7E01215C512169D18181822094F
:101660000909E719191920E7DC080808E61818180D
:1016700020E7030215C512169D1818181215C51279
:10168000169D18181812168C19191922E4C397F709
:1016900009E497F709E497F709E497F722E4C3967A
:1016A000F608E496F608E496F608E496F622601743
:1016B000080808C6A2E713C618C613C618C613C67C
:1016C00018C613C6D5E0E9226016080808C6C31379
:1016D000C618C613C618C613C618C613C6D5E0EA80
:1016E000227009080808226016181818C6C333C6E5
:1016F00008C633C608C633C608C633C6D5E0EA22D4
:10170000E627F60809E637F60809E637F60809E697
:1017100037F622E026F608A3E036F608A3E036F610
:1017200008A3E036F622E026F008A3E036F008A38E
:10173000E036F008A3E036F022C3E697F60809E6A3
:1017400097F60809E697F60809E697F622C3E096A9
:10175000F008A3E096F008A3E096F008A3E096F066
:1017600022E657F60809E657F60809E657F608098B
:10177000E657F622E056F608A3E056F608A3E05630
:10178000F608A3E056F622E056F008A3E056F0086B
:10179000A3E056F008A3E056F022E0F608A3E0F636
:1017A00008A3E0F608A3E0F622E6F008A3E6F008B6
:1017B000A3E6F008A3E6F022E0FAA3E0FBA3E0FC36
:1017C000A3E0FD22EAF0A3EBF0A3ECF0A3EDF022FE
:1017D000CAC0E0E6F0A308DAFAD0E0FA22CAC0E014
:1017E000E0A3C582CCC582C583CDC583F0A3C582E5
:1017F000CCC582C583CDC583DAE6D0E0CA22C3E476
:1018000098F8E499F912183F8026C3E49AFAE49B09
:10181000FBE920E7E912183FE498F8E499F922C3BC
:10182000E498F8E499F912183FE498F8E499F9C3B8
:10183000E49AFAE49BFB22EB20E7CFE920E7E0B94A
:101840000010BB0008E88AF084F8AAF022E4FBC884
:10185000FA22EB70227B10C833C8C933C933500752
:10186000C39AC3DBF280069A50012ADBEAC833F43C
:10187000C8C933F4C9FA2275F008E4C833C8C933BB
:10188000C933C99AC99B5004C92AC93BD5F0ECFB9E
:10189000C833F4C8E4C9FA22600D08C6A2E713C62B
:1018A00018C613C6D5E0F322600C08C6C313C618C9
:1018B000C613C6D5E0F422700422600D18C6C333E7
:1018C000C608C633C6D5E0F41822251A10AF08F5AD
:1018D0001A4002151B8008F51A4002151BD2AF22D0
:1018E000C0D0251A10AF08F51A5002051B8008F564
:1018F0001A5002051BD2AFD0D022251AF58210AFA4
:1019000008F51A4002151B8008F51A4002151BD273
:10191000AF851B8322251AF582E4351BF58322E46B
:1019200073251AC582C0E0E51B34FFC583C0E0E51E
:101930001AC3958224F810AF0885831B85821A800C
:101940000885831B85821AD2AFCEF0A3E520F0A3D1
:10195000780AE608F0A3DEFAEFF0A3E58124FAF8AE
:10196000E608F0A3E608F0A3E608F0A30808E608F6
:10197000F0A3E608F0A315811581D0E0FED0E0F8D1
:10198000158115811581E8C0E0EEC0E022251AC559
:1019900082C0E0E51B34FFC583C0E0E51AC3958231
:1019A00024F910AF0885831B85821A800885831B64
:1019B00085821AD2AFCEF0A3E520F0A3780AE6081C
:1019C000F0A3DEFAEFF0A3E58124FBF8E608F0A32C
:1019D000E608F0A30808E608F0A3E608F0A31581DE
:1019E0001581D0E0FED0E0F815811581E8C0E0EE69
:1019F000C0E022851B83851A82E0A3FEE0A3F520C8
:101A0000780AE0A3F608DFFAE0A3FFE0A3C0E0E075
:101A1000A3C0E0E0A3C0E0E0A3C0E0E0A3C0E0100A
:101A2000AF0885821A85831B800885821A85831BEF
:101A3000D2AFD083D08202102B851B83851A82E01F
:101A4000A3FEE0A3F520780AE0A3F608DFFAE0A3FE
:101A5000FFE0A3C0E0E0A3C0E0E0A3C0E0E0A3C0DB
:101A6000E010AF0885821A85831B800885821A855D
:101A7000831BD2AFD083D08222C0D0251AC582C0AA
:101A8000E0E51B34FFC583C0E0E51AC3958224F36B
:101A900010AF0885831B85821A800885831B858289
:101AA0001AD2AFC8F0A3E9F0A3EAF0A3EBF0A37950
:101AB0000AE709F0A3D8FAECF0A3EDF0A3EEF0A347
:101AC000EFF0A3D0E0F0A3D0E0F0A3D0E0F0A3E5E6
:101AD00020F0A3E5F0F0A322851B83851A82E0C0E5
:101AE000E0A3E0F9A3E0FAA3E0FBA3780AE0F6089C
:101AF000A3DFFAE0FCA3E0FDA3E0FEA3E0FFA3E088
:101B0000C0E0A3E0C0E0A3E0F5D0A3E0F520A3E0AF
:101B1000A3F5F010AF0885831B85821A80088583A2
:101B20001B85821AD2AFD082D083D0E0F8D0E032C9
:101B300074048006740280027401C0E0F404121878
:101B4000FAD0E01217D0227404800474028000CC12
:101B5000C0E0EDC0E0E51AC39CCCAD1B50011D10E8
:101B6000AF068C1A8D1B80068C1A8D1BD2AF1217F4
:101B7000DDD0E0FDD0E0FC22D083D082E9C0E0E4FB
:101B800093A3C386F0C5F095F0F908E493A386F01B
:101B9000C5F095F0700BE493A3C3994005E9048068
:101BA00002A3E475F002A42582F582E5F03583F501
:101BB00083D0E0F9E493A3C0E0E493C0E022D083B3
:101BC000D082ECC0E0EDC0E0E493A3FCE493A3FD7D
:101BD000ED4C600D121C0AEC24FFFCED34FFFD807F
:101BE000EFE493A3FCE493A3FDED4C600D121C49BC
:101BF000EC24FFFCED34FFFD80EFD0E0FDD0E0FCF5
:101C0000E493A3C0E0E493C0E022C0E0C3E4939671
:101C1000087401939618400FE493667008087401E5
:101C200093661870007019A3A3C3E4939608740117
:101C3000939618A3A3400DD0E0D0E0D0E0021BFAA9
:101C4000A3A3A3A3A3A3D0E022C0E0C0F088F0E444
:101C5000936670080874019366187000A8F0A3A337
:101C6000700BD0F0D0E0D0E0D0E0021BFAA3A3D0FC
:101C7000F0D0E022C2AF02000022C0E0C0D0E8C035
:101C8000E0E9C0E0EAC0E0EBC0E0C082C083E5A8C4
:101C9000F9D2AF9002ABE0A2E09287A2E0B3E433C6
:101CA000A2E0E4331313F8E590547F48F88890A23B
:101CB000E7A2E79296E004F0E9A2E7A2E792AFD0AC
:101CC00083D082D0E0FBD0E0FAD0E0F9D0E0F8D0C9
:101CD000D0D0E032C0E0C0D0E8C0E0E9C0E0E5A884
:101CE000D2AFC2C7751C00A2E7A2E792AFD0E0F95D
:101CF000D0E0F8D0D0D0E032C0E074F2121A79A26D
:101D0000AFE433FED2AFE589A2E75003122ED175BE
:101D10008900C2C5EEA2E092AF7F01021AD874F525
:101D200012198DEAFEEBFFEE2434F8EF3400F98847
:101D30000A890BEE2435F582EF3400F583E0F8EEE6
:101D40002437F582EF3400F583E0F50CEC850CF0D8
:101D5000A4FCAAF0850CF0EDA42AFDE82CF8E43DE3
:101D6000F97A257B0012183FEA850A82850B83F0F9
:101D7000F8740758F97401B900028004C333D9FC20
:101D8000FAE8131313541FF8EE28F8EF3400F9E8BB
:101D9000245DF582E93400F583E05A6008EE2434CE
:101DA000F582EF802CEE2434F582EF3400F583E0E9
:101DB000C0E0EE2436F582EF3400F583E0F5F0D094
:101DC000E084A8F0EE28F8EF3400F9E82438F58232
:101DD000E93400F583E0F97F04021A3974F5121929
:101DE0008DEAFEEBFFEE2434F582EF3400F583E05C
:101DF000C0E0EE2435F582EF3400F583D0E0F08EBC
:101E0000828F83A3A3A3A3A3A3A3C082C0838E8234
:101E10008F83A3A3A3A3A3E0F8A3E0F9D083D08288
:101E2000E0C398F50AA3E099F50BEE247FF582EF65
:101E30003400F583E064017069EE2480F582EF34AC
:101E400000F583E0F8A3E0F98E828F83A3A3A3A318
:101E5000A3A3A3E0FCA3E0FD8E828F83A3A3A3A38F
:101E6000A3E0FAA3E0FBC3EA9CEB9D5010C3EC98FF
:101E7000ED99402EC3EA98EB995027800EC3EA985B
:101E8000EB994007C3EC98ED9940177C547D07EE21
:101E9000FAEFFB123747EE247FF582EF3400F5832B
:101EA000E4F0EE2434F8EF3400F9E8FCE9FDEE2428
:101EB00035F582EF3400F583E0F8EE2437F582EF54
:101EC0003400F583E0F50CE50A850CF0A4F50AAAC8
:101ED000F0850CF0E50BA42AF50BE8250AF8E435AB
:101EE0000BF97A257B0012183FEA8C828D83F0F87B
:101EF000740758F97401B900028004C333D9FCFA9D
:101F0000E8131313541FF8EE28F8EF3400F9E8240F
:101F10005DF582E93400F583E05A6008EE2434F57B
:101F200082EF802CEE2434F582EF3400F583E0C09C
:101F3000E0EE2436F582EF3400F583E0F5F0D0E0F2
:101F400084A8F0EE28F8EF3400F9E82438F582E9A7
:101F50003400F583E0F9122B57021DD7C082C083ED
:101F6000851A82851B83E0F8A3E0F9C3EA9CEB9D08
:101F70005010C3EC98ED99401BC3EA98EB995014AC
:101F8000800EC3EA98EB994007C3EC98ED994004A2
:101F9000790180027900D083D08222EAC39CFAEBD7
:101FA0009DFB2274EF12198D90061AE064086005FB
:101FB000E06407702A9061C8E06024900648E0F46D
:101FC000601DE0F875F003A4C8AAF02AF9744A2845
:101FD000FE740639FF8E828F83A3A3A3E0700302F1
:101FE00020D3906060E0C0E0EE2468F582EF34001A
:101FF000F583D0E0F0750EBD750F07750A00750BFF
:1020000000E5D914F50CE5D95403F51060177403F5
:102010006510605CE50C6010EE2467F582EF34001B
:10202000F583E070030220B89007B8E06401602AED
:10203000EE2482F582EF3400F583E06004780480BA
:10204000027800850C0AE50AC398FA95E0FB12367F
:10205000098A0A8B0BEA450B700512394B8074EE26
:102060002482F582EF3400F583E070048A0E8B0F32
:10207000E50C6012850E82850F83F50DE5D9F0A37E
:10208000150DE50D70F6EE2482F582EF3400F58330
:10209000E0604474FC250CF50C780E121B34AC0C7B
:1020A000A910EEFAEFFB1237E374021218E0E970A0
:1020B00026AA0AAB0B122F19793D8E828F83A3A318
:1020C000A3A3E0FA7B001234DDEEFAEFFB12375FD8
:1020D0001237F579008074740365106056850C1210
:1020E0007513007812121B34AC0EAD0FAA0AAB0B9D
:1020F0001237BF74021218E0EE2468F582EF340044
:10210000F583E064807004747F8001E0F50E780E42
:10211000121B38E510F50E780E121B38A90CAC0A0C
:10212000AD0B900648E0FA7B001234A1740212183D
:10213000E0801390061AE06408600BAC0EAD0FEE61
:10214000FAEFFB12384F12395779017F0A021A3918
:1021500074F512198D74FC1218CAEAFEEBFF890A95
:10216000A2AFE433F50BC2AF806AEE2463F8EF341C
:1021700000F97A007B00A2AFE433F50CC2AF88828D
:102180008983E0FCA3E0FDEC4D603A88828983E01E
:10219000FAA3E0FB8A828B83E0FCA3E0FD888289BE
:1021A00083ECF0A3EDF08A828B83E4F0A3F08882C5
:1021B0008983E0FCA3E0FDEC4D700A88828983A34B
:1021C000A3E4F0A3F0E50CA2E092AF122F19900760
:1021D0005BE004F0EE2463F582EF3400F583E0F871
:1021E000A3E0F9E849603DEE2463F582EF3400F5A1
:1021F00083E02402FAA3E03400FBEA2402F50CEBAE
:102200003400F50D780C121B348A828B83E0FCA31A
:10221000E0F9EEFAEFFB12378374021218E0E9706E
:102220000302216A90075BE0606390075CE0F8902E
:10223000075BE0C398500C7402650A705090075D0C
:10224000E0604A8E828F83A3A3A3A3E0851A8285D0
:102250001B83F0A3E4F090075BE0F87402121915F9
:10226000E8F0A3E4F090075BE0F890075AE028F06C
:102270007402121915AC82AD83851A82851B83AA5C
:1022800082AB8379011234AD90075BE4F0E50BA2D9
:10229000E092AF74041218E0021DD7FF85218785F4
:1022A00022C622C0E0C0D0E8C0E0E9C0E0EAC0E059
:1022B000EBC0E0ECC0E0EDC0E0EEC0E0C00AC00B57
:1022C000C00CC00DC082C083C0F0A2AFE433FEC218
:1022D000AF759B00906182E0A2E05012E591A2E010
:1022E000500C7591FE740165217003121FA3E0A2CA
:1022F000E55051E591A2E5504B7591DF90061AE04B
:1023000064076005E0640870237401652170357905
:1023100001900648E0FA75F003A4CAA8F028FB74FF
:102320004A2AFA74063BFB1221508018E0640D70B3
:102330001390063CE004F064287002E4F07A00E0B8
:10234000F912395D906182E0A2E640030223EAE5DA
:1023500091A2E640030223EA7591BF90061AE06459
:10236000057008123885123891800312388B752158
:10237000001238EBE990061BF079001238DF1236B4
:10238000B77A017B00900619E0F9122BBF90780311
:10239000E0644270559007BCE014F0704DC2AF127B
:1023A00023A200782AD0E0F618D0E0F6E59F540783
:1023B0007005750BFF8003750B7FC4C0E07829E6BC
:1023C000F50A08E6550BF50B740B780A1218A8D01D
:1023D000E0250AF8906270E0A2E740F8E8C3339085
:1023E0006272F0906270E0D2E0F0906181E0A2E36E
:1023F0005009E5E9A2E3500375E9F7A3E0A2E7502D
:1024000009E591A2E7500375917FEEA2E092AFD06B
:10241000F0D083D082D00DD00CD00BD00AD0E0FE0B
:10242000D0E0FDD0E0FCD0E0FBD0E0FAD0E0F9D085
:10243000E0F8D0D0D0E032C0E0C0D0C082C08390FD
:102440006183E0A2E05009E5BFA2E0500375BFFE42
:10245000E0A2E15009E5BFA2E1500375BFFDE0A293
:10246000E25009E5BFA2E2500375BFFBE0A2E350D2
:1024700009E5BFA2E3500375BFF7E0A2E45009E508
:10248000BFA2E4500375BFEFE0A2E55009E5BFA28B
:10249000E5500375BFDFE0A2E65009E5BFA2E650B4
:1024A0000375BFBFD083D0828088C0E0C0D0E8C0B1
:1024B000E0E9C0E0EAC0E0EBC0E0ECC0E0EDC0E085
:1024C000C0F0E5A7A2E6500FE5A1A2E6500953A788
:1024D000BF75A1BF12250FE5A7A2E5500CE5A1A28B
:1024E000E5500653A7DF75A1DFE5A7A2E15009E596
:1024F000A1A2E1500375A1FDE5A7A2E2500CE5A160
:10250000A2E2500653A7FB75A1FBD0F00224207471
:10251000F812198D75210190061AE06406701512E3
:1025200038138A828B83A3A3A3A3A3A3E0FAA3E017
:10253000FB123873A2AFE433FED2AF900620E06402
:102540000170187A207B00900619E0F9122C497A64
:10255000207B00900619E0F9122BC5906182E0D231
:10256000E6F09007B9E0602185C622801690061F2C
:10257000E064017008E5C654F84405F5C653BEFC96
:1025800012229C7401652160E4EEA2E092AF7F010B
:10259000021A39FF8E238F24858228858327851A86
:1025A00082851B83E0CEA3E0CF852882852783EB3D
:1025B000C9EAC8EDCBECCA75F010C3E833C8E933FB
:1025C000C9EA33CAEB33CBC3EA9EF526EB9FF52568
:1025D000B35004AB25AA26EC33CCED33CDD5F0DADD
:1025E000AE23AF242274E912198D74F81218CA852B
:1025F0001A82851B83ECF0A3EDF08A0A8B0B900600
:102600001AE024F7C394055006750A0102277C12CC
:1026100038138A0C8B0DAE0CAF0DEE4F70030227F2
:1026200079AC0AAD0B7402121915AA82AB83123869
:10263000A38E828F83A3A3750EFF750FFF7510FF06
:10264000751100780E12177474021219157512FFA5
:102650007513FF7514FF7515007812121774780E34
:102660007912121058502A780E7912121739750AF9
:1026700001750BC8750C00750D00780A790E1210E3
:10268000585052850E0A850F0B85100C85110D8050
:10269000507516017517C875180075190085120A4E
:1026A00085130B85140C85150D780A790E121739D0
:1026B0007816790A121058401C750A00750B0075BF
:1026C0000C00750D01780A7912121739780A790E03
:1026D000121700800C750A01750B00750C00750D42
:1026E000007409780A1216E1750E19F50FF510F548
:1026F00011780A790E1215C58E828F83A3A3A3A326
:10270000A3A3E0F8A3E0F97AD07B0312183F880E68
:10271000890FE4F510F511780A790E121700740686
:10272000121915E0F8A3E0F97AD07B0312183FE8FC
:10273000FA8A0EE4F50F780A790E121058500778CD
:102740000A790E12173990061AE06408600AE064EC
:10275000066005E06405702D750E0D780E790A127D
:1027600010584021750EF4750FFF7510FF7511FF9D
:10277000780A790E121700800C750A00750B007527
:102780000C00750D00851A82851B83E0F8A3E0F527
:10279000838882780A1217A974081218E07F100241
:1027A0001A3974F712198D1238B59007B7E0640121
:1027B0007010906245E4F0A3F053F4F343FE0C5321
:1027C00090F3123861E5C654804449F5C6E59E543D
:1027D0007F644970F8906185740FF09007B5E0F45C
:1027E0007002A3E0604E9007B6E0600814601B140E
:1027F000602E8040750A01750B009007B5E0780ADD
:102800001218B7E50AF45280802A750A01750B0088
:102810009007B5E0780A1218B7E50AF452908014D0
:10282000750A01750B009007B5E0780A1218B7E534
:102830000AF452A079007F02021A3974F712198D36
:10284000E9FEEAFF74016E700C7A807B0090061935
:10285000E0F9122BBF903B6CE493F46008E493F929
:102860001236AB800953C680E59E547F70FA123849
:10287000679007B7E0640170031236C99007B5E0AE
:10288000F47002A3E0604B9007B6E0600814601A91
:1028900014602C803D750A01750B009007B5E07837
:1028A0000A1218B7E50A42808028750A01750B00E4
:1028B0009007B5E0780A1218B7E50A4290801375C0
:1028C0000A01750B009007B5E0780A1218B7E50AFF
:1028D00042A01238B51238138A0A8B0BA80AA90B2A
:1028E000E8496015E5E170FCE82414F582E934005C
:1028F000F583E0F46003E0F5E174016F700A7A019A
:10290000900619E0F9122C1902283674ED12198D6F
:102910008A0A8B0B8C0C8D0D7413121915780E12FC
:10292000179A780A790E1210587512017513C87526
:1029300014007515005012780A790E1217397812A2
:10294000790A12105850168010780E790A12173929
:102950007812790E12105840047901800279007FB4
:102960000C021A3974ED12198D8A0A8B0B8C0C8D9E
:102970000D7413121915780E12179A780E790A121F
:1029800010584011780A790E121739AA0AAB0BAC0D
:102990000CAD0D80227512007513007514007515AD
:1029A000017812790E1217397812790A121700AAD3
:1029B00012AB13AC14AD1580A68A828B83750AFF07
:1029C000750BFF750CFF750D00780A1217877F04D1
:1029D000021A3974F512198D8C828D83780A1217B8
:1029E0009A8A828B83780A12174DEA2404F8EB3412
:1029F00000F98C828D83A3A3A3A3E0FCA3E0FD8850
:102A0000828983C3E09CF0A3E09DF088828983C320
:102A1000E09420A3E0944E40268A828B83750AFFBF
:102A2000750BFF750CFF750DFF780A1217268A8249
:102A30008B83A3A3A3A3E02420F0A3E0344EF002F1
:102A400029B974F512198DE9FE90076FE0FAA3E039
:102A5000FBEEC333F8E433F9746E28F582748139E0
:102A6000F583E02AF50AA3E03BF50B780A121B3444
:102A70007A407B427C0F7D0012259474021218E08C
:102A80008A0A8B0B8C0C8D0D7410780A1216C8AA4A
:102A90000AAB0B7F04021A3974F112198D8A0E8B5E
:102AA0000F8C108D11740F121915E0FAA3E0FB744E
:102AB00011121915E0F50AA3E0F50B780A121B3480
:102AC000EA2401F50AEB3400F50BE4F50CF50D787A
:102AD0000E790A121545750A71750B02780E790A7E
:102AE000121545AA0EAB0FAC10AD1112259474024D
:102AF0001218E08B0BEA450B60047A0180027A0021
:102B0000EC2AFCED3400FD7413121915E0F8A3E073
:102B1000F9E8FEE9FFECF8EDF97A717B0212183F53
:102B2000880A890B8E828F83780A1217A9ECF8ED38
:102B3000F97A717B0212183F8A0A8B0B7405780AA6
:102B40001218B78E828F83A3A3A3A3E50AF0A3E58F
:102B50000BF07F08021A39C082C083E9906000F050
:102B6000D083D0822212102E00800712102E0A80ED
:102B70000712102E48800712102E91800712102E77
:102B8000CB800712102E25810712102E46810712C6
:102B9000102E4F810712102E9C810712102EC58116
:102BA0000712102ECF810712102E3B820712102E13
:102BB000CD820712102E17830712102E4D83071295
:102BC000102ED9830712102E1A840712102E51844A
:102BD0000712102E63840712102E82840712102E03
:102BE0008B840712102E58850712102E6FC3071200
:102BF000102E50C90712102E76B70712102EACB740
:102C00000712102EE2B70712102E2DB90712102E40
:102C100034C80712102E4AC80712102E54C80712C3
:102C2000102E9EC80712102E178F0712102E2C8FF1
:102C30000712102EDC8F0712102E1C900712102E78
:102C400035900712102E70900712102EBD900712AB
:102C5000102EEF900712102E31910712102E329382
:102C60000712102EA4930712102E68BE0712102E02
:102C700091BE0712102EC0BE0712102E58BF0712A9
:102C8000102E70BF0712102EB2BF0712102E97AC75
:102C90000712102EC7AC0712102EDAAC0712102E36
:102CA000F9AC0712102EA4AD0712102E39AE071280
:102CB000102EC1AE0712102E3DC50712102E62C590
:102CC0000712102EFEC50712102E8EAF0712102EFF
:102CD000D3AF0712102EF0AF0712102E3EB007121E
:102CE000102EFEB00712102E3FB20712102EA4A60F
:102CF0000712102EC9A60712102E09A70712102EB0
:102D000062CA0712102E8DE20412102EF2E4041291
:102D1000102E93E60412102E47E70412102EDAE765
:102D20000412102E5FE80412102E84E80412102EF4
:102D3000D6E80412102E2CEC0412102EB2EC041261
:102D4000102EE5ED0412102E1FEE0412102E54EE7C
:102D50000412102E14F00412102E71F00412102E12
:102D6000BAF00412102E25F10412102E96F104125E
:102D7000102EC8F10412102EE0F10412102E29F3C7
:102D80000412102E39F30412102E54F40412102ED3
:102D900076F40412102EACF40412102E60F6041215
:102DA000102EEDF60412102E2CF70412102E50F8EF
:102DB0000412102EDDF70612102E22F80612102E25
:102DC0003FF80612102E18F90612102E9FF906125F
:102DD000102EE7FA0612102E33FD0612102E0CC626
:102DE0000712102E1DC60712102EC2C60712102E73
:102DF000B2FF0512102EF1FF0512102EDD3F00125A
:102E0000102EE83F0012102EEFFF0412102ECDC638
:102E10000712102EDDC60712102EEFC60712102E55
:102E200083C70712102E6BC20712102EF0C20712B2
:102E3000102E56C30712102EFBFF0512102EFE9700
:102E40000712102E12980712102E8C980712102EAF
:102E500070990712102E479B0712102EAC9B071279
:102E6000102E039C0712102EF83F0012102E37B5BB
:102E70000712102ECCB60712102E2DB70712102EE7
:102E800073B70712102E6FAC0512102E5FB005122B
:102E9000102ECCB40512102EA9B50512102E82B634
:102EA0000512102EA0B60512102EE1B60512102E36
:102EB000BFB90512102E01BA0512102E92BA0512D2
:102EC000102EDCBC0512102EF7BC0512102EB8CA4D
:102ED0000712102EE6CA0712102E20F10612102E2D
:102EE0005DF10612102E78F10612102E49F206122C
:102EF000102E37F30612102E9FF40612102E11F525
:102F00000612102EF9F50612102E80F60612102E5B
:102F100099F70612102EC6BC0712102E18BD071204
:102F2000102EA2BD0712102E09BE0712102E6CFD26
:102F30000612102E96FD0612102E64FE0612102E9A
:102F40003FFF0612102EBBE10612102E82E206127F
:102F5000102EB9E20612102EE3E20612102E43E301
:102F60000612102E99E30612102EFEE30612102E02
:102F700096E40612102EA5E50612102E3CE7061266
:102F8000102EC9E70612102E30E80612102E47E860
:102F90000612102E61E90612102E9FE90612102E5D
:102FA0002F8E0612102EB0910612102E3893061294
:102FB000102E8F930612102EAE930612102E2C9404
:102FC0000612102EC2950612102EA7960612102E6B
:102FD000B59A0612102E8B9B0612102E7EA3071296
:102FE000102EFCA30712102E19A40712102EA2A453
:102FF0000712102ECDA40712102E5FA50712102E57
:103000006BA60712102EB6C90712102EB1FF0612BA
:10301000102E67B90712102E7EB90712102EAFB905
:103020000712102EEAB90712102E14BA0712102E2A
:103030003EBA0712102E55BA0712102E6CBA07129C
:10304000102E83BA0712102EACBA0712102EBFBA78
:103050000712102ED5BA0712102EE8BA0712102E3A
:103060000FBB0712102E18CF0612102E1CD00612FE
:10307000102E54D00612102E77D00612102E82D0A9
:103080000612102EA5D00612102EB4D10612102E44
:1030900089D20612102E04D30612102E8CD30612DB
:1030A000102EC7D30612102EFED30612102E8CD46B
:1030B0000612102E65D50612102EC5D50612102E3A
:1030C000D0D50612102E4FD60612102E52D606124A
:1030D000102E55D60612102EE4D60612102EE7D664
:1030E0000612102E17D70612102E41D70612102ED8
:1030F0002FD80612102EE1D80612102E5A8A071267
:10310000102E828A0712102EB08A0712102EE78A1C
:103110000712102E458B0712102E908B0712102EBF
:10312000DB8B0712102E1B8C0712102E618C0712DE
:10313000102E8F8C0712102E4C8D0712102E568DCC
:103140000712102E638D0712102E968D0712102E67
:10315000628E0712102E6E8E0712102E868E0712A8
:10316000102E908E0712102E66C40712102E74C4F3
:103170000712102E8CC40712102EA4C40712102E92
:103180002EDD0512102EDADD0512102E55DE051289
:10319000102E76DF0512102EB2DF0512102E5BE026
:1031A0000512102E42E10512102EA6E20512102E75
:1031B000FDE20512102E7EE30512102E6EE40512BC
:1031C000102EBBE40512102E41E50512102E73E5FA
:1031D0000512102E87E70512102EC9E70512102ED2
:1031E000E7E70512102E6AE80512102E3EE90512D7
:1031F000102E06EA0512102EFDE90612102ED0EA56
:103200000612102E79EB0612102ECCEB0612102EA1
:103210007CEC0612102E08ED0612102EF4ED0612AC
:10322000102E23EE0612102E36EF0612102E7EEF11
:103230000612102E53F00612102E8FF00612102ECA
:10324000ABF00612102ECCC80712102EE59F071205
:10325000102EFB9F0712102E21A00712102E3DA149
:103260000712102E47A10712102E7CA20712102E53
:1032700074A30712102E8BFA0512102EBBFB051239
:10328000102EEEFB0512102E38FC0512102EFFFD3D
:103290000512102E3FCD0512102EA9CD0512102EAD
:1032A00008CF0512102E18CF0512102E45CF05128B
:1032B000102E9CCF0512102E45D00512102E4CD189
:1032C0000512102E16D20512102E76D30512102ECE
:1032D000B9D30512102E5ED40512102EABD40512F0
:1032E000102ED1D40512102EDFD60512102EE4D6E2
:1032F0000512102EE9D80512102E36D90512102EFF
:10330000A9D90512102EDCD90512102E7EDA05126D
:10331000102E27DB0512102E5FDB0512102E62DB4C
:103320000512102EAADB0512102EEADB0512102E54
:1033300041DC0512102E64B20712102E7CB2071267
:10334000102EC4B20712102EDAB20712102E21B3BB
:103350000712102E35B40712102EC2B40712102E09
:103360000DB50712102E00B00412102E0CB004126E
:10337000102E47B00412102E8CB00412102E4CB137
:103380000412102ED2B10412102E37B20412102ED5
:1033900063B20412102E9CB20412102EDAB404127E
:1033A000102EBEB60412102EA4B80412102EE7B9C7
:1033B0000412102E35BC0412102E47BD0412102E1C
:1033C00092BE0412102EA2BF0412102EBFBF041210
:1033D000102EFABF0412102E1CC00412102E7FC033
:1033E0000412102E40C50412102ED5C50412102E42
:1033F00026C60412102E4DC60412102E9FC60412AB
:10340000102EBDC60412102E17C70412102E00C8AD
:103410000412102E76C90412102EFAC90412102EAE
:1034200086850712102E90850712102ED38507125D
:10343000102EEE850712102E7E860712102EA686FD
:103440000712102EE3860712102E1A870712102E6D
:1034500043870712102EB8870712102ECD87071248
:10346000102EE2870712102E13880712102E2788BD
:103470000712102E4C880712102E86880712102E65
:10348000B2880712102EEA880712102E94890712AC
:10349000102EDD890712102E078A0712102E328A8D
:1034A0000712102E52C10712102E17B70612102E37
:1034B00045B70612102E93B80612102E73B90612D5
:1034C000102E92B90612102E0FBA0612102E52BAF2
:1034D0000612102EA8BB0612102E69BC0612102E62
:1034E000F0BE0612102E91BF0612102E87C00612D3
:1034F000102E84C10612102EDEC20612102E69C3D1
:103500000612102EF7BF0712102E60C00712102EE1
:10351000B4C00712102EDBC00712102E0CC1071208
:10352000102E703B0012102EDD3B0012102E243C9A
:103530000012102E3C3D0012102E383E0012102EAC
:103540001B3F0012102E52D90612102E94D90612CB
:10355000102E66DA0612102E3FDB0612102E39DC12
:103560000612102E1BDD0612102E84DD0612102E00
:103570003ADE0612102EAEDE0612102E1ADF0612EA
:10358000102E43DF0612102EBDDF0612102E56E05D
:103590000612102EBBE00612102ED0E00612102EDE
:1035A00016E10612102E2FE10612102E94E10612DB
:1035B000102E97E10612102E9EA90712102EC6A9F2
:1035C0000712102E04AA0712102EC2AA0712102EDC
:1035D00029AB0712102E45AB0712102E6DAB071248
:1035E000102E9DAB0712102EACAB0712102E29AC7B
:1035F0000712102E4FAC0712102E31BD0512102EDF
:103600000FBF0512102E41C10512102E7DC10512EB
:10361000102EAAC10512102E94C20512102EDFC260
:103620000512102E2AC30512102E3CC30512102EAF
:103630007CC30512102EB1C30512102EFFC3051254
:10364000102E2EC40512102E51C40512102E9EC429
:103650000512102E23C50512102E3DC70512102E7F
:103660007CC90512102EBDC90512102E5FCB0512A4
:10367000102EA0CB0512102E13CC0512102E64CCE8
:103680000512102E02AA0612102E00AB0612102EE2
:1036900099B10612102EBAB30612102E85B5061275
:1036A000102EEDB60612102E61CA0412102E10CB89
:1036B0000412102E3DCB0412102E83CB0412102EB8
:1036C000B9CC0412102EE7CC0412102E7DCE0412B9
:1036D000102EF7CE0412102E12CF0412102E8DCF02
:1036E0000412102EE7D00412102E47D20412102E0E
:1036F0004DD30412102EAED40412102EC7D40412CF
:10370000102E25D50412102E13D60412102E46D6D4
:103710000412102EB6D60412102E30D70412102E1A
:103720007AD70412102E44D80412102E19D904127C
:10373000102EF8D90412102E83DA0412102EF1DAAA
:103740000412102E65DB0412102E90DB0412102ED2
:103750004FDC0412102EB4DD0412102ED1DD041241
:10376000102EF0DD0412102EE1DE0412102E06DF02
:103770000412102E30DF0412102EABDF0412102EB4
:1037800005E00412102E6EE10412102E1CE2041249
:10379000102E5DE20412102E2E9C0612102E7C9C20
:1037A0000612102E889C0612102E669D0612102EF0
:1037B000979D0612102EC89D0612102E489E0612C6
:1037C000102E809E0612102ED29E0612102E0F9FD3
:1037D0000612102E2CA10612102E52A30612102E25
:1037E0003DA50612102E27A70612102EF43F001238
:1037F000102E5C980512102E8C980512102E659FC5
:103800000512102EEAA00512102EE7A60512102EA2
:10381000CFA70512102E0CA80512102E2FA80512E6
:10382000102E60A80512102E69A80512102E73A87C
:103830000512102E61A90512102E57AA0512102E7E
:103840004D830512102E4C870512102E528705123B
:10385000102E8D8E0512102EA6930512102E179C79
:103860000712102EAD9C0712102EC39C0712102EAB
:10387000399D0712102EAD9D0712102EEB9D0712D9
:10388000102E5F9E0712102ED89E0712102EE19E5A
:103890000712102EED9E0712102E029F0712102EF7
:1038A000409F0712102E569F0712102EB59F071229
:1038B000102EB1930712102EBE930712102ED8931C
:1038C0000712102E17940712102E55940712102E5F
:1038D000BA940712102ECF940712102EDA94071202
:1038E000102EE7940712102EFE940712102E0C953E
:1038F0000712102E17950712102E23950712102E5F
:1039000032950712102E3D950712102E6095071262
:10391000102E07960712102E17960712102E3196AA
:103920000712102E4E960712102E6A960712102EAE
:103930008F960712102E9A960712102EAF96071226
:10394000102EC3960712102E24970712102E2A97B6
:103950000712102E30970712102E36970712102ECE
:103960004E970712102E81970712102E058006120F
:10397000102E89800612102E38810612102E978282
:103980000612102EB8840612102EA4850612102ED0
:10399000D9850612102EFB850612102EAA86061255
:1039A000102EA2880612102ECB880612102E5D89CA
:1039B0000612102E8F890612102E9C890612102EC8
:1039C000F3890612102E198A0612102E868C061202
:1039D000102E898D0612102EE18D0612102E1FEC6E
:1039E0000512102E29ED0512102E10EE0512102EC4
:1039F0001AEE0512102E3CEE0512102E48EE05129E
:103A0000102EE1EF0512102E10F00512102E2CF1E1
:103A10000512102E85F10512102EEBF20512102E54
:103A2000CAF30512102E26F40512102E93F4051277
:103A3000102ECEF40512102E0DF50512102EC6F71D
:103A40000512102EE0F70512102E6CF80512102E3C
:103A50007AF80512102ED3F80512102EE1F805128F
:103A6000102E54F90512102EB8F90512102E02FA74
:103A70000512102EEAC30612102E0CC40612102EC8
:103A800032C60612102E47C90612102E5FCA061241
:103A9000102E12CB0612102EF4CB0612102E21BBC4
:103AA0000712102E46BB0712102EB8BB0712102E9D
:103AB00075F80412102E7EF80412102E87F80412E6
:103AC000102E5EF90412102E0FFB0412102E45FB6F
:103AD0000412102E7FFB0412102EB5FB0412102EC0
:103AE000EFFB0412102E23FC0412102E4FFC0412C4
:103AF000102E98FC0412102ED2FC0412102E1BFD66
:103B00000412102E73FD0412102EA8FD0412102EA4
:103B100003FE0412102E3DFE0412102E8EFE04121F
:103B2000102EC4FE0412102EFEFE0412102E2CFFC6
:103B30000412102E4FFF0412102E89C70712102EE8
:103B4000B5C70712102E10C80712102E1AC8071278
:103B5000102E2AC80712102E3ECB0712102E08CBAB
:103B60000712102E6ACB07FF31B1E1FFFFFFFFFF05
:103B700074F6121921E99005A6F07A00EA75F003AF
:103B8000A4F8A9F074A728F582740539F583E4F048
:103B9000A3F00AEAC3940440E37A008A0A750B0092
:103BA0007403780A1218B774B3250AF87405350B34
:103BB000F988828983A3E4F0A3F088828983F0A343
:103BC000A3A3A3A3A3A374FFF00AEAC3940340CB67
:103BD0009005A6E0F9123B497F020219F374F41232
:103BE00019218A0A8B0BEB548060309005A6E0F90E
:103BF000122BA78A0C8B0DAE0CAF0DEE4F60138EFF
:103C0000828F83E06490700312352BEEFAEFFB1283
:103C10002B95AA0AE50B6480FB80047A007B007F69
:103C2000040219F374F612192174FA1218CA8A0AD6
:103C30008B0B8A828B83A3A3E0FEA3E0FFAC0AADCB
:103C40000B851A82851B83AA82AB8312355BE9FA46
:103C50007402121915123FD6497003023D0B851AE2
:103C600082851B83E064057002A3E0851A82851BB0
:103C700083700EAC82AD83EEFAEFFB123531023D5C
:103C800010E064047002A3E0601E851A82851B8325
:103C9000E064067002A3E0600F851A82851B83E052
:103CA00064077002A3E07068851A82851B83123F47
:103CB000D675F003A4F8AAF075F003E9A42AF97404
:103CC000A728F8740539F9E824F4F582E934FFF5FA
:103CD00083E0FAA3E0FBEA4B6036851A82851B83FA
:103CE000AC82AD83EEFAEFFBE824F6F582E934FF0F
:103CF000F583E0F912357FE97016851A82851B83FA
:103D0000E064047002A3E07020802974016A7019D5
:103D1000850A82850B83A3A3A3A3A3A3A3E0FAA38D
:103D2000E0FBEA4B6003122F197C017D00EEFAEFF5
:103D3000FB12351974061218E0023BD874F41219FC
:103D40002174F61218CA8A0C8B0DEC2404FEED3493
:103D500000FF8E828F83C3E09404A3E0940050039D
:103D6000023DECEC2402F50AED3400F50B850A82E5
:103D7000F583E0FCA3E0FD851A82851B83AA82AB54
:103D8000831235437402121915E0F8A3E0F9C3E871
:103D90009418E9940050728E828F83E82404F8E925
:103DA0003400F9E0687003A3E0697039850A828500
:103DB0000B83E02404F50AA3E03400F50B851A8296
:103DC000851B83E0A2E0780A502A121B3474021289
:103DD0001915AC82AD83AA0CAB0D123537740212E3
:103DE00018E0E96007AA0CAB0D1235A9740A121885
:103DF000E0023C1F121B347402121915AC82AD8311
:103E0000AA0CAB0D12353D80D4740412191574013F
:103E1000F0A3E4F074061219157417F0A3E4F0741B
:103E200004121915AC82AD837401121915E0F9AAB8
:103E30000CAB0D12350D80B474F012192174F4120C
:103E400018CA8A0C8B0D8C0A8D0B8C828D83A3E093
:103E5000F91235978A0E8B0FAE0EAF0FEE4F70032F
:103E6000023F178E828F83A3A3A3E4F0741C121960
:103E700015E0FCA3E0FD850A82850B83E014600752
:103E800024EE6071023F17A3A3121B4B7402121998
:103E900015AA82AB8312356774021218E0E9F50E99
:103EA000EEFAEFFB12359D851A82851B8385821001
:103EB0008583117810121B34750F00780F121B3890
:103EC000850A82850B83E0FDAC0EAA0CAB0D8E82B9
:103ED0008F83A3A3A3A3A3A3E0F9123585740312D0
:103EE00018E0EEFAEFFB123591A90E740C1218E0EF
:103EF0007F080219F38E828F83E064037019850AAC
:103F000082850B83A3A3121B4B7402121915AA827C
:103F1000AB831235798081790080D074F112192138
:103F200074EE1218CA8A0C8B0DECFEEDFF74211290
:103F30001915E0FCA3E0FD7510008E828F83A38528
:103F4000820A85830B8E828F83E06412705DA3A347
:103F5000121B4B7408121915AA82AB8312357374A5
:103F6000021218E0E9F51070619005AA123FD649D7
:103F70006058740612191585820E85830F780E120B
:103F80001B34850A82850B83E0F50A780A121B38F8
:103F90008E828F83E0FD7C00AA0CAB0D9005ACE017
:103FA000F912358574031218E0801F851A82851B6B
:103FB00083E4F0A3F0851A82851B83AC82AD8385F0
:103FC0000A82850B83E0F912350DA91074121218BC
:103FD000E07F070219F3E0F8A3E0F9E822E5BDF974
:103FE000E5BCFAE9FB02102B53B4F3EBF5BCEAF5A0
:103FF000BC02102B02102BFF851C87C2AF02102BB6
:10400000FFFFFFFFFFFFFFFFFFFFFFFFFFFFFFFFC0
:10401000FFFFFFFFFFFFFFFFFFFFFFFFFFFFFFFFB0
:10402000FFFFFFFFFFFFFFFFFFFFFFFFFFFFFFFFA0
:10403000FFFFFFFFFFFFFFFFFFFFFFFFFFFFFFFF90
:020000040002F8
:10300000C082C083E990103BF002B28F74F71219AE
:1030100021E9900559F07C917D057AFF7BFF123301
:10302000F390055A74FFF0A3F0A3E4F0A3F0790540
:1030300012337B900559E0F912329D7A117B3412DC
:1030400035BB7F010219F374F41219218A0A8B0B24
:10305000EB54806030900559E0F9122BA78A0C8B55
:103060000DAE0CAF0DEE4F60138E828F83E064B017
:103070007003123393EEFAEFFB122B95AA0AE50BBD
:103080006480FB80047A007B0002B25E74F2121945
:103090002174FC1218CAEAFEEBFFEE4F603874028E
:1030A000121915EEF0A3EF12B4C3ECF0A3ED12B4B5
:1030B000C3AA82AB83123297E9F50A7073741212B5
:1030C000191512C077E50C450D60658E828F83124D
:1030D000B13AEE4F7005750A0280557A067B0012F0
:1030E0002C018A0E8B0FA80EA90FE8497005750AEE
:1030F00013803D88828983E412B144A3A3EEF0A338
:10310000EF12C510E50CF0A3E50DF090055F12B1CC
:10311000CC90055F6017E0FCA3E08003EAFCEBFDC8
:103120008C828D8312B1CC70F38C828D8312BF9C04
:10313000A90A74041218E002C712A3A3A3A3E0FE15
:10314000A3E0FF22F0A3F0888289832274F212198F
:1031500021890CE975F017A4FEAFF090055EE4F04C
:1031600090055C12B1CC600A122C0790055CE4F06B
:10317000A3F0EEFAEFFB122C018A0A8B0BEA450B47
:10318000602FEEFCEFFD7900122B8390055CE50AC1
:10319000F0A3E50BF07B00800812B1B6E4F0A3F0D9
:1031A0000BEBC3950C40F2E50C90055EF0790080C6
:1031B00002791302C712EB75F017A4F8A9F0900575
:1031C0005CE028FAA3E0398A82F5832212BD32EA54
:1031D0004B2274F4121921750A00750B00740C123D
:1031E000191512C4E4FEE9FF800CE50A2401F50A72
:1031F000E50B3400F50BC3E50A9CE50B9D503285C9
:103200000A0C850B0D7403780C1218B7EA250CF81C
:10321000EB350DF988828983A3A3A3A3A3A312C0CE
:1032200077EE650C7003EF650D70BFE8FAE9FB807F
:10323000047A007B00802774F41219217900EAA235
:10324000E0501B750A2B750B82780A121B347C0424
:103250007D007A3D7B1012337574021218E07F04F2
:103260000219F3C082C08390055F12B296601C8879
:10327000828983A3A3E06A7003A3E06B88828983B9
:1032800070E8A3A3A3A312BD2E80047A007B00D014
:1032900083D08202102B12C7E5E8492274EE12197E
:1032A0002174FC1218CAEAFEEBFF851A82851B8383
:1032B000E4F0A3F0EE240212BF80EE240512B4B1B4
:1032C000EE2404F510EF12B896E024FE603924FCD9
:1032D000604624FE605224FE605E24FE700302B34A
:1032E000B624FE700302B42E24FE700302B43D2403
:1032F000FE700302B44C24FC700302B45B24FE7025
:103300000302B46A02B4A79005787417F0A3E4121C
:10331000B4CB12301502B4A7851A82851B83AC8208
:10332000AD8312339902B477851A82851B83AC82F0
:10333000AD8312339F02B477850E0A850F0B74029A
:10334000121915AC82AD83850A82850B8312BD2EBE
:103350001232BB8A0E8B0FAC0EAD0FEC4D6042E407
:10336000F50EF50F780E121B34750E78750F057873
:103370000E121B34750E79750F05780E121B3474FE
:1033800008121915121B4B791612BD281233DB7463
:10339000081218E0E9F50E700B12BD2412302D80D2
:1033A0000F750E01850A82850B8312B4B912BF9C7A
:1033B000850E0A02B47A7402121915AC82AD8385A7
:1033C0000E82850F8312BD2E1232BB8A128B13AC74
:1033D00012AD13EC4D6043850E82850F83A3A312BB
:1033E0001B4B7512787513057812121B3475127900
:1033F0007513057812121B347408121915121B4B21
:10340000791612BD281233DB74081218E0E9F50BA7
:10341000700B12BD24123033800F750B01850E82A4
:10342000850F8312B4B912BF9C850B0A804C851A94
:1034300082851B83AC82AD831233A5803A851A82C4
:10344000851B83AC82AD831233AB802B851A8285BA
:103450001B83AC82AD831233B1801C851A82851B1D
:1034600083AC82AD831233B7800D851A82851B83AE
:10347000AC82AD831233BDE9F50AE50A60298E827C
:103480008F83A3E06414601F851082851183E09010
:10349000057812B4C312C7E190057912BF9CE50A02
:1034A000A312B4CB12300FEEFAEFFB12333902BE87
:1034B00088F50EEF3400F50F2212C7E5851A8285D4
:1034C0001B8322F0851A82851B8322F07C787D0580
:1034D000850C82850D8312BD322274EE121921747F
:1034E000FC1218CA8A0C8B0D8C108D11EA2405F57C
:1034F0000AEB3400F50B7C157D0079007A787B05AA
:10350000122B83E50A2402F50EE50B12B4B4851ADA
:1035100082851B838582128583137812121B348562
:103520000A82850B83A3A3A3A312B9DE121B34E581
:103530000A2405F512E50B3400F5137812121B343A
:10354000850E82850F8312BD381232B574061218AB
:10355000E08A128B13AE12AF13E50C2402F50CE5D2
:103560000D12BF83EE4F700302B6A08017740212D3
:10357000191512BD2E88828983EAF0A3EBF090051D
:1035800078E004F0900578E0C39405400302B6A00B
:10359000E4F512F5137812121B34751261751305D8
:1035A0007812121B347512627513057812121B34CF
:1035B0007406121915121B4B7910EEFCEFFD12BDAB
:1035C000281233DB74081218E0E9705E850A8285E0
:1035D0000B83A3A3A3A3A3A3A3E0F8900561E068D2
:1035E000704812B9DE121B347C627D05E50A24089E
:1035F000FAE50B3400FB122B7D74021218E0E9602F
:10360000298E828F83A3A3A3A312BD2E900578E0F9
:10361000F512740278121218B774792512F58274B3
:10362000053513F583EAF0A3EBF074021219158542
:1036300082128583137812121B3474021219151228
:103640001B4B850E82850F8312C7F61232C174049C
:103650001218E08A128B13AE12AF13900578E0F5C2
:1036600012751300740278121218B774782512F8C4
:1036700074053513F988828983A312B1CC700302D3
:10368000B564E82403F8E93400F9EE4F600302B5AD
:103690006D8882898374FFF0A3F0900578E004F0D0
:1036A000900578E0600A12BD241230217900800B69
:1036B000850A82850B8312BF93790A02BE8874EA59
:1036C00012192174FE1218CA8C148D15EA2405F5FE
:1036D0000EEB12C96012B13E750A00750B00EA24A8
:1036E00002F512EB3400F513851A82851B8385825F
:1036F0000C85830D780C121B34850E82850F83A3F5
:10370000A3A3A312B8A0121B34E50E2405F50CE503
:103710000F12BF83780C121B34850E82850F831223
:10372000C7F41232B574061218E08A0C8B0DEA4504
:103730000D700302B851EA2404F510EB12B896128A
:10374000B13E8A828B83A3A3A3E0F98512828513FD
:103750008312BD2E1232A3E9F50B600302B851E4C7
:10376000F516F5177816121B34751661751705785E
:1037700016121B347516627517057816121B3474F1
:1037800006121915121B4B7913AC0CAD0D85128264
:1037900085138312BD2E1233DB74081218E0E9F58D
:1037A0000B600302B851900561E0F8E50A7009E08A
:1037B0002402900579F08017900579E0FCE8240256
:1037C000FAE43400FBEA6C7001EB600302B8558543
:1037D0000A82AA8212B9D5941412B9CD50738510F9
:1037E00082851183E0C0E0747A2A12B88DD0E0F0AF
:1037F000050A851082851183A3E0C0E0850A0C7458
:103800007A250C12B88DD0E0F0050A90056112B847
:10381000A0121B347C627D05850A0C747A250CFA93
:1038200074053400FB122B6B74021218E0900561D2
:10383000E0250AF50A74FF6E700374FF6F6012EEE4
:1038400024010EEF3400FFE50AC39414500302B6BE
:10385000E8E50A601312BC1985128285138312BD34
:103860002E12302779008014E50B7003750B0A8542
:103870001482851583EEF0A3EFF0A90B74021218E1
:10388000E07F0E0219F3850A0E747A250EF5827414
:10389000053400F583223400F511851082F583226A
:1038A00012C5232274EE12192174FE1218CA8C104C
:1038B0008D11EA2405F50EEB12B4B4750D009005D8
:1038C00078E4F0F50CEA2402F50AEB3400F50B80FD
:1038D00049900578E0FA900561E0F812B9D594179F
:1038E00012B9CD400D900578E0F87416C398900594
:1038F00061F012B9DE121B347C627D0574792AFAFC
:1039000074053400FB122B6B74021218E0900561F1
:10391000E0F8900578E028F0050CE50E2416F58215
:10392000E50F12B891E0F8E50CC398400302B9B670
:10393000900578E0C39416507DE50CC333F8E4336A
:10394000F9E50E28FEE50F39FF851A82851B83AC49
:1039500082AD838E828F8312BD2E1232BB8A128B70
:1039600013AC12AD13EC4D7005750D018043E4F5F9
:1039700012F5137812121B34751261751305781243
:10398000121B347512627513057812121B347406FB
:10399000121915121B4B7916850A82850B8312BDED
:1039A0002E1233DB74081218E0E9F50D700302B82B
:1039B000D112BF8F80107C787D05850A82850B83AC
:1039C00012BD2E123039A90D740202BE8AE994008C
:1039D000C365D03322EA28F8E43400F9E822E0F5A0
:1039E0001275130078122274EA12192174FC12184D
:1039F000CA8A0E8B0F8C148D15EA2405F50CEB1278
:103A0000BF83750A00750B00E50C2402F512E50D65
:103A10003400F5137402121915858210858311780C
:103A200010121B34850C82850D83A3A3A3A312C49B
:103A3000CF121B34E50C2405F510E50D3400F5110B
:103A40007810121B3485128285138312BF8912BD30
:103A5000281232B574061218E08A108B11AE10AF1E
:103A600011E50E2402F510E50F3400F511804088B1
:103A700082898374FFF0050A12B88674FFF0050A84
:103A8000900561E0F50E750F00780E121B347C6214
:103A90007D05850A0E747A250EFA74053400FB1232
:103AA0002B6B74021218E0900561E0250AF50AEE0E
:103AB0004F60718E828F83A3A3A3E0F98510828566
:103AC000118312BD2E1232A3E9F50BEE240412B4B9
:103AD000B1E97044E4F516F5177816121B34751623
:103AE000617517057816121B3475166275170578FF
:103AF00016121B347408121915121B4B7911EEFCA7
:103B0000EFFD85108285118312BD2E1233DB740800
:103B10001218E0E9F50B6027850E82850F8312BC31
:103B20000F12BF9CE50A700302BBF512BC19851089
:103B30008285118312BD2E12303F790002BC0A85A6
:103B40000A82AA82EA9005617009E024049005794E
:103B5000F08022E0F8900579E0F516E82404FCE412
:103B60003400FDEC65167001ED70C012B9D59412E9
:103B700012B9CD50B6850E82850F83E0C0E0747A0D
:103B80002A12B88DD0E0F0050A850E82850F83A336
:103B9000E0C0E012B886D0E012BC2B85820E85838F
:103BA0000F780E121B347404121915121B4B851258
:103BB0008285138312C7F61232C174041218E08A88
:103BC0000E8B0FAE0EAF0F850A0E747A250EF874A9
:103BD000053400F9EE4F700302BA6F851A82851B17
:103BE00083E08882898312BC2BA3E0C0E012B886F0
:103BF000D0E002BA7DE50B7003750B0A850C828557
:103C00000D8312BC0F12BF9CA90B740402B87E1264
:103C1000C7E585148285158322900579E0F5F0E5E6
:103C20000A84900578F07C787D0522F0050A851AD3
:103C300082851B832274EC12192174FE1218CA8A21
:103C40000A8B0B8C108D11EA2405FEEB3400FF85E6
:103C50001A82851B83AC82AD838E828F8312BD2E28
:103C60001232BB8A0C8B0DEE241812B4B1EA450D4A
:103C7000700302BCFF12BE715032851A82851B830D
:103C800012BD2E1233CF8A128B13EA4513606B7963
:103C900012AC0CAD0D850A82850B8312BD2E8512E8
:103CA0008285138312191FE9F50C7058E4F50CF5A1
:103CB0000D780C121B348E828F83A3A3E0F50C7851
:103CC0000C121B34EE240312BF80780C121B348EAE
:103CD000828F8312BD381233E174061218E0E9F5C1
:103CE0000C7021850E82850F83E0701F850A828506
:103CF0000B8312BD2E1230458011750C0E80097594
:103D00000C018004E50C600312BF8F850E82850FC5
:103D100083E0600479008002A90C74021218E07F2D
:103D20000C0219F37C787D05850C82850D8312BD0C
:103D30003222E0FAA3E0FB22E0FCA3E0FD850A8248
:103D4000850B8312BD322274EE12192174FE1218F3
:103D5000CA8A0A8B0B8C0E8D0FEA2405FEEB340009
:103D6000FF751000851A82851B83AC82AD838E821D
:103D70008F8312BD2E1232BB8A0C8B0DEA450D705B
:103D80000302BE5D12BE715035851A82851B8312F7
:103D9000BD2E1233CF8A108B11EA4511605E791265
:103DA000AC0CAD0D850A82850B8312BD2E85108269
:103DB00085118312191FE9F510600302BE60850AA0
:103DC00082850B8312C077AA0CFB1233C38A128B35
:103DD00013A812A913E849701E7AFF7BFF1233C3A0
:103DE0008A128B13A812A913E849606C8882898310
:103DF000E50CF0A3E50DF0750C00800775100E8042
:103E00005F050C90055EE0FAE50CC39A504AE50C9C
:103E100075F017A4FAABF088828983A3A3E02AFA8D
:103E2000A3E03BFB8A828B8312BF89EC4D70D27575
:103E30000C17750D00780C121B34EEFCEFFD122BE5
:103E40006B74021218E0EEFCEFFD850A82850B838D
:103E500012BD2E12304B80147510098003751001AD
:103E600012C7DD850E82850F8312BF9CA91002B98F
:103E7000C8E50A2402F50AE50B3400F50B8A828BAB
:103E800083A3A3A3E0A2E52274041218E07F0A0230
:103E900019F374EC1219218C128D13EA2405F50E16
:103EA000EB12B4B4751100EA2402F50CEB12BF83D7
:103EB000850C82F58312BD2E1233C38A0A8B0BEA5E
:103EC000450B700302BF757510008071850E8285E9
:103ED0000F83E06401704F8E828F83A3A3121B4B6C
:103EE0008E828F83A3A3A3A3E0F514751500781425
:103EF000121B34EE2405F514EF3400F51578141276
:103F00001B3412BD281233E174061218E0E9F511D2
:103F10006014850E82850F83E4F012C7DD8512825E
:103F200085138312BF9C7C177D007900EEFAEFFBAE
:103F3000122B838E828F83E4F0A3F0051090055E30
:103F4000E0F8E510C398501EE51075F017A4F8A925
:103F5000F0850A82850B83A3A312C96A12BF89EC7C
:103F60004D600302BECC850A82850B8374FFF0A3EB
:103F7000F0E511700612BD28123051A91102BD1FC3
:103F8000F50CEF3400F50D22A3E0FCA3E0FD228E3A
:103F9000828F8312C7E5851082851183E8F0A3E93B
:103FA000F022C082C08390055AE06A7003A3E06BE0
:103FB00070067A5A7B0580047A007B0002B28FC0BB
:103FC00082C08378008C828D83E06A7003A3E06BEB
:103FD0007010E875F003A4F8A9F0EC28FAED39FBAD
:103FE0008015088C828D83A3A3A3E06A7003A3E0ED
:103FF0006B60DF7A007B0002B28F74F61219211217
:10400000338D8A828B83E582458370067A007B003C
:104010008007A3A3A3A312BD2E02C68E74F21219A9
:1040200021E9FE740E12191512C0777410121915B9
:1040300012C4EF8C828D83E064027036A312C7EB4A
:10404000F50EA3E0F9A80E74026870037429697074
:1040500021750E02750F00780E121B34780A121BA0
:1040600034780C121B34EEF912340574061218E081
:104070008002790102C712E0F50CA3E0F50D22746D
:10408000E812192174FB1218CAE9851A82851B836C
:10409000F08A188B19ECFEEDFF751200741D1219D1
:1040A0001512C7E1741D12191512BF9C8E828F83E1
:1040B000A3A3A3E0A2E4502D741D12191512BD2E66
:1040C0001233CF8A828B83E5824583700302C4C09A
:1040D000790AEEFCEFFDAA18AB1912191FE9F512C7
:1040E000600302C4C3741F12191512C4EF742112A5
:1040F000191512C0777423121915E0F510A3E0F515
:10410000118E828F83E06402600302C46EA312C723
:10411000E1850A82850B83A3858214858315EE24AD
:104120000612B4B188828983E0FAA3E0F9EA240098
:10413000F516E439F5177816121BBE0100002801A8
:104140002863C10700022828C2032895C100295FFF
:10415000C301298AC302292BC303295FC304290988
:10416000C46EC4E5104511600302C469850E8285E2
:104170000F8312C4E4FAE9FB8A828B83E0850C8208
:10418000850D8312C51A121B348A828B83A3E0FC2F
:10419000A3E002C3F3E5104511600302C469850C76
:1041A00082850D837401F012C4F7850A82850B8322
:1041B000F07C007D008E828F83A3A3A3A3E0240163
:1041C000FAA3E03400FB1232BBEA4B60418A828BD7
:1041D00083E02402F8850C82850D83E028F0EA2430
:1041E00004F8EB3400F988828983E0851482851510
:1041F0008312C52C12C51A121B348A828B8312BFFC
:1042000088E50A2403FAE50B3400FB02C3F8850CA9
:1042100082850D83E02404F07C047D007900AA14DB
:10422000AB15122B8302C4C3E5104511600302C411
:104230006912C4F7FEA3E0FF850C82850D83740428
:10424000F0EE850A82850B83F0EF85148285158355
:10425000F07403121915AC82AD83EEFAEFFB123243
:10426000BB8A0E8B0FEA450F700302C30C8A828B48
:1042700083A3A312B13A74011219158582108583A4
:10428000117810121B347405121915121B4B7CFF88
:104290007DFF1232C174041218E08B11EA451170CF
:1042A00033850E82850F8312C4CF121B34850E8294
:1042B000850F83A3121B4B7C027D007A037B831244
:1042C00030ED74041218E0E9700A740112191574C3
:1042D000FFF0A3F08E828F83E064027039750E02C6
:1042E000750F00780E121B348E828F8312BF88E503
:1042F0000A2404FAE50B3400FB122B6B740212182B
:10430000E0850C82850D83E0240280097401121976
:1043100015EEF0A3EFF0740112191512C4E0F07459
:1043200001121915A312C4D802C463E51045116027
:104330000302C469850E82850F8312BF89AA18AB58
:10434000191233F9850C82850D837402F0EA850A0F
:1043500082850B83F0851482851583EB02C466E5A4
:10436000104511600302C46912C4F7F8A3E0F9858F
:104370000C82850D837402F0E8850A82850B83F038
:10438000E985148285158302C466850E82850F83B4
:1043900012BD2E122B65EAFC8C82A882C39510E414
:1043A0009511405FE865107002E51170047C008093
:1043B00022851A82851B83E0FAE5102AFAE511347A
:1043C00000FBC3EA98EB94005003E08005E510CCB5
:1043D000C39CFCEC850C82850D83F08C0C750D0064
:1043E000780C121B34850E82850F83E02510FCA308
:1043F000E03511FDAA0AAB0B122B6B74021218E008
:1044000002C4C375120702C4C3E5104511705A8572
:104410000E82850F8312C7E1850C82850D83740798
:1044200012B14612C4D812B146A3E0851482851594
:1044300083F0E82402FAE93400FB8A828B8312C4F9
:10444000D812C50712C4E0A312C51012C4E9F0E8DF
:104450002405F8E93400F98882898312C4E9A3129B
:10446000C52CA3A3A3A3F0805A75120B8055741D0D
:1044700012191512BD2E12338D8A828B83E5824567
:1044800083603D12C7E1880E890FE8450F603178DF
:1044900010121B34780C121B34780A121B34740669
:1044A000121915E0F9EEFCEFFDAA18AB19850E8282
:1044B000850F8312191F74061218E0E9F5128003A4
:1044C00075120EA91274051218E07F100219F3E09C
:1044D000F510751100781022E0850A82850B832281
:1044E00012C5362212C7E5E82212C536A3A322E080
:1044F000F50AA3E0F50B22850E82850F83E0F8A371
:10450000E0F5838882E022A3A3F08A828B83A32232
:10451000F088828983A3A3A3A322F08A828B8312CB
:10452000C52322E0F50C750D00780C22F0888289F5
:1045300083A312C53622E0850A82850B83A3A322BA
:1045400074EE12192174FE1218CA8A0C8B0DECFA43
:10455000EDFB7414121915E0F512A3E0F5137416AF
:10456000121915E0FE7418121915E0F510A3E0F504
:1045700011851A82851B83AC82AD831232BB8A0EF1
:104580008B0FEA450F6049851A82851B8312BD2E69
:1045900012338D8A828B83E5824583602FA3A31219
:1045A000C4EFE50A450B60247810121B3478121210
:1045B0001B34EEF9AC0EAD0FAA0CAB0D850A82854B
:1045C0000B8312191F74041218E08006790E800202
:1045D000790102B9C874F612192174FE1218CA744E
:1045E0000C12191512C4E4851A82851B83F074011C
:1045F000121915E9F0E4F50AF50B780A121B347567
:104600000A02780A121B34740412191585820A856D
:10461000830B780A121B341233E174061218E0740B
:10462000021218E0806874F7121921EAFEEBFF8984
:104630000A7C917D051233F9EA5402600BA90AEE57
:10464000FAEFFB1232AF8002790102B04274F61227
:10465000192174FF6A700374FF6B70168C828D834E
:1046600012C693E4F08C828D83A3A3A312C693A3F6
:1046700080181233C98A0A8B0BA80AA90BE8496073
:104680000D8882898374FF12B144A3A3E4F07F02F2
:104690000219F374FFF0A3F08C828D83A3A322741C
:1046A000F61219211233C98A828B83E58245836011
:1046B00006A3A3E0FA80027A007B0080D174F21294
:1046C00019218A0A8B0BECFEEDFF740E121915E00E
:1046D000F50C1233C98A0E8B0FA80EA90FE849708A
:1046E00026EEFCEFFD7AFF7BFF1233C98A0E8B0F9B
:1046F000A80EA90FE8497004791180168882898371
:10470000E50AF0A3E50BF088828983A3A3E50CF00A
:1047100079007F060219F374EE121921EAFEEBFF0D
:104720008C0A8D0B890E741412191512C7E17416B8
:1047300012191512BD2E750F00E849600302C7D586
:104740007402650E600302C7D0741212191512C7E5
:10475000EBFCA3E0F9EC2400F510E439F511EAF4E0
:10476000F8EBF4F9EC58F8E51159F9E849705CE513
:104770000A2406F8ED3400F9880C890D8882F58347
:1047800012C7F61233F98A128B13E5106512700402
:10479000E511651360427810121B34850C82850D7B
:1047A0008312C7F61233FF74021218E0E9F50F7096
:1047B000277810121B34850A82850B83A3A312C7A6
:1047C000F412341774021218E0800D750F808008FF
:1047D000750F0D8003750F0BA90F02BE8D8E828F92
:1047E0008312C7E522E0F8A3E0F92212C7E5888228
:1047F0008983E022A3A3E0FCA3E0FDEEFAEFFB2215
:1048000074E812192174E71218CA851A82851B836D
:10481000EAF0A3EBF08C188D198910750A00750B5E
:10482000007431121915E0F514A3E0F51574331274
:104830001915E0F516A3E0F5177435121915E0F512
:1048400011E50B75F003A4F8A9F0851A82851B8386
:1048500012C96AE0F47003A3E0F4700302C94DEEDC
:104860002402F50EEF12C960E0700302C94D8518ED
:104870000C85190D780C121B34AC16AD17AA14ABAD
:104880001512338174021218E08A0C8B0DEA450D63
:10489000700302C94DE4F512F5137812121B34743B
:1048A000061219158582128583137812121B34742F
:1048B000091219158582128583137812121B34850B
:1048C0001482851583A3A3A3A3121B4B7914AC0CEC
:1048D000AD0D8E828F8312BD2E1233DB7408121839
:1048E000E0E97069850C82850D83A3A3A3A312C799
:1048F000E1740212191512BF9C850E82850F83E0A8
:10490000A2E05018A9107402121915AC82AD838E62
:10491000828F8312BD2E1232D3E9420A850E828520
:104920000F83E0A2E15026E511F50C780C121B383C
:10493000A9107403121915AC82AD838E828F831275
:10494000BD2E1232CD74011218E0E9420A050BE5C2
:104950000BC39402500302C841A90A741902C4C7C8
:104960003400F50F850E82F58322E028FEA3E0399E
:10497000FF8E828F832274F2121921EAFEEBFF89E7
:104980000D7401650D600E7402650D706A79011277
:1049900035D9E97062EEFAEFFB1233C38A0A8B0B4A
:1049A000EA450B6047750C00800B7C177D00790091
:1049B000122B83050C90055EE0F8E50CC39850219E
:1049C000E50C75F017A4F8A9F0850A82850B83A37E
:1049D000A3E028FAA3E039FB8A828B8312B2967097
:1049E000C9850A82850B8374FFF0A3F07C917D0555
:1049F000EEFAEFFB1233F302C71274F21219218A96
:104A00000A8B0BECFEEDFF740E12191512C0779095
:104A1000103BE0F4603D7A097B00122B8FEA4B607B
:104A2000328A828B8374B1F0A3E412C509A312C544
:104A300007A3E50AF0A3E50B12CA56EEF0A3EF12A6
:104A4000CA56A3A3E50CF0A3E50DF090103BE0F9E6
:104A5000122B9B02C712F08A828B83A3A3A3A3A36A
:104A600022C082C0839061907404F0A37448F0A3C4
:104A70007402F09061807440F09061BC7403F09017
:104A800061877419F0906265741BF0906249E0C30D
:104A9000941390619C400A7409F0906066740180E0
:104AA00007740DF0906066E4F090619A7433F0A39F
:104AB0007455F09061A0743AF09007B7E06401700B
:104AC00009C29190061E7467800590061E7461F0FD
:104AD000903B6AE493906186F0903B6CE493F460C1
:104AE00027E493540FF8906185E0686012E5C6549E
:104AF000804449F5C6E59E547F644970F8E8F05358
:104B0000C680E59E547F70FA790512393F02CCE0E9
:104B1000C082C083E9540FF9906185E0696012E5B5
:104B2000C654804449F5C6E59E547F644970F8E94F
:104B3000F053C680E59E547F70FA02CCE0C082C07C
:104B400083E5A8F853A87E906181E4F0A3F0A3F078
:104B5000C2BA539AFEC289759B00C2C275E900753C
:104B6000910075BF0075A91175B905906181F0A319
:104B700074C0F0A3E4F0D2BA439A0174805842A8FA
:104B800002CCE0C082C08374F81218CA90061CE000
:104B9000F8A3E0F9E849700302CCB190061CE05498
:104BA0004060237908851A82851B83AA82AB831211
:104BB00037A1851A82851B83AA82AB831234899020
:104BC000061CE054BFF0E054806010790C7ADD7B65
:104BD000071237A190061CE0547FF0E0A2E05031AC
:104BE00090619A7433F0A37455F09061A0743AF018
:104BF0009007B7E064017009C29190061E74678047
:104C00000590061E7461F012348F90061CE054FE6D
:104C1000F0E05402603190619A743FF0A3745AF04E
:104C20009061A0747FF09007B7E064017009D291A1
:104C300090061E7471800590061E746AF012348FFF
:104C400090061CE054FDF0E054046013903B68E4CF
:104C500093906186F012349590061CE054FBF0E0CE
:104C600054086013903B69E493906186F012349588
:104C700090061CE054F7F0E054106013903B6AE497
:104C800093906186F012349590061CE054EFF0E0AA
:104C90005420600A12349590061CE054DFF0A3E023
:104CA0005401600D1236C912349B90061DE054FE6B
:104CB000F074081218E002CCE0C082C083E96008FA
:104CC00014600A14600C8013903B688008903B6964
:104CD0008003903B6AE493906186F08003F0A3F038
:104CE000D083D08202102B74EC12192174F41218A4
:104CF000CA851A82851B83AC82AD837583827582D7
:104D0000D274041217DD903B6893F4600302CE73F3
:104D1000907808E0C39402500302CE537404121931
:104D200015AC82AD837583817582FA74081217DD24
:104D3000851A82851B838582148583157404121954
:104D400015AC82AD837510FF7511FF7FFF7E007576
:104D50000E48750F78801574086E700302CDE774E5
:104D6000096E700302CDE7740A6E607B850E828542
:104D70000F83780A12179A8C828D83A90BE50CC9D0
:104D8000F888127418780A1216C8E512450AF8C392
:104D9000E098A3E099850E82850F83780A12179A0E
:104DA00040188C828D837418780A1216C8E5124553
:104DB0000AF8E0C398F8A3E0801C7418780A121669
:104DC000C8E512450AFAE9FB8C828D83E0F8A3E07E
:104DD000F9EAC398F8EB99F9C3E89510E9951150F1
:104DE0000688108911EEFF0EE50E2404F50EE50F7E
:104DF0003400F50FEEC39413500302CD5774FF65D2
:104E000010700474FF651160238F0A7402780A120F
:104E100018B77448250AF5827478350BF583780A3B
:104E200012179A851482851583E50AF0EC2402FC9A
:104E3000ED3400FD851482851583A3858214858356
:104E400015740C121915E5826C7003E5836D60030F
:104E500002CD45750A01750B00780A121B347402E5
:104E6000121915AC82AD837ADA7B0E122E297402E8
:104E70001218E0740C1218E07F0C0219F3C082C003
:104E8000839061AE7468F0A3746AF090624574FB1D
:104E9000F0A304F053F4FD43FE029007B77401F051
:104EA0009061A0E0643A90619A70237433F0A37427
:104EB00055F09061A0743AF0740164017009C291D8
:104EC00090061E7467802890061E74618021743FCE
:104ED000F0A3745AF09061A0747FF07401640170C3
:104EE00009D29190061E7471800590061E746A02A4
:104EF000CCDF7F080219F3C082C083900769E064A9
:104F000001700A90076EE06004790C80027900025B
:104F1000CCE0C082C08375E1F190076CE0605B1467
:104F2000600914605F14605714705E1236DB9007DE
:104F300062E0F97A637B071238C17AD67BBE7C893E
:104F40007D8E1238F77A557B557C557D001238CD11
:104F500090076DE0F91238D9790112393390076062
:104F6000E0F8A3E0C82416F582E83400F58374F372
:104F7000F0A37436F0790002CCE01236E180AF1273
:104F800036E780AA1236ED80A5791280EA74F01215
:104F9000192175D90D90074DE0A2E0E4331313F801
:104FA000900762E0C4333354C0484401F5D97860B7
:104FB000790788828983A3A3A3E0F5D988828983AE
:104FC000A3A882A983E864667003E9640770E378A4
:104FD0004D790788828983A3E0F5D988828983A3E4
:104FE000A882A983E864537003E9640770E575E15A
:104FF0009590074DE0F97A4E7B071238C790105D07
:105000007481F0A37436F0A374E9F0A37437F0A3AD
:1050100074E9F0A37437F0A374E9F0A37437F0A334
:105020007487F0A37436F0A374E9F0A37437F0A387
:10503000749FF0A37436F090106B74E9F0A374378A
:10504000F0A374E9F0A37437F0A374E9F0A3743704
:10505000F0A374E9F0A37437F0A374E9F0A37437F4
:10506000F0A374E9F0A37437F090076CE06401904A
:1050700007607012E0F8A3E0F5838882A3A3750AA5
:1050800000750B088010E0F8A3E0F5838882A3A3E5
:10509000750A04750B00750C00750D00780A12175F
:1050A00013750EFF750FFF7510FF751100780A79E3
:1050B0000E121761900760E0F8A3E0C8240EF58295
:1050C000E83400F583780A1217A9900760E0F8A386
:1050D000E0C82414F582E83400F5837413F09006D8
:1050E0001A7402F002CEF274F7121921900772E0DE
:1050F0002407F5D9900762E0C4333354C0F5D9785A
:1051000060790788828983A3A3A3E0F5D98882897F
:1051100083A3A882A983E864667003E9640770E347
:10512000900772E0601F78607907FAE82413F5822F
:10513000E93400F583E0F5D988828983A3A882A9A0
:10514000831AEA70E6900792E02407F5D990076287
:10515000E0C4333354C04404F5D9786079078882B9
:105160008983A3A3A3E0F5D988828983A3A882A910
:1051700083E864667003E9640770E3900792E06077
:105180001F78607907FAE82433F582E93400F58363
:10519000E0F5D988828983A3A882A9831AEA70E6F8
:1051A00075E19590105D748DF0A37436F0A374E9E9
:1051B000F0A37437F0A374E9F0A37437F0A374E993
:1051C000F0A37437F0A37487F0A37436F0A374E9E6
:1051D000F0A37437F0A3749FF0A37436F090106BB3
:1051E00074E9F0A37437F0A374E9F0A37437F0A363
:1051F00074E9F0A37437F0A374E9F0A37437F0A353
:1052000074E9F0A37437F0A374E9F0A37437F09055
:105210000760E0F8A3E0C8240EF582E83400F583C7
:1052200074FFF0A3F0A3F0A3F0900760E0F8A3E010
:10523000C82414F582E83400F5837412F090061A3D
:105240007401F0FF0219F374F7121921900772E04C
:105250002407F5D9900762E0C4333354C04402F503
:10526000D97860790788828983A3A3A3E0F5D988D8
:10527000828983A3A882A983E864667003E964072E
:1052800070E3900772E0601F78607907FAE82413F2
:10529000F582E93400F583E0F5D988828983A3A8F3
:1052A00082A9831AEA70E675E19590105D7499F011
:1052B000A37436F0A37499F0A37436F0A37499F034
:1052C000A37436F0A37499F0A37436F0A37499F024
:1052D000A37436F0A37499F0A37436F0A3749FF00E
:1052E000A37436F090106B74E9F0A37437F0A374D4
:1052F000E9F0A37437F0A374E9F0A37437F0A37452
:10530000E9F0A37437F0A374E9F0A37437F0A37441
:10531000E9F0A37437F0900760E0F8A3E0C8240E2A
:10532000F582E83400F58374FFF0A3F0A3F0A3F056
:10533000900760E0F8A3E0C82414F582E83400F593
:10534000837414F090061A7404F002D60E74F712E7
:105350001921900772E02407F5D9900762E0C43361
:105360003354C04406F5D97860790788828983A3CD
:10537000A3A3E0F5D988828983A3A882A983E864DE
:10538000667003E9640770E3900772E0601F78605D
:105390007907FAE82413F582E93400F583E0F5D9BA
:1053A00088828983A3A882A9831AEA70E69007926B
:1053B000E02407F5D9900762E0C4333354C04404B5
:1053C000F5D97860790788828983A3A3A3E0F5D90A
:1053D00088828983A3A882A983E864667003E9644C
:1053E0000770E3900792E0601F78607907FAE8247D
:1053F00033F582E93400F583E0F5D988828983A307
:10540000A882A9831AEA70E675E19590105D7493FD
:10541000F0A37436F0A374E9F0A37437F0A374E931
:10542000F0A37437F0A374E9F0A37437F0A374E920
:10543000F0A37437F0A374E9F0A37437F0A3749F5A
:10544000F0A37436F090106B74E9F0A37437F0A3F6
:1054500074E9F0A37437F0A374E9F0A37437F0A3F0
:1054600074E9F0A37437F0A374E9F0A37437F0A3E0
:1054700074E9F0A37437F0900760E0F8A3E0C82463
:105480000EF582E83400F58374FFF0A3F0A3F0A3D7
:10549000F0900760E0F8A3E0C82414F582E8340037
:1054A000F5837415F090061A7403F002D60EC082CC
:1054B000C083900760E0F8A3E0C82406F582E834D2
:1054C00000F583E402CCDD74F7121921900648E060
:1054D000F875F003A4C8AAF02AF9744A28F87406EB
:1054E00039F9E82405FAE93400FB8A828B83E0FC71
:1054F000A3E0FD88828983A3A3A3A3A3A3A3A3A35B
:10550000ECF0A3EDF088828983A3A3A3A3A3A3A3B4
:10551000E024FFF8A3E034FFF98A828B83E8F0A34C
:10552000E9F002D60E74F7121921EAFEEBFF906142
:10553000D0E0600302D60275D90E75D90375D9047F
:10554000EE248BF582EF3400F583E5822408F8E53C
:10555000833400F9E0F5D9A3E865827003E9658337
:1055600070F2EE2483F582EF3400F583E5822404A3
:10557000F8E5833400F9E0F5D9A3E865827003E922
:10558000658370F275E1957908EE248BFAEF3400AB
:10559000FB1237957904EE2483FAEF3400FB1237BF
:1055A000957C00EEF8EFF9ECFAC3E49AFA95E0FB8B
:1055B000EE2AFAEF3BFBEA248AF582EB3400F5830E
:1055C000E0C0E0E824AAF582E93400F583D0E0F0F9
:1055D0000C88828983A3A882A983ECC3940840C75E
:1055E000EE246FF582EF3400F583E0F8A3E0F9EEE6
:1055F0002471F582EF3400F583E8F0A3E9F0790136
:10560000800279008008F0EEA2E092AF79007F017D
:105610000219F3C082C08375D90275D90375D90503
:1056200075E195EA246FF582EB3400F583E0F8A389
:10563000E0F9EA2471F582EB3400F583E8F0A3E9A0
:10564000F0790102CCE074F6121921EAFEEBFF902A
:1056500007BD7406F0750ABD750B07780A121B3476
:105660007C0179031237DD74021218E075D90675D2
:10567000D9037582BD758307E0F5D9A3E58264C2BD
:105680007004E583640770F075E19590061AE06494
:1056900008701EEE246FF582EF3400F583E0F8A366
:1056A000E0F9EE2471F582EF3400F583E8F0A3E928
:1056B000F0790102D91474F6121921EAFEEBFF9079
:1056C00061D0E0706678019007BD740BF090061A07
:1056D000E064077019750ABD750B07780A121B3450
:1056E0007C0179031237DD74021218E07805740129
:1056F00028F5D975D9037582BD758307E8FAE0F5F9
:10570000D9A31AEA70F875E195EE246FF582EF34AB
:1057100000F583E0F8A3E0F9EE2471F582EF3400A0
:10572000F583E8F0A3E9F079018002790002D91449
:1057300074F7121921EAFEEBFF75D90375D90375C9
:10574000D90DEE24DDF582EF3400F583E0F5D9754F
:10575000E19579041238FDEE246FF582EF3400F5FF
:1057600083E0F8A3E0F9EE2471F582EF3400F583CD
:10577000E8F0A3E9F0790102D60E74F6121921EAD5
:10578000FEEBFF9061D0E0F87480C398FAEE2482BB
:10579000F582EF3400F583E060047804800278003D
:1057A000E8240BF8EAC398500302D83F7D0990071C
:1057B000BDEDF0EE24E2F8EF3400F97ABE7B077C11
:1057C0000888828983E08A828B83F088828983A318
:1057D000A882A9838A828B83A3AA82AB831CEC70E4
:1057E000E0EE2482F582EF3400F583E0601D750A57
:1057F000BD750B07780A121B347C097903EEFAEFAA
:10580000FB1237DD74021218E07D0D74012DF5D9FD
:1058100075D9037582BD7583078D0AE0F5D9A31587
:105820000AE50A70F675E19579041238FDEE241D3B
:10583000F582EF3400F583E4F0A3F079018002797A
:105840000002D91474F6121921EAFEEBFF9061D020
:10585000E0F87480C398FAEE2482F582EF3400F504
:1058600083E06004780480027800E82408F8EAC342
:1058700098500302D91278069007BD740CF0900678
:1058800037E09007BEF0900638E09007BFF0900632
:1058900039E09007C0F090063AE09007C1F090061A
:1058A0003BE09007C2F0EE2482F582EF3400F583EE
:1058B000E0601B750ABD750B07780A121B347C0665
:1058C0007903EEFA1237DD74021218E0780A7401D7
:1058D00028F5D975D9037582BD758307880AE0F567
:1058E000D9A3150AE50A70F675E19579041238FD19
:1058F000EE246FF582EF3400F583E0F8A3E0F9EED3
:105900002471F582EF3400F583E8F0A3E9F0790122
:10591000800279007F020219F374F6121921EAFE5F
:10592000EBFF9061D0E0F87480C398FAEE2482F522
:1059300082EF3400F583E06004780480027800E8A8
:105940002404F8EAC398500302D9F378029007BD03
:10595000E8F0EE24F4F582EF3400F583E09007BE22
:10596000F0EE2482F582EF3400F583E0601B750AC7
:10597000BD750B07780A121B347C027903EEFA120C
:1059800037DD74021218E07806740128F5D975D94C
:10599000037582BD758307880AE0F5D9A3150AE56A
:1059A0000A70F675E195EE2473F582EF3400F58305
:1059B000E4F0EE247FF582EF3400F583E4F0EE248A
:1059C0001DF582EF3400F583E4F0A3F0790412387A
:1059D000FDEE240DF582EF3400F583E0F8A3E0F945
:1059E000EE2471F582EF3400F583E8F0A3E9F07955
:1059F000018002790002D91474F61219219061D045
:105A0000E0F87480C398FCEA2482F582EB3400F558
:105A100083E06004780480027800E82404F8ECC392
:105A200098405B79029007BD7407F0EA24F5F5828F
:105A3000EB3400F583E09007BEF0EA2482F582EBB8
:105A40003400F583E06018750ABD750B07780A12FB
:105A50001B347C02091237DD74021218E0790674D7
:105A60000129F5D975D9037582BD758307E9F8E079
:105A7000F5D9A318E870F875E195790180027900ED
:105A800002D91474F5121921E9FCA2AFE433F50C24
:105A9000C2AF7D0080010DEA246EF582EB3400F583
:105AA00083E0F8EDC398501A8D0AEA250AF8EB3422
:105AB00000F9E8246AF582E93400F583E06C70D6D9
:105AC0008024EA246EF8EB3400F9E0FEEA2EFAEBCB
:105AD0003400FBEA246AF582EB3400F583ECF088AD
:105AE000828983E004F0E50CA2E092AF7F03021903
:105AF000F374F6121921A2AFE433FDC2AFEA246EAB
:105B0000F582EB3400F583E014F07C0060368C0AFB
:105B1000EA250AF8EB3400F9E8246BF582E9340051
:105B2000F583E0C0E0E8246AF582E93400F583D02B
:105B3000E0F00CEA246EF582EB3400F583E0F8EC3B
:105B4000C39840CAEA246DF582EB3400F58374FFF4
:105B5000F0EA2469F582EB3400F583E4F0EDA2E08D
:105B600092AF02D914C082C083E5A8F8C2AFEA247C
:105B70006AF582EB3400F583E9F0EA2469F582EBFB
:105B80003400F583E4F0E8A2E7A2E792AF02CCE0AC
:105B900074F3121921EAFEEBFFECFAEDFB8A828B1B
:105BA00083A3A3A3A3E0541FF0EE2436F582EF34C1
:105BB00000F583E4F0F50CEEFCEFFD8A828B83E0C8
:105BC000C0E0EC245DF582ED3400F583D0E0F075A3
:105BD0000D00E50C33333354F8F50E8A828B83E0E5
:105BE000F50A750B00E50D780A121898E50AA2E08F
:105BF000502FEE2436F8EF3400F988828983E0F5DF
:105C00000AEE250AF50AEF3400F50BE50A2438F50B
:105C100082E50B3400F583E50EF088828983E00489
:105C2000F0050D050EE50DC3940840AF050C8A8202
:105C30008B83A3AA82AB838C828D83A3AC82AD833A
:105C4000E50CC39405500302DBBB7F050219F37416
:105C5000F7121921900646E06401700302DDAD7A67
:105C60000090064CE0600302DDAD7401F0A3E4F0A7
:105C7000A3F09006AC04F09006B1F090064FE4F06B
:105C8000A3F0A3F0A3F090065904F090067FE4F08F
:105C9000900662F0A3F0A3F0A3F0A3F0A3F0A3F0AA
:105CA0009006C9F09006BDF09006B27480F0A3E4AF
:105CB000F09006B8F0900734F0A3F0A3F0A3F0A39F
:105CC000F0A3F0A3F0A3F090073DF09006CCF09085
:105CD000071CF0A3F0A3F0A3F0A3F0A3F0A3F0A39C
:105CE000F0A3F0A3F0900728F090072AF090072681
:105CF000F0900740F0A3F0A3F0A3F0A3F0A3F0A36B
:105D0000F0A3F078467906E8246EF582E93400F5D0
:105D10008374FFF00A88828983A3A882A983EAC3D7
:105D2000940440E37A467B06785479078882898315
:105D3000E0C0E0EA2461F582EB3400F583D0E0F0C6
:105D400088828983A3A882A9838A828B83A3AA825B
:105D5000AB83E864597003E9640770D07A467B0628
:105D6000782D790688828983A3E0C0E0EA24E6F5ED
:105D700082EB3400F583D0E0F088828983A3A88287
:105D8000A9838A828B83A3AA82AB83E864357003DC
:105D9000E9640670CF900646E004F0640170089054
:105DA000064EE0900648F07A4A7B0680047A007B33
:105DB0000002D60EC082C08390064DE4F090064CDF
:105DC000F0900646F0A3F0A374FFF075E1F102CC69
:105DD000E0C082C0837800790090064DE0600478CE
:105DE0004A790688828983A3A3A3A3E0F902CCE0C1
:105DF00074F6121921EAFEEBFFEE2463F582EF340C
:105E000000F583E0F8A3E0F9E849700302DE95EEBF
:105E10002463F8EF3400F97A007B00A2AFE433F595
:105E20000AC2AF88828983E0FCA3E0FDEC4D603AB2
:105E300088828983E0FAA3E0FB8A828B83E0FCA35B
:105E4000E0FD88828983ECF0A3EDF08A828B83E405
:105E5000F0A3F088828983E0FCA3E0FDEC4D700A9A
:105E600088828983A3A3E4F0A3F0E50AA2E092AFBD
:105E7000122F1990075AE004F090075BE004F0EE4F
:105E80002463F582EF3400F583E0F8A3E0F9E849F4
:105E9000600302DE0F8E828F83A3A3A3E0600F8EC8
:105EA000828F83A3A3A3E4F0900647E014F090064A
:105EB00046E014F0700690064874FFF08E828F83DF
:105EC000A3A3E4F0900759E0700D900647E0640149
:105ED000700579001238DFEEFAEFFB12380D02D9A7
:105EE0001474F7121921EAFEEBFF8E828F83A3A3AD
:105EF000A3A3E0FA7B001234DDEEFAEFFB12375F6A
:105F00001237F502D60EC082C083782D79068882BA
:105F10008983A3E4F088828983A3A882A983E864A3
:105F2000357003E9640670E690062E740102CCDF3A
:105F300074F6121921EAFEEBFFEC2403F8ED3400AD
:105F4000F9880A890BEC2407F8ED3400F9E8FCE93C
:105F5000FD8C828D83E0F8A3E0F9850A82850B83AE
:105F6000E0FAA3E0FB12183FEE240DF582EF3400B7
:105F7000F583E8F0A3E9F08C828D83E0F8A3E0F9E3
:105F8000850A82850B83E0FAA3E0FB12183F8B0B96
:105F9000EA450B6013EE240DF582EF3400F583E043
:105FA0002401F0A3E03400F002D91474F612192190
:105FB000EAFEEBFFEE242EF582EF3400F583E0FCE1
:105FC000A3E0FD780079FAECFAEDFB12183FEE241D
:105FD0006FF582EF3400F583E8F0A3E9F0780079FB
:105FE000FAECFAEDFB12183F8B0BEA450B6013EE4F
:105FF000246FF582EF3400F583E02401F0A3E03450
:1060000000F002D91474EC121921EAFEEBFF7414AB
:10601000121915780A12179A12389D8A0E8B0F8C56
:10602000108D117512027513007514007515007826
:106030000E79121217007512FF7513FF7514FF7891
:106040000E7912121761780E121B308E828F83E048
:10605000F8A3E0F5838882A3A31217B812290B7462
:10606000041218E0E9600302E1698E828F83E02464
:1060700002F8A3E03400F9E8FAE9FB8A828B83781E
:106080000A1217268A828B83750AFF750BFF750C1F
:10609000FF750D00780A121787EE240BF582EF3496
:1060A00000F583C082C0838E828F83A3A3A3A3A3A2
:1060B000E02401F8A3E03400F9D083D082E06870D6
:1060C00003A3E0697005790102E16B8E828F83A3DF
:1060D000A3A3A3A3A3A3E02401F0A3E03400F0EE64
:1060E0002473F582EF3400F583E064017036EE240A
:1060F00074F582EF3400F583E0F8A3E0F98E828F27
:1061000083A3A3A3A3A3A3A3E0687003A3E0697080
:1061100013EE2474F582EF3400F583E02401F0A33C
:10612000E03400F0EE247FF582EF3400F583E06484
:10613000017036EE2480F582EF3400F583E0F8A399
:10614000E0F98E828F83A3A3A3A3A3A3A3E0687027
:1061500003A3E0697013EE2480F582EF3400F58329
:10616000E02401F0A3E03400F0790002CE7874F668
:10617000121921E9FEECFFEA2462F582EB3400F506
:1061800083E06401600302E2179061D0E0F50AEA5F
:106190002482F582EB3400F583E060047804800209
:1061A00078007480C3950AFC95E0FDEF28F8E4348C
:1061B00000F9E82402F8E93400F9EC98ED99A2D24C
:1061C00065D033404E740A121915E0F50AA3E0F5C4
:1061D0000BEA2482F582EB3400F583E06015780A3F
:1061E000121B34EFFCEEF91237DD74021218E07462
:1061F000042FFF74012FF5D98ED9EF600F850A8225
:10620000850B83F8E0F5D9A318E870F875E1957966
:106210000080067907800279FF02D91474F71219F9
:1062200021A2AFE433FEC2AF8A828B83E0F8A3E001
:10623000F9E8498A828B83600AA3A3E0F8A3E0F51A
:10624000838882ECF0A3EDF08A828B83A3A3ECF029
:10625000A3EDF08C828D83E4F0A302D60674F712CE
:106260001921E96021F88C828D83E08A828B83F08A
:106270008C828D83A3AC82AD838A828B83A3AA8216
:10628000AB8318E870E0ECFAEDFB02D60E74F01266
:10629000192174FA1218CA890DECFEEDFF750C0075
:1062A0008A0A8B0B780A121B78000410C0E4D0E233
:1062B000EEE208E320E33EE356E379E391E3A5E36E
:1062C000CFE357E468E47FE49AE4C0E4C0E4E5E3A4
:1062D0007401650D600302E4BB8E828F83E0F8C316
:1062E0009403400302E4BBE8900B2802E497740295
:1062F000650D600302E4BB8E828F8312EC0F900B5E
:1063000029E8F0A3E902E4977401650D600302E453
:10631000BB12E4E8400302E4BBE89002CC02E4973D
:106320007401650D600302E4BB8E828F83E0F8C3C5
:106330009405400302E4BBE89002CD02E4977401A7
:10634000650D600302E4BB12E4E8400302E4BBE82D
:106350009002CE02E4977410650D600302E4BB75F1
:106360000A10750B00780A121B347ACF7B02122BAD
:106370006B74021218E002E4E17401650D6003021F
:10638000E4BB12E4E8400302E4BBE89002DF02E46D
:10639000977401650D600302E4BB8E828F83E090E9
:1063A0000B2C02E4977404650D600302E4BB8E823B
:1063B0008F83780E12179A9082CE780E1210785032
:1063C0000302E4BB9002E1780E1217A902E4E1E9AE
:1063D000600302E4BB12325BE97005122D6F80602E
:1063E000900374806E7407650D600302E4BB750A48
:1063F00006750B00780A121B348E828F83A3AC8241
:10640000AD837402121915AA82AB83122B71740228
:106410001218E07C007D00851A82851B83AA82AB5E
:10642000838E828F83E0F9122D0FE9F50AC3940A57
:10643000400302E4DE12325BE9700CA90A122D75EA
:106440007950122F97806F7475250AF58274033482
:1064500000F583740180407401650D705E12E4E8FC
:106460005059E89002E0802F7401650D704D8E82C6
:106470008F83E0F8C3940A5042E8900B2B80187485
:1064800001650D70368E828F83E0F874F928C3940D
:106490000A5028E8900B2DF080477401650D701BA1
:1064A000900373E0F88E828F83E0900373F0E870BE
:1064B00030E06401702B122D638026750C1880214A
:1064C000C3EA9427EB940050157402650D700F8E8B
:1064D000828F8312F00E1230F9E9F50C8003750CEF
:1064E00002A90C740602EC048E828F83E0F8C39438
:1064F000022274F012192174CC1218CA8C0C8D0D62
:106500007420121915AC82AD8375838275821F7455
:10651000061217DD7420121915AC82AD83122D0FEF
:10652000E9F50A7444121915E0FEE9C3940A400320
:1065300002E66075F006E9A4F50B7426121915AC95
:1065400082AD837A0E7420250BF9122F91E9700920
:106550007432121915E0FF80027F00900B28E0646E
:1065600002700474018001E4F50F780F121B38EEFD
:10657000FDEFFCA90AAA0CAB0D122D99740112189B
:10658000E07C147D007900740C121915AA82AB838B
:10659000122B83740C121915AC82AD837A107424FB
:1065A000250BF9122F91E9703C7C1079FF740C12C5
:1065B0001915AA82AB83122BE3E97029741C1219F6
:1065C00015AC82AD837A047425250BF9122F9174D2
:1065D0000C121915AC82AD83EFA2E0E433F9AA0CDA
:1065E000AB0D123183851A82851B83AC82AD837A11
:1065F0000C7470250AF9122F91E97053851A82855F
:106600001B83AA82AB83122D45750A00E50A75F03B
:1066100003A4F8A9F0851A82851B83E58228F8E592
:106620008312EE1812F008601D88828983A3A3E00C
:10663000F5107511007810121B34AA0CAB0D123333
:10664000E774021218E0050AE50AC3940440BDEF9E
:10665000A2E1500C9002CBE0F9AA0CAB0D1233ED85
:1066600074046E7027900B28E06402701F7A00900B
:1066700002DFE060010A9002CCE06004780480024E
:106680007800E84AF9AA0CAB0D1232437900743451
:1066900002EC0474F0121921EAFEEBFF8C0A8D0B58
:1066A000750C0AE9600C14600914603714607902F3
:1066B000E742122D57E9F50CC3940A400302E74262
:1066C000E50A450B607C7510067511007810121BE9
:1066D00034EEFCEFFDAA0AAB0B122B6B74021218FE
:1066E000E0805F750D007510067511007810121BA3
:1066F00034EEFCEFFDE50D75F00EA4F8A9F074ED95
:1067000028FA740239FB122B7D74021218E0E9603A
:106710000C850D0CE50CC3940A50278016050DE579
:106720000DC3940A501C80BE122D5DE9F50CC39474
:106730000A500FE50A450B6009AA0AAB0BA90C1217
:106740002D51A90C02EC0774F4121921890A750B5A
:106750001574FF6A700374FF6B70277E00AC0A7AB1
:10676000027B00EEF9122D33E96003750B000EEE8B
:10677000C3940A40E8E50A60537A877B2D1235EB13
:10678000804A1235CD8A0C8B0DAE0CAF0DEE4F60EA
:10679000387C007D00EE2405FAEF3400FB8E828FFA
:1067A00083A3A3A3A3E0F9122D0FE9C3940A500C0D
:1067B000AC0A7A027B00122D33750B00E50A600CDF
:1067C000EEFAEFFB122D878003750B14A90B8005E1
:1067D000740E1218E07F040219F374F2121921ECFE
:1067E000FEEDFF750A15740E121915E0F50CA3E005
:1067F000F50D74FF6A700374FF6B7021750B00ACAC
:106800000CAD0DEEFAEFFBA90B122D39E960037503
:106810000A00050BE50BC3940A503F80E21235CD08
:106820008A828B83E5824583602D7C007D00E58232
:106830002405FAE5833400FBA3A3A3A3E0F9122DFA
:106840000FE9C3940A5013AC0CAD0DEEFAEFFB1236
:106850002D39750A008003750A14A90A02F64AC088
:1068600082C0839002E5EAF0A3EBF09002CBE0FC5B
:106870007D007A267B001230F99002CBE0F91233CA
:106880006302F4A574EC1219218A0A8B0BE9FE74D9
:1068900014121915780E12179A7F00EE702E780ACE
:1068A000121B349082CE781212179A780E79121237
:1068B00015C5AA12AB13AC14AD15123195740212A2
:1068C00018E0E9FF60097901AA0AAB0B12318FEFDA
:1068D000F97F0C0219F374F012192174EC1218CA22
:1068E000EAFEEBFFEE240CF50EEF3400F50FEE247C
:1068F00005F510EF3400F511EE2409F50CEF340026
:10690000F50DEE2403F50AEF3400F50B8E828F832C
:10691000A3A3E024FA700302EBA824FD700302EAAB
:10692000C314700302E9AF14601024FD700302EA7F
:106930009A14700302EAF702EC0012F8456048E08E
:10694000F583888212EC0F88108911E845116037B1
:10695000850E82850F83E0F50E780E121B38EE242B
:106960000BF582EF12EDDFF9850C82850D8312F0B5
:106970000E0A0A0AAB0B85108285118312191F7447
:10698000011218E002EC00850C82850D83121B4B6E
:106990009002E11217B812319574021218E0E970F2
:1069A0000302EC007901850C82850D8302EB738E66
:1069B000828F83A385820C85830DE0600302EA7DCC
:1069C000851082851183E0A2E0400302EA7D9003F6
:1069D0007F12F848600302EA7D7C0E7D0079008515
:1069E0001A82851B83AA82AB83122B83850E828534
:1069F0000F8312F470EA4B6010750E06750F007865
:106A00000E121B34EA2410801B12F46A1235CDEAF0
:106A10004B700302EC00750E06750F00780E121B0A
:106A200034EA2405FCEB3400FD7402121915AA8225
:106A3000AB83122B6B74021218E0851082851183D0
:106A4000E0A2E25004D2F08002C2F0A2F0E433F8F7
:106A5000740C121915E048F0EEFCEFFD851A8285E2
:106A60001B83AA82AB83122D4BE970117A027B0043
:106A70009002CBE0F9122BBF790002EC0212F8452C
:106A8000700302EC0012EC15700302EC00850C821E
:106A9000850D83E0FC790102EB9C12F8457003023E
:106AA000EC0012EC0C890DE8450D700302EC008E31
:106AB000828F83A3E0FC790212F46A8882850D83B9
:106AC00002EBA37C007D00EE2404FAEF3400FB858A
:106AD0000A82850B83E0F9122D0FE9F8C3940A406E
:106AE0000302EC00EE240AFCEF12EFE4E8A42425F4
:106AF000F9122F8B02EC0012F46A9002E0E06007BA
:106B0000900B2BE0F9806F900B28E07004790580E2
:106B1000651235CD8A0E8B0FA80EA90FE82404F557
:106B20000EE93400F50F8E828F83A3A3A3A3A3A342
:106B3000A3E0A2E05046E849700302EC00850E8213
:106B4000850F83E0FE6035850C82850D83E054104F
:106B5000702A740E121915AC82AD83E82405FAE987
:106B60003400FBEEF9122D0FE970117903850A82CA
:106B7000850B8312F47012318F02EC00AC10AD1152
:106B8000850E82850F83E0F912F46A122D9312F8B4
:106B900045606D12EC1560687C00790012F46A8E15
:106BA000828F8312191F805812325BE97052900352
:106BB00074E064017015122D6F900374E4F07C0A88
:106BC000FDF97A757B03122B83802D750C00850CE3
:106BD0000A7475250AFE74033400FF8E828F83E0E9
:106BE0006401700BA90C122D758E828F83E4F00561
:106BF0000CE50CC3940A40D67950122F97122D63DE
:106C0000790174141218E07F080219F312EC24E0E1
:106C1000F8A3E0F92212EC24E0F8A3E0F9E8FEE999
:106C2000FFEE4F22E0F5838882A3A32274F41219A9
:106C30002174F21218CAEAFE8C0D75F006E9A4243C
:106C400020F50A851A82851B83AC82AD837A0EF902
:106C5000122F91E970577C0679FF851A82851B8374
:106C6000AA82AB83122BE3E97043740C121915123C
:106C7000EC0FE8F50BE50D6005EE420B8004EEF439
:106C8000520B850B82AA82E86A7001E9601B740CC2
:106C9000121915EAF0A3E4F0851A82851B83AC82F1
:106CA000AD837A0EA90A122F8B7901800279000236
:106CB000E7D074F212192174E61218CA890C8A0AF4
:106CC0008B0BECFEEDFF740C121915AC82AD837AC0
:106CD0000E75F006E9A42420F9122F91E960030251
:106CE000EDD27C0679FF740C121915AA82AB8312BF
:106CF0002BE3E9600302EDD27470250CF50D851AC3
:106D000082851B83AC82AD837A0CF9122F91E960E6
:106D10000302EDCE851A82851B83AA82AB83122DD6
:106D200045E50A450B702C7C0C7900851A82851B81
:106D300083AA82AB83122BE3E9600302EDCE7C0CC5
:106D40007D007900851A82851B83AA82AB83122B72
:106D500083805D851A82851B83AC82AD83AA0AABD2
:106D60000B122D3F8A0E8B0FA80EA90FE849702831
:106D7000EE4F605E851A82851B83AC82AD837A00FC
:106D80007B00122D3FEAF8EBF9EA4B6045888289D7
:106D900083E50AF0A3E50BF012EDD9FAEE6A700173
:106DA000EF602BEEF04F700888828983E4F0A3F047
:106DB000851A82851B83AA82AB83122D45851A8290
:106DC000851B83AC82AD837A0CA90D122F8B7901C0
:106DD00080027900741A02F647E82402F582E93449
:106DE00000F583E02274F71219217F00EF75F0039C
:106DF000A4F8A9F0EC28F8ED12EE18E06A7003A3ED
:106E0000E06B7006E8FAE9FB800B0FEFC3940440D7
:106E1000DB7A007B0002F1C339F98882898322740E
:106E2000F71219217E00EE75F003A4F8A9F0EA2804
:106E3000F8EB12EE18E0F4FCA3E0F4FD88828983FD
:106E4000ECF0A3EDF012EDD9F4F00EEEC394044093
:106E5000D502F1C374F212192174F41218CAEAFEB1
:106E6000EBFF8C0A8D0B90037F12F8487051EE4FA8
:106E7000700302EFDDEC450B700302EFDD122D57BE
:106E8000E9900B2EF0C3940A4035750D007C06790D
:106E9000FFE50D75F00EA4FAABF074E72AFA740260
:106EA0003BFB122BE3E96005850D0C800C050DE51D
:106EB0000DC3940A40D7750C0AE50C900B2EF09088
:106EC0000B2EE0C3940A400302EFDD75F006E0A448
:106ED000FB90037F12F848706FEEFCEFFD7A0E74A2
:106EE000202BF9122F8B7C0C7D0079FF851A82856F
:106EF0001B83AA82AB83122B83851A82851B83ACEA
:106F000082AD837A0C900B2EE02470F9122F8B75D2
:106F10000E0E750F00780E121B34EEFCEFFD900B79
:106F20002EE075F00EA4F8A9F074E728FA7402397F
:106F3000FB122B6B74021218E090037FE50AF0A39A
:106F4000E50BF0790002EFDFE0C8240612F00160E3
:106F50001A7A1B74212BF9122F8B12EFED2406F5F0
:106F600082E83400F583E4F0A380D712EFED240A21
:106F700012F00160107A1B74222BF9122F8B12EF82
:106F8000ED240A80DA12EFED240C12F00160107A81
:106F90001074232BF9122F8B12EFED240C80C012EA
:106FA000EFF612F001602A7A1074242BF9122F8B5D
:106FB00012EFF6F582E812EDDF2410FCA3E012EFE9
:106FC000E4900B2EE0A42425F9122F8B12EFF6800B
:106FD0008E900373E06003122D9F122D8D79017442
:106FE0000C02F6473400FD7A0475F0062290037F08
:106FF000E0F8A3E0C82290037FE0F8A3E0C82408EB
:1070000022F582E83400F58312F00EEC4D22E0FC0C
:10701000A3E0FD2274F412192174F21218CAEAFED8
:10702000EBFFE9C3940A5004EE4F70047902803EEE
:10703000851A82851B83AC82AD837A0E75F006E9D2
:10704000A42420F9122F91E9F50A7020750C067519
:107050000D00780C121B347402121915AC82AD832A
:10706000EEFAEFFB122B6B74021218E0A90A02E78A
:10707000D074F4121921EAFEEBFF750A00750C06B4
:10708000750D00780C121B34EEFCEFFDE50A75F06F
:107090000EA4F8A9F074E728FA740239FB122B7DCC
:1070A00074021218E0E96004A90A800B050AE50AD7
:1070B000C3940A40C8790A02E7D574F712192174FB
:1070C000F01218CAEAFEEBFF750A00851A82851BCA
:1070D00083AC82AD837A1075F006E50AA42423F907
:1070E000122F91E9702C7C1079FF851A82851B8301
:1070F000AA82AB83122BE3E97018EEFCEFFD851A30
:1071000082851B83AA82AB83123165E97004A90AC8
:10711000800B050AE50AC3940A40B0790A7410127C
:1071200018E002F1C374F7121921750A00E50A7517
:10713000F00EA4F8A9F074E728FE740239FFEEFC03
:10714000EFFD7A0E75F006E50AA42420F9122F91BE
:10715000E9602C7C067D0079FFEEFAEFFB122B83B1
:107160007C067D0079FFEE2406FAEF3400FB122B3B
:1071700083EE240CF582EF3400F583E4F0A3F005F0
:107180000AE50AC3940A40A5900373E06003122D38
:107190009F122D8D802D74F71219217E007F007CA7
:1071A0000679FFEF75F00EA4FAABF074E72AFA74D3
:1071B000023BFB122BE3E970010E0FEFC3940A4070
:1071C000DEEEF97F010219F374F71219217E00EE49
:1071D000F9122D750EEEC3940A5003E960F180E3B5
:1071E00074F312192174CB1218CAE9FE900B2EE029
:1071F0006E701B7A017B009002CBE0F9122BC57AEE
:10720000027B009002CBE0F9122BC5122DAB75F07A
:1072100006EEA4FF74202FF50A7427121915AC820C
:10722000AD837A0EA90A122F91E9600302F31A7C4A
:107230000679FF7427121915AA82AB83122BE3E992
:10724000600302F31A7C0E7D0079FF742712191572
:10725000AA82AB83122B837C1B7D0079FF740C12F6
:107260001915AA82AB83122B837C0C7D0079FF85D4
:107270001A82851B83AA82AB83122B83742712196F
:1072800015AC82AD837A0EA90A122F8BE9F50A7428
:107290000C121915AC82AD837A1B74212FF9122FB1
:1072A0008BE9F50B740C121915AC82AD837A1B7443
:1072B000222FF9122F8BE9F50C740C121915AC82E0
:1072C000AD837A1074232FF9122F8BE9F50D740C0E
:1072D000121915AC82AD837A1074242FF9122F8BFA
:1072E000E9F50E740C121915AC82AD837A0474257D
:1072F0002FF9122F8BE9FF851A82851B83AC82AD93
:10730000837A0C74702EF9122F8BE9F8E50B450C7B
:10731000450D450E4F48420A8003750A00A90A74BC
:10732000351218E07F050219F374F7121921E9905C
:1073300002CBF0122D6302F1C374F4121921EAFE9C
:10734000EBFF5480700302F3D19002CBE0F9122BD3
:10735000A78A0A8B0BEA450B607078018A828B83BF
:10736000E02450603D14600624E1604F8052A3A3E6
:10737000A3A3E0704E8A828B83A3A3A3A3A3A3A39A
:10738000121B4B8A828B83A3A3A3A3A312F00E8AA2
:10739000828B83A3A312F470122D1B74021218E0C7
:1073A0008021A3A3A3A3E0641E701879008A828BB6
:1073B00083A3A312F470122D158008122D2DE9F865
:1073C000E86007AA0AAB0B122B95EEFAEF648080F7
:1073D00065EE540260237C007D007A007B00122D54
:1073E0004BE960117A017B009002CBE0F9122BBFD0
:1073F000EE6402803F7A028046EEA2E0503F12F433
:107400004412F470122DA5E9602F12F845601F1286
:10741000EC0C880A890BE8450B60137C007901129B
:10742000F44412F470850A82850B8312191F122D01
:10743000ABEE6401FAEFFB80087A0180027A007BF0
:107440000002E7D590037FE0F8A312EC24A3227F8B
:10745000020219F3C082C0839002CBE0F98A828BCA
:1074600083A312F4701233ED803B850A82850B836F
:10747000E0FAA3E0FB22C082C08374FF1218CA1294
:107480002D69E9C39402851A82851B834004740226
:107490008002740AF0AC82AD837A017905123273EE
:1074A00074011218E0D083D08202102B74F21219EA
:1074B0002174E81218CAEAFEEBFF890C8C0A8D0BC6
:1074C0007C187D007900851A82851B83AA82AB8394
:1074D000122B83851A82851B83EEF0A3EFF09002B6
:1074E000CDE0C0E07402121915D0E0F09002CEE0B9
:1074F000C0E07403121915D0E0F0900B2DE0C0E04D
:107500007417121915D0E0F07415121915E054FE15
:10751000F8A3E0F9900B2CE0A2E0E433FAE84AF893
:10752000741512191512F656A2E15004D2F0800219
:10753000C2F0E854FDFAA2F0E43333F8EA48F874F4
:107540001512191512F656A2E35004D2F08002C2A9
:10755000F0E854F7FAA2F0E433F50E750F00740367
:10756000780E1218B712F64F12191512F656A2E439
:107570005004D2F08002C2F0E854EFFAA2F0E433F3
:10758000F50E7404780E1218B712F64F1219151270
:10759000F656A2E55004D2F08002C2F0E854DFFAB9
:1075A000A2F0E433F50E7405780E1218B712F64FF8
:1075B00012191512F656A2E25004D2F08002C2F05F
:1075C000E854FBFAA2F0E433F50E7402780E1218B8
:1075D000B712F64F121915E8F0A3E9F09002CEE0C9
:1075E000601D750E10780E121B347CCF7D02740660
:1075F000121915AA82AB83122B6B74021218E09039
:1076000002DFE06011E50C60097415121915E04401
:1076100002F07801800278007414121915E048F025
:107620009002CCE06004780480027800741412198F
:1076300015E048F0AC0AAD0B851A82851B83AA823F
:10764000AB8312318974181218E07F060219F3EA2D
:10765000450EF8741522E8F0A3E9F0900B2CE02217
:1076600074F312192174E51218CAEAFEEBFF8C0BB1
:107670008D0C7428121915E0F50E75F006E9A4F8C2
:107680007408650C700474228002742128F50D7C46
:107690001B7D007900851A82851B83AA82AB831229
:1076A0002B83851A82851B83AC82AD837A1BA90D3F
:1076B000122F91E97032741A121915E024F9C3944B
:1076C0000A5025E50EF50D780D121B3874011219BC
:1076D00015AC82AD83E50BA2E0E433F9EEFAEFFBE3
:1076E00012319B74011218E0741B02F32174F7121B
:1076F0001921123465750A00E50A75F00EA4F8A97F
:10770000F074E728FE740239FF7C0679FFEEFAEF89
:10771000FB122BE3E97009EEFAEFFB790012346BF0
:10772000050AE50AC3940A40CF02F1C374F61219A0
:107730002174FD1218CAEAFEEBFF90038112F8488B
:107740007039750A83750B03780A121B34750A02A7
:10775000750B00780A121B34750A0B750B83780AB7
:10776000121B347CFF7DFF7A017B001232B5740658
:107770001218E0900381EAF0A3EBF090038112F875
:1077800048700302F82FE4F50AF50B780A121B344F
:10779000740412191585820A85830B780A121B342A
:1077A000740412191585820A85830B780A121B341A
:1077B000900383121B4B790290038112F83D123320
:1077C000DB74081218E0E97034851A82851B83E0A7
:1077D000FA7401121915E0F9EA2400F50AE439F502
:1077E0000BEA450B6017780A121B3490038112F4E0
:1077F00047A312F83D122D1B74021218E0E4F50A9B
:10780000F50B780A121B34900383121B4B7CFF7D0F
:10781000FF90038112F4701232C174041218E090C8
:107820000381EAF0A3EBF090038112F84870047929
:10783000018002790074031218E002F44F12F00E76
:10784000EEFAEFFB229002E5E0F8A3E0F9E8492226
:10785000C082C08390037F12F848601090037F12AB
:10786000F470122B9590037FE4F0A3F0900B2E742C
:107870000AF002F4A5C082C083790102FC19C0821B
:10788000C083790202FC1974F51219218A0A8B0B44
:10789000ECFEEDFFEE4F6005EA450B700579020244
:1078A000F9408E828F83E912FC918A828B8312F9D0
:1078B000468A828B8312F945EA2402FAEB3400FBF4
:1078C0001239B1E912F947850A82850B83A3A3A374
:1078D00012F94512FAFA88828983E054086004D2CA
:1078E000F08002C2F0A2F012F951541060047A0242
:1078F00080027A008E828F83E04A12F9575420600A
:10790000047A0480027A008E828F83E04A12F94B57
:1079100088828983E0A2E012F951540260047A025D
:1079200080027A008E828F83E04A12F957540460F5
:10793000047804800278008E828F83E048F079001A
:107940007F030219F3A3E08E828F83F0A30EAF832F
:1079500022E4338E828F83F088828983E02274ED63
:10796000121921EAFEEBFF8C0A8D0BEE4F6005EC3D
:10797000450B7005790202FAF58E828F83A3AE82E1
:10798000AF83E08C828D8312FB058C828D83A3856F
:10799000820C85830D8E828F83E0850C82850D831A
:1079A00012FB05E0F9EC2402FAED3400FB1239B7C2
:1079B0008E828F83A30EAF83E50A2404F50EE50BB8
:1079C0003400F50FE0850E82850F83F08E828F8361
:1079D000A3E0F514A30E0EAF83A2E0E433F5107517
:1079E0001100E514A2E15004D2F08002C2F0A2F02E
:1079F000E433F512751300E514A2E25004D2F080CE
:107A000002C2F012FAFAE8FAE9FB8A828B83E054A8
:107A1000F7FCA3E0FD740378101218B7EC4510547E
:107A2000EFFC740478121218B7EC451254DFFCA274
:107A3000F0E433F510740578101218B7EC4510FC1B
:107A40008A828B83F0A3EDF08E828F83E0F514A2FF
:107A5000E0E433FEE514A2E15004D2F08002C2F06B
:107A6000A2F0E433F8E514A2E25004D2F08002C29E
:107A7000F0EC54FE4E54FDFCE8C333F8EC48F8ED4E
:107A8000F9E8543BFCA2F0E433F5107402781012CC
:107A900018B7EC45108A828B83F0A3E9F07A217B3A
:107AA000001230FF8A108B11A810A911850E828553
:107AB0000F83E0C398E499401A7A227B001230FFCA
:107AC0008A10850E82850F83E0FAC3E5109AEB9445
:107AD0000050047912801E850A82850B83E0C394CE
:107AE00005500C850C82850D83E0C3940240047917
:107AF00018800279007F0B0219F3E50A2405F8E5E6
:107B00000B3400F922F08E828F83A30EAF83227490
:107B1000F6121921ECFEEDFFEE4F6004EA4B700403
:107B20007902801E8E828F83740312FC85121B34AF
:107B3000EAFCEBFDEEFAEFFB122B6B74021218E07D
:107B4000790002FD6E74F6121921ECFEEDFFEA4B8E
:107B50006004EE4F700479028022750A10750B00E4
:107B6000780A121B348A828B83A3AC82AD83EEFA2F
:107B7000EFFB122B6B74021218E0790002FD6E7499
:107B8000F6121921ECFEEDFFEE4F6004EA4B700493
:107B90007902801E8E828F83740412FC85121B343E
:107BA000EAFCEBFDEEFAEFFB122B6B74021218E00D
:107BB000790002FD6E74F6121921ECFEEDFFEA4B1E
:107BC0006004EE4F700479028022750A10750B0074
:107BD000780A121B348A828B83A3AC82AD83EEFABF
:107BE000EFFB122B6B74021218E0790002FD6EC0DD
:107BF00082C083EC4D6004EA4B7004790280188CDB
:107C0000828D837405F0A3AC82AD838A828B83E07E
:107C10008C828D83F079008003123AB9D083D082B0
:107C200002102BC082C083EA4B6004EC4D700479D3
:107C300002801A8A828B83A3E0F88C828D83F0C342
:107C4000940A5003E8700479188002790080CD749A
:107C5000F6121921ECFEEDFFEE4F6004EA4B7004C2
:107C60007902801E8E828F83740612FC85121B346B
:107C7000EAFCEBFDEEFAEFFB122B6B74021218E03C
:107C8000790002FD6E12FC91750A10750B00780ADE
:107C900022F0A3AE82AF832274F6121921ECFEED1E
:107CA000FFEA4B6004EE4F700479028022750A10DF
:107CB000750B00780A121B348A828B83A3AC82ADC9
:107CC00083EEFAEFFB122B6B74021218E0790002BC
:107CD000FD6E74F6121921EAFEEBFFECFAEDFBEAF9
:107CE0004B6004EE4F70047902802E8A828B83747D
:107CF0000712FDEA8E828F83A312FDF8750A0875BC
:107D00000B00780A121B34EE2402FCEF3400FD1243
:107D10002B6B74021218E07900805374F61219214B
:107D2000ECFEEDFFEA4B6004EE4F70047902803EFA
:107D30008A828B83A3AA82AB83E0FCA3E0F8E4C829
:107D4000F9EC8E828F83F0A3E9F0750A08880B782E
:107D50000A121B34EA2402FCEB3400FDEE2402FA82
:107D6000EF3400FB122B6B74021218E079007F02D3
:107D70000219F374F6121921ECFEEDFFEE4F6004C8
:107D8000EA4B70047902801E8E828F83740812FC85
:107D900085121B34EAFCEBFDEEFAEFFB122B6B7441
:107DA000021218E0790080C674F6121921EAFEEB7F
:107DB000FFECFAEDFBEA4B6004EE4F7004790280B1
:107DC000278A828B83740912FDEA750A06750B00F7
:107DD000780A121B348E828F83A3AC82AD83122B60
:107DE0006B74021218E079008084F0A3AA82AB833E
:107DF0008E828F8312FDF822E08A828B83F0A30AA1
:107E0000AB832274F6121921ECFEEDFFEA4B6004FD
:107E1000EE4F700479028022750A10750B00780A03
:107E2000121B348A828B83A3AC82AD83EEFAEFFB04
:107E3000122B6B74021218E0790002FD6E74F612B8
:107E40001921ECFEEDFFEA4B6004EE4F700479025D
:107E500080398A828B83A3AA82AB83E08E828F8350
:107E6000F08A828B83A30AAB83750A06750B0078B0
:107E70000A121B34EAFCEBFD8E828F83A3AA82AB2D
:107E800083122B6B74021218E0790002FD6E74F6F7
:107E9000121921ECFEEDFFEE4F6004EA4B700479FD
:107EA00002801E8E828F83740A12FC85121B34EAB4
:107EB000FCEBFDEEFAEFFB122B6B74021218E0796B
:107EC0000002FD6E74F6121921ECFEEDFFEA4B6024
:107ED00004EE4F700479028022750A10750B007849
:107EE0000A121B348A828B83A3AC82AD83EEFAEF35
:107EF000FB122B6B74021218E0790002FD6E74F70E
:107F0000121921ECFEEDFFEE4F6004EA4B7004798C
:107F10000280148E828F83740B12FC911239B1E9A6
:107F20008E828F83F079007F010219F3C082C083B3
:107F3000EA4B6004EC4D7004790280108A828B83D6
:107F4000A3E0F9ECFAEDFB1239B7790002FC1C74DE
:107F5000F312192174FA1218CA8A0A8B0B890EECD3
:107F6000FEEDFF7413121915E0F8A3E0F9880C89EF
:107F70000D851A82851B837406F0A3E4F0850E82BA
:107F8000AA82FB7404121915EAF0A3E4F01235AFCB
:107F90007402121915EAF0A3EBF07402121915E03D
:107FA000FCA3E0FDEC4D6036EEFAEFFB850C82851C
:107FB0000D8312191FE9FE7013851A82851B83AC8D
:107FC00082AD83AA0AAB0B123507E9FEEE6011748D
:107FD00002121915E0FAA3E0FB122F1980027E139A
:107FE000123987EEF974061218E07F050219F3744E
:107FF00003F5D575D4C77403F5D375D2CF02102B12
:108000006F30E5327B30EB328730F1329330F7322C
:108010009F30FD32B130FD32BD3003339330093330
:10802000AB300F3300000000CF300F33DB3015339F
:108030000000000000000000000000000000000040
:108040000000000000000000000000000000000030
:1080500000000000000000B000405104C1FF00F02B
:1080600000000000000000B000405104C2FF00F01A
:1080700048554F574549594920546563686E6F6CA0
:108080006F677920436F2E2C204C74642E00010101
:1080900002010201010201020303040103010101C3
:1080A00001010303020103FD35172E3D3B312F254E
:1080B0003555324533A13ABB2F812D6F33892E00C0
:1080C00000000000000000000000000000000000B0
:1080D00000000000000000000000000000000000A0
:1080E00000000000000000000048554F5745495966
:1080F0004941000000000000000000000000618411
:108100005DDC0A824A90C74C1B31A7173115462304
:1081100008E5A7AA59BC5C4D77183B8E3D010000CD
:108120000000000000000000000000000000AF7030
:1081300050C2B4D5D4ACE242475E91BDE0340000F9
:1081400000000000000000000000000000870000A8
:108150000000000000000000000000000000B6FE6B
:10816000AA883FB4A0BBC14FE199790D4920F40121
:10817000FA00960064004B0032001E001400FB342D
:108180009B5F8000008000100000000000007C6801
:10819000F0A6187716B4A04CB7FC2C6FE16E378BA5
:1081A000AEB5271EEAA29D4935A06D7B5651566893
:1081B0001F6758DB43AEA54A67D72091284E0000C1
:1081C0000000000000B000405104C0FF00F0FE00BD
:1081D0006578706572696D656E74616C496D672054
:1081E0004964656E7469667900496D6720426C6FF9
:1081F000636B000C00000000001B7869E0AB50C30B
:10820000F0D2302E302E3932310000000000000054
:10821000000000000000000000000000000000005E
:108220000000000000D92CDF2C00000000D5330036
:10823000006078B6A0941585328B320000C92DCF2E
:108240002D0000F12FF72F0000DD2EE32E0000F7A8
:108250002C00000000312E342E30009D2CA32C0069
:10826000004141303100005C260558020000F40155
:108270000000FFFFFFFF30750000983A0000302E2D
:10828000310080EE36003200000000001000DC05F6
:1082900000000000203FAA00000064000000419C94
:1082A0000000430000000100FF000000FF007D000F
:1082B00000000000C84260EA00000100000000FF6A
:1082C000FFFF88130000E8030000B80700004042E9
:1082D0000F0031B1E1FFC8000000E7FFFFFF020718
:1082E00083023B83100E81020983022B83021D83CC
:1082F000021B8302198302458310BE81023F830162
:1083000029032801280028011800180229192A0029
:108310002A502A2A2A012A282A0318021804180691
:108320002A072A022A032A042A272AE0FFE1FF0556
:108330002A262A252A242A0829232A0F1800000A77
:1083400018292AC3CCC0CCC2CCC1CC300074F412E2
:108350001921907803E0644270559007BCE014F056
:10836000704DC2AF12836700782AD0E0F618D0E0D3
:10837000F6E59F54077005750BFF8003750B7FC4EE
:10838000C0E07829E6F50A08E6550BF50B740B7882
:108390000A1218A8D0E0250AF8906270E0A2E7401F
:1083A000F8E8C333906272F0906270E0D2E0F0902F
:1083B0000648E0F47003028747E0F875F003A4C8AC
:1083C000AAF02AF9744A28FE740639FFEE2401F552
:1083D00082EF3401F583E0F8A3E0F9E849601EEE8E
:1083E0002401F582EF3401F583E0FAA3E0FBEE24EB
:1083F00000F582EF3401F583E0F9122BBF8E828FF6
:1084000083A3A3A3A3A3A3A3E0F8A3E0F98E828F81
:1084100083A3A3A3A3A3E8F0A3E9F0906054E090A2
:108420000621F0906055E0900622F0906056E090B2
:108430000623F0906057E0900624F0906058E0909A
:108440000625F0906059E0900626F090605AE09082
:108450000627F090605BE0900628F090605CE0FCFE
:10846000900629F090605DE0FB90062AF090605E37
:10847000E0FD90062BF090605FE0FA90062CF09003
:108480000627E08C0A250AF8E43400F98D0AE8256D
:108490000AF8E93400F98B0AE8250AF8E93400F90A
:1084A0008A0AE8250AFAE93400FBEE24F6F582EFA1
:1084B0003400F583E02AF0A3E03BF08C0AEE24F8C8
:1084C000F582EF3400F583E0250AF0A3E03400F0F4
:1084D000EE24FAF582EF3400F583E02401F0A3E006
:1084E0003400F0EE24FEF582EF3400F583E0F8A3CB
:1084F000E0F9E8496042906000E0C333FCE433FDFA
:10850000E82CF582E93DF583E02AF0A3E03BF0900A
:108510006000E0FA900629E0FCEAC333FAE433FB9A
:10852000E82AF8E93BF9E8244AF582E93400F583C2
:10853000E02CF0A3E03400F0900627E070119006E4
:108540002AE0700BA3E07007A3E070030286448E5C
:10855000828F83A3A3A3A3A3E0F8A3E0F9EE240DE5
:10856000F582EF3400F583E028F8A3E039F9EE2432
:108570000BF582EF3400F583E8F0A3E9F0EE240F69
:10858000F582EF3400F583E4F0EE241CF582EF343D
:1085900000F583E06401701EEE2420F582EF3400C4
:1085A000F583E0F8A3E0F9EE241DF582EF3400F541
:1085B00083E8F0A3E9F0900622E06052EE241CF577
:1085C00082EF3400F5837401F0EE2469F582EF3414
:1085D00000F583E07038EE2473F582EF3400F58304
:1085E000E0702BEE247FF582EF3400F583E0701EFF
:1085F000EE2420F582EF3400F583E0F8A3E0F9EEF5
:10860000241DF582EF3400F583E8F0A3E9F09060D3
:1086100062E070030286F78E828F83E0F8A3E0F9B0
:10862000E82406FCE93400FDE82402FAE93400FB02
:108630001238978E828F83E0F8A3E0C82412F58267
:10864000E80286FD900629E0603AEE240FF582EFFD
:108650003400F583E4F0EE241CF582EF3400F5835A
:10866000E064017040EE2420F582EF3400F583E0F1
:10867000F8A3E0F9EE241DF582EF3400F583E8F06D
:10868000A3E98020EE24FCF582EF3400F583E0249A
:1086900001F0A3E03400F0EE241DF582EF3400F584
:1086A00083E4F0A3F0EE240BF582EF3400F583E0D1
:1086B000F8A3E0F98E828F83A3A3A3A3A3E068703D
:1086C00003A3E06960030285B6EE240FF582EF3460
:1086D00000F583E060128E828F83A3A3A3A3A3E09F
:1086E00064057002A3E0600479088002793EEEFA26
:1086F000EFFB1237658050EE241DF582EF3400F554
:1087000083E4F0A3F09061C8E06006121FA3E97053
:10871000F48E828F83A3A3A3E0602C9061C8E070E5
:10872000069060607480F0EEFAEFFB123855E96451
:108730000160147902EEFAEFFB122150123849E978
:10874000640160031237F57F040219F353BFEF028F
:10875000102B74EC121921900648E0F875F003A470
:10876000C8AAF02AF9744A28FE740639FF9061D02D
:10877000E07013EE2463F582EF3400F583E0F8A394
:10878000E0F9E849600FEE241DF582EF3400F5832F
:10879000E4F0A38053EE2469F582EF3400F583E022
:1087A0007047EE2473F582EF3400F583E0703AEE03
:1087B000247FF582EF3400F583E0702DEE241CF564
:1087C00082EF3400F583E06401701EEE2420F58210
:1087D000EF3400F583E0F8A3E0F9EE241DF582EF15
:1087E0003400F583E8F0A3E9F08E828F83A3A3A37E
:1087F000A3A3E0F8A3E0F9EE241DF582EF3400F521
:1088000083E028F8A3E039F9E8240108E93400F905
:10881000EE2407F50CEF3400F50D850C82F583E8A6
:10882000F0A3E9F0EE240BF582EF3400F583C3E00A
:1088300098A3E09950358E828F83A3A3A3A3A3A30B
:10884000A3C082C083EE240BF582EF3400F583E0F1
:10885000F8A3E0F9D083D082E0C398F8A3E099F9B7
:10886000C3E894AAE994105035803BEE240BF582BE
:10887000EF3400F583C082C0838E828F83A3A3A3CD
:10888000A3A3A3A3E0F8A3E0F9D083D082E0C39828
:10889000F8A3E099F9C3E894ABE994105008900765
:1088A0005FE064017030EE241DF582EF3400F58343
:1088B000E4F0A3F08E828F83A3A3A3A3A3E02401FB
:1088C000F8A3E03400F98E828F83A3A3A3A3A3A30C
:1088D000A3E8F0A3E9F0EE2473F582EF3400F5830A
:1088E000E064016003028B4DEE2474F582EF3400E6
:1088F000F583121B4B8E828F83A3A3A3A3A3A3A3F1
:10890000E0FCA3E0FD8E828F83A3A3A3A3A3E0FAE0
:10891000A3E0FB121F5C74021218E0E97003028BE3
:108920004DEE2474F8EF3400F9880A890B8882F53B
:1089300083E0F8A3E0F9850C82850D83E8F0A3E9D4
:10894000F0EE2476FCEF3400FDEEFAEFFB12377107
:10895000EE247BF582EF3400F583E0F8A3E0F9EE36
:108960002420F582EF3400F583E8F0A3E9F0EE244B
:108970001CF582EF3400F583E4F0EE241DF582EF60
:108980003400F583E4F0A3F0EE240FF582EF340019
:10899000F5837401F0850C82850D83E0F8A3E0F97E
:1089A000EE240DF582EF3400F583E028F8A3E039DA
:1089B000F9EE240BF582EF3400F583E8F0A3E9F03B
:1089C0008E828F83A3A3A3A3A3E0FCA3E0FD850A6B
:1089D00082850B83E0FAA3E0FB121F9B8A0A8B0BB4
:1089E000EE242EF582EF3400F583E0FAA3E0FBE4F9
:1089F000F50CF50D8A0E8B0FF510F511780A790E2E
:108A0000121545EE2477F582EF3400F583E0F50E7C
:108A1000A3E0F50F780A790E121700EE2479F5829B
:108A2000EF3400F583E06A7003A3E06B7044EE243A
:108A30007DF582EF3400F583E0F8A3E0F9EE24320F
:108A4000F582EF3400F583E0687003A3E0697022DB
:108A5000EE247BF582EF3400F583E0F8A3E0F9EE35
:108A60002430F582EF3400F583E0687003A3E069F9
:108A70006052EE247DF582EF3400F583E0F50EA31D
:108A8000E0F50F7404780E1218A8780E121B34EE5D
:108A9000247BF582EF3400F583121B4BEE2479F52D
:108AA00082EF3400F583E0FCA3E0C313FDEC13FC7C
:108AB0008E828F83A3A3A3A3E0FA7B001234E37416
:108AC000041218E0EE2476F582EF3400F583E0C05E
:108AD000E0EE242BF582EF3400F583D0E0F0EE24B5
:108AE00079F582EF3400F583E0F8A3E0F9EE242E67
:108AF000F582EF3400F583E8F0A3E9F0EE247BF58E
:108B000082EF3400F583E0F8A3E0F9EE2430F5823B
:108B1000EF3400F583E8F0A3E9F0EE247DF582EF71
:108B20003400F583E0F8A3E0F9EE2432F582EF3467
:108B300000F583E8F0A3E9F0EEFAEFFB123777EEE9
:108B40002473F582EF3400F583E4F08016EE242ED2
:108B5000F582EF3400F583E0F50AA3E0F50BE4F5C8
:108B60000CF50DEE2418F582EF3400F583780A1227
:108B70001043701EEE241FF582EF3400F583E0F8F9
:108B8000EE241DF582EF3400F583E0687002A3E067
:108B90006039EE2412F50EEF3400F50F780E121B3B
:108BA00034EE2410F582EF3400F583121B4BEE24D3
:108BB0001DF582EF3400F583121B4BAA0AAB0BACF8
:108BC0000CAD0D122A9874061218E0EE2418F582E6
:108BD000EF3400F583780A1217A9EE241DF582EF11
:108BE0003400F583E0C0E0EE241FF582EF3400F599
:108BF00083D0E0F0EE2412FCEF3400FD8E828F83F0
:108C0000E02402FAA3E03400FB1229D3906062E072
:108C100060147CF47D818E828F83E02402FAA3E0CD
:108C20003400FB1229D38E828F83E0F8A3E0F98809
:108C3000828983A3A3E82408FCE93400FD740612AA
:108C400017DD8E828F83E02402F8A3E03400F9E878
:108C5000FAE9FBEE241DF582EF3400F583E0F5120E
:108C6000A3E0F513E4F514F515750E01F50FF510F5
:108C7000F5117812790E1217007812790A1215453B
:108C80008A828B8378121217268A828B83750EFF55
:108C9000750FFF7510FF780E121787900759E06463
:108CA000016003028DDA79011238DF8E828F83E052
:108CB000FAA3E0FB750AFF750BFF750CFF750DFF3E
:108CC000EA240EF582EB3400F583780A1217A9EA3C
:108CD0002412F8EB3400F9E8FAE9FBEE2412F582ED
:108CE000EF3400F583780A12179AE50A75F0E2A4CA
:108CF000C50AA8F075F004A428F875F0E2E50BA405
:108D000028F50B8A828B83E0250AF0A3E0350BF06F
:108D1000EE2416F582EF3400F583E0F50AA3E0F5C2
:108D20000B7404780A1218A8E50A2401F8E50B343C
:108D300000F98A828B83E028F0A3E039F09060622A
:108D4000E08E828F837003028E4EE0F8A3E0C82489
:108D500012F582E83400F583E02410F0A3E034013A
:108D6000F0EE240FF582EF3400F583E06032EE245C
:108D70002BF582EF3400F583E0F875F071A4C8AAF2
:108D8000F075F002A42AF98E828F83E0FAA3E0CA7C
:108D90002412F582EA3400F583E028F0A3E039F0EC
:108DA0008E828F83E0F8A3E0C82414F582E83400B3
:108DB000F5837410F08E828F83E0F8A3E0C8241648
:108DC000F582E83400F58374F9F0A37436F0EEFA16
:108DD000EFFB121DDC79000293A1750E50750F0098
:108DE000751000780E790A1210584003028CABEE11
:108DF000241DF582EF3400F583E0F8A3E0F9E8499B
:108E00006003028CAB780A121B30EEFAEFFB1237CC
:108E10007D74041218E0E964016003028CABEE2457
:108E20000FF582EF3400F583E060128E828F83A30A
:108E3000A3A3A3A3E064057002A3E0600479088003
:108E400002793EEEFAEFFB12376579018089E0F88E
:108E5000A3E0C82412F582E83400F583E02410F87A
:108E6000A3E034FFF97A717B0212183F880A890B5C
:108E7000EE242EF582EF3400F583E0F8A3E0F9C389
:108E8000E50A98E50B995003028D6180B074EC12ED
:108E90001921EAFEEBFF8C828D83E0F8A385820A1C
:108EA00085830B603B14700302907514700302936A
:108EB0006A1470030290F124FD700302920A147088
:108EC000030293A114700302926124FE70030292C4
:108ED0000F1470030292511470030292ED029390EA
:108EE000EE2476F512EF3400F513E0851282851337
:108EF00083F0850A82850B83A385820A85830BEE26
:108F00002477F510EF3400F5117902AC0AAD0BAA05
:108F100010FB12378F8A0A8B0BEE2479F50EEF3493
:108F200000F50F7902AC0AAD0BAA0EFB12378F8A3F
:108F30000A8B0B7902AC0AAD0BEE247BFAEF3400FE
:108F4000FB12378F8A0A8B0BEE247DF50CEF340071
:108F5000F50D7902AC0AAD0BAA0CFB12378F8A0A09
:108F60008B0B851282851383E0C333F085108285D5
:108F70001183E0F8A3E0F9E8C333F8E933F9851089
:108F800082851183E8F0A3E9F0850E82850F83E0E6
:108F9000F8A3E0F9E8C333F8E933F9850E82850FC9
:108FA00083E8F0A3E9F0850C82850D83E0F50EA33C
:108FB000E0F50F7404780E1218B7850C82850D83C6
:108FC000E50EF0A3E50FF0EE2474F50CEF3400F598
:108FD0000D7902AC0AAD0BAA0CFB12378F850C82FF
:108FE000850D83C082C0838E828F83A3A3A3A3A396
:108FF000E0F8A3E0F9D083D082E0C398F8A3E09929
:10900000F9C3E894FFE9947F40030290CBEE247DFE
:10901000F582EF3400F583E0F50AA3E0F50BE4F503
:109020000CF50DEE247BF582EF3400F583E024018E
:10903000F50EA3E03400F50FE4F510F511EE2479F8
:10904000F582EF3400F583E0F8A3E0F9E8C333F8E4
:10905000E933F988128913E4F514F515780E7912BD
:10906000121545780A790E1210584004793B805D3C
:10907000EE24738062EE2480F50CEF3400F50D745D
:1090800002C0E07905AC0AAD0B7A547B0712378F2A
:10909000EAFCEBFDD0E0F9AA0CAB0D12378F850C82
:1090A00082850D83C082C0838E828F83A3A3A3A3F6
:1090B000A3E0F8A3E0F9D083D082E0C398F8A3E05E
:1090C00099F9C3E894FFE9947F40097928EEFAEF13
:1090D000FB02938BEE247FF582EF3400F58374015D
:1090E000F0EE241DF582EF3400F583E4F0A3029244
:1090F0005DEE24E1F582EF3400F583E07039EEF89F
:10910000EFF97A2D7B068A828B83A3E0C0E0E82406
:10911000E2F582E93400F583D0E0F08A828B83A304
:10912000AA82AB8388828983A3A882A983EA643553
:109130007003EB640670CFEE24E2F582EF3400F5A5
:1091400083E0A2E0EE401124DDF582EF3400F583E8
:10915000741AF0790D0293642462F582EF3400F5FD
:1091600083E4F0EE2467F582EF3400F583E4F0EE5B
:1091700024E0F582EF3400F5837401F07908AC0A3D
:10918000AD0BEE249BFAEF3400FB12378F8A0A8B6B
:109190000B7902AC0AAD0BEE24A3FAEF3400FB12FC
:1091A000378F8A0A8B0BEE2493F50CEF3400F50D04
:1091B0007908AC0AAD0BAA0CFB12378F8A0A8B0B0D
:1091C0007908AA0CAB0D123795EE2487F50CEF3415
:1091D00000F50D7904AC0AAD0BAA0CFB12378F79A0
:1091E00004AA0CAB0D123795EE248BFAEF3400FB7A
:1091F0001237A7EE2483FAEF3400FB1237AD900646
:109200001CE04480F07904029364EE24DE8045EE95
:109210002462F582EF3400F583E4F0EE2467F582F2
:10922000EF3400F583E4F0EE24D2F582EF3400F55C
:1092300083E4F0EE24DCF582EF3400F5837401F072
:10924000EE24D3F582EF3400F583E4F0790B02933A
:109250009EEE24DFF582EF3400F5837401F0029373
:10926000A1EEF8EFF97A2D7B068A828B83A3E0C00A
:10927000E0E824E2F582E93400F583D0E0F08A8268
:109280008B83A3AA82AB8388828983A3A882A983C4
:10929000EA64357003EB640670CFEEF8EFF97A2DCF
:1092A0007B068A828B83A3E0FC850A82850B83E0A0
:1092B0005CC0E0E824E2F582E93400F583D0E0F018
:1092C000850A82850B83A385820A85830B8A828B1C
:1092D00083A3AA82AB8388828983A3A882A983EA15
:1092E00064357003EB640670B979098077EE24EA7F
:1092F000F582EF3400F583E06401700302939085FA
:109300000A82850B83E0C0E0EE24EDF582EF3400A5
:10931000F583D0E0F0850A82850B83A385820A85D8
:10932000830B7402C0E0F9AC0AAD0BEE24EEFAEF49
:109330003400FB12378FEAFCEBFDD0E0F9EE24F0AD
:10934000FAEF3400FB12378FEE24EAF582EF340097
:10935000F5837401F0EE24ECF582EF3400F583E040
:10936000703F790CEEFAEFFB8034EE24F4F8EF3422
:1093700000F9E088828983F0EE24F3F582EF34006F
:10938000F5837401F088828983E0F91237658011D2
:10939000EE24F5F582EF3400F583E8F07907123713
:1093A000357F0C0219F374F6121921EAFEEBFF0265
:1093B00095ECEEFAEFFB123729029838EE2469F5A6
:1093C00082EF3400F583E06401703E900624E07083
:1093D000030296C8EEFAEFFB12373BEE24A3F50A20
:1093E000EF3400F50B780A121B34EE249BFCEF34AB
:1093F00000FD8E828F83A3A3A3A3E0FA7B00123427
:10940000EF74021218E00295ECEEFAEFFB1236FF51
:10941000029838EE2469F582EF3400F583E06401A8
:109420007055900624E06031EE2482F582EF34001E
:10943000F5837401F0EE24D4F582EF3400F583E473
:10944000F0A3F0A3F0A3F0EE24D8F582EF3400F5FA
:1094500083E4F0A3F0A3F0A3F0EE24DEF582EF3472
:1094600000F583E0640160030296C87906EEFAEF26
:10947000FB1237410295ECEE24D2F582EF3400F571
:1094800083E06401702AEEFAEFFB123705E964010C
:109490006003029855EE24DEF582EF3400F583E494
:1094A000F0EE2469F582EF3400F5837401029843ED
:1094B000EE24D3F582EF3400F583E0700302985573
:1094C000EE24B2F50AEF3400F50B780A121B34EEE5
:1094D000248BFCEF3400FDEE24C2FAEF3400FB12C3
:1094E00037B374021218E0EE24D2F582EF3400F59F
:1094F0008374010295B4EE2469F582EF3400F5839C
:10950000E0640160030295B7900624E070030296C0
:10951000C8EE2420F582EF3400F583E0F8A3E0F9EB
:10952000EE241DF582EF3400F583E8F0A3E9F0EEB8
:10953000FAEFFB12373BEE2462F582EF3400F5833D
:109540007401F0EE2467F582EF3400F5837401F0C6
:10955000EE24DCF582EF3400F583E06401701379CA
:10956000008E828F83A3A3A3A3E0FA7B001234FBB7
:1095700080137C0179008E828F83A3A3A3A3E0FADA
:109580007B001234F5EE24DCF582EF3400F583E441
:10959000F0EE24E0F582EF3400F583E4F0EE24DF12
:1095A000F582EF3400F583E4F0EE24DEF582EF344B
:1095B00000F583E4F08035EEFAEFFB12370B0298EA
:1095C00038EE2469F582EF3400F583E0640160032E
:1095D000029657EE24DFF582EF3400F583E0640154
:1095E00060030296C8EEFAEFFB12373BEE246EF5ED
:1095F00082EF3400F583E07003029855EE246AF59B
:1096000082EF3400F583E024FE602F24FE70030215
:1096100093BC1470030294131470030294F6147034
:109620000302984624FE70030296FA24FE60921408
:10963000700302974714604C80B2EE2469F582EF04
:109640003400F583E0640160030293B2900623E0E6
:1096500060767916029819EEFAEFFB123711E96479
:10966000016003029855EE24DFF582EF3400F583A4
:10967000E4F0EE2482F582EF3400F583E4F0EE248A
:10968000690294EAEE2469F582EF3400F583E06420
:1096900001705D900624E06026EE2482F582EF34AE
:1096A00000F583E4F0EE2462F582EF3400F5837474
:1096B00001F0EE2467F582EF3400F5837401F09039
:1096C0000623E060030295E5EE2471F8EF3400F91B
:1096D00088828983E024FFF0A3E034FFF088828948
:1096E00083E0F8A3E0F9E84960030298550298176F
:1096F000EEFAEFFB123717029838EE2469F582EF85
:109700003400F583E064017034900624E060B9EE23
:1097100024E1F582EF3400F5837401F0EE2420F5A6
:1097200082EF3400F583E0F8A3E0F9EE241DF58222
:10973000EF3400F583E8F0A3E9F00295E5EEFAEFE7
:10974000FB12371D029838EE2469F582EF3400F5DC
:1097500083E064016003029824EE24EAF582EF348A
:1097600000F583E064017051EE24EBF582EF3400E4
:10977000F583E0640160030295E5EE24F0F582EFE5
:109780003400F583121B4BEE24EEF582EF3400F526
:1097900083121B4BEE24EDF582EF3400F583E0FCE1
:1097A0008E828F83A3A3A3A3E0FA7B0079001234F7
:1097B000E974041218E00295E5EE2471F8EF340024
:1097C000F988828983E024FFF0A3E034FFF08882E7
:1097D0008983E0F8A3E0F9E849707AEE24F0F58295
:1097E000EF3400F583121B4BEE24EEF582EF3400CC
:1097F000F583121B4BEE24EDF582EF3400F583E088
:10980000FC8E828F83A3A3A3A3E0FA7B00792212AC
:1098100034E974041218E07922EEFAEFFB1237658E
:1098200079018033EE24ECF582EF3400F583740186
:10983000F0EEFAEFFB123723EE2469F582EF3400E5
:10984000F583E9F0800FEEFAEFFB12372FE96401A0
:1098500070030295E579007F020219F3C082C0838C
:109860009007EFE4F09007EE74FFF0900807E4F043
:1098700090080674FFF09007EBF09007EAE4F09090
:1098800007E9F09007ECF0A3F002A82874E8121999
:109890002174FE1218CA9007ECE0F516A3E0F51744
:1098A000E516451770061236B7029F5B851682854E
:1098B0001783E014601814601524FE601124C4702E
:1098C00003029B3324C07003029B33029F5BE0F9C9
:1098D0001238018A0A8B0BAE0AAF0B900647E07074
:1098E00003029A66123759E9F875F003A4C8AAF082
:1098F0002AF9744A28F8740639F9851A82851B8377
:10990000E8F0A3E9F0851A82851B83E0F8A3E0F56F
:10991000838882E0F518A3E0F519EE4F7003029AF0
:109920004012389D8A0A8B0B8C0C8D0D750E0175BB
:109930000F00751000751100780A790E1217007566
:109940000EFF750FFF7510FF780A790E12176175FB
:10995000121A751300751400751500780A121B3061
:10996000851882851983A3A31217B8122964740479
:109970001218E08A0E8B0F8C108D117812790E124E
:1099800010585003029A40851882851983A3A37545
:109990000EE7750FFF7510FF7511FF780E12171384
:1099A000780E121B308E828F83A3A31217B8122950
:1099B0000B74041218E0E96003029A40750E0775F3
:1099C0000F00751000751100780A790E12170078D3
:1099D0000A121B308E828F83A3A31217B812290B91
:1099E00074041218E0E97053750A008E828F83E0C8
:1099F00064016003029F5BEE65167003EF651760FC
:109A0000031236D5E50A703012389D8A0A8B0B8C0A
:109A10000C8D0D750E03780A790E121700750EFF66
:109A2000750FFF7510FF780A790E1217618E828FFD
:109A300083A3A3780A1217A9029D53750A0180AB6C
:109A4000851A82851B83E02404FEA3E03400FF8E88
:109A5000828F83E0F91238378E828F83E090064838
:109A6000F07902029E5CEE65167003EF65177003D5
:109A7000029F588E828F83E064016003029F5B1215
:109A800036D512389D8A0A8B0B8C0C8D0D750E0AFB
:109A9000750F00751000751100780A790E12170005
:109AA000780A121B308E828F83A3A31217B8122953
:109AB0000B74041218E0E9707712389D8A0A8B0B38
:109AC0008C0C8D0D750E03780A790E121700750E29
:109AD000FF750FFF7510FF780A790E1217618E82DD
:109AE0008F83A3A3780A1217A990061AE064027064
:109AF0002C8E828F83A3A3750A00750B08750C004A
:109B0000780A121713780A790E121761EE240EF5EF
:109B100082EF3400F583780A1217A98013EE240E21
:109B2000F582EF3400F58374FFF0A3F0A3F0A3F007
:109B3000029F4E900647E07003029E78123759E963
:109B4000F875F003A4C8AAF02AF9744A28F8740634
:109B500039F9851A82851B83E8F0A3E9F0851A821A
:109B6000851B83E0F8A3E0F5838882E0F518A3E085
:109B7000F519900648E0F875F003A4C8AAF02AF990
:109B8000744A28F516740639F5179007EAE0540769
:109B90007003029D78A3E0F91238018A0A8B0BAE9C
:109BA0000AAF0BEE4F7003029D7812389D8A0A8B24
:109BB0000B8C0C8D0D750E01750F00751000751155
:109BC00000780A790E121700750EFF750FFF7510D9
:109BD000FF780A790E12176175121A751300751441
:109BE00000751500780A121B30851882851983A329
:109BF000A31217B812296474041218E08A0E8B0F8E
:109C00008C108D117812790E1210585003029D7825
:109C1000851882851983A3A3750EE7750FFF75104C
:109C2000FF7511FF780E121713780E121B308E82FB
:109C30008F83A3A31217B812290B74041218E0E93A
:109C40006003029D78750E07750F00751000751181
:109C500000780A790E121700780A121B308E828F54
:109C600083A3A31217B812290B74041218E0E97029
:109C700005750C008003750C01851682851783A37A
:109C8000A3A3A3E0F875F08AA4C8AAF02AF9741E69
:109C900028F50A740839F50BAA0AFB123831AA0A0A
:109CA000AB0B12382B750E80780E121B347C007DA6
:109CB00060E50A2406FAE50B3401FB1237BF740293
:109CC0001218E0A80AA90B906195E0C0E0E824868C
:109CD000F582E93401F583D0E0F0906196E0C0E0D0
:109CE000E82487F582E93401F583D0E0F0906197AC
:109CF000E0C0E0E82488F582E93401F583D0E0F0A3
:109D0000906198E0C0E0E82489F582E93401F583A8
:109D1000D0E0F08E828F83E06401705C1236D5E56E
:109D20000C703012389D8A0A8B0B8C0C8D0D750EC1
:109D300003780A790E121700750EFF750FFF751064
:109D4000FF780A790E1217618E828F83A3A3780A97
:109D50001217A9851882851983A3A3750AF1750BBB
:109D6000FF750CFF750DFF780A121713750EFF753E
:109D70000FFF7510FF029F23851A82851B83E0F871
:109D8000A3E0F9E516687003E517697003029E56B3
:109D9000851682851783A3A3A3E07003029E3585F1
:109DA0001682851783A3A3A3A3E0F875F08AA4C83D
:109DB000AAF02AF9741E28FE740839FFEEFAEFFBA8
:109DC000123831EEFAEFFB12382B750A80750B0052
:109DD000780A121B347C007D60EE2406FAEF340111
:109DE000FB1237BF74021218E0906195E0C0E0EEFC
:109DF0002486F582EF3401F583D0E0F0906196E09F
:109E0000C0E0EE2487F582EF3401F583D0E0F090D6
:109E10006197E0C0E0EE2488F582EF3401F583D04D
:109E2000E0F0906198E0C0E0EE2489F582EF340123
:109E3000F583D0E0F0851A82851B83E02404FEA31D
:109E4000E03400FF8E828F83E0F91238378E828FE4
:109E500083E0900648F07902900648E0FA75F00336
:109E6000A4CAA8F028FB744A2AFA74063BFB122104
:109E700050AA18AB19029F589007EAE054077003E4
:109E8000029F5BA3E0F91238018A0A8B0BAE0AAF7E
:109E90000B8E828F83E064016003029F5B1236D5D4
:109EA00012389D8A0A8B0B8C0C8D0D750E0A750F5E
:109EB00000751000751100780A790E121700780AE3
:109EC000121B308E828F83A3A31217B812290B7432
:109ED000041218E0E9707712389D8A0A8B0B8C0CFB
:109EE0008D0D750E03780A790E121700750EFF7529
:109EF0000FFF7510FF780A790E1217618E828F831B
:109F0000A3A3780A1217A990061AE06402702C8E97
:109F1000828F83A3A3750A00750B08750C00780A5D
:109F2000121713780A790E121761EE240EF582EFDC
:109F30003400F583780A1217A98013EE240EF582F7
:109F4000EF3400F58374FFF0A3F0A3F0A3F09007C3
:109F5000EB7401F0EEFAEFFB1237FB74021218E01B
:109F60007F100219F374F0121921EAFEEBFFEE24C0
:109F700002F8EF3400F9880A890BEE2406F8EF3472
:109F800000F9880C890D8882F583121B4B850A82A3
:109F9000850B831217B812387974021218E0850CF9
:109FA00082850D83121B4B850A82850B831217B89D
:109FB00012386D74021218E0EE240EF582EF3400B0
:109FC000F5831217B812387F8E828F83E064407059
:109FD0001CEE2412F8EF3400F988828983E0906047
:109FE00064F088828983A3E0906065800690606455
:109FF000E4F0A3F09007ECEEF0A3EFF0EE2416F5FA
:10A0000082EF3400F583E0F8A3E0F583888212192B
:10A010001F906054E4F0A3F0A3F0A3F0A3F0A3F02A
:10A02000A3F0A3F0A3F0A3F0A3F0A3F0906182E06B
:10A03000C2E6F07591BFEE2415F582EF3400F5838A
:10A04000E0640170031238B5E5E170FCEE2414F50C
:10A0500082EF3400F583E0F46003E0F5E1EE2415CF
:10A06000F582EF3400F5837401F0900620E064017E
:10A07000707312389D8A0A8B0B8C0C8D0D780A1226
:10A080001B308E828F83A3A31217B8122964740425
:10A090001218E08A0A8B0B8C0C8D0D750E05750F4E
:10A0A00000751000751100780A790E1215457403B9
:10A0B000780A1216C8E50A24F4F50AE50B3401F50E
:10A0C0000B9007B9E06003122BE9E4F50CF50D786D
:10A0D0000A121B307A207B00900619E0F9122C3D01
:10A0E00074041218E07F080219F374F01219218920
:10A0F0000A74FF650A600302A2429007EAE054076F
:10A10000700302A6E078009007EEE06404703CE87B
:10A1100075F018A4F8A9F074EF28F582740739F5E2
:10A1200083E06401702E7A0078E979078882898358
:10A13000A3A3A3A3A3E06404707688828983A3A366
:10A14000A3A3A3A3E064017067805308900806E00E
:10A15000640460BB78009007EEE064017067E87506
:10A16000F018A4F8A9F074EF28F582740739F58384
:10A17000E0640170597A0078E9790788828983A3BD
:10A18000A3A3A3A3E06401600302A22488828983BD
:10A19000A3A3A3A3A3A3E06401600302A224EA751E
:10A1A000F018A4F8A9F074EE28FA74073902A6DDB5
:10A1B0000AE82418F8E93400F9EAC39402500302CB
:10A1C000A12C02A6E008900806E0640160907800E7
:10A1D0009007EEE064027061E875F018A4F8A9F049
:10A1E00074EF28F582740739F583E0640170537ABF
:10A1F0000078E9790788828983A3A3A3A3A3E064F5
:10A2000002707488828983A3A3A3A3A3A3E064013B
:10A210007065EA75F018A4F8A9F074EE28FA7407CE
:10A2200039FB80690AE82418F8E93400F9EAC39494
:10A2300002500302A17B02A6E008900806E0640237
:10A2400060967A0078E9790788828983A3A3A3A31B
:10A25000A3E0650A703A88828983A3A3A3A3A3A37A
:10A26000E06401702BEA75F018A4F8A9F074EE28E8
:10A27000FE740739FF802C0AE82418F8E93400F945
:10A28000EAC39402500302A1F57A007B0002A6E41F
:10A290000AE82418F8E93400F9EAC3940240A97ED8
:10A2A000007F0078009007EEE0650A701BE875F00B
:10A2B00018A4F8A9F074EF28F582740739F583E043
:10A2C0006401700D7A01800B08900806E0650A6051
:10A2D000DC7A00E50A14601014700302A44724FE1F
:10A2E000700302A55102A6E078009007EEE0640238
:10A2F0007055E875F018A4F8A9F074EF28F5827489
:10A300000739F583E0640170477B0078E9790788B5
:10A31000828983A3A3A3A3A3E06402600302A3B57D
:10A3200088828983A3A3A3A3A3A3E064016003029B
:10A33000A3B5EB75F018A4F8A9F074EE28F50C7429
:10A340000739F50D02A3CD08900806E0640260A26B
:10A3500078009007EEE06404600302A40EE875F054
:10A3600018A4F8A9F074EF28F582740739F583E092
:10A370006401600302A41A7B0078E9790788828966
:10A3800083A3A3A3A3A3E06404600302A42588829B
:10A390008983A3A3A3A3A3A3E06401600302A4256C
:10A3A000EB75F018A4F8A9F074EE28F50C740739D1
:10A3B000F50D02A43D0BE82418F8E93400F9EBC3CD
:10A3C0009402500302A30F750C00750D00EAA2E081
:10A3D0005035850C82850D83A3A3750EF6750FFF8E
:10A3E0007510FF7511FF780E121713780E121B30BF
:10A3F0008E828F83A3A31217B812290B740412182C
:10A40000E0E9700302A6DAAA0CAB0D02A6E40890FC
:10A410000806E06404700302A35DEAA2E05021EEA6
:10A42000FAEFFB801F0BE82418F8E93400F9EBC3BE
:10A430009402500302A37D750C00750D0002A63333
:10A440007A007B0002A6E478009007EEE0640470D6
:10A4500051E875F018A4F8A9F074EF28F582740794
:10A4600039F583E0640170437B0078E979078882DD
:10A470008983A3A3A3A3A3E06404600302A50388C4
:10A48000828983A3A3A3A3A3A3E064017075EB75E2
:10A49000F018A4F8A9F074EE28F50C740739F50D3E
:10A4A000807908900806E0640460A678009007EEC2
:10A4B000E064017069E875F018A4F8A9F074EF2859
:10A4C000F582740739F583E06401705B7B0078E9FD
:10A4D000790788828983A3A3A3A3A3E064017052B0
:10A4E00088828983A3A3A3A3A3A3E064017043EBA1
:10A4F00075F018A4F8A9F074EE28F50C740739F576
:10A500000D80440BE82418F8E93400F9EBC39402F9
:10A51000500302A46E750C00750D0002A63308905E
:10A520000806E06401608EEAA2E0501EEEFAEFFB3E
:10A53000801C0BE82418F8E93400F9EBC3940240BE
:10A5400091750C00750D0002A6337A007B0002A6FF
:10A55000E478009007EEE064017055E875F018A407
:10A56000F8A9F074EF28F582740739F583E06401E7
:10A5700070477B0078E9790788828983A3A3A3A326
:10A58000A3E06401600302A61B88828983A3A3A3BE
:10A59000A3A3A3E06401600302A61BEB75F018A45B
:10A5A000F8A9F074EE28F50C740739F50D02A633FE
:10A5B00008900806E0640160A278009007EEE0646D
:10A5C00002600302A672E875F018A4F8A9F074EF0F
:10A5D00028F582740739F583E06401600302A67EE2
:10A5E0007B0078E9790788828983A3A3A3A3A3E0EA
:10A5F0006402600302A68588828983A3A3A3A3A320
:10A60000A3E06401707FEB75F018A4F8A9F074EE74
:10A6100028F50C740739F50D02A69D0BE82418F8EF
:10A62000E93400F9EBC39402500302A578750C00DD
:10A63000750D00EAA2E0400302A407850C82850D97
:10A6400083A3A3750EF6750FFF7510FF7511FF78C4
:10A650000E121713780E121B308E828F83A3A31253
:10A6600017B812290B74041218E0E9600302A4075A
:10A67000806808900806E06402700302A5C6EAA29A
:10A68000E0505D80550BE82418F8E93400F9EBC37D
:10A690009402500302A5E6750C00750D00EAA2E0D5
:10A6A000400302A407850C82850D83A3A3750EF6D3
:10A6B000750FFF7510FF7511FF780E121713780EC6
:10A6C000121B308E828F83A3A31217B812290B742A
:10A6D000041218E0E9600302A407EEFAEFFB80041D
:10A6E0007A007B0002A0E574F6121921890B750A25
:10A6F000009007EFE0600302A7B8E50A75F018A420
:10A70000F8A9F074EE28FE740739FF8E828F83A3B8
:10A710007401F08E828F83E50BF012389D8E828F4C
:10A7200083A3A31217C48E828F83A3A3A3A3A3A37F
:10A73000E4F0A3F0EE240EF582EF3400F58374FF0D
:10A74000F0A3F0A3F0A3F0EE2414F582EF3400F5AB
:10A75000837401F0EE2415F582EF3400F583740163
:10A76000F0EE2416F582EF3400F583E4F0A3F090C8
:10A7700007EAE0450BF09007E9E004F06401600CA3
:10A780007480650B60067440650B7019E50A75F0FE
:10A7900018A4F8A9F074EE28F8740739F99007ECBA
:10A7A000E8F0A3E9F0E50A75F018A4F8A9F074EE52
:10A7B00028FA740739FB8010750A01900807E070C9
:10A7C0000302A6FA7A007B0080007F020219F3C020
:10A7D00082C0838A828B83E0F8A3E0F98A828B832C
:10A7E000E4F0A3F088828983A3F088828983E0F46F
:10A7F000F89007EAE058F09007E9E014F0700B9049
:10A8000007ECE4F0A3F090061AF0801CC082C0832D
:10A810009007E9E0600A9007ECE0FAA3E0FB80040F
:10A820007A007B008002E0F9D083D08202102BC036
:10A8300082C083E9FB78009007EEE06B7016E87544
:10A84000F018A4F8A9F074EF28F582740739F5839D
:10A85000E0F9800A08900806E06B60E2790080C8A1
:10A86000C082C0839007EA80BDC082C0839007E9A0
:10A8700002A82674F6121921EAFEEBFF9061D0E0DF
:10A88000C0E0EE2400F582EF3401F583D0E0F090D3
:10A8900061D7E0F89061D5E0C398547FC0E0EE2422
:10A8A00001F582EF3401F583D0E0F09061D6E0C38A
:10A8B00098547FC0E0EE2402F582EF3401F583D096
:10A8C000E0F0701A9061C5E0A2E45012E0A2E750F7
:10A8D0000DEE2402F582EF3401F5837480F0123915
:10A8E00045EE2401F582EF3401F583E07034EE2467
:10A8F00002F582EF3401F583E070279061C5E0A294
:10A90000E4501FE0A2E7501AEE2402F582EF340172
:10A91000F5837480F0EE2401F582EF3401F5837441
:10A9200080F075E1957800EE2400F582EF3401F5B2
:10A9300083E060279061D3E0C0E0880AEE250AF545
:10A9400082EF3400F583D0E0F008EE2400F582EFCA
:10A950003401F583E0F9E8C39940D975E19102A784
:10A96000CA74F6121921EAFEEBFF9061C8E0C0E05C
:10A97000EE2403F582EF3401F583D0E0F09061CF4F
:10A98000E0F89061CDE0C398547FC0E0EE2404F578
:10A9900082EF3401F583D0E0F09061CEE0C39854AB
:10A9A0007FC0E0EE2405F582EF3401F583D0E0F0BE
:10A9B000701A9061C5E0A2E05012E0A2E3500DEEE3
:10A9C0002405F582EF3401F5837480F012394BEEE3
:10A9D0002404F582EF3401F583E07034EE2405F5AC
:10A9E00082EF3401F583E070279061C5E0A2E0506A
:10A9F0001FE0A2E3501AEE2405F582EF3401F5833F
:10AA00007480F0EE2404F582EF3401F5837480F055
:10AA10001239517A00EE2403F582EF3401F583E018
:10AA2000602F9061CBE0C0E08A0AEE250AF8EF348F
:10AA300000F9E82480F582E93400F583D0E0F00ADB
:10AA4000EE2403F582EF3401F583E0F8EAC3984081
:10AA5000D175E18102A7CA74F2121921890AA80AE4
:10AA6000E875F08AA4C8AAF02AF9741E28F87408B8
:10AA700039F99061C6E0FDE054F0F075E1817C00A9
:10AA8000E82403F582E93401F583E0602B8C0CE8BF
:10AA9000250CFAE93400FBEA2480F582EB3400F55A
:10AAA00083E09061CAF00CE82403F582E93401F5F3
:10AAB00083E0FAECC39A40D5E82405F582E9340135
:10AAC000F583E060049061CEF0E82404F582E93477
:10AAD00001F583E060049061CDF0ED9061C6F0A8CF
:10AAE0000AE875F08AA4C8AAF02AF9741E28F87436
:10AAF0000839F9E0FCE0540FF075E1917A00E824A0
:10AB000000F582E93401F583E060238A0CE8250C26
:10AB1000F582E93400F583E09061D2F00AE8240080
:10AB2000F582E93401F583E0FBEAC39B40DDE824CC
:10AB300002F582E93401F583E060049061D6F0E823
:10AB40002401F582E93401F583E060049061D5F0D9
:10AB5000EC9061C6F0850A82AE82EEF875F08AA4A8
:10AB6000C8AAF02AF9741E28F50C740839F50D7579
:10AB70000E80750F00780E121B34E50C2406FCE5E0
:10AB80000D3401FD7A007B601237BF74021218E0A9
:10AB9000A80CA90DE82486F582E93401F583E0903C
:10ABA0006195F0E82487F582E93401F583E090614E
:10ABB00096F0E82488F582E93401F583E090619706
:10ABC000F0E82489F582E93401F583E0906198F09A
:10ABD000EE75F003A4CEA8F028FF744A2EF5827417
:10ABE000063FF583E0F8A3E0F5838882E064807097
:10ABF0000790061A7408803F90105D743DF0A374AE
:10AC000038F0A3743DF0A37438F0A3743DF0A3743E
:10AC100038F0A3743DF0A37438F0A374E9F0A37482
:10AC200037F0A3743DF0A37438F0A37443F0A37419
:10AC300038F090061A7407F090106B74E9F0A37462
:10AC400037F0A374E9F0A37437F0A374E9F0A374A8
:10AC500037F0A374E9F0A37437F0A374E9F0A37498
:10AC600037F0A374E9F0A37437F07F060219F37488
:10AC7000F012192174C01218CAE990041BF07C026A
:10AC80007D007A1F7B001230F9740212191512B57B
:10AC9000A27A017909122F91E9700B740212191529
:10ACA000E09004268004900426E4F090814EC08257
:10ACB0007430121915AC82AD83758381D082741003
:10ACC0001217DD7430121915AC82AD837A10790633
:10ACD000122F91E97020750A10750B00780A121B6B
:10ACE000347432121915AC82AD837A1A7B0C122B94
:10ACF0006B74021218E0908218C082740612191543
:10AD0000AC82AD83758382D08274071217DD74061E
:10AD1000121915AC82AD837A077907122F91E96079
:10AD20000302ADD77406121915E0900C2AF07407CF
:10AD3000121915E0900C2BF07408121915E0900C04
:10AD40002CF07409121915E0900C2DF074061219EC
:10AD500015AC82AD837A077900122DBD740A1219E1
:10AD600015E0900C2EF07902740B121915E06009B1
:10AD700014600724FE600680051919800109123449
:10AD800083740C121915E0F50A604CE4F50BF50C10
:10AD9000F50D780A1210979082B2780E12179A78F1
:10ADA0000A790E1211DF908292780E12179A780AA1
:10ADB000790E12135F780A1210F412BCC2C3E09429
:10ADC00040A3E09406500A900C027440F0A374066D
:10ADD000F0900C0212BCB412B0521230F912B0450D
:10ADE0001230F97C987D3A7A007B001230F9851A8E
:10ADF00082851B83E4F07415121915E4F0A3F004A6
:10AE0000121915E4F07413121915742FF0A37401BC
:10AE1000F07411121915743FF0A37401F0740F123D
:10AE200019157404F0A3E4F0740D1219157458F098
:10AE3000A3740212BCD079017A057B03122F9D7492
:10AE400015121915AC82AD8379027A067B03122F95
:10AE50009D7C067D0C790B7A087B03122F9D7C303C
:10AE60007D0C790F7A077B03122F9D74011219153F
:10AE7000AC82AD8379017A107B03122F9D7413127B
:10AE80001915AC82AD8379027A117B03122F9D7460
:10AE900011121915AC82AD8379027A127B03122F3D
:10AEA0009D740F121915AC82AD8379027A137B035E
:10AEB000122F9D740D121915AC82AD8379027A148C
:10AEC0007B03122F9D9080D4C082741B121915AC85
:10AED00082AD83758380D08274151217DD741B12C6
:10AEE0001915AC82AD837A157905122F91E9700B93
:10AEF000741B121915AC82AD8380047CE97D807AC5
:10AF0000157900123273741712191574B8F0A374FE
:10AF100007F0A3E4F0A3F0041219157402F0851AE7
:10AF200082851B8314F07405121915E4F074041261
:10AF300019157401F07417121915AC82AD837904D8
:10AF40007A087B04122D037401121915AC82AD83AB
:10AF500079017A007B04122D03851A82851B83AC4C
:10AF600082AD8379017A027B04122D0374051219D4
:10AF700015AC82AD8379017A037B04122D0374042E
:10AF8000121915AC82AD8379017A067B04122D0368
:10AF90009082721217B81232799082721217B81218
:10AFA0003387122ED7122CEB9082721217B8122F01
:10AFB000D9122C8B9082721217B8122CC790827201
:10AFC0001217B8122DB1900420E4F0740312191571
:10AFD00012B5A27A017902122FE5900421E4F01251
:10AFE0002CC17A007903122E4175F30075F40075B7
:10AFF000F50075FDFF75FEFF75FF1F7580007590EC
:10B000000075A000122DDB90041BE0F9122C797A58
:10B01000A17B2E122C917A4C7B0C122DB77A4A7B95
:10B020000C122CCD90826E121B477A017B0090048B
:10B030001BE0F9122C3D74041218E074401218E061
:10B040007F080219F3900C02E0FCA3E0FD7A097B73
:10B050000022900C02E0FCA3E0FD7A087B00227441
:10B06000F412192174FE1218CAEAFEEBFF54806034
:10B070003A90041BE0F9122BA78A0A8B0BEA450BC6
:10B0800060218A828B83E064C07011A3A3A3E0FADD
:10B09000850A828B83A3A3E0F9122E8FAA0AAB0B39
:10B0A000122B95EEFAEF648002B49AEEA2E0400310
:10B0B00002B1357A407B0C122FA97A447B0C122DF9
:10B0C000217A487B0C122FDF122CAFE9900C3FF055
:10B0D000900C3EF0900C2FF07C307D0C790F7A07AD
:10B0E0007B03122F9D7C1D7D047A017900122FE5D0
:10B0F0007C1E7D047A017901122FE57C1F7D047A84
:10B10000017902122FE57900122C137A007B0412C8
:10B110002CBB9004227401F090826A121B477A4083
:10B120007B0090041BE0F9122C3D74041218E0EE31
:10B13000640102B2F95440606F900422E4F00412FA
:10B140001915AC82AD837A057B03122FA37401120B
:10B150001915E07013851A82851B83740112B5A33B
:10B16000F97A057B03122F9D7A017902122E417A1A
:10B17000047902122E41122CC17901122C13900471
:10B1800026E06019908266121B477A207B009004AB
:10B190001BE0F9122C3D74041218E08005790112AD
:10B1A0002ECBEE644002B2F9EE5420602F90041CC6
:10B1B000E06405600AC2AF75C9AB75C95B80FE90DB
:10B1C0008282121B477A207B0090041BE0F9122C2C
:10B1D0003D74041218E0EE642002B2F9EF541060DE
:10B1E0000AC2AF75C9AB75C95B80FEEF5402605AE5
:10B1F000EF6402FF90041CE06405700302B2FA9051
:10B20000041AE070147C307D0C790F7A077B0312EE
:10B210002F9D90041A74018015640170127C117DB9
:10B220000C791F7A077B03122F9D90041AE4F0908B
:10B230008276121B477A007B0290041BE0F9122CE5
:10B240003D74041218E0EE02B2F9EE5480602D75E0
:10B250000A58750B02780A121B34750A04750B0024
:10B26000780A121B3479007C3F7D017A2F7B011212
:10B270002FD374041218E0EE6480807DEE540260D7
:10B280002790041CE06405701790827A121B477A9D
:10B29000027B0090041BE0F9122C3D74041218E0AC
:10B2A000122C97EE64028051EE54086051900422F3
:10B2B000E064017038122CC112B4AB122C1390044C
:10B2C00023E0C3940F502F900420E064036005E056
:10B2D000640270229082D6121B477A087B00900489
:10B2E0001BE0F9122C3D74041218E080099004212F
:10B2F000E06003122E95EE6408FAEF02B49AEF5460
:10B3000001700302B41B900422E06401703F122C10
:10B31000C112B4AB122C13900423E0C39435502710
:10B32000900420E064036005E06402701A90828655
:10B33000121B477A007B0190041BE0F9122C3D742C
:10B34000041218E002B414122E9B02B414900421CB
:10B35000E0700302B4147900122C139004217402DB
:10B3600012B4B91218B7748E250AF8740D350BF99A
:10B37000E8FAE9FB8A828B83A3E0C333FCE433FD64
:10B380008A828B8312B4C11218B7A3A3A3E0F50C71
:10B39000750D007405780C1218B7744E250CF874EE
:10B3A0000C350DF9E8250AF8E9350BF9E82CF5829A
:10B3B000E93DF583E0FAA3E0FB122CBB9004227474
:10B3C0000112B4B91218B77490250AF582740D35BC
:10B3D0000BF583E0C333F8E433F9746628F582741F
:10B3E0000E39F583E0F50AA3E0F50BE4F50CF50D55
:10B3F000780A121B307A007B0190041BE0F9122CB2
:10B400003D74041218E07A017901122E417A047910
:10B4100002122E41EEFAEF6401807FEF5404606B5C
:10B42000900424E0F8A3E0F9E849701790828E12A6
:10B430001B477A007B0890041BE0F9122C3D740432
:10B440001218E0900424E02401F0A3E03400F0900E
:10B450000424C3E09406A3E094004028900426E06E
:10B4600004F07C267D047A017909122F8B90829654
:10B47000121B477A207B0090041BE0F9122C3D74CC
:10B48000041218E0EEFAEF6404800FEF5408600D28
:10B49000900424E4F0A3F0EF6408FB80047A007BBE
:10B4A0000074021218E07F040219F3900422E4F001
:10B4B000900423E004F0790122F090042312B4C137
:10B4C00022E0F50A750B007402780A2274F712194B
:10B4D0002174FD1218CAEAFE7402121915E4F0EE86
:10B4E000A2E0505B7401F0900421E06003122E9BF7
:10B4F00090041CE0640570477401121915AA82AB10
:10B50000837902122FEB7401121915E060062406EC
:10B51000600F802B851A82851B8374FAF079018075
:10B520000A851A82851B83E4F07902123483851A16
:10B5300082851B83AC82AD837A017902122FE5EEFE
:10B54000A2E150467402121915E0D2E1F090041CF9
:10B55000E064056035851A82851B83AC82AD837AF1
:10B56000057B03122FA3851A82851B83E070097463
:10B5700001121915740180067401121915E412B52F
:10B58000A379017A057B03122F9D7402121915AC61
:10B5900082AD837A01790012300374031218E0023D
:10B5A000B9FCE4F0AC82AD8322C082C08390042059
:10B5B000E06403704990041DE014605314600302BA
:10B5C000B6787900122C139004217402F07A007B73
:10B5D00004122CBB9004227401F09082D6121B47F7
:10B5E0007A087B0090041BE0F9122C3D74041218B9
:10B5F000E07A017901122E417A0479028044E064F4
:10B6000002707890041EE014600514603A80697935
:10B6100000122C139004217401F07AFA7B00122C92
:10B62000BB9004227401F09082D6121B477A087BEB
:10B630000090041BE0F9122C3D74041218E07A000B
:10B640007903122E4180347900122C139004217456
:10B6500002F07A007B04122CBB9004227401F0905B
:10B66000829A121B477A007B0190041BE0F9122C8E
:10B670003D74041218E08003122E9BD083D0820206
:10B68000102BC082C083900421E4F0122CC19004DE
:10B6900022E4F0FA7903122E417901122C1380DB97
:10B6A00074F7121921E9FE74016E702190041CE0F8
:10B6B0006405702A90827A121B477A027B009004FC
:10B6C0001BE0F9122C3D74041218E0801174026E14
:10B6D000700C7A027B0090041BE0F9122C4902B92D
:10B6E000FC74F212192174E01218CA890A7401124A
:10B6F0001915E4F090041CE0650A700302B9AFE08C
:10B700006405600302B8797405650A700302B94ADA
:10B71000851A82851B837401F012B0521230F9121F
:10B72000B0451230F97C987D3A7A007B001230F9EE
:10B73000851A82851B83AC82AD8379017A057B03F0
:10B74000122F9DE50A14601624FE700302B8E71458
:10B75000700302B98614700302B94A02B9AF7402C9
:10B76000121915AC82AD837A047B03122FA3750CDA
:10B7700006750D00780C121B347404121915AC8276
:10B78000AD837A377B0C122B6B74021218E0750CA8
:10B7900008780C121B347404121915AC82AD837432
:10B7A0000C121915AA82AB83122B6B74021218E0CB
:10B7B0007407121915E0C0E07409121915D0E0F0F1
:10B7C0007406121915E0C0E07408121915D0E0F0E3
:10B7D0007405121915E0C0E07407121915D0E0F0D5
:10B7E0007406121915E4F07405121915E4F07402C8
:10B7F000121915AC82AD837A087900122CF17412FB
:10B80000121915AC82AD8375838375823D740E1257
:10B8100017DDF50C750B05E50BF83395E0F9740AA7
:10B82000121915E58228F582E58339F583E0FAE5FA
:10B830000CC333F8E433F97412121915E58228F5B4
:10B840000EE58339F50F8A82AE82EAC3940A40037B
:10B8500002B9187C4B7D837412121915E58228FAFF
:10B86000E58339FB123B5B7910850E82850F83A33C
:10B87000AC82AD83EEFA02B91EE06402600302B747
:10B88000437403650A600302B743900426E0607FB7
:10B89000851A82851B837401F0900C0412B0551236
:10B8A00030F9900C0412B0481230F97C007D007A17
:10B8B000007B001230F9851A82851B83AC82AD8330
:10B8C00079017A057B03122F9D7A007903122E41AC
:10B8D00090827A121B477A007B0290041BE0F912D7
:10B8E0002C3D74041218E0900420E4F004121915A1
:10B8F000AC82AD837A017901122FE590041EE4F049
:10B90000900421E0700302B9AF122E9B02B9AF7A06
:10B91000007903122E4180CF7910AC0EAD0F7B0061
:10B92000122C73050C74FF250BF50BC39400A2D2E7
:10B9300065D033400302B8177412121915AC82ADEA
:10B94000837A0C7902122CF1806590041EE0900439
:10B9500020600D7402F0122E95900423E4F080060E
:10B960007401F0122E9B7A007903122E419082C24C
:10B97000121B477A807B0090041BE0F9122C3D7467
:10B98000041218E080299004207403F07401121945
:10B9900015AC82AD837A017901122FE590041EE483
:10B9A000F090041DE06008122E95900423E4F0E569
:10B9B0000A90041CF074201218E07F060219F37438
:10B9C000F7121921E9600514600D80307A1D7B049F
:10B9D0007900122FEB80257A1E7B047901122FEB60
:10B9E00090041EE0900420600D7402F0122E9590D9
:10B9F0000423E4F080067401F0122E9B7F010219EB
:10BA0000F374F412192174F81218CA890A740165C2
:10BA10000A7063851A82851B83AA82AB837901121F
:10BA20002CD37406121915E0FA740712191512BAFC
:10BA300084121B347406121915E0FA7407121915D2
:10BA400012BA84121B3479007406121915E0FC74C2
:10BA500007121915E0FBEC2400E43BFD74041219F5
:10BA600015E0FE7405121915E0FBEEFA122FD374DF
:10BA7000041218E080097402650A7003122FAF7473
:10BA80000802B4A3E0F9EA2400F50CE439F50D78D6
:10BA90000C2274F012192174CE1218CAE9FE740136
:10BAA0006E7052740D121915AC82AD837583817559
:10BAB000821E74101217DD740D121915AA82AB8341
:10BAC0007901122DC3750A10750B00780A121B3408
:10BAD000740F121915AC82AD837A1A7B0C122B6B82
:10BAE00074021218E0740D121915AC82AD837A102D
:10BAF000790602BC15EE600302BBD1851A82851B54
:10BB000083AC82AD8375838275820A74071217DD58
:10BB1000851A82851B83AA82AB83F9122DC3851AED
:10BB200082851B83E0900C2AF07401121915E090B5
:10BB30000C2BF07402121915E0900C2CF074031207
:10BB40001915E0900C2D12BCD07A077900122DBD8A
:10BB50007404121915E0900C2EF079027405121974
:10BB600015E0600914600724FE600680051919803D
:10BB700001091234837406121915E0F50A6035E4E0
:10BB8000F50BF50CF50D780A1210979082B2780E2D
:10BB900012179A780A790E1211DF908292780E129B
:10BBA000179A780A790E12135F780A1210F412BCF1
:10BBB000C212BCB47C117D0C791F7A077B03122F53
:10BBC0009D851A82851B83AC82AD837A07790780B5
:10BBD0004474026E7045741D121915AC82AD8375E4
:10BBE00083807582BF74151217DD741D121915AA92
:10BBF00082AB837902122DC3741D121915AC82AD6C
:10BC0000837A127900123273741D121915AC82AD49
:10BC1000837A157905122F8B02BCAF74056E600311
:10BC200002BCAF851A82851B83AC82AD837583828B
:10BC300075821174071217DD7407121915AC82ADE5
:10BC40008375838275823174061217DD851A8285A9
:10BC50001B83AA82AB837905122DC3750A06750B67
:10BC600000780A121B347409121915AC82AD837462
:10BC700002121915AA82AB83122B7D74021218E0EE
:10BC8000E96401702A7406121915E07022AC82ADC5
:10BC9000837A017909122F8B9082C6121B477A0092
:10BCA0007B1090041BE0F9122C3D74041218E07410
:10BCB0003202B03DE0F8A3E0F9900C04E8F0A3E90B
:10BCC000F022900C02E50AF0A3E50BF0900C0222A2
:10BCD000F0851A82851B83AC82AD8322C082C0832B
:10BCE000ECFAEDFB9082CA121B477900122D2774E3
:10BCF000041218E002B67B74F7121921E9FEECFF7A
:10BD0000EE7006900427E4801274016E7020EF60DC
:10BD10000574086F70089004277401F08010900477
:10BD200027E4F090041CE064057003122FAF02B901
:10BD3000FC74F4121921E9900619F01238AF9078CA
:10BD400000E0C4540F540764037004793F80027903
:10BD50007F750A06750B00780A121B347C077D0676
:10BD60007AEA7B07122E2374021218E0900607E08D
:10BD7000F47049A3E0F47044A3E0F4703FA3E0F44E
:10BD8000703AA3E0F47035A3E0F4703090780EE0E0
:10BD9000900607F090780FE0900608F0907810E099
:10BDA000900609F0907811E090060AF0907812E081
:10BDB00090060BF0907813E090060CF090060D744E
:10BDC000FFF0A3F0A3F0A3F0A3F0A3F0900607E028
:10BDD000900613F0900608E0900614F0900609E033
:10BDE000900615F090060AE0900616F090060BE01B
:10BDF000900617F090060CE0900618F09006377445
:10BE000006F0A3740DF0A3E4F0A37440F0A3740152
:10BE1000F090076374FFF0A3F0A3F0A3F0A3F0A3E6
:10BE2000F0900762E4F0900769F0A374A0F0A3E437
:10BE3000F0A37403F0A37407F0A3E4F0A37428F054
:10BE4000A3E4F0A304F0A3E4F0900792F09007B508
:10BE500074FFF0A3E4F09007B7F09007B904F090F6
:10BE600007BA7490F0A37401F01236C312360F12A1
:10BE7000385B79017ABC7B071237A19007BCE0756B
:10BE8000F01484E5F004F0790C7ADD7B071237A119
:10BE90001237B97A00900619E0F9122C199078033C
:10BEA000E0644270559007BCE014F0704DC2AF12D0
:10BEB000BEB200782AD0E0F618D0E0F6E59F54072D
:10BEC0007005750BFF8003750B7FC4C0E07829E611
:10BED000F50A08E6550BF50B740B780A1218A8D072
:10BEE000E0250AF8906270E0A2E740F8E8C33390DA
:10BEF0006272F0906270E0D2E0F0900644E4F0A349
:10BF0000F07A80FB900619E0F9122BBF02C3FA7495
:10BF1000F4121921EAFEEBFFEEA2E0504590061B59
:10BF2000E0C39480E0500FC333F8E433F9745D2824
:10BF3000F5827410800EF4C333F8E433F9746B287F
:10BF4000F582741039F583E0F8A3E0F58388821256
:10BF5000191F7A00900619E0F9122C19EE640102FB
:10BF6000C13554026040750A00780A121B38E4F5A6
:10BF70000B780A121B34780A121B34780A121B340D
:10BF8000750A4E750B07780A121B3490074DE0FDB9
:10BF90007C017A007B00793C1234D774091218E0D6
:10BFA000EE640202C135EE5404700302C04B9006E9
:10BFB00048E0F875F003A4C8AAF02AF9744A28FAF0
:10BFC000740639FBEA242AF582EB3400F583E0F5A8
:10BFD0000A780A121B38EA2432F582EB3400F58322
:10BFE000E0F50AA3E0F50B7404780A1218A8780AA1
:10BFF000121B34EA2420F582EB3400F583121B4B2C
:10C00000EA242EF582EB3400F583E0F50AA3E0C3C1
:10C0100013F50BE50A13F50A780A121B34750A4E5C
:10C02000750B07780A121B3490074DE0FD7C018ADE
:10C03000828B83A3A3A3A3E0FA7B0079001234D7F9
:10C0400074091218E0EE640402C135EE54406040F9
:10C05000750A00780A121B38E4F50B780A121B34B3
:10C06000780A121B34780A121B34750A4E750B07B6
:10C07000780A121B3490074DE0FD7C017A007B00AA
:10C08000793B1234D774091218E0EE644002C135CE
:10C09000EE5480603B9007BAE0F8A3E0F9E849600D
:10C0A0002A7900122C139007BAE0F50AA3E0F50BE9
:10C0B000E4F50CF50D780A121B307A007B0190062E
:10C0C00019E0F9122C3D74041218E0EE64808065CA
:10C0D000EF5401600C7901122C13EEFAEF64018029
:10C0E00056EF5402600AC2AF75C9AB75C95B80FEDA
:10C0F000EF5404600A121C74EEFAEF640480389066
:10C100000620E064017033EE5420602E90061AE0A1
:10C1100024F9600314701B793F900648E0FA75F02B
:10C1200003A4CAA8F028FB744A2AFA74063BFB123F
:10C130003765EE6420FAEFFB80047A007B0002C3CF
:10C14000FA74F6121921C3EA9411EB940050047AA0
:10C150001080027A20EA2408FAE43400FB122F133C
:10C160008A0A8B0BA80AA90BE849600AE82404FA9A
:10C17000E93400FB80047A007B0002C73874F612B1
:10C180001921EA2405FAEB3400FB122F138A0A8BDB
:10C190000BA80AA90BE849600AE82405FAE934006B
:10C1A000FB80047A007B0002C738C082C083C2AF24
:10C1B00012388BE5E170FC75E1011236B175E1F1E1
:10C1C0001238BB1236A5790712392D79011239338D
:10C1D00079021238E5123903123921790012392710
:10C1E00079011239277A557B557C557D001238CD5F
:10C1F00090074DE4F0A3F0A3F0A3F0A3F0A3F0A305
:10C20000F0900769F0A3F0A3F090076D7407F09029
:10C21000076C7403F0900772E4F0900771F09007D8
:10C2200092F01237531237EF12376B790012393907
:10C2300090075474FFF0A3F0A3F0A3F0A3741FF0D1
:10C24000906012E4F0A3F0906063F0752100900616
:10C250001AF0900759F090075A740CF090075BE4BD
:10C26000F090075C04F090075DE4F090075E04F046
:10C2700090075FE4F090061CF0A3F090061FF0908A
:10C28000062004F090063604F09007B8E4F0D2AF30
:10C29000F902CD38C082C083900607E08A828B8382
:10C2A000F0900608E08A828B83A3F0900609E08A6A
:10C2B000828B83A3A3F090060AE08A828B83A3A3D8
:10C2C000A3F090060BE08A828B83A3A3A3A3F09034
:10C2D000060CE08A828B83A3A3A3A3A302CD35C05F
:10C2E00082C0838A828B83E090060DF08A828B83E2
:10C2F000A3E090060EF08A828B83A3A3E090060F42
:10C30000F08A828B83A3A3A3E0900610F08A828B2D
:10C3100083A3A3A3A3E0900611F08A828B83A3A337
:10C32000A3A3A3E090061202CD35C082C0831236CB
:10C33000CFE97005123903790002CD3874F712196C
:10C3400021EAFEEBFF890A1236CFE9702CE50A607C
:10C350000A7401650A600A7912801E7C00790080E7
:10C36000047C007901EEFAEFFB123909E9F8740355
:10C3700068700479078002790002C73374F61219D5
:10C3800021EA4B6016EC4D6012740A121915E0F5A3
:10C390000AA3E0F50BE50A450B70047912800F78CB
:10C3A0000A121B341237B374021218E0790002C764
:10C3B0003874F4121921EAFEEBFF890A90061AE09C
:10C3C00064096014E0640A600FE0640B600AE064D2
:10C3D0000C6005E0640D7004790C801E1238138B1C
:10C3E0000DEA450D700BA90AEEFAEFFB1237A1809A
:10C3F0000990061CE04440F0790D7F040219F374A3
:10C40000F6121921EA4B6003E970047912801CEAE4
:10C41000FEEBFF890A12379BE98E828F83F0A3AE71
:10C4200082AF83150AE50A70EC790002C738C08232
:10C43000C083E9F8740168700B9007B87401F07953
:10C440000002CD38E870069007B8E480F1791280D8
:10C45000F0C082C08390061AE0640C701290618E66
:10C46000E0F974806970258C828D83747F8029C384
:10C47000EB940F5013EA4B700F90064DE070047967
:10C480000280189006B280D87912800F90061EE0C4
:10C49000F8E9C3988C828D83F0790002CD3874F767
:10C4A000121921E9FE74056E601E74136E60197412
:10C4B000146E601474156E600F741A6E600A74291D
:10C4C0006E6005743B6E7026C3EB940F5020EA4BF0
:10C4D000701C90064DE07004790280449006B3E031
:10C4E00064017025A3E064027008793A8032791201
:10C4F000802EEE90073EF0900667E4F0A3F07902FC
:10C500007A4A7B061237418015EE90073EF090067E
:10C5100067E4F0A3F079027A4A7B06123735790096
:10C5200002C73374EA121921EC4D6014E9C3941C5C
:10C53000500E7416121915E0F8600A74016860054F
:10C54000791202C72EC3EB940F5019EA4B70159065
:10C55000064DE070047902800D90075AE0700A7968
:10C560000702C72E791202C72EEC24FEFCED34FF21
:10C57000FD8C828D83E9F0E87004740280027401FE
:10C58000A3F0EC24FEFCED34FFFD7AAD7B06123700
:10C590008990075AE014F090061AE064086008E0F9
:10C5A0006407600302C72C900648E0600302C72CB2
:10C5B00079007A4A7B061221509061D0E070030224
:10C5C000C72C90075EE06401600302C72C900667E9
:10C5D000E0F8A3E0F9E849700302C72CA2AFE43306
:10C5E000F516C2AF1238138A0A8B0BAE0AAF0B12C4
:10C5F000389D8A128B138C148D158A0A8B0B8C0C28
:10C600008D0D750E01750F00751000751100780AFB
:10C61000790E121700780A121B308E828F83A3A323
:10C620001217B812290B74041218E0E964016003B0
:10C6300002C726900678E02406F50AA3E03400F548
:10C640000BE4F50CF50D7812790A12170078121226
:10C650001B308E828F83A3A31217B812290B740488
:10C660001218E0E96401600302C726EE2408F50E03
:10C67000EF3400F50F850E82F583121B47AA12AB2B
:10C6800013AC14AD1512296474041218E0900678E6
:10C69000121B4B12259474021218E08A0A8B0B8C21
:10C6A0000C8D0D7410780A1216C8900653E0F8A38A
:10C6B000E0F990064FE8F0A3E9F0E8250AF8E9353B
:10C6C0000BF9A3E8F0A3E9F0850E82850F83C08201
:10C6D000C083900678E0F50EA3E0F50F780A790E96
:10C6E000121545D083D082780A121713750EFF7584
:10C6F0000FFF7510FF780A790E1217618E828F83F3
:10C70000A3A3E50AF0A3E50BF0A3E50CF0A3E4F086
:10C7100090067FE090067EF07A4A7B06121DDCEEE2
:10C72000FAEFFB1237FBE516A2E092AF79007F0E1D
:10C730000219F37F010219F37F020219F374F61252
:10C740001921EAFEEBFF890A740B121915E0F50BAB
:10C75000740C121915E0F8A3E0F9E50A605F7401A2
:10C76000650A60157403650A602F7402650A602902
:10C770007404650A600302C818E849700302C81807
:10C78000E50B60097401650B600302C8187403654A
:10C790000A60067402650A7046EE2460FAEF34FF00
:10C7A000FBC3EA9461EB943F506EEC2460FAED34E5
:10C7B000FFFBC3EA9461EB943F4024805BEE24E0EE
:10C7C000FAEF34FFFBC3EA94E1EB943F504AEC24C8
:10C7D000E0FAED34FFFBC3EA94E1EB943F5039C338
:10C7E000EC9EED9F4032740A121915E0FA60057450
:10C7F000016A7024740F121915E0FC600F74016C4B
:10C80000600A74026C600574036C700C740E12196B
:10C8100015E0FB74075B7005791202C9799007690E
:10C82000E064017005790C02C979E50A90076CF0A3
:10C8300074075BA3F0ECA3F0EA900762702FE4F0BA
:10C84000900607E0900763F0900608E0900764F018
:10C85000900609E0900765F090060AE0900766F000
:10C8600090060BE0900767F090060C802E7401F0A4
:10C8700090060DE0900763F090060EE0900764F0DC
:10C8800090060FE0900765F0900610E0900766F0C4
:10C89000900611E0900767F0900612E0900768F0AC
:10C8A0007401650A7053E50B90074DF08882898307
:10C8B000E090074EF088828983A3E090074FF088CC
:10C8C000828983A3A3E0900750F088828983A3A381
:10C8D000A3E0900751F088828983A3A3A3A3E090EB
:10C8E0000752F088828983A3A3A3A3A3E0900753F0
:10C8F000F090076AE4F0A3807D7404650A704DE54A
:10C900000B90074DF088828983E090074EF0888273
:10C910008983A3E090074FF088828983A3A3E090E6
:10C920000750F088828983A3A3A3E0900751F08881
:10C93000828983A3A3A3A3E0900752F0888289830E
:10C94000A3A3A3A3A3E0900753F08023EC70047982
:10C9500000801974016C70047901801074026C708D
:10C96000047902800774036C7005790312390F9003
:10C97000076AEEF0A3EFF0790002C73874F61219D7
:10C9800021E9FEC39420500BEE900772F06023EA79
:10C990004B700479128023E0F50A750B00780A12B7
:10C9A0001B34EAFCEBFD7A737B07122B6B740212CB
:10C9B00018E09007717401F0790002C73874F01222
:10C9C0001921E9FE90061AE06409700302CAE6E044
:10C9D000640A700302CAE6E0640B700302CAE6E070
:10C9E000640C700302CAE6E0640D700302CAE690AC
:10C9F000076CE0601664016012E06403600DE0649F
:10CA0000026008E06404600302CB5B900762E060B0
:10CA1000076401600302CB5B90076CE06403600570
:10CA2000E06402701090076AC3E094A0A3E0940051
:10CA3000500302CB5BEE700302CAF414600302CB16
:10CA40005B900769E06401700302CAE690076CE03E
:10CA5000600964016005E06404700B12381FE9543A
:10CA6000FD600302CAE67901123807900760EAF018
:10CA7000A3EBF09007697401F090061AE0706E1253
:10CA8000389D8A0A8B0B8C0C8D0D750E03750F006B
:10CA9000751000751100780A790E121700750EFFD7
:10CAA000750FFF7510FF780A790E121761900760F5
:10CAB000E0F8A3E0F5838882A3A3780A1217A9906F
:10CAC0000760E0F8A3E0C82406F582E83400F583A7
:10CAD000E4F0A3F01236D5E960107A607B071238D3
:10CAE0000D900769E4F0792180051237F579007F10
:10CAF000080219F3900769E060ECA2AFE433FFC2CB
:10CB0000AF7A607B0712380D900769E4F012382580
:10CB1000E9704112388B906182E0C2E6F0E5E17085
:10CB2000FC75E1017591BF75E1F1900620E06401AB
:10CB300070187A207B00900619E0F9122C497A20AF
:10CB40007B00900619E0F9122BC57A00900619E0D7
:10CB5000F9122C19EFA2E092AF80927912809074B2
:10CB6000F6121921E9FEC39420500BEE900792F0C3
:10CB70006023EA4B700479128023E0F50A750B00FC
:10CB8000780A121B34EAFCEBFD7A937B07122B6BBD
:10CB900074021218E09007717401F0790002C7382E
:10CBA000C082C08390061AE064076004790C805C40
:10CBB000EC4D605BC3EB940F5055EA4B70519006FF
:10CBC0004DE07004790280447A008C828D83E0C04D
:10CBD000E0EAF8C3E498F895E0F9741728F5827450
:10CBE0000739F583A3A3A3A3D0E0F00A8C828D8339
:10CBF000A3AC82AD83EAC3941040CF90071D7401AB
:10CC0000F079057A4A7B06123735790002CD3879FA
:10CC10001280F9C082C08390061AE064076004792C
:10CC20000C8039C3EB940F5020EA4B701C90064DDA
:10CC3000E0700479028025900726E06401700E9070
:10CC4000073E7406F07902800A7912800FA37406F9
:10CC5000F0790D7A4A7B06123735790002CD387F9C
:10CC60000C0219F374EC121921890A8A0C8B0D122B
:10CC700038138A0E8B0FAE0EAF0F12389D8A0E8BB3
:10CC80000F8C108D11850C82850D837401F0E50ADF
:10CC900060117401650A600B7402650A60057912FF
:10CCA00002CD32EE4F604C780E121B308E828F8395
:10CCB000A3A31217B812290B74041218E0E9603A02
:10CCC00075120B751300751400751500780E121B84
:10CCD000308E828F83A3A31217B8122964740412B2
:10CCE00018E08A0E8B0F8C108D117812790E1210AD
:10CCF000584007A90A1236BD8036E50A600B146059
:10CD00001014601514601A801F90061CE044048003
:10CD10001690061CE04408800E90061CE04410802B
:10CD20000690061CE04420F0850C82850D83E4F01B
:10CD3000790002CC5FF07900D083D08202102B748E
:10CD4000F612192190054A74FEF0A304F090054DE7
:10CD5000F090054CF07A018A0A750B007402780A8B
:10CD60001218B7744A250AF87405350BF9EA888257
:10CD70008983700774FEF0A304800474FFF0A3F0AD
:10CD800088828983A3A3A3F088828983A3A3F00A5E
:10CD9000EAC3940240C17ADF7B321233337A2D7BAF
:10CDA000331235BB790002D98174F2121921EAFEDF
:10CDB000EBFF8E828F8312D3B1605212CEDE12CE81
:10CDC000FD750D00780C121B348A828B83A3121B15
:10CDD0004B7C027D007A057B831230ED74041218BF
:10CDE000E0E9702E850A82850B8312CEFD780C1245
:10CDF0001B348A828B83A3121B4B7C027D007A0337
:10CE00007B831230ED74041218E0E9700579020298
:10CE1000CED990103912D3B1600CC3E498FAE499DA
:10CE2000FB12CEEE5005790102CED97A067B0012B4
:10CE30002C018A0C8B0DEA450D7005791302CED9B1
:10CE40007A007B00804090103912D8C28A0E8B0F76
:10CE50007403780E1218B7850A82850B83E0250EBD
:10CE6000F8A3E0350F8882F583A3A3A3A3ECF0A376
:10CE7000EDF0901039E02401F0A3E03400F0EA2452
:10CE8000010AEB3400FB12CEEE40BB850C82850D0F
:10CE900083E4F0A3F0750A04F50B780A121B34EE54
:10CEA000FCEFFD12D6CB122B6B74021218E090052A
:10CEB0005212D3B19005526017E0FAA3E08003E864
:10CEC000FAE9FB8A828B8312D3B170F38A828B8357
:10CED000E50CF0A3E50DF079007F060219F3EE24CE
:10CEE00002F50AEF3400F50B850A82F583228E8263
:10CEF0008F83E0F8A3E0F9C3EA98EB992212D8E314
:10CF00008A828B83E0F50C22C082C083E9901038BE
:10CF1000F0D083D08202102B74F7121921E9FE742D
:10CF2000145E60047C018007EEA2E650097C007963
:10CF3000101235E5800AA2E04004790280027900EF
:10CF40007F010219F374F7121921890AECFEEDFF33
:10CF5000E9A2E550097C0179101235E5803C74881E
:10CF6000550A602B7408550AFC79101235E5E96002
:10CF700027EE2418F582EF3400F583E0601CEE24E0
:10CF800017F582EF3400F583E06401600B800BE954
:10CF9000A2E1400479038002790080A474F412199C
:10CFA0002174E91218CAEAFEEBFF890AE4F50CF5D0
:10CFB0000D780C121B34750C02780C121B34750C96
:10CFC0002F750D83780C121B347CFF7DFF7A017B5B
:10CFD000001232B574061218E08A828B83E582450E
:10CFE00083605612DA64851A82851B83E8F0A3E910
:10CFF000F074021219157404F0141219157401F06A
:10D000007404121915E4F0740512191574FFF07404
:10D010000612191574FFF0E50AF50B780B121B3890
:10D0200079007401121915AC82AD83EEFAEFFB1290
:10D0300032CD74011218E08002790174171218E0E1
:10D040007F040219F374EA1219218A148B158C12C9
:10D050008D13900552E0F50AA3E0F50B7416121932
:10D0600015E0F516A3E0F5177418121915E0F50C84
:10D07000A3E0F50D800D850A82850B83E0F50AA3F8
:10D08000E0F50BE50A450B700302D1437E007F00FB
:10D09000E50A2404F510E50B3400F5118008EE24B0
:10D0A000010EEF3400FF850A82850B8312DA66C316
:10D0B000EE98EF9950C08E0E8F0F7403780E1218F1
:10D0C000B7851082851183E0250EF50EA3E0350F9C
:10D0D000F50F850E82F58312DA64C3E89514E9959D
:10D0E0001540BBC3E51298E5139940B2E50C450D18
:10D0F0006023780C121B347816121B34850E82853F
:10D100000F83E0FC7D00A312D8DF1230ED7404120F
:10D1100018E0E96089741A12191512D3B1601E85DE
:10D120001082851183E0FAA3E0F5838A82A3A3A38A
:10D13000A312D8DF88828983EAF0A3EBF0AA0EABB2
:10D140000F80047A007B007F0E0219F374EE12192F
:10D1500021ECFEEDFF900552E0FCA3E0800A8C82FA
:10D160008D8312DA68E8FCE9FDEC4D700302D20D04
:10D170008C828D8312DA64880A890B8882F583A3F6
:10D18000A3A3A3E0F50EA3E0F50FC3EA950EEB957C
:10D190000F40CB8C828D83A3A3E0F510A3E0F511A3
:10D1A000E50E2510F8E50F3511F9C3EA98EB995013
:10D1B000AD750C00750D00800CE50C2401F50CE537
:10D1C0000D3400F50DC3E50C9510E50D9511508E4D
:10D1D000850C12850D13740378121218B7E50A2511
:10D1E00012F8E50B3513F988828983A3A3A3A3E082
:10D1F0006A7003A3E06B70C1EE4F600B8E828F8369
:10D20000E50EF0A3E50FF0E8FAE9FB80047A007B75
:10D21000007F0A0219F374F012192174FE1218CA61
:10D22000EAFEEBFF750A00750B00851A82851B83E9
:10D23000E4F0A3F0EE2404F50EEF3400F50F850EB4
:10D2400082F58312DA6EA385820C85830D74FF6AE2
:10D25000700374FF6B603D851A82851B8385820A8B
:10D2600085830B780A121B348E828F83E0F50A7552
:10D270000B00780A121B34850C82850D83121B4B20
:10D28000EA24010AEB3400FB1232B574061218E0EE
:10D290008A0A8B0B8E828F8312DB1E121B34850C45
:10D2A00082850D83121B4B7C027D007A057B8312E5
:10D2B00030ED74041218E0E970288E828F83E0F557
:10D2C000107810121B34850C82850D83121B4B7C49
:10D2D000027D007A037B831230ED74041218E0E9BA
:10D2E000600B850E82850F8312D8DF80458E828F7A
:10D2F00083E0F5107810121B34850C82850D8312A3
:10D300001B4B7C027D007A017B831230ED7404128A
:10D3100018E0E96036741212191512D8DFE50A45D3
:10D320000B600F851A82851B83E06A7003A3E06B94
:10D3300060051232D9801F850A82850B83A3A3A3BF
:10D34000A3E024FFFAA3E034FF800A850E82850F54
:10D3500083E0FAA3E0FB741412191512DA688882CC
:10D360008983E58245836005EAF0A3EBF0AA0AAB66
:10D370000B740202DA76C082C08390055212D3B1D8
:10D38000602888828983A3A3A3A3E0FCA3E0F5839C
:10D390008C82A3A3A3A3E06A7003A3E06B888289B5
:10D3A0008370DAA3A312D8DF80047A007B0002CF57
:10D3B00011E0F8A3E0F9E8492274F212192174FE91
:10D3C0001218CAEAFEEBFF8C0A8D0B890C851A82B3
:10D3D000851B83AC82AD8312331BE9F50D706FE5BD
:10D3E0000C60107C017910EEFAEFFB1235E5E9F5DF
:10D3F0000D705BAC0AAD0BEEFAEFFB12305DE9F598
:10D400000D704B851A82851B8312D4587410121923
:10D4100015E0F50A74FF650A6034EE2402F50EEF9C
:10D420003400F50F780E121B34750E1E750F007840
:10D430000E121B34EEFCEFFD7A277B331233577448
:10D44000041218E08E828F83A3A3A3E50AF0A90D2E
:10D4500074021218E002CED9E0FEA3E0FF2274F5B8
:10D4600012192174FE1218CAEAFEEBFF8C0A8D0B0A
:10D47000890C851A82851B83AC82AD8312331B74A1
:10D480001769601DE50C600E7C017910EEFAEFFB68
:10D490001235E5E9700BAC0AAD0BEEFAEFFB12307A
:10D4A0005774021218E07F030219F374F61219215F
:10D4B000EAFEEBFF1232C7EA4B600FEE24FFF8EFF3
:10D4C00034FFF9EA28FAEB398003EEFAEFFB02D9D0
:10D4D0008174F012192174E31218CA8A0A8B0B1294
:10D4E000D8B1E0F511741E651170541233218A0C05
:10D4F0008B0DEA450D700302D6C4EA2403F50EEB4A
:10D500003400F50FE4F510F5117810121B348E82FB
:10D510008F83E0FD7C00AA0AAB0B850E82850F830A
:10D52000E0F912335174021218E0E9F51012D6CB6B
:10D5300012335D850E82850F8374FFF002D6C4908E
:10D540001038E0F4606BE511C394195064E511C321
:10D5500013F50C750D007402780C1218B7740025C1
:10D560000CF87480350DF9E824FCFAE934FFFB8AE5
:10D570000E8B0F8A82F58312D8DFEA4B6033E824E2
:10D58000FEF582E934FFF58312D3B160248C828DDD
:10D5900083A385820C85830D8C828D83E0F9700BCB
:10D5A000850C82850D83E06401700B741265116037
:10D5B00005790602D6C67404121915858210858372
:10D5C000117810121B348C828D83A3A3A3121B4BE2
:10D5D0008C828D83A3A3A3A3A312D8C2850C8285BA
:10D5E0000D83E0FA850E82850F8312D6D612191F9D
:10D5F00074041218E0E9F510600302D6C474041232
:10D600001915AC82AD83AA0AAB0B8E828F83E0C35F
:10D6100013F50E750F007402780E1218B774FE25FC
:10D620000EF582747F350FF58312D6D612191FE9D5
:10D63000F51070368E828F83E0FD74046D700302E6
:10D64000D6C4740412191585820C85830D780C12CA
:10D650001B347C00AA0AAB0B901038E0F91233514E
:10D6600074021218E0E9F510805A850C82850D834A
:10D67000E070518E828F83E0851A82851B83F0745F
:10D6800003121915E9F08E828F83E0F87404686044
:10D690000D74066860087408686003741068740488
:10D6A00012191512DA687401121915E8F0A3E9F0DD
:10D6B000851A82851B83AC82AD83AA0AAB0B12301C
:10D6C0000F751000A910741D02DA76E50C2402FA19
:10D6D000E50D3400FB22E0F8A3E0F583888222798F
:10D6E0000002102B74F012192174EA1218CA8A0E63
:10D6F0008B0F8C828D8312D8DF750C0012D8B1C3CA
:10D70000E09AA3E09B4004EA4B7005790102D8AC93
:10D71000851A82851B83E4F0E4F50AF50B780A127A
:10D720001B34780A121B34780A121B348E828F83C2
:10D7300012D8C21232B574061218E08A0A8B0BA8EE
:10D740000AA90BE849700302D80B88828983A3AA2F
:10D7500082AB83E82404F50AE93400F50B851A82CC
:10D76000851B83E0600302D81C88828983E0640201
:10D77000700B74011219157401F002D8297401128A
:10D7800019157402F012D8C875F012A4F885F00DBE
:10D79000A90DE58228F582E58339F583A3A3ECF092
:10D7A000A3EDF07510107511007810121B3412D80B
:10D7B000BE7402121915E075F012A4F8A9F0E58202
:10D7C00028F8E58339F9E82404FAE93400FB122B40
:10D7D0006B74021218E0851A82851B83E004F070D6
:10D7E0000F850A82850B83E0F47003A3E0F47003D5
:10D7F000750C01850A82850B83E02401FAA3E034CD
:10D8000000FBE50CA2E0400302D718851A82851BB5
:10D8100083E0600302D89F790A02D8AC7401121920
:10D8200015E06401600302D78588828983E0640281
:10D8300070D912D8C8F5107511007402781012183A
:10D84000B7E5822510F582E5833511F583A3A3ECB6
:10D85000F0A3EDF07510027511007810121B341250
:10D86000D8BE7402121915E0F5107402781012185F
:10D87000B7E5822510F8E5833511F9E82404FAE9C3
:10D880003400FB122B6B74021218E0851A82851B80
:10D8900083E004F0C39405400302D7F002D7E1AC63
:10D8A00082AD83AA0EAB0F12301B7900741602DA18
:10D8B00076EC2402FEED3400FF8E828F83228A8272
:10D8C0008B83E0FCA3E0FD22850A82850B83E0FCCC
:10D8D000A3E0FD851A82851B83E0228E828F83124E
:10D8E000D8E322E0FAA3E0FB2274F612192112D940
:10D8F000934004EA4B700479018039E4F50AF50B92
:10D90000780A121B348C828D83A3A3A3A3E0F50AAB
:10D91000780A121B3412D986121B34EEFCEFFD126A
:10D9200032B574061218E08B0BEA450B7004790AC5
:10D9300080027900804B74F612192112D9934004A9
:10D94000EA4B700479018039E4F50AF50B780A1284
:10D950001B348C828D83A3A3A3A3E0F50A780A125B
:10D960001B3412D986121B34EEFCEFFD1232B57453
:10D97000061218E08B0BEA450B7004790A800279D5
:10D98000007F020219F3EC2405F50AED3400F50BD3
:10D99000780A228C828D83A3A312D4588C828D8323
:10D9A00012D8E3C3EE9AEF9B2274F6121921EAFE15
:10D9B000EBFF8C828D837C007D0012D8DF1232BB9E
:10D9C0008A828B83E582458370047901800CA3A34E
:10D9D000A3E0F9EEFAEFFB1232A380A574F012195E
:10D9E000218A0C8B0DECFEEDFF750E008002050EFA
:10D9F000EE2416F582EF3400F583E0F8E50EC398C7
:10DA0000505EE50EC333F8E433F9EE28F50AEF393A
:10DA1000F50B7C007D00850A82F58312D8DF123277
:10DA2000BB8A828B83E58245837016850A82850BCB
:10DA30008312DA688E828F83E8F0A3E9F07901809F
:10DA400021A3A3A3E0F9AA0CAB0D1232A3E9609EB7
:10DA5000850A82850B8312DA6EEAF0A3EBF080026E
:10DA600079008015A3A3A3A3E0F8A3E0F92212D8BC
:10DA7000E38E828F83221218E07F080219F374F07C
:10DA8000121921ECFEEDFF8E828F8312DA6812CE1E
:10DA9000DEC3E098A3E0994004E84970047901806E
:10DAA0007AEE2405F50EEF3400F50FEE2404F50CA4
:10DAB000EF3400F50D850C82F58312DB1E121B344A
:10DAC000780E121B347C027D007A057B831230EDC8
:10DAD00074041218E0E970047910803FE4F51078BE
:10DAE00010121B34850C82850D83E0F50C750D003A
:10DAF000780C121B34780E121B34850A82850B8336
:10DB000012D8C212D8DB1232B574061218E08B0B91
:10DB1000EA450B7004790A8002790002DA79E0F5AF
:10DB20001075110078102274F41219218A0A8B0BD7
:10DB3000ECFEEDFF7C007D0012D8DB1232BB8A8246
:10DB40008B83E5824583700479018010EEFCEFFD44
:10DB5000A3A3A3E0F9AA0AAB0B1232A902D0400298
:10DB6000D6DF74F6121921ECFEEDFF1233218A0A7A
:10DB70008B0BA80AA90BE849602BEE4F60098E8237
:10DB80008F83E8F0A3E9F088828983A3A3E0F87487
:10DB9000FE6870047917800F74FF68700479008044
:10DBA0000679168002790202D98174F6121921755C
:10DBB0000A0090054AE06A7003A3E06B7016750BCB
:10DBC000007402780A1218B7744A250AFA740535E7
:10DBD0000BFB8013750A0190054EE06A7003A3E009
:10DBE0006B60DB7A007B0002D98174F4121921EAA0
:10DBF0004B604BEA2402F50AEB12CEE4E0F874FF26
:10DC000068603B74FE686036EA2403FEEB3400FF74
:10DC1000E4F50CF50D780C121B347D1E7C178A82FE
:10DC20008B8312DA6EE0F912335174021218E08518
:10DC30000A82850B8374FEF08E828F8304F002D0FB
:10DC40004074F01219218A0C8B0D890E74FE650C3C
:10DC5000700474FF650D700302DD2BE97030123320
:10DC6000218B0BEA450B600302DD2B7AFF7BFF1251
:10DC700033218A0A8B0BA80AA90BE849700302DD3D
:10DC80002B88828983E50CF0A3E50D02DD2A74015F
:10DC9000650E701D1233218A0A8B0BA80AA90BE8A6
:10DCA00049700302DD2B8882898374FFF0A3F08022
:10DCB000217402650E707479011235D9E9706CAA6D
:10DCC0000CAB0D1233218A0A8B0BA80AA90BE84969
:10DCD0006059E82402FEE93400FF8E828F83E0FA67
:10DCE00074FF6A6046E82403F50AE93400F50B7412
:10DCF000FE6A6022E4F510F5117810121B347D1EC7
:10DD00007C14AA0CAB0D850A82850B83E0F91233D3
:10DD10005174021218E0EEFAEFFB12335D850A82AD
:10DD2000850B8374FFF08E828F83F002DA7974F2B0
:10DD3000121921890AEAFEEBFF8C0B750C1274FE96
:10DD40006E700374FF6F701890051A12E77F60728F
:10DD500012DDC7606D7AFE7BFFA90A12191F805A77
:10DD600074FF6E700374FF6F703590051A12E77FB1
:10DD7000601312DDC7600E7AFF7BFFA90A12191F1C
:10DD8000E9F50C600CAA0BA90A1231C5E9F50C7073
:10DD900031E50A90051CF0E50B90051DF08023127B
:10DDA00035CD8A828B83E58245836016E0650A70F3
:10DDB0000EA90BEEFAEFFB123429E9F50C8003757E
:10DDC0000C03A90C02DF59E0F5838882E0F8A3E098
:10DDD000F988828983E58245832274F212192189A8
:10DDE0000CECFEEDFF9004F9E064026005E06401D4
:10DDF00070047912805CEE4F700479028054123501
:10DE0000CD8A0A8B0BEA450B700479148044E50C2B
:10DE1000600B8A828B83A3A3A3E0D2E1F0750E107E
:10DE2000750F00780E121B34EEFCEFFDEA240DFA9C
:10DE3000EB3400FB122B6B74021218E012E4671231
:10DE400017B8E50A241DF582E50B12EC031217C47E
:10DE5000790002DF5974F21219218A0A8B0BECFE49
:10DE6000EDFF9004F9E06402600EE064016009E0F7
:10DE700064087009EE4F6005791202DF59EA450B1C
:10DE80007005790202DF5990051812E77F60057965
:10DE90001102DF598A828B8312E56D1235CD8A0C0F
:10DEA0008B0DEA450D7005791402DF597A1F7B004E
:10DEB000122C0190051812EC1990051812E77F70CA
:10DEC00005791302DF597C1F7D007900122B831224
:10DED000E56712DF5EA312EC19750E16750F007858
:10DEE0000E121B34E50A2402FCE50B3400FD9005FC
:10DEF00018E02403FAA3E03400FB122B6B74021227
:10DF000018E012DF5E7402F09004F9E0A2E350041E
:10DF1000D2F08002C2F0900518E02403F50EA3E0D1
:10DF20003400F50F780E121B3412DF6A900524E0DE
:10DF3000FAA2F0E433F91239DB74021218E0E9F5C1
:10DF40000AEE4F600BEEFCEFFDAA0CAB0D123A1778
:10DF5000E50A60031231D1A90A7F060219F3900580
:10DF600018E0F8A3E0F583888222850A82850B8376
:10DF7000E0FCA3E0FD2274F412192174FF1218CA08
:10DF8000EAFEEBFF890A1235CD8B0DEA450D7004D0
:10DF900079148014851A82851B83E50AF0AC82AD62
:10DFA00083EEFAEFFB1239FF74011218E07F0402CE
:10DFB00019F374F012192174F01218CA8A0E8B0F1B
:10DFC0008C108D117420121915E0FEA3E0FFEEFAFB
:10DFD000EFFB1235CD8B0BEA450B70047912807183
:10DFE0009082CE780E1210785004790280637C10F3
:10DFF0007D007900851A82851B83AA82AB83122B50
:10E0000083851A82851B83E50EF0850F0BE50BF5E2
:10E010000A7401121915E50AF0850E0A85100C859F
:10E02000110D7410780A1216C87402121915E50A37
:10E03000F07418780E1216C87403121915E50EF054
:10E04000EEFCEFFD851A82851B83AA82AB83123911
:10E05000E174101218E07F080219F374F01219210C
:10E060008A0C8B0D89108C0E8D0F7410121915E00F
:10E07000F5119004F9E064026005E064017005792F
:10E080001202E12BEC450F7005790202E12B1235EB
:10E09000CD8A0A8B0BAE0AAF0BEE4F7005791402D6
:10E0A000E12BEE2421F50AEF3400F50B850A8212EC
:10E0B000E1386003122C077C1B7D00AA0EAB0F1207
:10E0C0002B77850A82850B8312EC1912DF6AEC4DDF
:10E0D0007004791380559004F9E0A2E35037E511FC
:10E0E0006033EC2412F50AED3400F50B780A121BAC
:10E0F00034EC2410F582ED12EC03121B4BEC241AC5
:10E10000F582ED12E2A1F9AA0CAB0D123A1D7404CE
:10E110001218E080027900EE2403F582EF12E2A1EA
:10E12000D2E2F0E5106004E0D2E1F002E05612EB3A
:10E13000F7241BF582E83400F583E0FAA3E0FBEA5C
:10E140004B2274EA1219218A108B11EA45117003CF
:10E1500002E29C90051612E77F600512DF648003DF
:10E16000900F7CE0F50E90052512E77F600F12DF1F
:10E1700064A3A312DDCC6005790012191FE51024F9
:10E1800007F50CE5113400F50DE5102408F50AE556
:10E19000113400F50BAA0AFB850C82850D83E0F98A
:10E1A000123129E9FB850C82850D83F0E5102403EB
:10E1B000FEE5113400FFE5102404F514E5113400E8
:10E1C000F515E510240EF512E5113400F513E510F0
:10E1D0002414F582E51112E2A1F5167517007816E0
:10E1E000121B34E5102412F582E51112EC03121B08
:10E1F0004BE5102410F582E51112EC03121B4B8540
:10E200001282851383121B4B851482851583121B82
:10E210004BAC0AAD0BAA0E8E828F83E0F91231B39C
:10E22000740A1218E08E828F83E070318512828525
:10E230001383121B4B780A121B34850C82850D83C5
:10E24000E0FD7C0185148285158312E56DA90E120F
:10E2500035C174041218E0E98E828F83F0900516A0
:10E2600012E77F60371231D790051CE0602E9005D1
:10E270001DE0FA90051CE0F91231C5E9601E8E829E
:10E280008F83E0FB85148285158312DF7090051C57
:10E29000E0FAEBF91231B990051CE4F07F0E021997
:10E2A000F312EA01E02274F7121921EAF8EBF98877
:10E2B000828983A3A3A3A3A3A3A3A3A3A3121B4BFA
:10E2C00088828983A3A3A3A3A3A3A3A3121B4B8820
:10E2D000828983A3A3A3A3A3A312DF708882898367
:10E2E000A3A3A3A312E56D88828983A3A3A3E0F966
:10E2F0001231BF74041218E07F010219F374F21294
:10E300001921EAFEEBFF750C00EE2403F8EF340050
:10E31000F9880A890B8882F58312E56D1235CD8A5A
:10E32000828B83E58245836009E0F50C12E5671274
:10E3300035C790051CE06019650C701590051DE04F
:10E34000FA90051CE0F91231C5E9602490051CE43F
:10E35000F0E50C601B8E828F83A3A3A3A3A3E0FB35
:10E3600012DF6AAA0C8E828F83A3A3E0F91231B95F
:10E3700090051812E77F60031231D102DF5974E86B
:10E38000121921890D8A108B0C8C0E8D0F741A12A4
:10E390001915E0F518A3E0F519741C121915E0F52C
:10E3A00016A3E0F517741E121915E0F512A3E0F597
:10E3B000137420121915E0F50A7A137B00122B8FC3
:10E3C0008A148B15AE14AF15EE4F700302E4628E03
:10E3D000828F8374D012E8648E828F83A3A3740526
:10E3E00012E71CEE2404FAEF3400FBE50E450F6043
:10E3F000197514067515007814121B34AC0EAD0F88
:10E40000122B6B74021218E080097C067D007900E3
:10E41000122B837418121915E0F8A3E0F98E828F7D
:10E4200083A3A3A3A3A3A3A3A3A3A3E8F0A3E91295
:10E43000E9F6E518F0A3E519F0EE240E12EC00E57C
:10E4400016F0A3E517F012E467E512F0A3E513F068
:10E45000EE241212EC00E50AF0EEFAEFFBA910121E
:10E460002B9B7F100219F3EE241012E9FE2274F2A6
:10E47000121921890B8A0AECFEEDFF8B0C7A067BC0
:10E4800000122B8FEA4B60278A828B8374D0F0A313
:10E49000E50BF08A828B83A3A3740612E4B2EEF03C
:10E4A000A3EF12E4B2A3A3E50CF0A90A122B9B027E
:10E4B000DF59F08A828B83A3A3A32274EC12192163
:10E4C00089128A0A8B0B8C0C8D0D7414121915127B
:10E4D000E7407416121915E0F510A3E0F5117A0C57
:10E4E0007B00122B8F8A148B15AE14AF15EE4F6084
:10E4F0004DAA0AAB0B1235CD8A828B83E582458308
:10E500007003900F7CE0F98E828F8374D0F0A3E5C6
:10E510001212E91F740712E723E50AF012E927A394
:10E52000E50D12E931E50EF0A3E50F12E931A3A3E1
:10E53000E510F0A3E511F0EEFAEFFB122B9B02E7DA
:10E540001774F6121921EAFE1235D38A828B83E5FD
:10E55000824583600BEEF9A312E56D123429800227
:10E5600079127F020219F3850A82850B83E0FAA3F0
:10E57000E0FB2274EC12192189138A0C8B0D8C128A
:10E580001235CD8A108B11EA4511700302E71790FE
:10E59000051812E77F700302E7177A0E7B00E0C8C8
:10E5A000241912E77960027A2912E7746008EA24D4
:10E5B00014FAE43400FB741412191512E740E50E46
:10E5C000450F6008EA241BFAEB3400FB12EC0D1235
:10E5D000E7796008EA2416FAEB3400FB122B8F8AE5
:10E5E0000A8B0BAE0AAF0BEE4F700302E7177C0EDF
:10E5F0007D007900122B837A267B001230FF8A0A75
:10E600008B0BEA450B7009851082851183E0F50AB2
:10E610008E828F8374D0F0A3E51312E91F740A125F
:10E62000E71CA3E50D12E723A3E512F0EE240EF597
:10E630000CEF3400F50D900518E0241912E735129F
:10E64000E77F6018EE240612E748121B348C828D97
:10E650008312DF70122B6B74021218E0900518E021
:10E66000241D12E73512E77F603AEE2408F8EF34F4
:10E6700000F98882898312E8628882898312E56DB5
:10E68000EA2414F50CEB3400F50D75101475110027
:10E690007810121B348C828D8312DF70122B6B74F6
:10E6A000021218E0E50E450F6015EE240A12E74845
:10E6B000121B34AC0EAD0F122B6B74021218E090CB
:10E6C0000518E0241BF8A3E03400F9E8FAE9FB8A16
:10E6D000828B8312E77F6033EE240CF8EF3400F96D
:10E6E000880E8882F58312E862750C16750D007825
:10E6F0000C121B348A828B8312DF70850E82898311
:10E7000012E56D122B6B74021218E0EEFAEFFBA902
:10E710000A122B9B1231D17F0C0219F312E728E564
:10E720000CF02212E728A32212E72C22F08E828F0F
:10E7300083A3A3A322FCA3E03400FD8C828D83225B
:10E74000E0F50EA3E0F50F22F8EF3400F988828996
:10E7500083E50CF0A3E50DF088828983E0FAA3E05D
:10E76000FBEA241BF50CEB3400F50D75101B75113D
:10E770000078102212EBF7241DF582E812EA01E07E
:10E78000F8A3E0F9E84922C082C08390051812E797
:10E790007F602FE0C8241912E1336003122C0712A6
:10E7A000E12E6003122C0712EC0712E13360031212
:10E7B0002C0790051812E56D122C07900518E4F04F
:10E7C000A3F0D083D08202102BC082C083900516A4
:10E7D00012E77F601090051612E56D122C07900568
:10E7E00016E4F0A3F080DB74F0121921890E8A0C74
:10E7F0008B0D1235CD8A0A8B0BEA450B605E7A26AB
:10E800007B001230FF8A108B11AE10AF11EE4F70EB
:10E8100008850A82850B83E0FE7A057B00122B8F28
:10E820008A0A8B0BEA450B60337C057D0079001268
:10E830002B83850A82850B8374D0F0A3E50EF085C7
:10E840000A82850B83A3A3740EF0850A82850B834D
:10E8500012E85FAA0AAB0BEEF9122B9B02E056A35B
:10E86000A3A3E50CF0A3E50DF02274EC12192189A5
:10E870000A8A108B118C0B8D0C7414121915E0F58B
:10E880000E7415121915E0F50D1235CD8A148B157D
:10E89000EA4515700302E91C7A0B7B00122B8F8A64
:10E8A000128B13AE12AF13EE4F60717C0B7D0079AB
:10E8B00000122B837A267B001230FF8A128B13A85A
:10E8C00012A913E8497008851482851583E0F88E33
:10E8D000828F8374D0F0A3E50A12E91F740F12E946
:10E8E0001FA3E510F0A3E51112E72312E9278E829A
:10E8F0008F83A3A3A3A3A3A3A3E50E12E931E50D80
:10E90000F07416121915EE2409FCEF3400FD7402A0
:10E910001217DDEEFAEFFBE8F9122B9B02E717F076
:10E920008E828F83A3A322A3E50B12E937E50CF0B7
:10E930002212E937A3A32212E72CA3A3A32274EE89
:10E940001219218A0C8B0D89101235CD8A0E8B0F6E
:10E95000EA450F700302E9F17A0D7B00122B8F8AD2
:10E960000A8B0BAE0AAF0BEE4F700302E9F17A2669
:10E970007B001230FF8A0A8B0BEA450B7009850E6B
:10E9800082850F83E0F50A8E828F8374D0F0A3E432
:10E9900012E91F740BF07512067513007812121B22
:10E9A00034E50E2405FCE50F3400FDEE2403FAEFF8
:10E9B0003400FB122B6B74021218E08E828F83A33B
:10E9C000A3A3A3A3A312E85FEE240B12EC00E510AF
:10E9D000A2E0500474018001E412E9F6E510A2E11E
:10E9E000500474018001E4F0EEFAEFFBA90A122B47
:10E9F0009B7F0A0219F3F0EE240C12E9FE22F58245
:10EA0000EF3400F5832274E812192189128A118CDF
:10EA10000A8D0B8B10AA0AAB0B1235CD8A0C8B0D0D
:10EA2000741812191512E740741A121915E0F51628
:10EA3000A3E0F517741C121915E0F518A3E0F519F9
:10EA4000741E121915E0FEA3E0FFEA450D700302E3
:10EA5000EB29E512600302EB29EA2403F582EB12AD
:10EA6000E2A1D2E4F0E510A2E2E05004D2E180029B
:10EA7000C2E1F0E50E450F7010E5164517700AE586
:10EA80001845197004EE4F606BE0D2E2F0EE4F6073
:10EA90003512E4671217B8E50C241DF582E50D1256
:10EAA000EC031217C47514107515007814121B347A
:10EAB000EEFCEFFDE50C240DFAE50D3400FB122B06
:10EAC0006B74021218E0E50C2421F50CE50D3400FE
:10EAD000F50DE50E450F6021E511701D850C828551
:10EAE0000D8312E13A6003122C077C1B7D00AA0EF5
:10EAF000AB0F8027E0C2E2802FE5164517602A742D
:10EB00000165117024850C82850D8312E13A600342
:10EB1000122C077C1B7D00AA16AB17122B77850CD5
:10EB200082850D83EAF0A3EBF090051812E77F7061
:10EB30000302EBF4E50E450F6039E0C8241912E733
:10EB400079700F7A1B7B00122C0112EBF72419123B
:10EB5000EC1312EBF7241912E1336017750C1B75D7
:10EB60000D00780C121B34AC0EAD0F122B6B74021F
:10EB70001218E0E5184519603112EC0D12E77970B2
:10EB80000D7A167B00122C0112EC0D12EC1312E11F
:10EB90002E6017750C16750D00780C121B34AC180E
:10EBA000AD19122B6B74021218E0EE4F603112E7B0
:10EBB00074700D7A147B00122C0112EC0712EC1306
:10EBC00012EC0712E1336017750C14750D00780C08
:10EBD000121B34EEFCEFFD122B6B74021218E0785E
:10EBE00016121B34AC10AA0AAB0BA9121231CB744B
:10EBF000021218E002E462900518E0F8A3E0C822CF
:10EC0000F582EF12EA012212EBF7241D2212EBF734
:10EC1000241B22F582E812EA01EAF0A3EBF0227449
:10EC2000EE121921890D8A0E8C108D11750C0012AF
:10EC3000ED206005791102ED027412121915E0F54C
:10EC40000AA3E0F50BE50A450B603C7A217B001234
:10EC500030FF8A128B13A812A913E50A2415FEE5CA
:10EC60000B3400FF8E828F83E0C398E49940187ABA
:10EC7000227B001230FF8A128E828F83E0FAC3E576
:10EC8000129AEB94005004790280777A637B001229
:10EC90002C019009ABEAF0A3EBF012ED207004799F
:10ECA00013805F7C637D007900122B8312ED0EE4EC
:10ECB000F09009AB12F2D2E50DF012ED0EA3E50EC5
:10ECC000F09009AB12F422E510F0A3E511F012F771
:10ECD000AAE50AF0A3E50BF012F940241812ED079B
:10ECE000E4F0A3F012F7B0E4F0E50D6006123A2369
:10ECF000E9F50C12ED0E7401F0E50C6003123A59BF
:10ED0000A90C7F0A0219F3F582E812F7C12212ED6D
:10ED100012229009AB12ED192212F2D6A322E9FEBB
:10ED20009009AB12F173E8492274F61219217E00A2
:10ED300012ED206019E0C8241AF582E812F1267459
:10ED40000268600F740368600A74046860057912D1
:10ED500002EDF412EE056C7003A3E06D600579021C
:10ED600002EDF4750A108E0B780A121B34EAFCEBE4
:10ED700012EDF7122B6B74021218E079109009ABA8
:10ED8000E0242BFAA3E03400FB1239AB9009ABE08E
:10ED9000241BF50AA3E03400F50B780A121B341289
:10EDA000F50112EDF7123A1174021218E09009AB56
:10EDB000E0240112F79FE0FA9009ABE0FBA3E0F535
:10EDC000838B82E0600D74036A7027888289837464
:10EDD00002801974046A7009888289837402F08041
:10EDE0001174036A700C888289837405F0123A29C1
:10EDF000E9FEEEF902F867FD9009ABE02407FAA3FB
:10EE0000E03400FB229009ABE0F8A312FA84E02280
:10EE1000C082C0839009AD02F17974F712192112F2
:10EE2000ED1E601312EE0B6A7003A3E06B700874A2
:10EE3000016E7003123A597F010219F3C082C08338
:10EE40007917123A5F02F17E74F412192174ED12EF
:10EE500018CAEAF8EBF9851A82851B83E4F08882E8
:10EE60008983A3A3A3A3A3A312F3C48A828B83E001
:10EE7000F50CE82402F8E93400F9E8FEE9FFE50CB6
:10EE800014603314603014604B14607214607D148D
:10EE9000700302EF1A14700302EF2814700302EFDC
:10EEA0003614700302EF4414700302EF521470031F
:10EEB00002EF6002EF6F7401121915AC82AD83127C
:10EEC0003ABFE9F87412687019851A82851B837439
:10EED0000602EF777401121915AC82AD83123ACB9A
:10EEE000E9F8E8600302EFBF750D0712F3C01235B1
:10EEF000CDEA4B600302EF7A750A0802EFB674019F
:10EF0000121915AC82AD83123AD780D4740112194C
:10EF100015AC82AD83123AE380C67401121915ACA8
:10EF200082AD83123AEF80B87401121915AC82AD2C
:10EF300083123AFB80AA7401121915AC82AD8312B8
:10EF40003B0D809C7401121915AC82AD83123B13EA
:10EF5000808E7401121915AC82AD83123B1F808024
:10EF60007401121915AC82AD83123B2B02EEE085C1
:10EF70001A82851B837407F0804E9004F9E0A2E3A7
:10EF800050059009AF80039009AD12ED2360241263
:10EF9000F47CF8A3E0F9890BE8450B6016740112C4
:10EFA0001915AC82AD83A90C8882850B8312191FB9
:10EFB000E9F50D850D0A851A82851B83E50AF08522
:10EFC0001A82851B83E0600CAC82AD8312F3C01201
:10EFD00039FF800312398774131218E07F04021975
:10EFE000F374F6121921ECFEEDFF750ADD750B3A8C
:10EFF000780A121B347902123B3174021218E0E9CC
:10F00000F50A8E828F83E0F9123A5FA90A02F86747
:10F0100074F4121921EAFEEBFF890A12ED20700345
:10F0200002F0FC12EE0B6E7003A3E06F600302F0BF
:10F03000FC9009ABE0240108A3E03400F9E8FAE908
:10F04000FB8A828B83E0F8740668600302F0E912A1
:10F05000F2CA607C9009AC12FA7E12F1739009AB8F
:10F06000E0FCA3E0CC2418F582EC12F9B3FCA3E099
:10F07000FDE82413F582E912F126A2E050168C82F5
:10F080008D83A3A3A3A3A3E0A2E050088A828B836D
:10F0900074078034E8540260168C828D83A3A3A386
:10F0A000A3A3E0540260088A828B8374098019E864
:10F0B000540460178C828D83A3A3A3A3A3E05404FC
:10F0C00060098A828B83740BF080159009AF8003EE
:10F0D0009009AD12ED23600812F162600312191F4E
:10F0E00012F15B703C7900800E741168700EE50AB5
:10F0F0006003750A32A90A123A5F8025E50A701882
:10F10000EEFAEFFB1235CD8A828B83E58245836070
:10F1100007A3A3A3E0D2E4F0EEFAEFFBA90A1231B1
:10F12000DD790102EFDC12F7C1E0F822C082C08372
:10F1300012ED20602412F47C70059009AD800390DC
:10F1400009AF12ED23600812F162600312191F1259
:10F15000F15B70057900123A5F802312ED12E064D2
:10F16000122212F3BCA3A312F17388828983E58271
:10F17000458322E0F8A3E0F922EAF0A3EBF0D08384
:10F18000D08202102B74E812192174E91218CA8572
:10F190001A82851B83EAF0A3EBF08C188D19742F6B
:10F1A000121915E0F516A3E0F51712ED2070057998
:10F1B0001202F2C012F4811235CD8A0A8B0BAE0A0C
:10F1C000AF0BEE4F7005791402F2C07402121915DC
:10F1D000AA82AB83123A6BEE2405F514EF3400F5E6
:10F1E00015EE2404F512EF3400F51312F2CA603262
:10F1F000740212191585820E85830F12F2DFFEA3A9
:10F20000E0FF12314DE9F51079001231538A0C8B71
:10F210000D851282851383E0F51185140A85150B7F
:10F22000803012F2DFF50EA3E0F50F74021219150B
:10F23000AE82AF8312314DE9F51179001231538A54
:10F240000A8B0B851282851383E0F51085140C85DB
:10F25000150D7410121915AC82AD83EEFAEFFB1286
:10F260003AB37409121915AC82AD83AA0EAB0F1212
:10F270003AAD7816121B34780A121B34E511F50AE0
:10F28000780A121B38780C121B3474101219158569
:10F29000820A85830B780A121B347419121915859A
:10F2A000820A85830B780A121B34A910AC18AD1999
:10F2B000740B12191512F3C4123999740B1218E059
:10F2C00074171218E07F100219F39009AB12F2D2F2
:10F2D000E02212F2D622E0F8A3E0F58388822290A1
:10F2E00009ACE0C8241812F7BEE02274F612192106
:10F2F00074F71218CAEAFEEBFF8C0A8D0B9009AD69
:10F3000012ED23700302F3B712F3BC12ED23700366
:10F3100002F3B78C828D83E0C0E07402121915D01D
:10F32000E0F08C828D83A3E0C0E07403121915D045
:10F33000E0F08C828D83A3A3E0F97404121915AA5E
:10F3400082AB831239B7850A82850B83A3A3A3E01E
:10F35000C0E07406121915D0E0F0850A82850B838F
:10F36000A3A3A3A3C082C0837407121915AC82ADF6
:10F3700083D083D08274021217DD7402121915AC87
:10F3800082AD837901EEFAEFFB9009AD12F2CDF870
:10F39000A312F3BC12191FE9851A82851B83F06042
:10F3A000167401121915E9F0AC82AD838E828F8339
:10F3B000A312F3C41239FF740902F86412F2D922BD
:10F3C0008E828F83E0FAA3E0FB2274F21219218966
:10F3D0000A740E121915E0F50CA3E0F50D74101265
:10F3E0001915E0F50EA3E0F50F9009AF12ED2360BB
:10F3F0002A9009AF12F422A3E0FEA3E0FFEE4F60D3
:10F400001A780E121B34780C121B34A90A8E828FC4
:10F410008312191F74041218E0800279027F060219
:10F4200019F312F48D2274F612192174F91218CA04
:10F4300012ED20603D851A82851B83AA82AB831260
:10F440003A6B12F48112F4796008750AAD750B3AC3
:10F450008006750AB3750B3A780A121B34740212CF
:10F460001915AC82AD837907123B3174021218E092
:10F4700080027901740702F8649009AC12F3BCE0D1
:10F480002212F48AE0FAA3E0FB229009AB12ED19F4
:10F49000A3A32274F612192174F01218CA750A1067
:10F4A000750B00780A121B349009ABE0241BFCA3F7
:10F4B000E03400FD7402121915AA82AB83122B6B83
:10F4C00074021218E0750AC5750B3A02F84774F613
:10F4D00012192174F01218CA750A10750B00780AF7
:10F4E000121B3412F501FD7402121915AA82AB83A6
:10F4F000122B6B74021218E0750AD1750B3A02F8E0
:10F50000479009ABE0242BFCA3E034002274F012F6
:10F5100019218A0A8B0B750C007A077B00122C01CB
:10F520009009ABE0241812F79FEAF0A3EBF0888271
:10F530008983E0FA4B700302F77112F7AAE0FEA389
:10F54000E0FF750E07750F00780E121B34AC0AAD84
:10F550000B122B6B74021218E012F2CA600302F64F
:10F56000E5EE2413FCEF3400FD12F2DF2405F50E66
:10F57000A3E03400F50F8C828D8312F173850E8227
:10F58000850F83E0A2E092F0E8A2E020F001B35002
:10F5900007A2E0E433FA80027A00E854FE4AF88CCD
:10F5A000828D8312F78DC313A2E092F0E8C313A2F9
:10F5B000E020F001B35012E854026004D2F080025F
:10F5C000C2F0A2F0E433FA80027A00E854FDF8EACF
:10F5D000C333FAE433FBE84AF8E94B12F799543F96
:10F5E000A2E092F0E81313543FA2E020F001B350E0
:10F5F00013E854046004D2F08002C2F0A2F0E433B5
:10F60000F5108003751000751100E854FBFAE9FB52
:10F61000740278101218B7EA4510F8EB451112F78A
:10F620009913541FA2E092F0E8131313541FA2E0A1
:10F6300020F001B35013E854086004D2F08002C2F5
:10F64000F0A2F0E433F5108003751000751100E8A6
:10F6500054F7FAE9FB740378101218B712F77B54C9
:10F660000FA2E092F0E8C4540FA2E020F001B350E2
:10F6700013E854106004D2F08002C2F0A2F0E43328
:10F68000F5108003751000751100E854EFFAE9FBDE
:10F69000740478101218B712F77B135407A2E09283
:10F6A000F0E8C4135407A2E020F001B35013E8546B
:10F6B000206004D2F08002C2F0A2F0E433F50E80A4
:10F6C00003750E00750F00E854DFFAE9FB74057846
:10F6D0000E1218B7EA450EF8EB450FF98C828D83B0
:10F6E000E8F0A3E9F0850A82850B83A3E0600F8E22
:10F6F000828F83A3E0600712F7B07405806B850AE0
:10F7000082850B83A3A3E054047014EE2412F582C7
:10F71000EF12F9B3A2E2400712F7B07401804A1267
:10F72000F2CA8E828F83600CE0F8850A82850B8393
:10F73000E0F9800AE0F9850A82850B83E0F8E8C3E6
:10F7400094055028E9C394055022880AE975F0050C
:10F75000A4F8A9F0748E28F8748039F9E8250A1203
:10F76000F9B0C0E012F7B0D0E0F08008750C188056
:10F7700003750C13A90C7F080219F3EA4510F8EB86
:10F78000451112F787C422F98C828D83E8F0A3E932
:10F79000F0850E82850F83E02212F787131322F87B
:10F7A000A3E03400F9888289832212F48AA3A32279
:10F7B0009009ABE0F8A3E0C8241A12F7BE22F58244
:10F7C000E83400F5832274F6121921750AE9750BE5
:10F7D0003A780A121B347911123B31740202F86430
:10F7E00074F612192174EE1218CAEAFEEBFF741CAB
:10F7F00012191512F3C4851A82851B83ECF0A3ED50
:10F80000F0750A08750B00780A121B34EAFCEBFD50
:10F810007404121915AA82AB83122B6B740212188E
:10F82000E0750AF5750B3A780A121B347402121946
:10F8300015AC82AD83790BEEFAEFFB123B3174020B
:10F840001218E07412801D780A121B347402121907
:10F8500015AC82AD83791112F481123B317402121E
:10F8600018E074101218E07F020219F374F61219EE
:10F8700021750A01750B3B02F7D174F4121921743A
:10F88000F91218CAEAFEEBFF851A82851B83E9F09C
:10F89000750C06750D00780C121B347403121915C3
:10F8A000AA82AB83122B6B74021218E0750C0775D9
:10F8B0000D3B780C121B347402121915AC82AD8307
:10F8C0007908EEFAEFFB123B3174021218E074076C
:10F8D00002EFD974F6121921750A19750B3B02F75C
:10F8E000D1C082C08312ED206050E0C8241812F904
:10F8F000496003122C0712F940245B12F949600396
:10F90000122C0712F940245D12F9496003122C07EA
:10F9100012F940245F12F9496003122C0712F940D2
:10F92000246112F9496003122C079009AB12F3C449
:10F93000122C079009ABE4F0A3F012398D02F17E8E
:10F940009009ABE0F8A3E0C82212F7BEE0FAA3E00A
:10F95000FBEA4B2274F712192112ED1E604FE0C82A
:10F96000246112ED07121B4B12F940245F12ED07C0
:10F97000121B4B12F940245D12ED07121B4B12F9BA
:10F9800040245B12ED07121B4B12F9402417F5823D
:10F99000E812F9B3FB12EE05FCA3E0FD12F479FACC
:10F9A000EEF91231EF74081218E0123A5902EE37EC
:10F9B000F582E912F7C1E022C082C0837910900974
:10F9C000AB12F94C60399009ABE0F8A312F2E2FAFD
:10F9D000A3E0FBEAFCEBFDEC4D602412F7AA12F960
:10F9E0004C601CEA2415F582EB12F1268C828D8383
:10F9F000A3A3A3A3E0FAC3985003EA8001E8F902A5
:10FA0000F17E74F6121921EAFEEBFF12ED2060621E
:10FA100012FA7E12ED23605A880A890B8882898344
:10FA2000E08E828F83F088828983A3E08E828F8329
:10FA3000A3F0E8241212F9B0F9EE2402FAEF340030
:10FA4000FB1239B7E50A2415F582E50B12F9B38EDE
:10FA5000828F83A3A3A3A3F0E50A2413F582E50B09
:10FA600012ED0AEE2405FCEF3400FD74021217DDDE
:10FA700080097C077D007900122B8302F86712FA57
:10FA800084A3A32212F2D9A3A3A32274F2121921F0
:10FA90008A0BECFEEDFF750A00E9602714604F1435
:10FAA000606514700302FB4B14700302FB6A146060
:10FAB0006914700302FB7F14700302FB9114606FE2
:10FAC00002FBB1EAC39416400302FBAC7C167D0036
:10FAD00079007A2B7B05122B83850B0E750F00782E
:10FAE0000E121B34EEFCEFFD7A2B7B058072740244
:10FAF000650B600302FBAC8E828F8312FDF99005CB
:10FB000041E8F0A3E980247401650B600302FBACBB
:10FB10008E828F83E090054380117401650B600332
:10FB200002FBAC8E828F83E0900FD5F002FBB474A1
:10FB300001650B70778E828F83E0F9A2E1406D90B2
:10FB4000100E12FDDD7A137B10805C7406650B705D
:10FB50005B750E06750F00780E121B347A447B0518
:10FB6000122B6B74021218E0804A7408650B703C0B
:10FB70008E828F837CD87D0F74081217DD803574D8
:10FB800001650B7027900FEE12FDDD7AF37B0F807D
:10FB9000107401650B7015900FFE12FDDD7A037B6A
:10FBA000108E828F83E0F912327F8008750A1880E8
:10FBB00003750A02A90A7F060219F374F4121921C7
:10FBC0007900EAA2E0501B750A37750B82780A1299
:10FBD0001B347C0B7D007AE07B0F123375740212AC
:10FBE00018E07F040219F3D083D08202102BC08268
:10FBF000C083E9A2E18A828B83E05004D2E18002D3
:10FC0000C2E1F0E9A2E3E05004D2E38002C2E3F0F3
:10FC1000E9A2E5E05004D2E58002C2E5F0742A5979
:10FC200060098C828D83E0440C800AE970088C8224
:10FC30008D83E054F3F080AF74EE121921891074B3
:10FC40001612191512FDF9750B00E8496005790BBC
:10FC500002FDB87414121915E0F50CA3E0F50D8C33
:10FC6000828D83E06402600302FDAB12FDF8741222
:10FC7000121915E0FEA3E0FF8E828F83A3AA82AB48
:10FC800083EC2406F50EED3400F50F88828983E0BD
:10FC9000FCA3E0F9EC2400F512E439F51378121214
:10FCA0001B78002A04ABFDB1FCD4FC1CFDF1FC2D3B
:10FCB000FD850E82850F8312FDD7122B65EAF50AAA
:10FCC000E510C3950A500385100A850C82850D83C3
:10FCD000E50A802512FDE912FDF9850C82850D8368
:10FCE0007402F0E88E828F83F0E98A828B8302FDB2
:10FCF000A8850C82850D837406F0F50C750D0078CF
:10FD00000C121B34850E82850F8312FDDDEEFAEF97
:10FD1000FB122B6B74021218E002FDB6850C828573
:10FD20000D837401F012FDE912FDBD807B850E820A
:10FD3000850F8312FF97850C82850D836069740897
:10FD4000F08882898312FDBDF088828983A3E08ACE
:10FD5000828B83F0E82402FAE93400FB8A828B83E9
:10FD600012FDBDA3A3F08A828B83A312FDBDA3A3C2
:10FD7000A3F0E82404FAE93400FB8A828B8312FDA5
:10FD8000C3F08A828B83A312FDC3A3F0E82406F894
:10FD9000E93400F98882898312FDE3F0888289833F
:10FDA000A312FDE3A38001E4F0800B850C82850D96
:10FDB00083E4F0750B01A90B7F0A0219F3E08E8230
:10FDC0008F832212FDC722E08E828F83A3A3A3A379
:10FDD00022850C82850D83E0FAA3E0FB22E0FCA3E0
:10FDE000E0FD2212FDC7A3A322850E82850F83E0CA
:10FDF000F8A3E0F583888222A3E0F8A3E0F9227457
:10FE0000EE12192189117510008C828D83E0640235
:10FE1000600302FF8B12FDF8EC2406F50CED3400B4
:10FE2000F50D7412121915E0F50EA3E0F50F741418
:10FE3000121915E0FEA3E0FF88828983E0FAA3E0AF
:10FE4000F9EA2400F50AE439F50B780A121B780068
:10FE50002A038BFF5CFED8FE47FF18FF12FDD1126C
:10FE60002B65EAC39EE49F4024851182858212752A
:10FE70001300EE2512F50AEF3400F50BC3E50A94E2
:10FE800016E50B9400400C75100D02FF8E751007DF
:10FE900002FF8E7812121B34AC0EAD0F850C8285DA
:10FEA0000D83E02EFAA3E03FFB122B6B74021218B5
:10FEB000E0850C82850D83E0250AF8A3E0350B88E8
:10FEC00082F583E412FF93700302FF8E12FF9F708E
:10FED0000302FF8E7900803BEE4F600302FF7574D2
:10FEE00002651170A2850E82850F83E0FAA3E0F906
:10FEF000EAF8850C82850D83E0FAA3E0F5838A8217
:10FF0000E8F0A3E912FF93700302FF8E12FF9F60D7
:10FF10007D790112191F8076900543E06031EE4F24
:10FF2000705374066511600302FE87750A06750B2F
:10FF300000780A121B34AC0EAD0F12FDD1122B6BE0
:10FF400074021218E08047900FD5E0A2E3400575D7
:10FF50001003803AEE4F701D74016511600302FEBC
:10FF600087850E82850F83E0F8600F740168600A50
:10FF7000751080801975100B8014E8C0E0850C8224
:10FF8000850D8312FDEFD0E0F08003751001A910FC
:10FF900002FDB8F0900529E0F8A3E0F9E84922E075
:10FFA000F5838882E0F8A3E0F988828983E58245B9
:10FFB0008322C082C0839003D17470F0A374B1F027
:10FFC000A3E0541FF09003D5741DF0A37442F0A376
:10FFD0007470F0A374B2F09003DBE0541FF0900350
:10FFE000DD741EF0A37412F08000D083D082021062
:10FFF0002BC082C083122DED02FFEA02102BFFFFFF
:020000040003F7
:100000007F010219F374F412192174FD1218CAEA5F
:10001000FEEBFF8C0A8D0BEE4F6005EC450B700478
:10002000790280607903851A82851B83AA82AB835B
:100030001239AB7402121915E0543F4440F0780AAB
:10004000121B347402121915AC82AD83EEFAEFFB69
:1000500012399374021218E0E9FE7026750C0375CC
:100060000D00780C121B347402121915AC82AD838A
:10007000E50A2403FAE50B3400FB122B6B74021221
:1000800018E0EEF9740302813074F412192174FA45
:100090001218CA8A0A8B0BECFEEDFFEA450B6004CE
:1000A000EE4F7005790202812B750C03750D0078F7
:1000B0000C121B34EE2403FCEF3400FD7402121901
:1000C00015AA82AB83122B6B74021218E074021211
:1000D0001915E0543F4440F0740312191585820C41
:1000E00085830D780C121B347402121915AC82AD85
:1000F00083AA0AAB0B12399374021218E0E9702B31
:10010000750A03750B00780A121B34EEFCEFFD74C0
:1001100005121915AA82AB83122B7D74021218E006
:10012000E96401700479008002790174060281306B
:100130001218E07F040219F374E812192174E8120E
:1001400018CA8A0C8B0D89198C0A8D0BEA450D6033
:1001500005EC450B7005790202828874042519F5B7
:1001600018FA7B00122C018A0E8B0FAE0EAF0FEE29
:100170004F700302828312313B8A0E8B0F8C108DDD
:10018000118519127513007812121B34AC0CAD0DC9
:10019000EE2404FAEF3400FB122B7174021218E003
:1001A0008E828F83A3A3A3E50EF0E50FF5178E8251
:1001B0008F83A3A3F0850E12F513851014851115F6
:1001C000741078121216C8E512F5168E828F83A36A
:1001D000F0850E12850F13F5148511157418781219
:1001E0001216C8E512F50C8E828F83F07512107806
:1001F00012121B34123135EAFCEBFD740A12191588
:10020000AA82AB83122B7174021218E0851A8285C0
:100210001B838582128583137812121B34A918EE72
:10022000FCEFFD740A121915AA82AB831239C3744C
:10023000021218E0E9F50D7041850A82850B83E50D
:100240000EF0A3E51712828DE51612828DA3E50C40
:10025000F0750E08750F00780E121B347402121917
:1002600015AC82AD83E50A2404FAE50B3400FB12D9
:100270002B7174021218E0123141EEFAEFFB122CCE
:10028000078003750D13A90D7418028892F0850A72
:1002900082850B83A3A32274E812192174DD12183E
:1002A000CA7401121915EAF0A3EB128C7C8C188D1C
:1002B00019EC45197003028362743C1219151284FB
:1002C000B0700302836274011219151285921235FF
:1002D000CD8A168B17EA4517700579140284AB8511
:1002E0000A82850B83E0F512E4F513F514F515A3E6
:1002F000E0F50EE4F50FF510F5117408780E1216FE
:10030000E17812790E121700850A82850B83A3A368
:10031000E0F50EE4F50F7410780E1216E1781279FC
:100320000E121700850A82850B83A3A3A3E0F50EA6
:10033000E4F5107418780E1216E17812790E12177F
:1003400000EA241DF582EB128DD3780E12179A78ED
:1003500012790E121058400F908272780E121043CC
:10036000600579020284AB851A82851B83E06011E7
:100370008A828B83A3A3A3E0A2E1400579010284D2
:10038000AB7C087D0079007403121915AA82AB8337
:10039000122B83743B121915E0F51074042510F527
:1003A0000CFA7B00122C018A0E8B0FAE0EAF0FEEF3
:1003B0004F700579130284AB7511007810121B344D
:1003C000AC18AD19EE2404FAEF3400FB122B717453
:1003D000021218E0750E04750F00780E121B34AC73
:1003E0000AAD0BEEFAEFFB122B7174021218E075D6
:1003F0000E10780E121B34E516240DFCE5173400A0
:10040000FD7415121915AA82AB83122B7174021296
:1004100018E0740312191585820E85830F780E1269
:100420001B34A90CEEFCEFFD7415121915AA82AB52
:10043000831239C374021218E0E9F50C7064750E6A
:1004400008750F00780E121B347405121915AC8252
:10045000AD83740D121915AA82AB83122B7174022D
:100460001218E0780E121B34E50A2404FCE50B3464
:1004700000FD740D121915AA82AB83122B7D740234
:100480001218E0E964016005750C018015781212FC
:100490001B3074051219151285921231477404121B
:1004A00018E0EEFAEFFB122C07A90C7423028892D5
:1004B00012889AE50A450B2274F4121921890A124E
:1004C00085F0700302858DE50A705C12859EE075EB
:1004D0000C08750D00780C702E121B34EAFCEBFD35
:1004E0009009A9E02402FAA3E03400FB122B6B74FC
:1004F000021218E0123471E9700812859874010232
:100500008588750A01801B121B34EAFCEBFD9009FB
:10051000A9E0240AFAA3E03400FB122B6B74021248
:1005200018E01285F060627A127B00122B8F8A0C21
:100530008B0DAE0CAF0DEE4F603F8E828F8374C17A
:10054000F0A3E50AF0750C10750D00780C121B3441
:100550009009A9E02402FCA3E03400FDEE2402FA95
:10056000EF3400FB122B6B74021218E0EEFAEFFB73
:10057000128598A3E0F9122B9B9009A9128592127B
:100580002C079009A9E4F0A3F07901800279000218
:100590008133E0FAA3E0FB229009A9E0F8A3E0F59B
:1005A0008388822274F21219217A207B001230FF94
:1005B0008A0A8B0BE4F50CF50D8B0FEA450F6016DC
:1005C000780A121B307A017B009009B1E0F9122CF5
:1005D0003D74041218E00286A5C082C0837A017BB4
:1005E000009009B1E0F9122C49D083D08202102B7F
:1005F0009009A9E0F8A3E0F9E8492274F212192160
:1006000074D01218CA8A0C8B0DECFEEDFF743E12EA
:100610001915128670122B83750E10750F00780E47
:10062000121B34AC0CAD0D7402121915AA82AB83E7
:10063000122B7174021218E0750C03750D00780C02
:10064000121B34EEFCEFFD741F121915AA82AB8346
:10065000122B7174021218E0851A82851B83AA82FC
:10066000AB831239BDE9FE780C121B34742F801B4A
:1006700012889A7C307D007900851A82851B83AAB6
:1006800082AB8322780C121B347422121915AC82AF
:10069000AD83AA0AAB0B122B7174021218E0EEF9AB
:1006A00074301218E07F060219F374E812192174ED
:1006B000B01218CAEAFEEBFF8C188D19890C746809
:1006C00012191512889A746A121915E0F50EA3E032
:1006D000F50F746C121915E0F512A3E0F513746EA2
:1006E000121915E0F50D746F121915E0F516A3E057
:1006F000F5177471121915E0F510A3E0F5117C30AF
:100700007D0079007420121915AA82AB83122B8305
:100710007514107515007814121B34EEFCEFFD747F
:1007200022121915AA82AB83122B7174021218E0DF
:100730007C107D007900851A82851B83AA82AB8399
:10074000122B837514077814121B34AC0AAD0B748A
:1007500002121915AA82AB83122B7174021218E0CF
:10076000750A07750B00780A121B34AC0EAD0F74B6
:1007700009121915AA82AB83122B7174021218E0A8
:10078000E50D6009740E12191574018006740E12BD
:100790001915E4F0E50C6009740F12191574018045
:1007A00006740F121915E4F07C107D007900EC122C
:1007B0001915AA82AB83122B83750A06780A121BBD
:1007C00034AC12AD137416121915AA82AB83122B16
:1007D0007174021218E0780A121B34AC16AD17744B
:1007E0001C121915AA82AB83122B7174021218E025
:1007F000750A10780A121B34AC18AD19743212192C
:1008000015AA82AB83122B7174021218E0851A822A
:10081000851B83AC82AD837430121915AA82AB8319
:1008200012399F7420121915AA82AB831239BDE9BF
:10083000FE780A121B347442121915AC82AD83740F
:1008400032121915AA82AB83122B6B74021218E0B4
:100850007410121915AC82AD837430121915AA8266
:10086000AB8312399F7420121915AA82AB831239F7
:10087000BDE9FF780A121B347442121915AC82AD1F
:1008800083AA10AB11122B7174021218E0EE4FF90B
:1008900074501218E07F100219F3E0F50AA3E0F596
:1008A0000B2274F712192179108C828D83E0F88A5B
:1008B000828B83E068F0A3AA82AB838C828D83A3B2
:1008C000AC82AD8319E970E102800074F212192143
:1008D00074D01218CA8C0C8D0D743E121915E0FEDE
:1008E000A3E0FF744012191512889A750E10750F47
:1008F00000780E121B34EAFCEBFD7402121915AAE3
:1009000082AB83122B7174021218E0750E08780EF8
:10091000121B34AC0CAD0D7412121915AA82AB83E4
:10092000122B7174021218E0750C08750D00780C0A
:10093000121B34EEFCEFFD741A121915AA82AB8358
:10094000122B7174021218E0851A82851B83AA8209
:10095000AB831239BDE9FE750C1002868474F41263
:100960001921EAFEEBFF890D750C008018122B8906
:10097000128DCAEBF0050CE50CC3950D5007128DD6
:10098000CAEAF0050CE50CC3950D40E1028133C0C5
:1009900082C0838A828B83E0F90285E974F612199A
:1009A000218982AE82E9A2E25004D2F08002C2F034
:1009B0008A828B83E054FCFCA3E0FDEC4E5403FCE4
:1009C000A2F0E433F50A750B007402780A1218B726
:1009D000EC450AFCE9131313541FF50A7403780A53
:1009E0001218B7EC450A8A828B83F0A3EDF07F02E0
:1009F0000219F374F6121921EA2420F50AEB3400E7
:100A0000F50B780A121B34EA2410FCEB3400FD12BB
:100A1000362D74021218E080D574E812192174ED95
:100A20001218CA7401121915ECF0A3ED128C7C8A0D
:100A3000188B197A107B00122C018A148B157A10EE
:100A40007B00122C018A128B13E5144515700302EA
:100A50008C58EA45137003028C587812121B34AC80
:100A600014AD15AA18AB191239C974021218E0E9AD
:100A7000F50C6003028C617A107B00122C018A0E47
:100A80008B0F7A107B00122C018A108B11E50E451A
:100A90000F7003028C39EA45117003028C39851AF4
:100AA00082851B83E0240FF8E43400F97A107B0080
:100AB000121837880A890BAE0AAF0BE0540FFCEE10
:100AC0004F70067E017F008007EC70047801800281
:100AD0007800EE14C454F0FA7401121915E02AFAE1
:100AE000A3E03400FBE8A2E0500B7810121B34ACFA
:100AF00014AD1580538C0D750A00850A82AC827482
:100B000003121915E5822CF8E5833400F9ECC3953E
:100B10000D500FEA2CF582EB128DD3E08882898389
:100B2000800FE50D650A88828983700474808001D6
:100B3000E4128DD840C47810121B34AC12AD13747B
:100B400005121915AA82AB831239CF74021218E06C
:100B50007C107D007900AA0EAB0F122B83750A0062
:100B6000750B00805874031219158582168583173A
:100B70007816121B34E50AC454F0F87403121915E0
:100B8000E028FCA3E03400FDAA0EAB0F1239CF74AD
:100B9000021218E0780E121B347405121915AC827B
:100BA000AD83AA18AB1912362D74021218E0E9F5BC
:100BB0000CE50A2401F50AE50B3400F50BEE24FFE1
